8=FIX.4.2|9=0100|35=A|49=1168|56=ICE|34=0000001|50=5|52=20150601-00:35:01.773|553=dt_fix_os|96=Starts123|98=0|108=60|10=072|8=FIX.4.2|9=0102|35=CG|49=1168|56=ICE|50=5|34=0000002|52=20150601-00:35:01.845|109=1168|553=dt_fix_trader|96=Starts123|10=192|8=FIX.4.2|9=0086|35=c|49=1168|56=ICE|34=0000003|50=5|52=20150601-00:35:01.845|320=0|48=0|321=3|167=FUT|10=174|8=FIX.4.2|9=0088|35=c|49=1168|56=ICE|34=0000004|50=5|52=20150601-00:35:01.845|320=0|48=0|321=100|167=OPT|10=019|8=FIX.4.2|9=0086|35=c|49=1168|56=ICE|34=0000005|50=5|52=20150601-00:35:01.845|320=1|48=1|321=3|167=FUT|10=178|8=FIX.4.2|9=0088|35=c|49=1168|56=ICE|34=0000006|50=5|52=20150601-00:35:01.845|320=1|48=1|321=100|167=OPT|10=023|8=FIX.4.2|9=0086|35=c|49=1168|56=ICE|34=0000007|50=5|52=20150601-00:35:01.845|320=2|48=2|321=3|167=FUT|10=182|8=FIX.4.2|9=0088|35=c|49=1168|56=ICE|34=0000008|50=5|52=20150601-00:35:01.845|320=2|48=2|321=100|167=OPT|10=027|8=FIX.4.2|9=0086|35=c|49=1168|56=ICE|34=0000009|50=5|52=20150601-00:35:01.845|320=3|48=3|321=3|167=FUT|10=186|8=FIX.4.2|9=0088|35=c|49=1168|56=ICE|34=0000010|50=5|52=20150601-00:35:01.845|320=3|48=3|321=100|167=OPT|10=022|8=FIX.4.2|9=0086|35=c|49=1168|56=ICE|34=0000011|50=5|52=20150601-00:35:01.845|320=4|48=4|321=3|167=FUT|10=181|8=FIX.4.2|9=0088|35=c|49=1168|56=ICE|34=0000012|50=5|52=20150601-00:35:01.845|320=4|48=4|321=100|167=OPT|10=026|8=FIX.4.2|9=0086|35=c|49=1168|56=ICE|34=0000013|50=5|52=20150601-00:35:01.845|320=5|48=5|321=3|167=FUT|10=185|8=FIX.4.2|9=0088|35=c|49=1168|56=ICE|34=0000014|50=5|52=20150601-00:35:01.845|320=5|48=5|321=100|167=OPT|10=030|8=FIX.4.2|9=0086|35=c|49=1168|56=ICE|34=0000015|50=5|52=20150601-00:35:01.845|320=6|48=6|321=3|167=FUT|10=189|8=FIX.4.2|9=0088|35=c|49=1168|56=ICE|34=0000016|50=5|52=20150601-00:35:01.845|320=6|48=6|321=100|167=OPT|10=034|8=FIX.4.2|9=0086|35=c|49=1168|56=ICE|34=0000017|50=5|52=20150601-00:35:01.845|320=7|48=7|321=3|167=FUT|10=193|8=FIX.4.2|9=0088|35=c|49=1168|56=ICE|34=0000018|50=5|52=20150601-00:35:01.845|320=7|48=7|321=100|167=OPT|10=038|8=FIX.4.2|9=0086|35=c|49=1168|56=ICE|34=0000019|50=5|52=20150601-00:35:01.845|320=8|48=8|321=3|167=FUT|10=197|8=FIX.4.2|9=0088|35=c|49=1168|56=ICE|34=0000020|50=5|52=20150601-00:35:01.845|320=8|48=8|321=100|167=OPT|10=033|8=FIX.4.2|9=0086|35=c|49=1168|56=ICE|34=0000021|50=5|52=20150601-00:35:01.845|320=9|48=9|321=3|167=FUT|10=192|8=FIX.4.2|9=0088|35=c|49=1168|56=ICE|34=0000022|50=5|52=20150601-00:35:01.845|320=9|48=9|321=100|167=OPT|10=037|8=FIX.4.2|9=0088|35=c|49=1168|56=ICE|34=0000023|50=5|52=20150601-00:35:01.845|320=10|48=10|321=3|167=FUT|10=020|8=FIX.4.2|9=0090|35=c|49=1168|56=ICE|34=0000024|50=5|52=20150601-00:35:01.845|320=10|48=10|321=100|167=OPT|10=112|8=FIX.4.2|9=0088|35=c|49=1168|56=ICE|34=0000025|50=5|52=20150601-00:35:01.845|320=11|48=11|321=3|167=FUT|10=024|8=FIX.4.2|9=0090|35=c|49=1168|56=ICE|34=0000026|50=5|52=20150601-00:35:01.845|320=11|48=11|321=100|167=OPT|10=116|8=FIX.4.2|9=0088|35=c|49=1168|56=ICE|34=0000027|50=5|52=20150601-00:35:01.845|320=12|48=12|321=3|167=FUT|10=028|8=FIX.4.2|9=0090|35=c|49=1168|56=ICE|34=0000028|50=5|52=20150601-00:35:01.845|320=12|48=12|321=100|167=OPT|10=120|8=FIX.4.2|9=0088|35=c|49=1168|56=ICE|34=0000029|50=5|52=20150601-00:35:01.845|320=13|48=13|321=3|167=FUT|10=032|8=FIX.4.2|9=0090|35=c|49=1168|56=ICE|34=0000030|50=5|52=20150601-00:35:01.845|320=13|48=13|321=100|167=OPT|10=115|8=FIX.4.2|9=0088|35=c|49=1168|56=ICE|34=0000031|50=5|52=20150601-00:35:01.845|320=14|48=14|321=3|167=FUT|10=027|8=FIX.4.2|9=0090|35=c|49=1168|56=ICE|34=0000032|50=5|52=20150601-00:35:01.845|320=14|48=14|321=100|167=OPT|10=119|8=FIX.4.2|9=0088|35=c|49=1168|56=ICE|34=0000033|50=5|52=20150601-00:35:01.845|320=15|48=15|321=3|167=FUT|10=031|8=FIX.4.2|9=0090|35=c|49=1168|56=ICE|34=0000034|50=5|52=20150601-00:35:01.845|320=15|48=15|321=100|167=OPT|10=123|8=FIX.4.2|9=0088|35=c|49=1168|56=ICE|34=0000035|50=5|52=20150601-00:35:01.845|320=16|48=16|321=3|167=FUT|10=035|8=FIX.4.2|9=0090|35=c|49=1168|56=ICE|34=0000036|50=5|52=20150601-00:35:01.845|320=16|48=16|321=100|167=OPT|10=127|8=FIX.4.2|9=0088|35=c|49=1168|56=ICE|34=0000037|50=5|52=20150601-00:35:01.845|320=17|48=17|321=3|167=FUT|10=039|8=FIX.4.2|9=0090|35=c|49=1168|56=ICE|34=0000038|50=5|52=20150601-00:35:01.845|320=17|48=17|321=100|167=OPT|10=131|8=FIX.4.2|9=0088|35=c|49=1168|56=ICE|34=0000039|50=5|52=20150601-00:35:01.845|320=18|48=18|321=3|167=FUT|10=043|8=FIX.4.2|9=0090|35=c|49=1168|56=ICE|34=0000040|50=5|52=20150601-00:35:01.845|320=18|48=18|321=100|167=OPT|10=126|8=FIX.4.2|9=0088|35=c|49=1168|56=ICE|34=0000041|50=5|52=20150601-00:35:01.845|320=19|48=19|321=3|167=FUT|10=038|8=FIX.4.2|9=0090|35=c|49=1168|56=ICE|34=0000042|50=5|52=20150601-00:35:01.845|320=19|48=19|321=100|167=OPT|10=130|8=FIX.4.2|9=0088|35=c|49=1168|56=ICE|34=0000043|50=5|52=20150601-00:35:01.845|320=20|48=20|321=3|167=FUT|10=024|8=FIX.4.2|9=0090|35=c|49=1168|56=ICE|34=0000044|50=5|52=20150601-00:35:01.845|320=20|48=20|321=100|167=OPT|10=116|8=FIX.4.2|9=0088|35=c|49=1168|56=ICE|34=0000045|50=5|52=20150601-00:35:01.845|320=21|48=21|321=3|167=FUT|10=028|8=FIX.4.2|9=0090|35=c|49=1168|56=ICE|34=0000046|50=5|52=20150601-00:35:01.845|320=21|48=21|321=100|167=OPT|10=120|8=FIX.4.2|9=0088|35=c|49=1168|56=ICE|34=0000047|50=5|52=20150601-00:35:01.845|320=22|48=22|321=3|167=FUT|10=032|8=FIX.4.2|9=0090|35=c|49=1168|56=ICE|34=0000048|50=5|52=20150601-00:35:01.845|320=22|48=22|321=100|167=OPT|10=124|8=FIX.4.2|9=0088|35=c|49=1168|56=ICE|34=0000049|50=5|52=20150601-00:35:01.845|320=23|48=23|321=3|167=FUT|10=036|8=FIX.4.2|9=0090|35=c|49=1168|56=ICE|34=0000050|50=5|52=20150601-00:35:01.845|320=23|48=23|321=100|167=OPT|10=119|8=FIX.4.2|9=0088|35=c|49=1168|56=ICE|34=0000051|50=5|52=20150601-00:35:01.845|320=24|48=24|321=3|167=FUT|10=031|8=FIX.4.2|9=0090|35=c|49=1168|56=ICE|34=0000052|50=5|52=20150601-00:35:01.845|320=24|48=24|321=100|167=OPT|10=123|8=FIX.4.2|9=0088|35=c|49=1168|56=ICE|34=0000053|50=5|52=20150601-00:35:01.845|320=25|48=25|321=3|167=FUT|10=035|8=FIX.4.2|9=0090|35=c|49=1168|56=ICE|34=0000054|50=5|52=20150601-00:35:01.845|320=25|48=25|321=100|167=OPT|10=127|8=FIX.4.2|9=0088|35=c|49=1168|56=ICE|34=0000055|50=5|52=20150601-00:35:01.845|320=26|48=26|321=3|167=FUT|10=039|8=FIX.4.2|9=0090|35=c|49=1168|56=ICE|34=0000056|50=5|52=20150601-00:35:01.845|320=26|48=26|321=100|167=OPT|10=131|8=FIX.4.2|9=0088|35=c|49=1168|56=ICE|34=0000057|50=5|52=20150601-00:35:01.845|320=27|48=27|321=3|167=FUT|10=043|8=FIX.4.2|9=0090|35=c|49=1168|56=ICE|34=0000058|50=5|52=20150601-00:35:01.845|320=27|48=27|321=100|167=OPT|10=135|8=FIX.4.2|9=0088|35=c|49=1168|56=ICE|34=0000059|50=5|52=20150601-00:35:01.845|320=28|48=28|321=3|167=FUT|10=047|8=FIX.4.2|9=0090|35=c|49=1168|56=ICE|34=0000060|50=5|52=20150601-00:35:01.845|320=28|48=28|321=100|167=OPT|10=130|8=FIX.4.2|9=0088|35=c|49=1168|56=ICE|34=0000061|50=5|52=20150601-00:35:01.845|320=29|48=29|321=3|167=FUT|10=042|8=FIX.4.2|9=0090|35=c|49=1168|56=ICE|34=0000062|50=5|52=20150601-00:35:01.845|320=29|48=29|321=100|167=OPT|10=134|8=FIX.4.2|9=0088|35=c|49=1168|56=ICE|34=0000063|50=5|52=20150601-00:35:01.845|320=30|48=30|321=3|167=FUT|10=028|8=FIX.4.2|9=0090|35=c|49=1168|56=ICE|34=0000064|50=5|52=20150601-00:35:01.845|320=30|48=30|321=100|167=OPT|10=120|8=FIX.4.2|9=0088|35=c|49=1168|56=ICE|34=0000065|50=5|52=20150601-00:35:01.845|320=31|48=31|321=3|167=FUT|10=032|8=FIX.4.2|9=0090|35=c|49=1168|56=ICE|34=0000066|50=5|52=20150601-00:35:01.845|320=31|48=31|321=100|167=OPT|10=124|8=FIX.4.2|9=0088|35=c|49=1168|56=ICE|34=0000067|50=5|52=20150601-00:35:01.845|320=32|48=32|321=3|167=FUT|10=036|8=FIX.4.2|9=0090|35=c|49=1168|56=ICE|34=0000068|50=5|52=20150601-00:35:01.845|320=32|48=32|321=100|167=OPT|10=128|8=FIX.4.2|9=0088|35=c|49=1168|56=ICE|34=0000069|50=5|52=20150601-00:35:01.845|320=33|48=33|321=3|167=FUT|10=040|8=FIX.4.2|9=0090|35=c|49=1168|56=ICE|34=0000070|50=5|52=20150601-00:35:01.845|320=33|48=33|321=100|167=OPT|10=123|8=FIX.4.2|9=0088|35=c|49=1168|56=ICE|34=0000071|50=5|52=20150601-00:35:01.845|320=34|48=34|321=3|167=FUT|10=035|8=FIX.4.2|9=0090|35=c|49=1168|56=ICE|34=0000072|50=5|52=20150601-00:35:01.845|320=34|48=34|321=100|167=OPT|10=127|8=FIX.4.2|9=0088|35=c|49=1168|56=ICE|34=0000073|50=5|52=20150601-00:35:01.845|320=35|48=35|321=3|167=FUT|10=039|8=FIX.4.2|9=0090|35=c|49=1168|56=ICE|34=0000074|50=5|52=20150601-00:35:01.845|320=35|48=35|321=100|167=OPT|10=131|8=FIX.4.2|9=0088|35=c|49=1168|56=ICE|34=0000075|50=5|52=20150601-00:35:01.845|320=36|48=36|321=3|167=FUT|10=043|8=FIX.4.2|9=0090|35=c|49=1168|56=ICE|34=0000076|50=5|52=20150601-00:35:01.845|320=36|48=36|321=100|167=OPT|10=135|8=FIX.4.2|9=0088|35=c|49=1168|56=ICE|34=0000077|50=5|52=20150601-00:35:01.845|320=37|48=37|321=3|167=FUT|10=047|8=FIX.4.2|9=0090|35=c|49=1168|56=ICE|34=0000078|50=5|52=20150601-00:35:01.845|320=37|48=37|321=100|167=OPT|10=139|8=FIX.4.2|9=0088|35=c|49=1168|56=ICE|34=0000079|50=5|52=20150601-00:35:01.845|320=38|48=38|321=3|167=FUT|10=051|8=FIX.4.2|9=0090|35=c|49=1168|56=ICE|34=0000080|50=5|52=20150601-00:35:01.845|320=38|48=38|321=100|167=OPT|10=134|8=FIX.4.2|9=0088|35=c|49=1168|56=ICE|34=0000081|50=5|52=20150601-00:35:01.845|320=39|48=39|321=3|167=FUT|10=046|8=FIX.4.2|9=0090|35=c|49=1168|56=ICE|34=0000082|50=5|52=20150601-00:35:01.845|320=39|48=39|321=100|167=OPT|10=138|8=FIX.4.2|9=0088|35=c|49=1168|56=ICE|34=0000083|50=5|52=20150601-00:35:01.845|320=40|48=40|321=3|167=FUT|10=032|8=FIX.4.2|9=0090|35=c|49=1168|56=ICE|34=0000084|50=5|52=20150601-00:35:01.845|320=40|48=40|321=100|167=OPT|10=124|8=FIX.4.2|9=0088|35=c|49=1168|56=ICE|34=0000085|50=5|52=20150601-00:35:01.845|320=41|48=41|321=3|167=FUT|10=036|8=FIX.4.2|9=0090|35=c|49=1168|56=ICE|34=0000086|50=5|52=20150601-00:35:01.845|320=41|48=41|321=100|167=OPT|10=128|8=FIX.4.2|9=0088|35=c|49=1168|56=ICE|34=0000087|50=5|52=20150601-00:35:01.845|320=42|48=42|321=3|167=FUT|10=040|8=FIX.4.2|9=0090|35=c|49=1168|56=ICE|34=0000088|50=5|52=20150601-00:35:01.845|320=42|48=42|321=100|167=OPT|10=132|8=FIX.4.2|9=0088|35=c|49=1168|56=ICE|34=0000089|50=5|52=20150601-00:35:01.845|320=43|48=43|321=3|167=FUT|10=044|8=FIX.4.2|9=0090|35=c|49=1168|56=ICE|34=0000090|50=5|52=20150601-00:35:01.845|320=43|48=43|321=100|167=OPT|10=127|8=FIX.4.2|9=0088|35=c|49=1168|56=ICE|34=0000091|50=5|52=20150601-00:35:01.845|320=44|48=44|321=3|167=FUT|10=039|8=FIX.4.2|9=0090|35=c|49=1168|56=ICE|34=0000092|50=5|52=20150601-00:35:01.845|320=44|48=44|321=100|167=OPT|10=131|8=FIX.4.2|9=0088|35=c|49=1168|56=ICE|34=0000093|50=5|52=20150601-00:35:01.845|320=45|48=45|321=3|167=FUT|10=043|8=FIX.4.2|9=0090|35=c|49=1168|56=ICE|34=0000094|50=5|52=20150601-00:35:01.845|320=45|48=45|321=100|167=OPT|10=135|8=FIX.4.2|9=0088|35=c|49=1168|56=ICE|34=0000095|50=5|52=20150601-00:35:01.845|320=46|48=46|321=3|167=FUT|10=047|8=FIX.4.2|9=0090|35=c|49=1168|56=ICE|34=0000096|50=5|52=20150601-00:35:01.845|320=46|48=46|321=100|167=OPT|10=139|8=FIX.4.2|9=0088|35=c|49=1168|56=ICE|34=0000097|50=5|52=20150601-00:35:01.845|320=47|48=47|321=3|167=FUT|10=051|8=FIX.4.2|9=0090|35=c|49=1168|56=ICE|34=0000098|50=5|52=20150601-00:35:01.845|320=47|48=47|321=100|167=OPT|10=143|8=FIX.4.2|9=0088|35=c|49=1168|56=ICE|34=0000099|50=5|52=20150601-00:35:01.845|320=48|48=48|321=3|167=FUT|10=055|8=FIX.4.2|9=0090|35=c|49=1168|56=ICE|34=0000100|50=5|52=20150601-00:35:01.845|320=48|48=48|321=100|167=OPT|10=129|8=FIX.4.2|9=0088|35=c|49=1168|56=ICE|34=0000101|50=5|52=20150601-00:35:01.845|320=49|48=49|321=3|167=FUT|10=041|8=FIX.4.2|9=0090|35=c|49=1168|56=ICE|34=0000102|50=5|52=20150601-00:35:01.845|320=49|48=49|321=100|167=OPT|10=133|8=FIX.4.2|9=0088|35=c|49=1168|56=ICE|34=0000103|50=5|52=20150601-00:35:01.845|320=50|48=50|321=3|167=FUT|10=027|8=FIX.4.2|9=0090|35=c|49=1168|56=ICE|34=0000104|50=5|52=20150601-00:35:01.845|320=50|48=50|321=100|167=OPT|10=119|8=FIX.4.2|9=0088|35=c|49=1168|56=ICE|34=0000105|50=5|52=20150601-00:35:01.845|320=51|48=51|321=3|167=FUT|10=031|8=FIX.4.2|9=0090|35=c|49=1168|56=ICE|34=0000106|50=5|52=20150601-00:35:01.845|320=51|48=51|321=100|167=OPT|10=123|8=FIX.4.2|9=0088|35=c|49=1168|56=ICE|34=0000107|50=5|52=20150601-00:35:01.845|320=52|48=52|321=3|167=FUT|10=035|8=FIX.4.2|9=0090|35=c|49=1168|56=ICE|34=0000108|50=5|52=20150601-00:35:01.845|320=52|48=52|321=100|167=OPT|10=127|8=FIX.4.2|9=0088|35=c|49=1168|56=ICE|34=0000109|50=5|52=20150601-00:35:01.845|320=53|48=53|321=3|167=FUT|10=039|8=FIX.4.2|9=0090|35=c|49=1168|56=ICE|34=0000110|50=5|52=20150601-00:35:01.845|320=53|48=53|321=100|167=OPT|10=122|8=FIX.4.2|9=0088|35=c|49=1168|56=ICE|34=0000111|50=5|52=20150601-00:35:01.845|320=54|48=54|321=3|167=FUT|10=034|8=FIX.4.2|9=0090|35=c|49=1168|56=ICE|34=0000112|50=5|52=20150601-00:35:01.845|320=54|48=54|321=100|167=OPT|10=126|8=FIX.4.2|9=0088|35=c|49=1168|56=ICE|34=0000113|50=5|52=20150601-00:35:01.845|320=55|48=55|321=3|167=FUT|10=038|8=FIX.4.2|9=0090|35=c|49=1168|56=ICE|34=0000114|50=5|52=20150601-00:35:01.845|320=55|48=55|321=100|167=OPT|10=130|8=FIX.4.2|9=0088|35=c|49=1168|56=ICE|34=0000115|50=5|52=20150601-00:35:01.845|320=56|48=56|321=3|167=FUT|10=042|8=FIX.4.2|9=0090|35=c|49=1168|56=ICE|34=0000116|50=5|52=20150601-00:35:01.845|320=56|48=56|321=100|167=OPT|10=134|8=FIX.4.2|9=0088|35=c|49=1168|56=ICE|34=0000117|50=5|52=20150601-00:35:01.845|320=57|48=57|321=3|167=FUT|10=046|8=FIX.4.2|9=0090|35=c|49=1168|56=ICE|34=0000118|50=5|52=20150601-00:35:01.845|320=57|48=57|321=100|167=OPT|10=138|8=FIX.4.2|9=0088|35=c|49=1168|56=ICE|34=0000119|50=5|52=20150601-00:35:01.845|320=58|48=58|321=3|167=FUT|10=050|8=FIX.4.2|9=0090|35=c|49=1168|56=ICE|34=0000120|50=5|52=20150601-00:35:01.845|320=58|48=58|321=100|167=OPT|10=133|8=FIX.4.2|9=0088|35=c|49=1168|56=ICE|34=0000121|50=5|52=20150601-00:35:01.845|320=59|48=59|321=3|167=FUT|10=045|8=FIX.4.2|9=0090|35=c|49=1168|56=ICE|34=0000122|50=5|52=20150601-00:35:01.845|320=59|48=59|321=100|167=OPT|10=137|8=FIX.4.2|9=0088|35=c|49=1168|56=ICE|34=0000123|50=5|52=20150601-00:35:01.845|320=60|48=60|321=3|167=FUT|10=031|8=FIX.4.2|9=0090|35=c|49=1168|56=ICE|34=0000124|50=5|52=20150601-00:35:01.845|320=60|48=60|321=100|167=OPT|10=123|8=FIX.4.2|9=0088|35=c|49=1168|56=ICE|34=0000125|50=5|52=20150601-00:35:01.845|320=61|48=61|321=3|167=FUT|10=035|8=FIX.4.2|9=0090|35=c|49=1168|56=ICE|34=0000126|50=5|52=20150601-00:35:01.845|320=61|48=61|321=100|167=OPT|10=127|8=FIX.4.2|9=0088|35=c|49=1168|56=ICE|34=0000127|50=5|52=20150601-00:35:01.845|320=62|48=62|321=3|167=FUT|10=039|8=FIX.4.2|9=0090|35=c|49=1168|56=ICE|34=0000128|50=5|52=20150601-00:35:01.845|320=62|48=62|321=100|167=OPT|10=131|8=FIX.4.2|9=0088|35=c|49=1168|56=ICE|34=0000129|50=5|52=20150601-00:35:01.845|320=63|48=63|321=3|167=FUT|10=043|8=FIX.4.2|9=0090|35=c|49=1168|56=ICE|34=0000130|50=5|52=20150601-00:35:01.845|320=63|48=63|321=100|167=OPT|10=126|8=FIX.4.2|9=0088|35=c|49=1168|56=ICE|34=0000131|50=5|52=20150601-00:35:01.845|320=64|48=64|321=3|167=FUT|10=038|8=FIX.4.2|9=0090|35=c|49=1168|56=ICE|34=0000132|50=5|52=20150601-00:35:01.845|320=64|48=64|321=100|167=OPT|10=130|8=FIX.4.2|9=0088|35=c|49=1168|56=ICE|34=0000133|50=5|52=20150601-00:35:01.845|320=65|48=65|321=3|167=FUT|10=042|8=FIX.4.2|9=0090|35=c|49=1168|56=ICE|34=0000134|50=5|52=20150601-00:35:01.845|320=65|48=65|321=100|167=OPT|10=134|8=FIX.4.2|9=0088|35=c|49=1168|56=ICE|34=0000135|50=5|52=20150601-00:35:01.845|320=66|48=66|321=3|167=FUT|10=046|8=FIX.4.2|9=0090|35=c|49=1168|56=ICE|34=0000136|50=5|52=20150601-00:35:01.845|320=66|48=66|321=100|167=OPT|10=138|8=FIX.4.2|9=0088|35=c|49=1168|56=ICE|34=0000137|50=5|52=20150601-00:35:01.845|320=67|48=67|321=3|167=FUT|10=050|8=FIX.4.2|9=0090|35=c|49=1168|56=ICE|34=0000138|50=5|52=20150601-00:35:01.845|320=67|48=67|321=100|167=OPT|10=142|8=FIX.4.2|9=0088|35=c|49=1168|56=ICE|34=0000139|50=5|52=20150601-00:35:01.845|320=68|48=68|321=3|167=FUT|10=054|8=FIX.4.2|9=0090|35=c|49=1168|56=ICE|34=0000140|50=5|52=20150601-00:35:01.845|320=68|48=68|321=100|167=OPT|10=137|8=FIX.4.2|9=0088|35=c|49=1168|56=ICE|34=0000141|50=5|52=20150601-00:35:01.845|320=69|48=69|321=3|167=FUT|10=049|8=FIX.4.2|9=0090|35=c|49=1168|56=ICE|34=0000142|50=5|52=20150601-00:35:01.845|320=69|48=69|321=100|167=OPT|10=141|8=FIX.4.2|9=0088|35=c|49=1168|56=ICE|34=0000143|50=5|52=20150601-00:35:01.845|320=70|48=70|321=3|167=FUT|10=035|8=FIX.4.2|9=0090|35=c|49=1168|56=ICE|34=0000144|50=5|52=20150601-00:35:01.845|320=70|48=70|321=100|167=OPT|10=127|8=FIX.4.2|9=0088|35=c|49=1168|56=ICE|34=0000145|50=5|52=20150601-00:35:01.845|320=71|48=71|321=3|167=FUT|10=039|8=FIX.4.2|9=0090|35=c|49=1168|56=ICE|34=0000146|50=5|52=20150601-00:35:01.845|320=71|48=71|321=100|167=OPT|10=131|8=FIX.4.2|9=0088|35=c|49=1168|56=ICE|34=0000147|50=5|52=20150601-00:35:01.845|320=72|48=72|321=3|167=FUT|10=043|8=FIX.4.2|9=0090|35=c|49=1168|56=ICE|34=0000148|50=5|52=20150601-00:35:01.845|320=72|48=72|321=100|167=OPT|10=135|8=FIX.4.2|9=0088|35=c|49=1168|56=ICE|34=0000149|50=5|52=20150601-00:35:01.845|320=73|48=73|321=3|167=FUT|10=047|8=FIX.4.2|9=0090|35=c|49=1168|56=ICE|34=0000150|50=5|52=20150601-00:35:01.845|320=73|48=73|321=100|167=OPT|10=130|8=FIX.4.2|9=0088|35=c|49=1168|56=ICE|34=0000151|50=5|52=20150601-00:35:01.845|320=74|48=74|321=3|167=FUT|10=042|8=FIX.4.2|9=0090|35=c|49=1168|56=ICE|34=0000152|50=5|52=20150601-00:35:01.845|320=74|48=74|321=100|167=OPT|10=134|8=FIX.4.2|9=0088|35=c|49=1168|56=ICE|34=0000153|50=5|52=20150601-00:35:01.845|320=75|48=75|321=3|167=FUT|10=046|8=FIX.4.2|9=0090|35=c|49=1168|56=ICE|34=0000154|50=5|52=20150601-00:35:01.845|320=75|48=75|321=100|167=OPT|10=138|8=FIX.4.2|9=0088|35=c|49=1168|56=ICE|34=0000155|50=5|52=20150601-00:35:01.845|320=76|48=76|321=3|167=FUT|10=050|8=FIX.4.2|9=0090|35=c|49=1168|56=ICE|34=0000156|50=5|52=20150601-00:35:01.845|320=76|48=76|321=100|167=OPT|10=142|8=FIX.4.2|9=0088|35=c|49=1168|56=ICE|34=0000157|50=5|52=20150601-00:35:01.845|320=77|48=77|321=3|167=FUT|10=054|8=FIX.4.2|9=0090|35=c|49=1168|56=ICE|34=0000158|50=5|52=20150601-00:35:01.845|320=77|48=77|321=100|167=OPT|10=146|8=FIX.4.2|9=0088|35=c|49=1168|56=ICE|34=0000159|50=5|52=20150601-00:35:01.845|320=78|48=78|321=3|167=FUT|10=058|8=FIX.4.2|9=0090|35=c|49=1168|56=ICE|34=0000160|50=5|52=20150601-00:35:01.845|320=78|48=78|321=100|167=OPT|10=141|8=FIX.4.2|9=0088|35=c|49=1168|56=ICE|34=0000161|50=5|52=20150601-00:35:01.845|320=79|48=79|321=3|167=FUT|10=053|8=FIX.4.2|9=0090|35=c|49=1168|56=ICE|34=0000162|50=5|52=20150601-00:35:01.845|320=79|48=79|321=100|167=OPT|10=145|8=FIX.4.2|9=0088|35=c|49=1168|56=ICE|34=0000163|50=5|52=20150601-00:35:01.845|320=80|48=80|321=3|167=FUT|10=039|8=FIX.4.2|9=0090|35=c|49=1168|56=ICE|34=0000164|50=5|52=20150601-00:35:01.845|320=80|48=80|321=100|167=OPT|10=131|8=FIX.4.2|9=0088|35=c|49=1168|56=ICE|34=0000165|50=5|52=20150601-00:35:01.845|320=81|48=81|321=3|167=FUT|10=043|8=FIX.4.2|9=0090|35=c|49=1168|56=ICE|34=0000166|50=5|52=20150601-00:35:01.845|320=81|48=81|321=100|167=OPT|10=135|8=FIX.4.2|9=0088|35=c|49=1168|56=ICE|34=0000167|50=5|52=20150601-00:35:01.845|320=82|48=82|321=3|167=FUT|10=047|8=FIX.4.2|9=0090|35=c|49=1168|56=ICE|34=0000168|50=5|52=20150601-00:35:01.845|320=82|48=82|321=100|167=OPT|10=139|8=FIX.4.2|9=0088|35=c|49=1168|56=ICE|34=0000169|50=5|52=20150601-00:35:01.845|320=83|48=83|321=3|167=FUT|10=051|8=FIX.4.2|9=0090|35=c|49=1168|56=ICE|34=0000170|50=5|52=20150601-00:35:01.845|320=83|48=83|321=100|167=OPT|10=134|8=FIX.4.2|9=0088|35=c|49=1168|56=ICE|34=0000171|50=5|52=20150601-00:35:01.845|320=84|48=84|321=3|167=FUT|10=046|8=FIX.4.2|9=0090|35=c|49=1168|56=ICE|34=0000172|50=5|52=20150601-00:35:01.845|320=84|48=84|321=100|167=OPT|10=138|8=FIX.4.2|9=0088|35=c|49=1168|56=ICE|34=0000173|50=5|52=20150601-00:35:01.845|320=85|48=85|321=3|167=FUT|10=050|8=FIX.4.2|9=0090|35=c|49=1168|56=ICE|34=0000174|50=5|52=20150601-00:35:01.845|320=85|48=85|321=100|167=OPT|10=142|8=FIX.4.2|9=0088|35=c|49=1168|56=ICE|34=0000175|50=5|52=20150601-00:35:01.845|320=86|48=86|321=3|167=FUT|10=054|8=FIX.4.2|9=0090|35=c|49=1168|56=ICE|34=0000176|50=5|52=20150601-00:35:01.845|320=86|48=86|321=100|167=OPT|10=146|8=FIX.4.2|9=0088|35=c|49=1168|56=ICE|34=0000177|50=5|52=20150601-00:35:01.845|320=87|48=87|321=3|167=FUT|10=058|8=FIX.4.2|9=0090|35=c|49=1168|56=ICE|34=0000178|50=5|52=20150601-00:35:01.845|320=87|48=87|321=100|167=OPT|10=150|8=FIX.4.2|9=0088|35=c|49=1168|56=ICE|34=0000179|50=5|52=20150601-00:35:01.845|320=88|48=88|321=3|167=FUT|10=062|8=FIX.4.2|9=0090|35=c|49=1168|56=ICE|34=0000180|50=5|52=20150601-00:35:01.845|320=88|48=88|321=100|167=OPT|10=145|8=FIX.4.2|9=0088|35=c|49=1168|56=ICE|34=0000181|50=5|52=20150601-00:35:01.845|320=89|48=89|321=3|167=FUT|10=057|8=FIX.4.2|9=0090|35=c|49=1168|56=ICE|34=0000182|50=5|52=20150601-00:35:01.845|320=89|48=89|321=100|167=OPT|10=149|8=FIX.4.2|9=0088|35=c|49=1168|56=ICE|34=0000183|50=5|52=20150601-00:35:01.845|320=90|48=90|321=3|167=FUT|10=043|8=FIX.4.2|9=0090|35=c|49=1168|56=ICE|34=0000184|50=5|52=20150601-00:35:01.845|320=90|48=90|321=100|167=OPT|10=135|8=FIX.4.2|9=0088|35=c|49=1168|56=ICE|34=0000185|50=5|52=20150601-00:35:01.845|320=91|48=91|321=3|167=FUT|10=047|8=FIX.4.2|9=0090|35=c|49=1168|56=ICE|34=0000186|50=5|52=20150601-00:35:01.845|320=91|48=91|321=100|167=OPT|10=139|8=FIX.4.2|9=0088|35=c|49=1168|56=ICE|34=0000187|50=5|52=20150601-00:35:01.845|320=92|48=92|321=3|167=FUT|10=051|8=FIX.4.2|9=0090|35=c|49=1168|56=ICE|34=0000188|50=5|52=20150601-00:35:01.845|320=92|48=92|321=100|167=OPT|10=143|8=FIX.4.2|9=0088|35=c|49=1168|56=ICE|34=0000189|50=5|52=20150601-00:35:01.845|320=93|48=93|321=3|167=FUT|10=055|8=FIX.4.2|9=0090|35=c|49=1168|56=ICE|34=0000190|50=5|52=20150601-00:35:01.845|320=93|48=93|321=100|167=OPT|10=138|8=FIX.4.2|9=0088|35=c|49=1168|56=ICE|34=0000191|50=5|52=20150601-00:35:01.845|320=94|48=94|321=3|167=FUT|10=050|8=FIX.4.2|9=0090|35=c|49=1168|56=ICE|34=0000192|50=5|52=20150601-00:35:01.845|320=94|48=94|321=100|167=OPT|10=142|8=FIX.4.2|9=0088|35=c|49=1168|56=ICE|34=0000193|50=5|52=20150601-00:35:01.845|320=95|48=95|321=3|167=FUT|10=054|8=FIX.4.2|9=0090|35=c|49=1168|56=ICE|34=0000194|50=5|52=20150601-00:35:01.845|320=95|48=95|321=100|167=OPT|10=146|8=FIX.4.2|9=0088|35=c|49=1168|56=ICE|34=0000195|50=5|52=20150601-00:35:01.845|320=96|48=96|321=3|167=FUT|10=058|8=FIX.4.2|9=0090|35=c|49=1168|56=ICE|34=0000196|50=5|52=20150601-00:35:01.845|320=96|48=96|321=100|167=OPT|10=150|8=FIX.4.2|9=0088|35=c|49=1168|56=ICE|34=0000197|50=5|52=20150601-00:35:01.845|320=97|48=97|321=3|167=FUT|10=062|8=FIX.4.2|9=0090|35=c|49=1168|56=ICE|34=0000198|50=5|52=20150601-00:35:01.845|320=97|48=97|321=100|167=OPT|10=154|8=FIX.4.2|9=0088|35=c|49=1168|56=ICE|34=0000199|50=5|52=20150601-00:35:01.845|320=98|48=98|321=3|167=FUT|10=066|8=FIX.4.2|9=0090|35=c|49=1168|56=ICE|34=0000200|50=5|52=20150601-00:35:01.845|320=98|48=98|321=100|167=OPT|10=140|8=FIX.4.2|9=0088|35=c|49=1168|56=ICE|34=0000201|50=5|52=20150601-00:35:01.845|320=99|48=99|321=3|167=FUT|10=052|8=FIX.4.2|9=0090|35=c|49=1168|56=ICE|34=0000202|50=5|52=20150601-00:35:01.845|320=99|48=99|321=100|167=OPT|10=144|8=FIX.4.2|9=0090|35=c|49=1168|56=ICE|34=0000203|50=5|52=20150601-00:35:01.845|320=100|48=100|321=3|167=FUT|10=109|8=FIX.4.2|9=0092|35=c|49=1168|56=ICE|34=0000204|50=5|52=20150601-00:35:01.845|320=100|48=100|321=100|167=OPT|10=210|8=FIX.4.2|9=0090|35=c|49=1168|56=ICE|34=0000205|50=5|52=20150601-00:35:01.845|320=101|48=101|321=3|167=FUT|10=113|8=FIX.4.2|9=0092|35=c|49=1168|56=ICE|34=0000206|50=5|52=20150601-00:35:01.845|320=101|48=101|321=100|167=OPT|10=214|8=FIX.4.2|9=0090|35=c|49=1168|56=ICE|34=0000207|50=5|52=20150601-00:35:01.845|320=102|48=102|321=3|167=FUT|10=117|8=FIX.4.2|9=0092|35=c|49=1168|56=ICE|34=0000208|50=5|52=20150601-00:35:01.845|320=102|48=102|321=100|167=OPT|10=218|8=FIX.4.2|9=0090|35=c|49=1168|56=ICE|34=0000209|50=5|52=20150601-00:35:01.845|320=103|48=103|321=3|167=FUT|10=121|8=FIX.4.2|9=0092|35=c|49=1168|56=ICE|34=0000210|50=5|52=20150601-00:35:01.845|320=103|48=103|321=100|167=OPT|10=213|8=FIX.4.2|9=0090|35=c|49=1168|56=ICE|34=0000211|50=5|52=20150601-00:35:01.845|320=104|48=104|321=3|167=FUT|10=116|8=FIX.4.2|9=0092|35=c|49=1168|56=ICE|34=0000212|50=5|52=20150601-00:35:01.845|320=104|48=104|321=100|167=OPT|10=217|8=FIX.4.2|9=0090|35=c|49=1168|56=ICE|34=0000213|50=5|52=20150601-00:35:01.845|320=105|48=105|321=3|167=FUT|10=120|8=FIX.4.2|9=0092|35=c|49=1168|56=ICE|34=0000214|50=5|52=20150601-00:35:01.845|320=105|48=105|321=100|167=OPT|10=221|8=FIX.4.2|9=0090|35=c|49=1168|56=ICE|34=0000215|50=5|52=20150601-00:35:01.845|320=106|48=106|321=3|167=FUT|10=124|8=FIX.4.2|9=0092|35=c|49=1168|56=ICE|34=0000216|50=5|52=20150601-00:35:01.845|320=106|48=106|321=100|167=OPT|10=225|8=FIX.4.2|9=0090|35=c|49=1168|56=ICE|34=0000217|50=5|52=20150601-00:35:01.845|320=107|48=107|321=3|167=FUT|10=128|8=FIX.4.2|9=0092|35=c|49=1168|56=ICE|34=0000218|50=5|52=20150601-00:35:01.845|320=107|48=107|321=100|167=OPT|10=229|8=FIX.4.2|9=0090|35=c|49=1168|56=ICE|34=0000219|50=5|52=20150601-00:35:01.845|320=108|48=108|321=3|167=FUT|10=132|8=FIX.4.2|9=0092|35=c|49=1168|56=ICE|34=0000220|50=5|52=20150601-00:35:01.845|320=108|48=108|321=100|167=OPT|10=224|8=FIX.4.2|9=0090|35=c|49=1168|56=ICE|34=0000221|50=5|52=20150601-00:35:01.845|320=109|48=109|321=3|167=FUT|10=127|8=FIX.4.2|9=0092|35=c|49=1168|56=ICE|34=0000222|50=5|52=20150601-00:35:01.845|320=109|48=109|321=100|167=OPT|10=228|8=FIX.4.2|9=0090|35=c|49=1168|56=ICE|34=0000223|50=5|52=20150601-00:35:01.845|320=110|48=110|321=3|167=FUT|10=113|8=FIX.4.2|9=0092|35=c|49=1168|56=ICE|34=0000224|50=5|52=20150601-00:35:01.845|320=110|48=110|321=100|167=OPT|10=214|8=FIX.4.2|9=0090|35=c|49=1168|56=ICE|34=0000225|50=5|52=20150601-00:35:01.845|320=111|48=111|321=3|167=FUT|10=117|8=FIX.4.2|9=0092|35=c|49=1168|56=ICE|34=0000226|50=5|52=20150601-00:35:01.845|320=111|48=111|321=100|167=OPT|10=218|8=FIX.4.2|9=0090|35=c|49=1168|56=ICE|34=0000227|50=5|52=20150601-00:35:01.845|320=112|48=112|321=3|167=FUT|10=121|8=FIX.4.2|9=0092|35=c|49=1168|56=ICE|34=0000228|50=5|52=20150601-00:35:01.845|320=112|48=112|321=100|167=OPT|10=222|8=FIX.4.2|9=0090|35=c|49=1168|56=ICE|34=0000229|50=5|52=20150601-00:35:01.845|320=113|48=113|321=3|167=FUT|10=125|8=FIX.4.2|9=0092|35=c|49=1168|56=ICE|34=0000230|50=5|52=20150601-00:35:01.845|320=113|48=113|321=100|167=OPT|10=217|8=FIX.4.2|9=0090|35=c|49=1168|56=ICE|34=0000231|50=5|52=20150601-00:35:01.845|320=114|48=114|321=3|167=FUT|10=120|8=FIX.4.2|9=0092|35=c|49=1168|56=ICE|34=0000232|50=5|52=20150601-00:35:01.845|320=114|48=114|321=100|167=OPT|10=221|8=FIX.4.2|9=0090|35=c|49=1168|56=ICE|34=0000233|50=5|52=20150601-00:35:01.845|320=115|48=115|321=3|167=FUT|10=124|8=FIX.4.2|9=0092|35=c|49=1168|56=ICE|34=0000234|50=5|52=20150601-00:35:01.845|320=115|48=115|321=100|167=OPT|10=225|8=FIX.4.2|9=0090|35=c|49=1168|56=ICE|34=0000235|50=5|52=20150601-00:35:01.845|320=116|48=116|321=3|167=FUT|10=128|8=FIX.4.2|9=0092|35=c|49=1168|56=ICE|34=0000236|50=5|52=20150601-00:35:01.845|320=116|48=116|321=100|167=OPT|10=229|8=FIX.4.2|9=0090|35=c|49=1168|56=ICE|34=0000237|50=5|52=20150601-00:35:01.845|320=200|48=200|321=3|167=FUT|10=118|8=FIX.4.2|9=0092|35=c|49=1168|56=ICE|34=0000238|50=5|52=20150601-00:35:01.845|320=200|48=200|321=100|167=OPT|10=219|8=FIX.4.2|9=0090|35=c|49=1168|56=ICE|34=0000239|50=5|52=20150601-00:35:01.845|320=201|48=201|321=3|167=FUT|10=122|8=FIX.4.2|9=0092|35=c|49=1168|56=ICE|34=0000240|50=5|52=20150601-00:35:01.845|320=201|48=201|321=100|167=OPT|10=214|8=FIX.4.2|9=0090|35=c|49=1168|56=ICE|34=0000241|50=5|52=20150601-00:35:01.845|320=202|48=202|321=3|167=FUT|10=117|8=FIX.4.2|9=0092|35=c|49=1168|56=ICE|34=0000242|50=5|52=20150601-00:35:01.845|320=202|48=202|321=100|167=OPT|10=218|8=FIX.4.2|9=0090|35=c|49=1168|56=ICE|34=0000243|50=5|52=20150601-00:35:01.845|320=203|48=203|321=3|167=FUT|10=121|8=FIX.4.2|9=0092|35=c|49=1168|56=ICE|34=0000244|50=5|52=20150601-00:35:01.845|320=203|48=203|321=100|167=OPT|10=222|8=FIX.4.2|9=0090|35=c|49=1168|56=ICE|34=0000245|50=5|52=20150601-00:35:01.845|320=204|48=204|321=3|167=FUT|10=125|8=FIX.4.2|9=0092|35=c|49=1168|56=ICE|34=0000246|50=5|52=20150601-00:35:01.845|320=204|48=204|321=100|167=OPT|10=226|8=FIX.4.2|9=0090|35=c|49=1168|56=ICE|34=0000247|50=5|52=20150601-00:35:01.845|320=205|48=205|321=3|167=FUT|10=129|8=FIX.4.2|9=0092|35=c|49=1168|56=ICE|34=0000248|50=5|52=20150601-00:35:01.845|320=205|48=205|321=100|167=OPT|10=230|8=FIX.4.2|9=0090|35=c|49=1168|56=ICE|34=0000249|50=5|52=20150601-00:35:01.845|320=206|48=206|321=3|167=FUT|10=133|8=FIX.4.2|9=0092|35=c|49=1168|56=ICE|34=0000250|50=5|52=20150601-00:35:01.845|320=206|48=206|321=100|167=OPT|10=225|8=FIX.4.2|9=0090|35=c|49=1168|56=ICE|34=0000251|50=5|52=20150601-00:35:01.845|320=207|48=207|321=3|167=FUT|10=128|8=FIX.4.2|9=0092|35=c|49=1168|56=ICE|34=0000252|50=5|52=20150601-00:35:01.845|320=207|48=207|321=100|167=OPT|10=229|8=FIX.4.2|9=0090|35=c|49=1168|56=ICE|34=0000253|50=5|52=20150601-00:35:01.845|320=208|48=208|321=3|167=FUT|10=132|8=FIX.4.2|9=0092|35=c|49=1168|56=ICE|34=0000254|50=5|52=20150601-00:35:01.845|320=208|48=208|321=100|167=OPT|10=233|8=FIX.4.2|9=0090|35=c|49=1168|56=ICE|34=0000255|50=5|52=20150601-00:35:01.845|320=209|48=209|321=3|167=FUT|10=136|8=FIX.4.2|9=0092|35=c|49=1168|56=ICE|34=0000256|50=5|52=20150601-00:35:01.845|320=209|48=209|321=100|167=OPT|10=237|8=FIX.4.2|9=0090|35=c|49=1168|56=ICE|34=0000257|50=5|52=20150601-00:35:01.845|320=210|48=210|321=3|167=FUT|10=122|8=FIX.4.2|9=0092|35=c|49=1168|56=ICE|34=0000258|50=5|52=20150601-00:35:01.845|320=210|48=210|321=100|167=OPT|10=223|8=FIX.4.2|9=0090|35=c|49=1168|56=ICE|34=0000259|50=5|52=20150601-00:35:01.845|320=314|48=314|321=3|167=FUT|10=134|8=FIX.4.2|9=0092|35=c|49=1168|56=ICE|34=0000260|50=5|52=20150601-00:35:01.845|320=314|48=314|321=100|167=OPT|10=226|8=FIX.4.2|9=0090|35=c|49=1168|56=ICE|34=0000261|50=5|52=20150601-00:35:01.845|320=315|48=315|321=3|167=FUT|10=129|8=FIX.4.2|9=0092|35=c|49=1168|56=ICE|34=0000262|50=5|52=20150601-00:35:01.845|320=315|48=315|321=100|167=OPT|10=230|8=FIX.4.2|9=0090|35=c|49=1168|56=ICE|34=0000263|50=5|52=20150601-00:35:01.845|320=316|48=316|321=3|167=FUT|10=133|8=FIX.4.2|9=0092|35=c|49=1168|56=ICE|34=0000264|50=5|52=20150601-00:35:01.845|320=316|48=316|321=100|167=OPT|10=234|8=FIX.4.2|9=0090|35=c|49=1168|56=ICE|34=0000265|50=5|52=20150601-00:35:01.845|320=317|48=317|321=3|167=FUT|10=137|8=FIX.4.2|9=0092|35=c|49=1168|56=ICE|34=0000266|50=5|52=20150601-00:35:01.845|320=317|48=317|321=100|167=OPT|10=238|8=FIX.4.2|9=0061|35=0|49=1168|56=ICE|34=0000267|50=5|52=20150601-00:35:31.000|10=195|8=FIX.4.2|9=0061|35=0|49=1168|56=ICE|34=0000268|50=5|52=20150601-00:36:01.000|10=194|8=FIX.4.2|9=0061|35=0|49=1168|56=ICE|34=0000269|50=5|52=20150601-00:36:31.000|10=198|8=FIX.4.2|9=0061|35=0|49=1168|56=ICE|34=0000270|50=5|52=20150601-00:37:01.000|10=188|8=FIX.4.2|9=0061|35=0|49=1168|56=ICE|34=0000271|50=5|52=20150601-00:37:31.000|10=192|8=FIX.4.2|9=0061|35=0|49=1168|56=ICE|34=0000272|50=5|52=20150601-00:38:01.000|10=191|8=FIX.4.2|9=0061|35=0|49=1168|56=ICE|34=0000273|50=5|52=20150601-00:38:31.000|10=195|8=FIX.4.2|9=0061|35=0|49=1168|56=ICE|34=0000274|50=5|52=20150601-00:39:01.000|10=194|8=FIX.4.2|9=0061|35=0|49=1168|56=ICE|34=0000275|50=5|52=20150601-00:39:31.000|10=198|8=FIX.4.2|9=0061|35=0|49=1168|56=ICE|34=0000276|50=5|52=20150601-00:40:01.000|10=188|8=FIX.4.2|9=0061|35=0|49=1168|56=ICE|34=0000277|50=5|52=20150601-00:40:31.000|10=192|8=FIX.4.2|9=0061|35=0|49=1168|56=ICE|34=0000278|50=5|52=20150601-00:41:01.000|10=191|8=FIX.4.2|9=0061|35=0|49=1168|56=ICE|34=0000279|50=5|52=20150601-00:41:31.000|10=195|8=FIX.4.2|9=0061|35=0|49=1168|56=ICE|34=0000280|50=5|52=20150601-00:42:01.000|10=185|8=FIX.4.2|9=0061|35=0|49=1168|56=ICE|34=0000281|50=5|52=20150601-00:42:31.000|10=189|8=FIX.4.2|9=0061|35=0|49=1168|56=ICE|34=0000282|50=5|52=20150601-00:43:01.000|10=188|8=FIX.4.2|9=0061|35=0|49=1168|56=ICE|34=0000283|50=5|52=20150601-00:43:31.000|10=192|8=FIX.4.2|9=0061|35=0|49=1168|56=ICE|34=0000284|50=5|52=20150601-00:44:01.000|10=191|8=FIX.4.2|9=0061|35=0|49=1168|56=ICE|34=0000285|50=5|52=20150601-00:44:31.000|10=195|8=FIX.4.2|9=0061|35=0|49=1168|56=ICE|34=0000286|50=5|52=20150601-00:45:01.000|10=194|8=FIX.4.2|9=0061|35=0|49=1168|56=ICE|34=0000287|50=5|52=20150601-00:45:31.000|10=198|8=FIX.4.2|9=0061|35=0|49=1168|56=ICE|34=0000288|50=5|52=20150601-00:46:01.000|10=197|8=FIX.4.2|9=0061|35=0|49=1168|56=ICE|34=0000289|50=5|52=20150601-00:46:31.000|10=201|8=FIX.4.2|9=0061|35=0|49=1168|56=ICE|34=0000290|50=5|52=20150601-00:47:01.000|10=191|8=FIX.4.2|9=0061|35=0|49=1168|56=ICE|34=0000291|50=5|52=20150601-00:47:31.000|10=195|8=FIX.4.2|9=0061|35=0|49=1168|56=ICE|34=0000292|50=5|52=20150601-00:48:01.000|10=194|8=FIX.4.2|9=0061|35=0|49=1168|56=ICE|34=0000293|50=5|52=20150601-00:48:31.000|10=198|8=FIX.4.2|9=0061|35=0|49=1168|56=ICE|34=0000294|50=5|52=20150601-00:49:01.000|10=197|8=FIX.4.2|9=0061|35=0|49=1168|56=ICE|34=0000295|50=5|52=20150601-00:49:31.000|10=201|8=FIX.4.2|9=0061|35=0|49=1168|56=ICE|34=0000296|50=5|52=20150601-00:50:01.000|10=191|8=FIX.4.2|9=0061|35=0|49=1168|56=ICE|34=0000297|50=5|52=20150601-00:50:31.000|10=195|8=FIX.4.2|9=0061|35=0|49=1168|56=ICE|34=0000298|50=5|52=20150601-00:51:01.000|10=194|8=FIX.4.2|9=0061|35=0|49=1168|56=ICE|34=0000299|50=5|52=20150601-00:51:31.000|10=198|8=FIX.4.2|9=0061|35=0|49=1168|56=ICE|34=0000300|50=5|52=20150601-00:52:01.000|10=179|8=FIX.4.2|9=0061|35=0|49=1168|56=ICE|34=0000301|50=5|52=20150601-00:52:31.000|10=183|8=FIX.4.2|9=0061|35=0|49=1168|56=ICE|34=0000302|50=5|52=20150601-00:53:01.000|10=182|8=FIX.4.2|9=0061|35=0|49=1168|56=ICE|34=0000303|50=5|52=20150601-00:53:31.000|10=186|8=FIX.4.2|9=0061|35=0|49=1168|56=ICE|34=0000304|50=5|52=20150601-00:54:01.000|10=185|8=FIX.4.2|9=0061|35=0|49=1168|56=ICE|34=0000305|50=5|52=20150601-00:54:31.000|10=189|8=FIX.4.2|9=0061|35=0|49=1168|56=ICE|34=0000306|50=5|52=20150601-00:55:01.000|10=188|8=FIX.4.2|9=0061|35=0|49=1168|56=ICE|34=0000307|50=5|52=20150601-00:55:31.000|10=192|8=FIX.4.2|9=0061|35=0|49=1168|56=ICE|34=0000308|50=5|52=20150601-00:56:01.000|10=191|8=FIX.4.2|9=0061|35=0|49=1168|56=ICE|34=0000309|50=5|52=20150601-00:56:31.000|10=195|8=FIX.4.2|9=0061|35=0|49=1168|56=ICE|34=0000310|50=5|52=20150601-00:57:01.000|10=185|8=FIX.4.2|9=0061|35=0|49=1168|56=ICE|34=0000311|50=5|52=20150601-00:57:31.000|10=189|8=FIX.4.2|9=0061|35=0|49=1168|56=ICE|34=0000312|50=5|52=20150601-00:58:01.000|10=188|8=FIX.4.2|9=0061|35=0|49=1168|56=ICE|34=0000313|50=5|52=20150601-00:58:31.000|10=192|8=FIX.4.2|9=0061|35=0|49=1168|56=ICE|34=0000314|50=5|52=20150601-00:59:01.000|10=191|8=FIX.4.2|9=0061|35=0|49=1168|56=ICE|34=0000315|50=5|52=20150601-00:59:31.000|10=195|8=FIX.4.2|9=0061|35=0|49=1168|56=ICE|34=0000316|50=5|52=20150601-01:00:01.000|10=180|8=FIX.4.2|9=0061|35=0|49=1168|56=ICE|34=0000317|50=5|52=20150601-01:00:31.000|10=184|8=FIX.4.2|9=0061|35=0|49=1168|56=ICE|34=0000318|50=5|52=20150601-01:01:01.000|10=183|8=FIX.4.2|9=0061|35=0|49=1168|56=ICE|34=0000319|50=5|52=20150601-01:01:31.000|10=187|8=FIX.4.2|9=0061|35=0|49=1168|56=ICE|34=0000320|50=5|52=20150601-01:02:01.000|10=177|8=FIX.4.2|9=0061|35=0|49=1168|56=ICE|34=0000321|50=5|52=20150601-01:02:31.000|10=181|8=FIX.4.2|9=0061|35=0|49=1168|56=ICE|34=0000322|50=5|52=20150601-01:03:01.000|10=180|8=FIX.4.2|9=0061|35=0|49=1168|56=ICE|34=0000323|50=5|52=20150601-01:03:31.000|10=184|8=FIX.4.2|9=0061|35=0|49=1168|56=ICE|34=0000324|50=5|52=20150601-01:04:01.000|10=183|8=FIX.4.2|9=0061|35=0|49=1168|56=ICE|34=0000325|50=5|52=20150601-01:04:31.000|10=187|8=FIX.4.2|9=0061|35=0|49=1168|56=ICE|34=0000326|50=5|52=20150601-01:05:01.000|10=186|8=FIX.4.2|9=0061|35=0|49=1168|56=ICE|34=0000327|50=5|52=20150601-01:05:31.000|10=190|8=FIX.4.2|9=0061|35=0|49=1168|56=ICE|34=0000328|50=5|52=20150601-01:06:01.000|10=189|8=FIX.4.2|9=0061|35=0|49=1168|56=ICE|34=0000329|50=5|52=20150601-01:06:31.000|10=193|8=FIX.4.2|9=0061|35=0|49=1168|56=ICE|34=0000330|50=5|52=20150601-01:07:01.000|10=183|8=FIX.4.2|9=0061|35=0|49=1168|56=ICE|34=0000331|50=5|52=20150601-01:07:31.000|10=187|8=FIX.4.2|9=0061|35=0|49=1168|56=ICE|34=0000332|50=5|52=20150601-01:08:01.000|10=186|8=FIX.4.2|9=0061|35=0|49=1168|56=ICE|34=0000333|50=5|52=20150601-01:08:31.000|10=190|8=FIX.4.2|9=0061|35=0|49=1168|56=ICE|34=0000334|50=5|52=20150601-01:09:01.000|10=189|8=FIX.4.2|9=0061|35=0|49=1168|56=ICE|34=0000335|50=5|52=20150601-01:09:31.000|10=193|8=FIX.4.2|9=0061|35=0|49=1168|56=ICE|34=0000336|50=5|52=20150601-01:10:01.000|10=183|8=FIX.4.2|9=0061|35=0|49=1168|56=ICE|34=0000337|50=5|52=20150601-01:10:31.000|10=187|8=FIX.4.2|9=0061|35=0|49=1168|56=ICE|34=0000338|50=5|52=20150601-01:11:01.000|10=186|8=FIX.4.2|9=0061|35=0|49=1168|56=ICE|34=0000339|50=5|52=20150601-01:11:31.000|10=190|8=FIX.4.2|9=0061|35=0|49=1168|56=ICE|34=0000340|50=5|52=20150601-01:12:01.000|10=180|8=FIX.4.2|9=0061|35=0|49=1168|56=ICE|34=0000341|50=5|52=20150601-01:12:31.000|10=184|8=FIX.4.2|9=0061|35=0|49=1168|56=ICE|34=0000342|50=5|52=20150601-01:13:01.000|10=183|8=FIX.4.2|9=0061|35=0|49=1168|56=ICE|34=0000343|50=5|52=20150601-01:13:31.000|10=187|8=FIX.4.2|9=0061|35=0|49=1168|56=ICE|34=0000344|50=5|52=20150601-01:14:01.000|10=186|8=FIX.4.2|9=0061|35=0|49=1168|56=ICE|34=0000345|50=5|52=20150601-01:14:31.000|10=190|8=FIX.4.2|9=0061|35=0|49=1168|56=ICE|34=0000346|50=5|52=20150601-01:15:01.000|10=189|8=FIX.4.2|9=0061|35=0|49=1168|56=ICE|34=0000347|50=5|52=20150601-01:15:31.000|10=193|8=FIX.4.2|9=0061|35=0|49=1168|56=ICE|34=0000348|50=5|52=20150601-01:16:01.000|10=192|8=FIX.4.2|9=0061|35=0|49=1168|56=ICE|34=0000349|50=5|52=20150601-01:16:31.000|10=196|8=FIX.4.2|9=0061|35=0|49=1168|56=ICE|34=0000350|50=5|52=20150601-01:17:01.000|10=186|8=FIX.4.2|9=0061|35=0|49=1168|56=ICE|34=0000351|50=5|52=20150601-01:17:31.000|10=190|8=FIX.4.2|9=0061|35=0|49=1168|56=ICE|34=0000352|50=5|52=20150601-01:18:01.000|10=189|8=FIX.4.2|9=0061|35=0|49=1168|56=ICE|34=0000353|50=5|52=20150601-01:18:31.000|10=193|8=FIX.4.2|9=0061|35=0|49=1168|56=ICE|34=0000354|50=5|52=20150601-01:19:01.000|10=192|8=FIX.4.2|9=0061|35=0|49=1168|56=ICE|34=0000355|50=5|52=20150601-01:19:31.000|10=196|8=FIX.4.2|9=0061|35=0|49=1168|56=ICE|34=0000356|50=5|52=20150601-01:20:01.000|10=186|8=FIX.4.2|9=0061|35=0|49=1168|56=ICE|34=0000357|50=5|52=20150601-01:20:31.000|10=190|8=FIX.4.2|9=0061|35=0|49=1168|56=ICE|34=0000358|50=5|52=20150601-01:21:01.000|10=189|8=FIX.4.2|9=0061|35=0|49=1168|56=ICE|34=0000359|50=5|52=20150601-01:21:31.000|10=193|8=FIX.4.2|9=0061|35=0|49=1168|56=ICE|34=0000360|50=5|52=20150601-01:22:01.000|10=183|8=FIX.4.2|9=0061|35=0|49=1168|56=ICE|34=0000361|50=5|52=20150601-01:22:31.000|10=187|8=FIX.4.2|9=0061|35=0|49=1168|56=ICE|34=0000362|50=5|52=20150601-01:23:01.000|10=186|8=FIX.4.2|9=0061|35=0|49=1168|56=ICE|34=0000363|50=5|52=20150601-01:23:31.000|10=190|8=FIX.4.2|9=0061|35=0|49=1168|56=ICE|34=0000364|50=5|52=20150601-01:24:01.000|10=189|8=FIX.4.2|9=0061|35=0|49=1168|56=ICE|34=0000365|50=5|52=20150601-01:24:31.000|10=193|8=FIX.4.2|9=0061|35=0|49=1168|56=ICE|34=0000366|50=5|52=20150601-01:25:01.000|10=192|8=FIX.4.2|9=0061|35=0|49=1168|56=ICE|34=0000367|50=5|52=20150601-01:25:31.000|10=196|8=FIX.4.2|9=0061|35=0|49=1168|56=ICE|34=0000368|50=5|52=20150601-01:26:01.000|10=195|8=FIX.4.2|9=0061|35=0|49=1168|56=ICE|34=0000369|50=5|52=20150601-01:26:31.000|10=199|8=FIX.4.2|9=0061|35=0|49=1168|56=ICE|34=0000370|50=5|52=20150601-01:27:01.000|10=189|8=FIX.4.2|9=0061|35=0|49=1168|56=ICE|34=0000371|50=5|52=20150601-01:27:31.000|10=193|8=FIX.4.2|9=0061|35=0|49=1168|56=ICE|34=0000372|50=5|52=20150601-01:28:01.000|10=192|8=FIX.4.2|9=0061|35=0|49=1168|56=ICE|34=0000373|50=5|52=20150601-01:28:31.000|10=196|8=FIX.4.2|9=0061|35=0|49=1168|56=ICE|34=0000374|50=5|52=20150601-01:29:01.000|10=195|8=FIX.4.2|9=0061|35=0|49=1168|56=ICE|34=0000375|50=5|52=20150601-01:29:31.000|10=199|8=FIX.4.2|9=0061|35=0|49=1168|56=ICE|34=0000376|50=5|52=20150601-01:30:01.000|10=189|8=FIX.4.2|9=0061|35=0|49=1168|56=ICE|34=0000377|50=5|52=20150601-01:30:31.000|10=193|8=FIX.4.2|9=0061|35=0|49=1168|56=ICE|34=0000378|50=5|52=20150601-01:31:01.000|10=192|8=FIX.4.2|9=0061|35=0|49=1168|56=ICE|34=0000379|50=5|52=20150601-01:31:31.000|10=196|8=FIX.4.2|9=0061|35=0|49=1168|56=ICE|34=0000380|50=5|52=20150601-01:32:01.000|10=186|8=FIX.4.2|9=0061|35=0|49=1168|56=ICE|34=0000381|50=5|52=20150601-01:32:31.000|10=190|8=FIX.4.2|9=0061|35=0|49=1168|56=ICE|34=0000382|50=5|52=20150601-01:33:01.000|10=189|8=FIX.4.2|9=0061|35=0|49=1168|56=ICE|34=0000383|50=5|52=20150601-01:33:31.000|10=193|8=FIX.4.2|9=0061|35=0|49=1168|56=ICE|34=0000384|50=5|52=20150601-01:34:01.000|10=192|8=FIX.4.2|9=0061|35=0|49=1168|56=ICE|34=0000385|50=5|52=20150601-01:34:31.000|10=196|8=FIX.4.2|9=0061|35=0|49=1168|56=ICE|34=0000386|50=5|52=20150601-01:35:01.000|10=195|8=FIX.4.2|9=0061|35=0|49=1168|56=ICE|34=0000387|50=5|52=20150601-01:35:31.000|10=199|8=FIX.4.2|9=0061|35=0|49=1168|56=ICE|34=0000388|50=5|52=20150601-01:36:01.000|10=198|8=FIX.4.2|9=0061|35=0|49=1168|56=ICE|34=0000389|50=5|52=20150601-01:36:31.000|10=202|8=FIX.4.2|9=0061|35=0|49=1168|56=ICE|34=0000390|50=5|52=20150601-01:37:01.000|10=192|8=FIX.4.2|9=0061|35=0|49=1168|56=ICE|34=0000391|50=5|52=20150601-01:37:31.000|10=196|8=FIX.4.2|9=0061|35=0|49=1168|56=ICE|34=0000392|50=5|52=20150601-01:38:01.000|10=195|8=FIX.4.2|9=0061|35=0|49=1168|56=ICE|34=0000393|50=5|52=20150601-01:38:31.000|10=199|8=FIX.4.2|9=0061|35=0|49=1168|56=ICE|34=0000394|50=5|52=20150601-01:39:01.000|10=198|8=FIX.4.2|9=0061|35=0|49=1168|56=ICE|34=0000395|50=5|52=20150601-01:39:31.000|10=202|8=FIX.4.2|9=0061|35=0|49=1168|56=ICE|34=0000396|50=5|52=20150601-01:40:01.000|10=192|8=FIX.4.2|9=0061|35=0|49=1168|56=ICE|34=0000397|50=5|52=20150601-01:40:31.000|10=196|8=FIX.4.2|9=0061|35=0|49=1168|56=ICE|34=0000398|50=5|52=20150601-01:41:01.000|10=195|8=FIX.4.2|9=0061|35=0|49=1168|56=ICE|34=0000399|50=5|52=20150601-01:41:31.000|10=199|8=FIX.4.2|9=0061|35=0|49=1168|56=ICE|34=0000400|50=5|52=20150601-01:42:01.000|10=180|8=FIX.4.2|9=0061|35=0|49=1168|56=ICE|34=0000401|50=5|52=20150601-01:42:31.000|10=184|8=FIX.4.2|9=0061|35=0|49=1168|56=ICE|34=0000402|50=5|52=20150601-01:43:01.000|10=183|8=FIX.4.2|9=0061|35=0|49=1168|56=ICE|34=0000403|50=5|52=20150601-01:43:31.000|10=187|8=FIX.4.2|9=0061|35=0|49=1168|56=ICE|34=0000404|50=5|52=20150601-01:44:01.000|10=186|8=FIX.4.2|9=0061|35=0|49=1168|56=ICE|34=0000405|50=5|52=20150601-01:44:31.000|10=190|8=FIX.4.2|9=0061|35=0|49=1168|56=ICE|34=0000406|50=5|52=20150601-01:45:01.000|10=189|8=FIX.4.2|9=0061|35=0|49=1168|56=ICE|34=0000407|50=5|52=20150601-01:45:31.000|10=193|8=FIX.4.2|9=0061|35=0|49=1168|56=ICE|34=0000408|50=5|52=20150601-01:46:01.000|10=192|8=FIX.4.2|9=0061|35=0|49=1168|56=ICE|34=0000409|50=5|52=20150601-01:46:31.000|10=196|8=FIX.4.2|9=0061|35=0|49=1168|56=ICE|34=0000410|50=5|52=20150601-01:47:01.000|10=186|8=FIX.4.2|9=0061|35=0|49=1168|56=ICE|34=0000411|50=5|52=20150601-01:47:31.000|10=190|8=FIX.4.2|9=0061|35=0|49=1168|56=ICE|34=0000412|50=5|52=20150601-01:48:01.000|10=189|8=FIX.4.2|9=0061|35=0|49=1168|56=ICE|34=0000413|50=5|52=20150601-01:48:31.000|10=193|8=FIX.4.2|9=0061|35=0|49=1168|56=ICE|34=0000414|50=5|52=20150601-01:49:01.000|10=192|8=FIX.4.2|9=0061|35=0|49=1168|56=ICE|34=0000415|50=5|52=20150601-01:49:31.000|10=196|8=FIX.4.2|9=0061|35=0|49=1168|56=ICE|34=0000416|50=5|52=20150601-01:50:01.000|10=186|8=FIX.4.2|9=0061|35=0|49=1168|56=ICE|34=0000417|50=5|52=20150601-01:50:31.000|10=190|8=FIX.4.2|9=0061|35=0|49=1168|56=ICE|34=0000418|50=5|52=20150601-01:51:01.000|10=189|8=FIX.4.2|9=0061|35=0|49=1168|56=ICE|34=0000419|50=5|52=20150601-01:51:31.000|10=193|8=FIX.4.2|9=0061|35=0|49=1168|56=ICE|34=0000420|50=5|52=20150601-01:52:01.000|10=183|8=FIX.4.2|9=0061|35=0|49=1168|56=ICE|34=0000421|50=5|52=20150601-01:52:31.000|10=187|8=FIX.4.2|9=0061|35=0|49=1168|56=ICE|34=0000422|50=5|52=20150601-01:53:01.000|10=186|8=FIX.4.2|9=0061|35=0|49=1168|56=ICE|34=0000423|50=5|52=20150601-01:53:31.000|10=190|8=FIX.4.2|9=0061|35=0|49=1168|56=ICE|34=0000424|50=5|52=20150601-01:54:01.000|10=189|8=FIX.4.2|9=0061|35=0|49=1168|56=ICE|34=0000425|50=5|52=20150601-01:54:31.000|10=193|8=FIX.4.2|9=0061|35=0|49=1168|56=ICE|34=0000426|50=5|52=20150601-01:55:01.000|10=192|8=FIX.4.2|9=0061|35=0|49=1168|56=ICE|34=0000427|50=5|52=20150601-01:55:31.000|10=196|8=FIX.4.2|9=0061|35=0|49=1168|56=ICE|34=0000428|50=5|52=20150601-01:56:01.000|10=195|8=FIX.4.2|9=0061|35=0|49=1168|56=ICE|34=0000429|50=5|52=20150601-01:56:31.000|10=199|8=FIX.4.2|9=0061|35=0|49=1168|56=ICE|34=0000430|50=5|52=20150601-01:57:01.000|10=189|8=FIX.4.2|9=0061|35=0|49=1168|56=ICE|34=0000431|50=5|52=20150601-01:57:31.000|10=193|8=FIX.4.2|9=0061|35=0|49=1168|56=ICE|34=0000432|50=5|52=20150601-01:58:01.000|10=192|8=FIX.4.2|9=0061|35=0|49=1168|56=ICE|34=0000433|50=5|52=20150601-01:58:31.000|10=196|8=FIX.4.2|9=0061|35=0|49=1168|56=ICE|34=0000434|50=5|52=20150601-01:59:01.000|10=195|8=FIX.4.2|9=0061|35=0|49=1168|56=ICE|34=0000435|50=5|52=20150601-01:59:31.000|10=199|8=FIX.4.2|9=0061|35=0|49=1168|56=ICE|34=0000436|50=5|52=20150601-02:00:01.000|10=184|8=FIX.4.2|9=0061|35=0|49=1168|56=ICE|34=0000437|50=5|52=20150601-02:00:31.000|10=188|8=FIX.4.2|9=0061|35=0|49=1168|56=ICE|34=0000438|50=5|52=20150601-02:01:01.000|10=187|8=FIX.4.2|9=0061|35=0|49=1168|56=ICE|34=0000439|50=5|52=20150601-02:01:31.000|10=191|8=FIX.4.2|9=0061|35=0|49=1168|56=ICE|34=0000440|50=5|52=20150601-02:02:01.000|10=181|8=FIX.4.2|9=0061|35=0|49=1168|56=ICE|34=0000441|50=5|52=20150601-02:02:31.000|10=185|8=FIX.4.2|9=0061|35=0|49=1168|56=ICE|34=0000442|50=5|52=20150601-02:03:01.000|10=184|8=FIX.4.2|9=0061|35=0|49=1168|56=ICE|34=0000443|50=5|52=20150601-02:03:31.000|10=188|8=FIX.4.2|9=0061|35=0|49=1168|56=ICE|34=0000444|50=5|52=20150601-02:04:01.000|10=187|8=FIX.4.2|9=0061|35=0|49=1168|56=ICE|34=0000445|50=5|52=20150601-02:04:31.000|10=191|8=FIX.4.2|9=0061|35=0|49=1168|56=ICE|34=0000446|50=5|52=20150601-02:05:01.000|10=190|8=FIX.4.2|9=0061|35=0|49=1168|56=ICE|34=0000447|50=5|52=20150601-02:05:31.000|10=194|8=FIX.4.2|9=0061|35=0|49=1168|56=ICE|34=0000448|50=5|52=20150601-02:06:01.000|10=193|8=FIX.4.2|9=0061|35=0|49=1168|56=ICE|34=0000449|50=5|52=20150601-02:06:31.000|10=197|8=FIX.4.2|9=0061|35=0|49=1168|56=ICE|34=0000450|50=5|52=20150601-02:07:01.000|10=187|8=FIX.4.2|9=0061|35=0|49=1168|56=ICE|34=0000451|50=5|52=20150601-02:07:31.000|10=191|8=FIX.4.2|9=0061|35=0|49=1168|56=ICE|34=0000452|50=5|52=20150601-02:08:01.000|10=190|8=FIX.4.2|9=0061|35=0|49=1168|56=ICE|34=0000453|50=5|52=20150601-02:08:31.000|10=194|8=FIX.4.2|9=0061|35=0|49=1168|56=ICE|34=0000454|50=5|52=20150601-02:09:01.000|10=193|8=FIX.4.2|9=0061|35=0|49=1168|56=ICE|34=0000455|50=5|52=20150601-02:09:31.000|10=197|8=FIX.4.2|9=0061|35=0|49=1168|56=ICE|34=0000456|50=5|52=20150601-02:10:01.000|10=187|8=FIX.4.2|9=0061|35=0|49=1168|56=ICE|34=0000457|50=5|52=20150601-02:10:31.000|10=191|8=FIX.4.2|9=0061|35=0|49=1168|56=ICE|34=0000458|50=5|52=20150601-02:11:01.000|10=190|8=FIX.4.2|9=0061|35=0|49=1168|56=ICE|34=0000459|50=5|52=20150601-02:11:31.000|10=194|8=FIX.4.2|9=0061|35=0|49=1168|56=ICE|34=0000460|50=5|52=20150601-02:12:01.000|10=184|8=FIX.4.2|9=0061|35=0|49=1168|56=ICE|34=0000461|50=5|52=20150601-02:12:31.000|10=188|8=FIX.4.2|9=0061|35=0|49=1168|56=ICE|34=0000462|50=5|52=20150601-02:13:01.000|10=187|8=FIX.4.2|9=0061|35=0|49=1168|56=ICE|34=0000463|50=5|52=20150601-02:13:31.000|10=191|8=FIX.4.2|9=0061|35=0|49=1168|56=ICE|34=0000464|50=5|52=20150601-02:14:01.000|10=190|8=FIX.4.2|9=0061|35=0|49=1168|56=ICE|34=0000465|50=5|52=20150601-02:14:31.000|10=194|8=FIX.4.2|9=0061|35=0|49=1168|56=ICE|34=0000466|50=5|52=20150601-02:15:01.000|10=193|8=FIX.4.2|9=0061|35=0|49=1168|56=ICE|34=0000467|50=5|52=20150601-02:15:31.000|10=197|8=FIX.4.2|9=0061|35=0|49=1168|56=ICE|34=0000468|50=5|52=20150601-02:16:01.000|10=196|8=FIX.4.2|9=0061|35=0|49=1168|56=ICE|34=0000469|50=5|52=20150601-02:16:31.000|10=200|8=FIX.4.2|9=0061|35=0|49=1168|56=ICE|34=0000470|50=5|52=20150601-02:17:01.000|10=190|8=FIX.4.2|9=0061|35=0|49=1168|56=ICE|34=0000471|50=5|52=20150601-02:17:31.000|10=194|8=FIX.4.2|9=0061|35=0|49=1168|56=ICE|34=0000472|50=5|52=20150601-02:18:01.000|10=193|8=FIX.4.2|9=0061|35=0|49=1168|56=ICE|34=0000473|50=5|52=20150601-02:18:31.000|10=197|8=FIX.4.2|9=0061|35=0|49=1168|56=ICE|34=0000474|50=5|52=20150601-02:19:01.000|10=196|8=FIX.4.2|9=0061|35=0|49=1168|56=ICE|34=0000475|50=5|52=20150601-02:19:31.000|10=200|8=FIX.4.2|9=0061|35=0|49=1168|56=ICE|34=0000476|50=5|52=20150601-02:20:01.000|10=190|8=FIX.4.2|9=0061|35=0|49=1168|56=ICE|34=0000477|50=5|52=20150601-02:20:31.000|10=194|8=FIX.4.2|9=0061|35=0|49=1168|56=ICE|34=0000478|50=5|52=20150601-02:21:01.000|10=193|8=FIX.4.2|9=0061|35=0|49=1168|56=ICE|34=0000479|50=5|52=20150601-02:21:31.000|10=197|8=FIX.4.2|9=0061|35=0|49=1168|56=ICE|34=0000480|50=5|52=20150601-02:22:01.000|10=187|8=FIX.4.2|9=0061|35=0|49=1168|56=ICE|34=0000481|50=5|52=20150601-02:22:31.000|10=191|8=FIX.4.2|9=0061|35=0|49=1168|56=ICE|34=0000482|50=5|52=20150601-02:23:01.000|10=190|8=FIX.4.2|9=0061|35=0|49=1168|56=ICE|34=0000483|50=5|52=20150601-02:23:31.000|10=194|8=FIX.4.2|9=0061|35=0|49=1168|56=ICE|34=0000484|50=5|52=20150601-02:24:01.000|10=193|8=FIX.4.2|9=0061|35=0|49=1168|56=ICE|34=0000485|50=5|52=20150601-02:24:31.000|10=197|8=FIX.4.2|9=0061|35=0|49=1168|56=ICE|34=0000486|50=5|52=20150601-02:25:01.000|10=196|8=FIX.4.2|9=0061|35=0|49=1168|56=ICE|34=0000487|50=5|52=20150601-02:25:31.000|10=200|8=FIX.4.2|9=0061|35=0|49=1168|56=ICE|34=0000488|50=5|52=20150601-02:26:01.000|10=199|8=FIX.4.2|9=0061|35=0|49=1168|56=ICE|34=0000489|50=5|52=20150601-02:26:31.000|10=203|8=FIX.4.2|9=0061|35=0|49=1168|56=ICE|34=0000490|50=5|52=20150601-02:27:01.000|10=193|8=FIX.4.2|9=0061|35=0|49=1168|56=ICE|34=0000491|50=5|52=20150601-02:27:31.000|10=197|8=FIX.4.2|9=0061|35=0|49=1168|56=ICE|34=0000492|50=5|52=20150601-02:28:01.000|10=196|8=FIX.4.2|9=0061|35=0|49=1168|56=ICE|34=0000493|50=5|52=20150601-02:28:31.000|10=200|8=FIX.4.2|9=0061|35=0|49=1168|56=ICE|34=0000494|50=5|52=20150601-02:29:01.000|10=199|8=FIX.4.2|9=0061|35=0|49=1168|56=ICE|34=0000495|50=5|52=20150601-02:29:31.000|10=203|8=FIX.4.2|9=0061|35=0|49=1168|56=ICE|34=0000496|50=5|52=20150601-02:30:01.000|10=193|8=FIX.4.2|9=0061|35=0|49=1168|56=ICE|34=0000497|50=5|52=20150601-02:30:31.000|10=197|8=FIX.4.2|9=0061|35=0|49=1168|56=ICE|34=0000498|50=5|52=20150601-02:31:01.000|10=196|8=FIX.4.2|9=0061|35=0|49=1168|56=ICE|34=0000499|50=5|52=20150601-02:31:31.000|10=200|8=FIX.4.2|9=0061|35=0|49=1168|56=ICE|34=0000500|50=5|52=20150601-02:32:01.000|10=181|8=FIX.4.2|9=0061|35=0|49=1168|56=ICE|34=0000501|50=5|52=20150601-02:32:31.000|10=185|8=FIX.4.2|9=0061|35=0|49=1168|56=ICE|34=0000502|50=5|52=20150601-02:33:01.000|10=184|8=FIX.4.2|9=0061|35=0|49=1168|56=ICE|34=0000503|50=5|52=20150601-02:33:31.000|10=188|8=FIX.4.2|9=0061|35=0|49=1168|56=ICE|34=0000504|50=5|52=20150601-02:34:01.000|10=187|8=FIX.4.2|9=0061|35=0|49=1168|56=ICE|34=0000505|50=5|52=20150601-02:34:31.000|10=191|8=FIX.4.2|9=0061|35=0|49=1168|56=ICE|34=0000506|50=5|52=20150601-02:35:01.000|10=190|8=FIX.4.2|9=0061|35=0|49=1168|56=ICE|34=0000507|50=5|52=20150601-02:35:31.000|10=194|8=FIX.4.2|9=0061|35=0|49=1168|56=ICE|34=0000508|50=5|52=20150601-02:36:01.000|10=193|8=FIX.4.2|9=0061|35=0|49=1168|56=ICE|34=0000509|50=5|52=20150601-02:36:31.000|10=197|8=FIX.4.2|9=0061|35=0|49=1168|56=ICE|34=0000510|50=5|52=20150601-02:37:01.000|10=187|8=FIX.4.2|9=0061|35=0|49=1168|56=ICE|34=0000511|50=5|52=20150601-02:37:31.000|10=191|8=FIX.4.2|9=0061|35=0|49=1168|56=ICE|34=0000512|50=5|52=20150601-02:38:01.000|10=190|8=FIX.4.2|9=0061|35=0|49=1168|56=ICE|34=0000513|50=5|52=20150601-02:38:31.000|10=194|8=FIX.4.2|9=0061|35=0|49=1168|56=ICE|34=0000514|50=5|52=20150601-02:39:01.000|10=193|8=FIX.4.2|9=0061|35=0|49=1168|56=ICE|34=0000515|50=5|52=20150601-02:39:31.000|10=197|8=FIX.4.2|9=0061|35=0|49=1168|56=ICE|34=0000516|50=5|52=20150601-02:40:01.000|10=187|8=FIX.4.2|9=0061|35=0|49=1168|56=ICE|34=0000517|50=5|52=20150601-02:40:31.000|10=191|8=FIX.4.2|9=0061|35=0|49=1168|56=ICE|34=0000518|50=5|52=20150601-02:41:01.000|10=190|8=FIX.4.2|9=0061|35=0|49=1168|56=ICE|34=0000519|50=5|52=20150601-02:41:31.000|10=194|8=FIX.4.2|9=0061|35=0|49=1168|56=ICE|34=0000520|50=5|52=20150601-02:42:01.000|10=184|8=FIX.4.2|9=0061|35=0|49=1168|56=ICE|34=0000521|50=5|52=20150601-02:42:31.000|10=188|8=FIX.4.2|9=0061|35=0|49=1168|56=ICE|34=0000522|50=5|52=20150601-02:43:01.000|10=187|8=FIX.4.2|9=0061|35=0|49=1168|56=ICE|34=0000523|50=5|52=20150601-02:43:31.000|10=191|8=FIX.4.2|9=0061|35=0|49=1168|56=ICE|34=0000524|50=5|52=20150601-02:44:01.000|10=190|8=FIX.4.2|9=0061|35=0|49=1168|56=ICE|34=0000525|50=5|52=20150601-02:44:31.000|10=194|8=FIX.4.2|9=0061|35=0|49=1168|56=ICE|34=0000526|50=5|52=20150601-02:45:01.000|10=193|8=FIX.4.2|9=0061|35=0|49=1168|56=ICE|34=0000527|50=5|52=20150601-02:45:31.000|10=197|8=FIX.4.2|9=0061|35=0|49=1168|56=ICE|34=0000528|50=5|52=20150601-02:46:01.000|10=196|8=FIX.4.2|9=0061|35=0|49=1168|56=ICE|34=0000529|50=5|52=20150601-02:46:31.000|10=200|8=FIX.4.2|9=0061|35=0|49=1168|56=ICE|34=0000530|50=5|52=20150601-02:47:01.000|10=190|8=FIX.4.2|9=0061|35=0|49=1168|56=ICE|34=0000531|50=5|52=20150601-02:47:31.000|10=194|8=FIX.4.2|9=0061|35=0|49=1168|56=ICE|34=0000532|50=5|52=20150601-02:48:01.000|10=193|8=FIX.4.2|9=0061|35=0|49=1168|56=ICE|34=0000533|50=5|52=20150601-02:48:31.000|10=197|8=FIX.4.2|9=0061|35=0|49=1168|56=ICE|34=0000534|50=5|52=20150601-02:49:01.000|10=196|8=FIX.4.2|9=0061|35=0|49=1168|56=ICE|34=0000535|50=5|52=20150601-02:49:31.000|10=200|8=FIX.4.2|9=0061|35=0|49=1168|56=ICE|34=0000536|50=5|52=20150601-02:50:01.000|10=190|8=FIX.4.2|9=0061|35=0|49=1168|56=ICE|34=0000537|50=5|52=20150601-02:50:31.000|10=194|8=FIX.4.2|9=0061|35=0|49=1168|56=ICE|34=0000538|50=5|52=20150601-02:51:01.000|10=193|8=FIX.4.2|9=0061|35=0|49=1168|56=ICE|34=0000539|50=5|52=20150601-02:51:31.000|10=197|8=FIX.4.2|9=0061|35=0|49=1168|56=ICE|34=0000540|50=5|52=20150601-02:52:01.000|10=187|8=FIX.4.2|9=0061|35=0|49=1168|56=ICE|34=0000541|50=5|52=20150601-02:52:31.000|10=191|8=FIX.4.2|9=0061|35=0|49=1168|56=ICE|34=0000542|50=5|52=20150601-02:53:01.000|10=190|8=FIX.4.2|9=0061|35=0|49=1168|56=ICE|34=0000543|50=5|52=20150601-02:53:31.000|10=194|8=FIX.4.2|9=0061|35=0|49=1168|56=ICE|34=0000544|50=5|52=20150601-02:54:01.000|10=193|8=FIX.4.2|9=0061|35=0|49=1168|56=ICE|34=0000545|50=5|52=20150601-02:54:31.000|10=197|8=FIX.4.2|9=0061|35=0|49=1168|56=ICE|34=0000546|50=5|52=20150601-02:55:01.000|10=196|8=FIX.4.2|9=0061|35=0|49=1168|56=ICE|34=0000547|50=5|52=20150601-02:55:31.000|10=200|8=FIX.4.2|9=0061|35=0|49=1168|56=ICE|34=0000548|50=5|52=20150601-02:56:01.000|10=199|8=FIX.4.2|9=0061|35=0|49=1168|56=ICE|34=0000549|50=5|52=20150601-02:56:31.000|10=203|8=FIX.4.2|9=0061|35=0|49=1168|56=ICE|34=0000550|50=5|52=20150601-02:57:01.000|10=193|8=FIX.4.2|9=0061|35=0|49=1168|56=ICE|34=0000551|50=5|52=20150601-02:57:31.000|10=197|8=FIX.4.2|9=0061|35=0|49=1168|56=ICE|34=0000552|50=5|52=20150601-02:58:01.000|10=196|8=FIX.4.2|9=0061|35=0|49=1168|56=ICE|34=0000553|50=5|52=20150601-02:58:31.000|10=200|8=FIX.4.2|9=0061|35=0|49=1168|56=ICE|34=0000554|50=5|52=20150601-02:59:01.000|10=199|8=FIX.4.2|9=0061|35=0|49=1168|56=ICE|34=0000555|50=5|52=20150601-02:59:31.000|10=203|8=FIX.4.2|9=0061|35=0|49=1168|56=ICE|34=0000556|50=5|52=20150601-03:00:01.000|10=188|8=FIX.4.2|9=0061|35=0|49=1168|56=ICE|34=0000557|50=5|52=20150601-03:00:31.000|10=192|8=FIX.4.2|9=0061|35=0|49=1168|56=ICE|34=0000558|50=5|52=20150601-03:01:01.000|10=191|8=FIX.4.2|9=0061|35=0|49=1168|56=ICE|34=0000559|50=5|52=20150601-03:01:31.000|10=195|8=FIX.4.2|9=0061|35=0|49=1168|56=ICE|34=0000560|50=5|52=20150601-03:02:01.000|10=185|8=FIX.4.2|9=0061|35=0|49=1168|56=ICE|34=0000561|50=5|52=20150601-03:02:31.000|10=189|8=FIX.4.2|9=0061|35=0|49=1168|56=ICE|34=0000562|50=5|52=20150601-03:03:01.000|10=188|8=FIX.4.2|9=0061|35=0|49=1168|56=ICE|34=0000563|50=5|52=20150601-03:03:31.000|10=192|8=FIX.4.2|9=0061|35=0|49=1168|56=ICE|34=0000564|50=5|52=20150601-03:04:01.000|10=191|8=FIX.4.2|9=0061|35=0|49=1168|56=ICE|34=0000565|50=5|52=20150601-03:04:31.000|10=195|8=FIX.4.2|9=0061|35=0|49=1168|56=ICE|34=0000566|50=5|52=20150601-03:05:01.000|10=194|8=FIX.4.2|9=0061|35=0|49=1168|56=ICE|34=0000567|50=5|52=20150601-03:05:31.000|10=198|8=FIX.4.2|9=0061|35=0|49=1168|56=ICE|34=0000568|50=5|52=20150601-03:06:01.000|10=197|8=FIX.4.2|9=0061|35=0|49=1168|56=ICE|34=0000569|50=5|52=20150601-03:06:31.000|10=201|8=FIX.4.2|9=0061|35=0|49=1168|56=ICE|34=0000570|50=5|52=20150601-03:07:01.000|10=191|8=FIX.4.2|9=0061|35=0|49=1168|56=ICE|34=0000571|50=5|52=20150601-03:07:31.000|10=195|8=FIX.4.2|9=0061|35=0|49=1168|56=ICE|34=0000572|50=5|52=20150601-03:08:01.000|10=194|8=FIX.4.2|9=0061|35=0|49=1168|56=ICE|34=0000573|50=5|52=20150601-03:08:31.000|10=198|8=FIX.4.2|9=0061|35=0|49=1168|56=ICE|34=0000574|50=5|52=20150601-03:09:01.000|10=197|8=FIX.4.2|9=0061|35=0|49=1168|56=ICE|34=0000575|50=5|52=20150601-03:09:31.000|10=201|8=FIX.4.2|9=0061|35=0|49=1168|56=ICE|34=0000576|50=5|52=20150601-03:10:01.000|10=191|8=FIX.4.2|9=0061|35=0|49=1168|56=ICE|34=0000577|50=5|52=20150601-03:10:31.000|10=195|8=FIX.4.2|9=0061|35=0|49=1168|56=ICE|34=0000578|50=5|52=20150601-03:11:01.000|10=194|8=FIX.4.2|9=0061|35=0|49=1168|56=ICE|34=0000579|50=5|52=20150601-03:11:31.000|10=198|8=FIX.4.2|9=0061|35=0|49=1168|56=ICE|34=0000580|50=5|52=20150601-03:12:01.000|10=188|8=FIX.4.2|9=0061|35=0|49=1168|56=ICE|34=0000581|50=5|52=20150601-03:12:31.000|10=192|8=FIX.4.2|9=0061|35=0|49=1168|56=ICE|34=0000582|50=5|52=20150601-03:13:01.000|10=191|8=FIX.4.2|9=0061|35=0|49=1168|56=ICE|34=0000583|50=5|52=20150601-03:13:31.000|10=195|8=FIX.4.2|9=0061|35=0|49=1168|56=ICE|34=0000584|50=5|52=20150601-03:14:01.000|10=194|8=FIX.4.2|9=0061|35=0|49=1168|56=ICE|34=0000585|50=5|52=20150601-03:14:31.000|10=198|8=FIX.4.2|9=0061|35=0|49=1168|56=ICE|34=0000586|50=5|52=20150601-03:15:01.000|10=197|8=FIX.4.2|9=0061|35=0|49=1168|56=ICE|34=0000587|50=5|52=20150601-03:15:31.000|10=201|8=FIX.4.2|9=0061|35=0|49=1168|56=ICE|34=0000588|50=5|52=20150601-03:16:01.000|10=200|8=FIX.4.2|9=0061|35=0|49=1168|56=ICE|34=0000589|50=5|52=20150601-03:16:31.000|10=204|8=FIX.4.2|9=0061|35=0|49=1168|56=ICE|34=0000590|50=5|52=20150601-03:17:01.000|10=194|8=FIX.4.2|9=0061|35=0|49=1168|56=ICE|34=0000591|50=5|52=20150601-03:17:31.000|10=198|8=FIX.4.2|9=0061|35=0|49=1168|56=ICE|34=0000592|50=5|52=20150601-03:18:01.000|10=197|8=FIX.4.2|9=0061|35=0|49=1168|56=ICE|34=0000593|50=5|52=20150601-03:18:31.000|10=201|8=FIX.4.2|9=0061|35=0|49=1168|56=ICE|34=0000594|50=5|52=20150601-03:19:01.000|10=200|8=FIX.4.2|9=0061|35=0|49=1168|56=ICE|34=0000595|50=5|52=20150601-03:19:31.000|10=204|8=FIX.4.2|9=0061|35=0|49=1168|56=ICE|34=0000596|50=5|52=20150601-03:20:01.000|10=194|8=FIX.4.2|9=0061|35=0|49=1168|56=ICE|34=0000597|50=5|52=20150601-03:20:31.000|10=198|8=FIX.4.2|9=0061|35=0|49=1168|56=ICE|34=0000598|50=5|52=20150601-03:21:01.000|10=197|8=FIX.4.2|9=0061|35=0|49=1168|56=ICE|34=0000599|50=5|52=20150601-03:21:31.000|10=201|8=FIX.4.2|9=0061|35=0|49=1168|56=ICE|34=0000600|50=5|52=20150601-03:22:01.000|10=182|8=FIX.4.2|9=0061|35=0|49=1168|56=ICE|34=0000601|50=5|52=20150601-03:22:31.000|10=186|8=FIX.4.2|9=0061|35=0|49=1168|56=ICE|34=0000602|50=5|52=20150601-03:23:01.000|10=185|8=FIX.4.2|9=0061|35=0|49=1168|56=ICE|34=0000603|50=5|52=20150601-03:23:31.000|10=189|8=FIX.4.2|9=0061|35=0|49=1168|56=ICE|34=0000604|50=5|52=20150601-03:24:01.000|10=188|8=FIX.4.2|9=0061|35=0|49=1168|56=ICE|34=0000605|50=5|52=20150601-03:24:31.000|10=192|8=FIX.4.2|9=0061|35=0|49=1168|56=ICE|34=0000606|50=5|52=20150601-03:25:01.000|10=191|8=FIX.4.2|9=0061|35=0|49=1168|56=ICE|34=0000607|50=5|52=20150601-03:25:31.000|10=195|8=FIX.4.2|9=0061|35=0|49=1168|56=ICE|34=0000608|50=5|52=20150601-03:26:01.000|10=194|8=FIX.4.2|9=0061|35=0|49=1168|56=ICE|34=0000609|50=5|52=20150601-03:26:31.000|10=198|8=FIX.4.2|9=0061|35=0|49=1168|56=ICE|34=0000610|50=5|52=20150601-03:27:01.000|10=188|8=FIX.4.2|9=0061|35=0|49=1168|56=ICE|34=0000611|50=5|52=20150601-03:27:31.000|10=192|8=FIX.4.2|9=0061|35=0|49=1168|56=ICE|34=0000612|50=5|52=20150601-03:28:01.000|10=191|8=FIX.4.2|9=0061|35=0|49=1168|56=ICE|34=0000613|50=5|52=20150601-03:28:31.000|10=195|8=FIX.4.2|9=0061|35=0|49=1168|56=ICE|34=0000614|50=5|52=20150601-03:29:01.000|10=194|8=FIX.4.2|9=0061|35=0|49=1168|56=ICE|34=0000615|50=5|52=20150601-03:29:31.000|10=198|8=FIX.4.2|9=0061|35=0|49=1168|56=ICE|34=0000616|50=5|52=20150601-03:30:01.000|10=188|8=FIX.4.2|9=0061|35=0|49=1168|56=ICE|34=0000617|50=5|52=20150601-03:30:31.000|10=192|8=FIX.4.2|9=0061|35=0|49=1168|56=ICE|34=0000618|50=5|52=20150601-03:31:01.000|10=191|8=FIX.4.2|9=0061|35=0|49=1168|56=ICE|34=0000619|50=5|52=20150601-03:31:31.000|10=195|8=FIX.4.2|9=0061|35=0|49=1168|56=ICE|34=0000620|50=5|52=20150601-03:32:01.000|10=185|8=FIX.4.2|9=0061|35=0|49=1168|56=ICE|34=0000621|50=5|52=20150601-03:32:31.000|10=189|8=FIX.4.2|9=0061|35=0|49=1168|56=ICE|34=0000622|50=5|52=20150601-03:33:01.000|10=188|8=FIX.4.2|9=0061|35=0|49=1168|56=ICE|34=0000623|50=5|52=20150601-03:33:31.000|10=192|8=FIX.4.2|9=0061|35=0|49=1168|56=ICE|34=0000624|50=5|52=20150601-03:34:01.000|10=191|8=FIX.4.2|9=0061|35=0|49=1168|56=ICE|34=0000625|50=5|52=20150601-03:34:31.000|10=195|8=FIX.4.2|9=0061|35=0|49=1168|56=ICE|34=0000626|50=5|52=20150601-03:35:01.000|10=194|8=FIX.4.2|9=0061|35=0|49=1168|56=ICE|34=0000627|50=5|52=20150601-03:35:31.000|10=198|8=FIX.4.2|9=0061|35=0|49=1168|56=ICE|34=0000628|50=5|52=20150601-03:36:01.000|10=197|8=FIX.4.2|9=0061|35=0|49=1168|56=ICE|34=0000629|50=5|52=20150601-03:36:31.000|10=201|8=FIX.4.2|9=0061|35=0|49=1168|56=ICE|34=0000630|50=5|52=20150601-03:37:01.000|10=191|8=FIX.4.2|9=0061|35=0|49=1168|56=ICE|34=0000631|50=5|52=20150601-03:37:31.000|10=195|8=FIX.4.2|9=0061|35=0|49=1168|56=ICE|34=0000632|50=5|52=20150601-03:38:01.000|10=194|8=FIX.4.2|9=0061|35=0|49=1168|56=ICE|34=0000633|50=5|52=20150601-03:38:31.000|10=198|8=FIX.4.2|9=0061|35=0|49=1168|56=ICE|34=0000634|50=5|52=20150601-03:39:01.000|10=197|8=FIX.4.2|9=0061|35=0|49=1168|56=ICE|34=0000635|50=5|52=20150601-03:39:31.000|10=201|8=FIX.4.2|9=0061|35=0|49=1168|56=ICE|34=0000636|50=5|52=20150601-03:40:01.000|10=191|8=FIX.4.2|9=0061|35=0|49=1168|56=ICE|34=0000637|50=5|52=20150601-03:40:31.000|10=195|8=FIX.4.2|9=0061|35=0|49=1168|56=ICE|34=0000638|50=5|52=20150601-03:41:01.000|10=194|8=FIX.4.2|9=0061|35=0|49=1168|56=ICE|34=0000639|50=5|52=20150601-03:41:31.000|10=198|8=FIX.4.2|9=0061|35=0|49=1168|56=ICE|34=0000640|50=5|52=20150601-03:42:01.000|10=188|8=FIX.4.2|9=0061|35=0|49=1168|56=ICE|34=0000641|50=5|52=20150601-03:42:31.000|10=192|8=FIX.4.2|9=0061|35=0|49=1168|56=ICE|34=0000642|50=5|52=20150601-03:43:01.000|10=191|8=FIX.4.2|9=0061|35=0|49=1168|56=ICE|34=0000643|50=5|52=20150601-03:43:31.000|10=195|8=FIX.4.2|9=0061|35=0|49=1168|56=ICE|34=0000644|50=5|52=20150601-03:44:01.000|10=194|8=FIX.4.2|9=0061|35=0|49=1168|56=ICE|34=0000645|50=5|52=20150601-03:44:31.000|10=198|8=FIX.4.2|9=0061|35=0|49=1168|56=ICE|34=0000646|50=5|52=20150601-03:45:01.000|10=197|8=FIX.4.2|9=0061|35=0|49=1168|56=ICE|34=0000647|50=5|52=20150601-03:45:31.000|10=201|8=FIX.4.2|9=0061|35=0|49=1168|56=ICE|34=0000648|50=5|52=20150601-03:46:01.000|10=200|8=FIX.4.2|9=0061|35=0|49=1168|56=ICE|34=0000649|50=5|52=20150601-03:46:31.000|10=204|8=FIX.4.2|9=0061|35=0|49=1168|56=ICE|34=0000650|50=5|52=20150601-03:47:01.000|10=194|8=FIX.4.2|9=0061|35=0|49=1168|56=ICE|34=0000651|50=5|52=20150601-03:47:31.000|10=198|8=FIX.4.2|9=0061|35=0|49=1168|56=ICE|34=0000652|50=5|52=20150601-03:48:01.000|10=197|8=FIX.4.2|9=0061|35=0|49=1168|56=ICE|34=0000653|50=5|52=20150601-03:48:31.000|10=201|8=FIX.4.2|9=0061|35=0|49=1168|56=ICE|34=0000654|50=5|52=20150601-03:49:01.000|10=200|8=FIX.4.2|9=0061|35=0|49=1168|56=ICE|34=0000655|50=5|52=20150601-03:49:31.000|10=204|8=FIX.4.2|9=0061|35=0|49=1168|56=ICE|34=0000656|50=5|52=20150601-03:50:01.000|10=194|8=FIX.4.2|9=0061|35=0|49=1168|56=ICE|34=0000657|50=5|52=20150601-03:50:31.000|10=198|8=FIX.4.2|9=0061|35=0|49=1168|56=ICE|34=0000658|50=5|52=20150601-03:51:01.000|10=197|8=FIX.4.2|9=0061|35=0|49=1168|56=ICE|34=0000659|50=5|52=20150601-03:51:31.000|10=201|8=FIX.4.2|9=0061|35=0|49=1168|56=ICE|34=0000660|50=5|52=20150601-03:52:01.000|10=191|8=FIX.4.2|9=0061|35=0|49=1168|56=ICE|34=0000661|50=5|52=20150601-03:52:31.000|10=195|8=FIX.4.2|9=0061|35=0|49=1168|56=ICE|34=0000662|50=5|52=20150601-03:53:01.000|10=194|8=FIX.4.2|9=0061|35=0|49=1168|56=ICE|34=0000663|50=5|52=20150601-03:53:31.000|10=198|8=FIX.4.2|9=0061|35=0|49=1168|56=ICE|34=0000664|50=5|52=20150601-03:54:01.000|10=197|8=FIX.4.2|9=0061|35=0|49=1168|56=ICE|34=0000665|50=5|52=20150601-03:54:31.000|10=201|8=FIX.4.2|9=0061|35=0|49=1168|56=ICE|34=0000666|50=5|52=20150601-03:55:01.000|10=200|8=FIX.4.2|9=0061|35=0|49=1168|56=ICE|34=0000667|50=5|52=20150601-03:55:31.000|10=204|8=FIX.4.2|9=0061|35=0|49=1168|56=ICE|34=0000668|50=5|52=20150601-03:56:01.000|10=203|8=FIX.4.2|9=0061|35=0|49=1168|56=ICE|34=0000669|50=5|52=20150601-03:56:31.000|10=207|8=FIX.4.2|9=0061|35=0|49=1168|56=ICE|34=0000670|50=5|52=20150601-03:57:01.000|10=197|8=FIX.4.2|9=0061|35=0|49=1168|56=ICE|34=0000671|50=5|52=20150601-03:57:31.000|10=201|8=FIX.4.2|9=0061|35=0|49=1168|56=ICE|34=0000672|50=5|52=20150601-03:58:01.000|10=200|8=FIX.4.2|9=0061|35=0|49=1168|56=ICE|34=0000673|50=5|52=20150601-03:58:31.000|10=204|8=FIX.4.2|9=0061|35=0|49=1168|56=ICE|34=0000674|50=5|52=20150601-03:59:01.000|10=203|8=FIX.4.2|9=0061|35=0|49=1168|56=ICE|34=0000675|50=5|52=20150601-03:59:31.000|10=207|8=FIX.4.2|9=0061|35=0|49=1168|56=ICE|34=0000676|50=5|52=20150601-04:00:01.000|10=192|8=FIX.4.2|9=0061|35=0|49=1168|56=ICE|34=0000677|50=5|52=20150601-04:00:31.000|10=196|8=FIX.4.2|9=0061|35=0|49=1168|56=ICE|34=0000678|50=5|52=20150601-04:01:01.000|10=195|8=FIX.4.2|9=0061|35=0|49=1168|56=ICE|34=0000679|50=5|52=20150601-04:01:31.000|10=199|8=FIX.4.2|9=0061|35=0|49=1168|56=ICE|34=0000680|50=5|52=20150601-04:02:01.000|10=189|8=FIX.4.2|9=0061|35=0|49=1168|56=ICE|34=0000681|50=5|52=20150601-04:02:31.000|10=193|8=FIX.4.2|9=0061|35=0|49=1168|56=ICE|34=0000682|50=5|52=20150601-04:03:01.000|10=192|8=FIX.4.2|9=0061|35=0|49=1168|56=ICE|34=0000683|50=5|52=20150601-04:03:31.000|10=196|8=FIX.4.2|9=0061|35=0|49=1168|56=ICE|34=0000684|50=5|52=20150601-04:04:01.000|10=195|8=FIX.4.2|9=0061|35=0|49=1168|56=ICE|34=0000685|50=5|52=20150601-04:04:31.000|10=199|8=FIX.4.2|9=0061|35=0|49=1168|56=ICE|34=0000686|50=5|52=20150601-04:05:01.000|10=198|8=FIX.4.2|9=0061|35=0|49=1168|56=ICE|34=0000687|50=5|52=20150601-04:05:31.000|10=202|8=FIX.4.2|9=0061|35=0|49=1168|56=ICE|34=0000688|50=5|52=20150601-04:06:01.000|10=201|8=FIX.4.2|9=0061|35=0|49=1168|56=ICE|34=0000689|50=5|52=20150601-04:06:31.000|10=205|8=FIX.4.2|9=0061|35=0|49=1168|56=ICE|34=0000690|50=5|52=20150601-04:07:01.000|10=195|8=FIX.4.2|9=0061|35=0|49=1168|56=ICE|34=0000691|50=5|52=20150601-04:07:31.000|10=199|8=FIX.4.2|9=0061|35=0|49=1168|56=ICE|34=0000692|50=5|52=20150601-04:08:01.000|10=198|8=FIX.4.2|9=0061|35=0|49=1168|56=ICE|34=0000693|50=5|52=20150601-04:08:31.000|10=202|8=FIX.4.2|9=0061|35=0|49=1168|56=ICE|34=0000694|50=5|52=20150601-04:09:01.000|10=201|8=FIX.4.2|9=0061|35=0|49=1168|56=ICE|34=0000695|50=5|52=20150601-04:09:31.000|10=205|8=FIX.4.2|9=0061|35=0|49=1168|56=ICE|34=0000696|50=5|52=20150601-04:10:01.000|10=195|8=FIX.4.2|9=0061|35=0|49=1168|56=ICE|34=0000697|50=5|52=20150601-04:10:31.000|10=199|8=FIX.4.2|9=0061|35=0|49=1168|56=ICE|34=0000698|50=5|52=20150601-04:11:01.000|10=198|8=FIX.4.2|9=0061|35=0|49=1168|56=ICE|34=0000699|50=5|52=20150601-04:11:31.000|10=202|8=FIX.4.2|9=0061|35=0|49=1168|56=ICE|34=0000700|50=5|52=20150601-04:12:01.000|10=183|8=FIX.4.2|9=0061|35=0|49=1168|56=ICE|34=0000701|50=5|52=20150601-04:12:31.000|10=187|8=FIX.4.2|9=0061|35=0|49=1168|56=ICE|34=0000702|50=5|52=20150601-04:13:01.000|10=186|8=FIX.4.2|9=0061|35=0|49=1168|56=ICE|34=0000703|50=5|52=20150601-04:13:31.000|10=190|8=FIX.4.2|9=0061|35=0|49=1168|56=ICE|34=0000704|50=5|52=20150601-04:14:01.000|10=189|8=FIX.4.2|9=0061|35=0|49=1168|56=ICE|34=0000705|50=5|52=20150601-04:14:31.000|10=193|8=FIX.4.2|9=0061|35=0|49=1168|56=ICE|34=0000706|50=5|52=20150601-04:15:01.000|10=192|8=FIX.4.2|9=0061|35=0|49=1168|56=ICE|34=0000707|50=5|52=20150601-04:15:31.000|10=196|8=FIX.4.2|9=0061|35=0|49=1168|56=ICE|34=0000708|50=5|52=20150601-04:16:01.000|10=195|8=FIX.4.2|9=0061|35=0|49=1168|56=ICE|34=0000709|50=5|52=20150601-04:16:31.000|10=199|8=FIX.4.2|9=0061|35=0|49=1168|56=ICE|34=0000710|50=5|52=20150601-04:17:01.000|10=189|8=FIX.4.2|9=0061|35=0|49=1168|56=ICE|34=0000711|50=5|52=20150601-04:17:31.000|10=193|8=FIX.4.2|9=0061|35=0|49=1168|56=ICE|34=0000712|50=5|52=20150601-04:18:01.000|10=192|8=FIX.4.2|9=0061|35=0|49=1168|56=ICE|34=0000713|50=5|52=20150601-04:18:31.000|10=196|8=FIX.4.2|9=0061|35=0|49=1168|56=ICE|34=0000714|50=5|52=20150601-04:19:01.000|10=195|8=FIX.4.2|9=0061|35=0|49=1168|56=ICE|34=0000715|50=5|52=20150601-04:19:31.000|10=199|8=FIX.4.2|9=0061|35=0|49=1168|56=ICE|34=0000716|50=5|52=20150601-04:20:01.000|10=189|8=FIX.4.2|9=0061|35=0|49=1168|56=ICE|34=0000717|50=5|52=20150601-04:20:31.000|10=193|8=FIX.4.2|9=0061|35=0|49=1168|56=ICE|34=0000718|50=5|52=20150601-04:21:01.000|10=192|8=FIX.4.2|9=0061|35=0|49=1168|56=ICE|34=0000719|50=5|52=20150601-04:21:31.000|10=196|8=FIX.4.2|9=0061|35=0|49=1168|56=ICE|34=0000720|50=5|52=20150601-04:22:01.000|10=186|8=FIX.4.2|9=0061|35=0|49=1168|56=ICE|34=0000721|50=5|52=20150601-04:22:31.000|10=190|8=FIX.4.2|9=0061|35=0|49=1168|56=ICE|34=0000722|50=5|52=20150601-04:23:01.000|10=189|8=FIX.4.2|9=0061|35=0|49=1168|56=ICE|34=0000723|50=5|52=20150601-04:23:31.000|10=193|8=FIX.4.2|9=0061|35=0|49=1168|56=ICE|34=0000724|50=5|52=20150601-04:24:01.000|10=192|8=FIX.4.2|9=0061|35=0|49=1168|56=ICE|34=0000725|50=5|52=20150601-04:24:31.000|10=196|8=FIX.4.2|9=0061|35=0|49=1168|56=ICE|34=0000726|50=5|52=20150601-04:25:01.000|10=195|8=FIX.4.2|9=0061|35=0|49=1168|56=ICE|34=0000727|50=5|52=20150601-04:25:31.000|10=199|8=FIX.4.2|9=0061|35=0|49=1168|56=ICE|34=0000728|50=5|52=20150601-04:26:01.000|10=198|8=FIX.4.2|9=0061|35=0|49=1168|56=ICE|34=0000729|50=5|52=20150601-04:26:31.000|10=202|8=FIX.4.2|9=0061|35=0|49=1168|56=ICE|34=0000730|50=5|52=20150601-04:27:01.000|10=192|8=FIX.4.2|9=0061|35=0|49=1168|56=ICE|34=0000731|50=5|52=20150601-04:27:31.000|10=196|8=FIX.4.2|9=0061|35=0|49=1168|56=ICE|34=0000732|50=5|52=20150601-04:28:01.000|10=195|8=FIX.4.2|9=0061|35=0|49=1168|56=ICE|34=0000733|50=5|52=20150601-04:28:31.000|10=199|8=FIX.4.2|9=0061|35=0|49=1168|56=ICE|34=0000734|50=5|52=20150601-04:29:01.000|10=198|8=FIX.4.2|9=0061|35=0|49=1168|56=ICE|34=0000735|50=5|52=20150601-04:29:31.000|10=202|8=FIX.4.2|9=0061|35=0|49=1168|56=ICE|34=0000736|50=5|52=20150601-04:30:01.000|10=192|8=FIX.4.2|9=0061|35=0|49=1168|56=ICE|34=0000737|50=5|52=20150601-04:30:31.000|10=196|8=FIX.4.2|9=0061|35=0|49=1168|56=ICE|34=0000738|50=5|52=20150601-04:31:01.000|10=195|8=FIX.4.2|9=0061|35=0|49=1168|56=ICE|34=0000739|50=5|52=20150601-04:31:31.000|10=199|8=FIX.4.2|9=0061|35=0|49=1168|56=ICE|34=0000740|50=5|52=20150601-04:32:01.000|10=189|8=FIX.4.2|9=0061|35=0|49=1168|56=ICE|34=0000741|50=5|52=20150601-04:32:31.000|10=193|8=FIX.4.2|9=0061|35=0|49=1168|56=ICE|34=0000742|50=5|52=20150601-04:33:01.000|10=192|8=FIX.4.2|9=0061|35=0|49=1168|56=ICE|34=0000743|50=5|52=20150601-04:33:31.000|10=196|8=FIX.4.2|9=0061|35=0|49=1168|56=ICE|34=0000744|50=5|52=20150601-04:34:01.000|10=195|8=FIX.4.2|9=0061|35=0|49=1168|56=ICE|34=0000745|50=5|52=20150601-04:34:31.000|10=199|8=FIX.4.2|9=0061|35=0|49=1168|56=ICE|34=0000746|50=5|52=20150601-04:35:01.000|10=198|8=FIX.4.2|9=0061|35=0|49=1168|56=ICE|34=0000747|50=5|52=20150601-04:35:31.000|10=202|8=FIX.4.2|9=0061|35=0|49=1168|56=ICE|34=0000748|50=5|52=20150601-04:36:01.000|10=201|8=FIX.4.2|9=0061|35=0|49=1168|56=ICE|34=0000749|50=5|52=20150601-04:36:31.000|10=205|8=FIX.4.2|9=0061|35=0|49=1168|56=ICE|34=0000750|50=5|52=20150601-04:37:01.000|10=195|8=FIX.4.2|9=0061|35=0|49=1168|56=ICE|34=0000751|50=5|52=20150601-04:37:31.000|10=199|8=FIX.4.2|9=0061|35=0|49=1168|56=ICE|34=0000752|50=5|52=20150601-04:38:01.000|10=198|8=FIX.4.2|9=0061|35=0|49=1168|56=ICE|34=0000753|50=5|52=20150601-04:38:31.000|10=202|8=FIX.4.2|9=0061|35=0|49=1168|56=ICE|34=0000754|50=5|52=20150601-04:39:01.000|10=201|8=FIX.4.2|9=0061|35=0|49=1168|56=ICE|34=0000755|50=5|52=20150601-04:39:31.000|10=205|8=FIX.4.2|9=0061|35=0|49=1168|56=ICE|34=0000756|50=5|52=20150601-04:40:01.000|10=195|8=FIX.4.2|9=0061|35=0|49=1168|56=ICE|34=0000757|50=5|52=20150601-04:40:31.000|10=199|8=FIX.4.2|9=0061|35=0|49=1168|56=ICE|34=0000758|50=5|52=20150601-04:41:01.000|10=198|8=FIX.4.2|9=0061|35=0|49=1168|56=ICE|34=0000759|50=5|52=20150601-04:41:31.000|10=202|8=FIX.4.2|9=0061|35=0|49=1168|56=ICE|34=0000760|50=5|52=20150601-04:42:01.000|10=192|8=FIX.4.2|9=0061|35=0|49=1168|56=ICE|34=0000761|50=5|52=20150601-04:42:31.000|10=196|8=FIX.4.2|9=0061|35=0|49=1168|56=ICE|34=0000762|50=5|52=20150601-04:43:01.000|10=195|8=FIX.4.2|9=0061|35=0|49=1168|56=ICE|34=0000763|50=5|52=20150601-04:43:31.000|10=199|8=FIX.4.2|9=0061|35=0|49=1168|56=ICE|34=0000764|50=5|52=20150601-04:44:01.000|10=198|8=FIX.4.2|9=0061|35=0|49=1168|56=ICE|34=0000765|50=5|52=20150601-04:44:31.000|10=202|8=FIX.4.2|9=0061|35=0|49=1168|56=ICE|34=0000766|50=5|52=20150601-04:45:01.000|10=201|8=FIX.4.2|9=0061|35=0|49=1168|56=ICE|34=0000767|50=5|52=20150601-04:45:31.000|10=205|8=FIX.4.2|9=0061|35=0|49=1168|56=ICE|34=0000768|50=5|52=20150601-04:46:01.000|10=204|8=FIX.4.2|9=0061|35=0|49=1168|56=ICE|34=0000769|50=5|52=20150601-04:46:31.000|10=208|8=FIX.4.2|9=0061|35=0|49=1168|56=ICE|34=0000770|50=5|52=20150601-04:47:01.000|10=198|8=FIX.4.2|9=0061|35=0|49=1168|56=ICE|34=0000771|50=5|52=20150601-04:47:31.000|10=202|8=FIX.4.2|9=0061|35=0|49=1168|56=ICE|34=0000772|50=5|52=20150601-04:48:01.000|10=201|8=FIX.4.2|9=0061|35=0|49=1168|56=ICE|34=0000773|50=5|52=20150601-04:48:31.000|10=205|8=FIX.4.2|9=0061|35=0|49=1168|56=ICE|34=0000774|50=5|52=20150601-04:49:01.000|10=204|8=FIX.4.2|9=0061|35=0|49=1168|56=ICE|34=0000775|50=5|52=20150601-04:49:31.000|10=208|8=FIX.4.2|9=0061|35=0|49=1168|56=ICE|34=0000776|50=5|52=20150601-04:50:01.000|10=198|8=FIX.4.2|9=0061|35=0|49=1168|56=ICE|34=0000777|50=5|52=20150601-04:50:31.000|10=202|8=FIX.4.2|9=0061|35=0|49=1168|56=ICE|34=0000778|50=5|52=20150601-04:51:01.000|10=201|8=FIX.4.2|9=0061|35=0|49=1168|56=ICE|34=0000779|50=5|52=20150601-04:51:31.000|10=205|8=FIX.4.2|9=0061|35=0|49=1168|56=ICE|34=0000780|50=5|52=20150601-04:52:01.000|10=195|8=FIX.4.2|9=0061|35=0|49=1168|56=ICE|34=0000781|50=5|52=20150601-04:52:31.000|10=199|8=FIX.4.2|9=0061|35=0|49=1168|56=ICE|34=0000782|50=5|52=20150601-04:53:01.000|10=198|8=FIX.4.2|9=0061|35=0|49=1168|56=ICE|34=0000783|50=5|52=20150601-04:53:31.000|10=202|8=FIX.4.2|9=0061|35=0|49=1168|56=ICE|34=0000784|50=5|52=20150601-04:54:01.000|10=201|8=FIX.4.2|9=0061|35=0|49=1168|56=ICE|34=0000785|50=5|52=20150601-04:54:31.000|10=205|8=FIX.4.2|9=0061|35=0|49=1168|56=ICE|34=0000786|50=5|52=20150601-04:55:01.000|10=204|8=FIX.4.2|9=0061|35=0|49=1168|56=ICE|34=0000787|50=5|52=20150601-04:55:31.000|10=208|8=FIX.4.2|9=0061|35=0|49=1168|56=ICE|34=0000788|50=5|52=20150601-04:56:01.000|10=207|8=FIX.4.2|9=0061|35=0|49=1168|56=ICE|34=0000789|50=5|52=20150601-04:56:31.000|10=211|8=FIX.4.2|9=0061|35=0|49=1168|56=ICE|34=0000790|50=5|52=20150601-04:57:01.000|10=201|8=FIX.4.2|9=0061|35=0|49=1168|56=ICE|34=0000791|50=5|52=20150601-04:57:31.000|10=205|8=FIX.4.2|9=0061|35=0|49=1168|56=ICE|34=0000792|50=5|52=20150601-04:58:01.000|10=204|8=FIX.4.2|9=0061|35=0|49=1168|56=ICE|34=0000793|50=5|52=20150601-04:58:31.000|10=208|8=FIX.4.2|9=0061|35=0|49=1168|56=ICE|34=0000794|50=5|52=20150601-04:59:01.000|10=207|8=FIX.4.2|9=0061|35=0|49=1168|56=ICE|34=0000795|50=5|52=20150601-04:59:31.000|10=211|8=FIX.4.2|9=0061|35=0|49=1168|56=ICE|34=0000796|50=5|52=20150601-05:00:01.000|10=196|8=FIX.4.2|9=0061|35=0|49=1168|56=ICE|34=0000797|50=5|52=20150601-05:00:31.000|10=200|8=FIX.4.2|9=0061|35=0|49=1168|56=ICE|34=0000798|50=5|52=20150601-05:01:01.000|10=199|8=FIX.4.2|9=0061|35=0|49=1168|56=ICE|34=0000799|50=5|52=20150601-05:01:31.000|10=203|8=FIX.4.2|9=0061|35=0|49=1168|56=ICE|34=0000800|50=5|52=20150601-05:02:01.000|10=184|8=FIX.4.2|9=0061|35=0|49=1168|56=ICE|34=0000801|50=5|52=20150601-05:02:31.000|10=188|8=FIX.4.2|9=0061|35=0|49=1168|56=ICE|34=0000802|50=5|52=20150601-05:03:01.000|10=187|8=FIX.4.2|9=0061|35=0|49=1168|56=ICE|34=0000803|50=5|52=20150601-05:03:31.000|10=191|8=FIX.4.2|9=0061|35=0|49=1168|56=ICE|34=0000804|50=5|52=20150601-05:04:01.000|10=190|8=FIX.4.2|9=0061|35=0|49=1168|56=ICE|34=0000805|50=5|52=20150601-05:04:31.000|10=194|8=FIX.4.2|9=0061|35=0|49=1168|56=ICE|34=0000806|50=5|52=20150601-05:05:01.000|10=193|8=FIX.4.2|9=0061|35=0|49=1168|56=ICE|34=0000807|50=5|52=20150601-05:05:31.000|10=197|8=FIX.4.2|9=0061|35=0|49=1168|56=ICE|34=0000808|50=5|52=20150601-05:06:01.000|10=196|8=FIX.4.2|9=0061|35=0|49=1168|56=ICE|34=0000809|50=5|52=20150601-05:06:31.000|10=200|8=FIX.4.2|9=0061|35=0|49=1168|56=ICE|34=0000810|50=5|52=20150601-05:07:01.000|10=190|8=FIX.4.2|9=0061|35=0|49=1168|56=ICE|34=0000811|50=5|52=20150601-05:07:31.000|10=194|8=FIX.4.2|9=0061|35=0|49=1168|56=ICE|34=0000812|50=5|52=20150601-05:08:01.000|10=193|8=FIX.4.2|9=0061|35=0|49=1168|56=ICE|34=0000813|50=5|52=20150601-05:08:31.000|10=197|8=FIX.4.2|9=0061|35=0|49=1168|56=ICE|34=0000814|50=5|52=20150601-05:09:01.000|10=196|8=FIX.4.2|9=0061|35=0|49=1168|56=ICE|34=0000815|50=5|52=20150601-05:09:31.000|10=200|8=FIX.4.2|9=0061|35=0|49=1168|56=ICE|34=0000816|50=5|52=20150601-05:10:01.000|10=190|8=FIX.4.2|9=0061|35=0|49=1168|56=ICE|34=0000817|50=5|52=20150601-05:10:31.000|10=194|8=FIX.4.2|9=0061|35=0|49=1168|56=ICE|34=0000818|50=5|52=20150601-05:11:01.000|10=193|8=FIX.4.2|9=0061|35=0|49=1168|56=ICE|34=0000819|50=5|52=20150601-05:11:31.000|10=197|8=FIX.4.2|9=0061|35=0|49=1168|56=ICE|34=0000820|50=5|52=20150601-05:12:01.000|10=187|8=FIX.4.2|9=0061|35=0|49=1168|56=ICE|34=0000821|50=5|52=20150601-05:12:31.000|10=191|8=FIX.4.2|9=0061|35=0|49=1168|56=ICE|34=0000822|50=5|52=20150601-05:13:01.000|10=190|8=FIX.4.2|9=0061|35=0|49=1168|56=ICE|34=0000823|50=5|52=20150601-05:13:31.000|10=194|8=FIX.4.2|9=0061|35=0|49=1168|56=ICE|34=0000824|50=5|52=20150601-05:14:01.000|10=193|8=FIX.4.2|9=0061|35=0|49=1168|56=ICE|34=0000825|50=5|52=20150601-05:14:31.000|10=197|8=FIX.4.2|9=0061|35=0|49=1168|56=ICE|34=0000826|50=5|52=20150601-05:15:01.000|10=196|8=FIX.4.2|9=0061|35=0|49=1168|56=ICE|34=0000827|50=5|52=20150601-05:15:31.000|10=200|8=FIX.4.2|9=0061|35=0|49=1168|56=ICE|34=0000828|50=5|52=20150601-05:16:01.000|10=199|8=FIX.4.2|9=0061|35=0|49=1168|56=ICE|34=0000829|50=5|52=20150601-05:16:31.000|10=203|8=FIX.4.2|9=0061|35=0|49=1168|56=ICE|34=0000830|50=5|52=20150601-05:17:01.000|10=193|8=FIX.4.2|9=0061|35=0|49=1168|56=ICE|34=0000831|50=5|52=20150601-05:17:31.000|10=197|8=FIX.4.2|9=0061|35=0|49=1168|56=ICE|34=0000832|50=5|52=20150601-05:18:01.000|10=196|8=FIX.4.2|9=0061|35=0|49=1168|56=ICE|34=0000833|50=5|52=20150601-05:18:31.000|10=200|8=FIX.4.2|9=0061|35=0|49=1168|56=ICE|34=0000834|50=5|52=20150601-05:19:01.000|10=199|8=FIX.4.2|9=0061|35=0|49=1168|56=ICE|34=0000835|50=5|52=20150601-05:19:31.000|10=203|8=FIX.4.2|9=0061|35=0|49=1168|56=ICE|34=0000836|50=5|52=20150601-05:20:01.000|10=193|8=FIX.4.2|9=0061|35=0|49=1168|56=ICE|34=0000837|50=5|52=20150601-05:20:31.000|10=197|8=FIX.4.2|9=0061|35=0|49=1168|56=ICE|34=0000838|50=5|52=20150601-05:21:01.000|10=196|8=FIX.4.2|9=0061|35=0|49=1168|56=ICE|34=0000839|50=5|52=20150601-05:21:31.000|10=200|8=FIX.4.2|9=0061|35=0|49=1168|56=ICE|34=0000840|50=5|52=20150601-05:22:01.000|10=190|8=FIX.4.2|9=0061|35=0|49=1168|56=ICE|34=0000841|50=5|52=20150601-05:22:31.000|10=194|8=FIX.4.2|9=0061|35=0|49=1168|56=ICE|34=0000842|50=5|52=20150601-05:23:01.000|10=193|8=FIX.4.2|9=0061|35=0|49=1168|56=ICE|34=0000843|50=5|52=20150601-05:23:31.000|10=197|8=FIX.4.2|9=0061|35=0|49=1168|56=ICE|34=0000844|50=5|52=20150601-05:24:01.000|10=196|8=FIX.4.2|9=0061|35=0|49=1168|56=ICE|34=0000845|50=5|52=20150601-05:24:31.000|10=200|8=FIX.4.2|9=0061|35=0|49=1168|56=ICE|34=0000846|50=5|52=20150601-05:25:01.000|10=199|8=FIX.4.2|9=0061|35=0|49=1168|56=ICE|34=0000847|50=5|52=20150601-05:25:31.000|10=203|8=FIX.4.2|9=0061|35=0|49=1168|56=ICE|34=0000848|50=5|52=20150601-05:26:01.000|10=202|8=FIX.4.2|9=0061|35=0|49=1168|56=ICE|34=0000849|50=5|52=20150601-05:26:31.000|10=206|8=FIX.4.2|9=0061|35=0|49=1168|56=ICE|34=0000850|50=5|52=20150601-05:27:01.000|10=196|8=FIX.4.2|9=0061|35=0|49=1168|56=ICE|34=0000851|50=5|52=20150601-05:27:31.000|10=200|8=FIX.4.2|9=0061|35=0|49=1168|56=ICE|34=0000852|50=5|52=20150601-05:28:01.000|10=199|8=FIX.4.2|9=0061|35=0|49=1168|56=ICE|34=0000853|50=5|52=20150601-05:28:31.000|10=203|8=FIX.4.2|9=0061|35=0|49=1168|56=ICE|34=0000854|50=5|52=20150601-05:29:01.000|10=202|8=FIX.4.2|9=0061|35=0|49=1168|56=ICE|34=0000855|50=5|52=20150601-05:29:31.000|10=206|8=FIX.4.2|9=0061|35=0|49=1168|56=ICE|34=0000856|50=5|52=20150601-05:30:01.000|10=196|8=FIX.4.2|9=0061|35=0|49=1168|56=ICE|34=0000857|50=5|52=20150601-05:30:31.000|10=200|8=FIX.4.2|9=0061|35=0|49=1168|56=ICE|34=0000858|50=5|52=20150601-05:31:01.000|10=199|8=FIX.4.2|9=0061|35=0|49=1168|56=ICE|34=0000859|50=5|52=20150601-05:31:31.000|10=203|8=FIX.4.2|9=0061|35=0|49=1168|56=ICE|34=0000860|50=5|52=20150601-05:32:01.000|10=193|8=FIX.4.2|9=0061|35=0|49=1168|56=ICE|34=0000861|50=5|52=20150601-05:32:31.000|10=197|8=FIX.4.2|9=0061|35=0|49=1168|56=ICE|34=0000862|50=5|52=20150601-05:33:01.000|10=196|8=FIX.4.2|9=0061|35=0|49=1168|56=ICE|34=0000863|50=5|52=20150601-05:33:31.000|10=200|8=FIX.4.2|9=0061|35=0|49=1168|56=ICE|34=0000864|50=5|52=20150601-05:34:01.000|10=199|8=FIX.4.2|9=0061|35=0|49=1168|56=ICE|34=0000865|50=5|52=20150601-05:34:31.000|10=203|8=FIX.4.2|9=0061|35=0|49=1168|56=ICE|34=0000866|50=5|52=20150601-05:35:01.000|10=202|8=FIX.4.2|9=0061|35=0|49=1168|56=ICE|34=0000867|50=5|52=20150601-05:35:31.000|10=206|8=FIX.4.2|9=0061|35=0|49=1168|56=ICE|34=0000868|50=5|52=20150601-05:36:01.000|10=205|8=FIX.4.2|9=0061|35=0|49=1168|56=ICE|34=0000869|50=5|52=20150601-05:36:31.000|10=209|8=FIX.4.2|9=0061|35=0|49=1168|56=ICE|34=0000870|50=5|52=20150601-05:37:01.000|10=199|8=FIX.4.2|9=0061|35=0|49=1168|56=ICE|34=0000871|50=5|52=20150601-05:37:31.000|10=203|8=FIX.4.2|9=0061|35=0|49=1168|56=ICE|34=0000872|50=5|52=20150601-05:38:01.000|10=202|8=FIX.4.2|9=0061|35=0|49=1168|56=ICE|34=0000873|50=5|52=20150601-05:38:31.000|10=206|8=FIX.4.2|9=0061|35=0|49=1168|56=ICE|34=0000874|50=5|52=20150601-05:39:01.000|10=205|8=FIX.4.2|9=0061|35=0|49=1168|56=ICE|34=0000875|50=5|52=20150601-05:39:31.000|10=209|8=FIX.4.2|9=0061|35=0|49=1168|56=ICE|34=0000876|50=5|52=20150601-05:40:01.000|10=199|8=FIX.4.2|9=0061|35=0|49=1168|56=ICE|34=0000877|50=5|52=20150601-05:40:31.000|10=203|8=FIX.4.2|9=0061|35=0|49=1168|56=ICE|34=0000878|50=5|52=20150601-05:41:01.000|10=202|8=FIX.4.2|9=0061|35=0|49=1168|56=ICE|34=0000879|50=5|52=20150601-05:41:31.000|10=206|8=FIX.4.2|9=0061|35=0|49=1168|56=ICE|34=0000880|50=5|52=20150601-05:42:01.000|10=196|8=FIX.4.2|9=0061|35=0|49=1168|56=ICE|34=0000881|50=5|52=20150601-05:42:31.000|10=200|8=FIX.4.2|9=0061|35=0|49=1168|56=ICE|34=0000882|50=5|52=20150601-05:43:01.000|10=199|8=FIX.4.2|9=0061|35=0|49=1168|56=ICE|34=0000883|50=5|52=20150601-05:43:31.000|10=203|8=FIX.4.2|9=0061|35=0|49=1168|56=ICE|34=0000884|50=5|52=20150601-05:44:01.000|10=202|8=FIX.4.2|9=0061|35=0|49=1168|56=ICE|34=0000885|50=5|52=20150601-05:44:31.000|10=206|8=FIX.4.2|9=0061|35=0|49=1168|56=ICE|34=0000886|50=5|52=20150601-05:45:01.000|10=205|8=FIX.4.2|9=0061|35=0|49=1168|56=ICE|34=0000887|50=5|52=20150601-05:45:31.000|10=209|8=FIX.4.2|9=0061|35=0|49=1168|56=ICE|34=0000888|50=5|52=20150601-05:46:01.000|10=208|8=FIX.4.2|9=0061|35=0|49=1168|56=ICE|34=0000889|50=5|52=20150601-05:46:31.000|10=212|8=FIX.4.2|9=0061|35=0|49=1168|56=ICE|34=0000890|50=5|52=20150601-05:47:01.000|10=202|8=FIX.4.2|9=0061|35=0|49=1168|56=ICE|34=0000891|50=5|52=20150601-05:47:31.000|10=206|8=FIX.4.2|9=0061|35=0|49=1168|56=ICE|34=0000892|50=5|52=20150601-05:48:01.000|10=205|8=FIX.4.2|9=0061|35=0|49=1168|56=ICE|34=0000893|50=5|52=20150601-05:48:31.000|10=209|8=FIX.4.2|9=0061|35=0|49=1168|56=ICE|34=0000894|50=5|52=20150601-05:49:01.000|10=208|8=FIX.4.2|9=0061|35=0|49=1168|56=ICE|34=0000895|50=5|52=20150601-05:49:31.000|10=212|8=FIX.4.2|9=0061|35=0|49=1168|56=ICE|34=0000896|50=5|52=20150601-05:50:01.000|10=202|8=FIX.4.2|9=0061|35=0|49=1168|56=ICE|34=0000897|50=5|52=20150601-05:50:31.000|10=206|8=FIX.4.2|9=0061|35=0|49=1168|56=ICE|34=0000898|50=5|52=20150601-05:51:01.000|10=205|8=FIX.4.2|9=0061|35=0|49=1168|56=ICE|34=0000899|50=5|52=20150601-05:51:31.000|10=209|8=FIX.4.2|9=0061|35=0|49=1168|56=ICE|34=0000900|50=5|52=20150601-05:52:01.000|10=190|8=FIX.4.2|9=0061|35=0|49=1168|56=ICE|34=0000901|50=5|52=20150601-05:52:31.000|10=194|8=FIX.4.2|9=0061|35=0|49=1168|56=ICE|34=0000902|50=5|52=20150601-05:53:01.000|10=193|8=FIX.4.2|9=0061|35=0|49=1168|56=ICE|34=0000903|50=5|52=20150601-05:53:31.000|10=197|8=FIX.4.2|9=0061|35=0|49=1168|56=ICE|34=0000904|50=5|52=20150601-05:54:01.000|10=196|8=FIX.4.2|9=0061|35=0|49=1168|56=ICE|34=0000905|50=5|52=20150601-05:54:31.000|10=200|8=FIX.4.2|9=0061|35=0|49=1168|56=ICE|34=0000906|50=5|52=20150601-05:55:01.000|10=199|8=FIX.4.2|9=0061|35=0|49=1168|56=ICE|34=0000907|50=5|52=20150601-05:55:31.000|10=203|8=FIX.4.2|9=0061|35=0|49=1168|56=ICE|34=0000908|50=5|52=20150601-05:56:01.000|10=202|8=FIX.4.2|9=0061|35=0|49=1168|56=ICE|34=0000909|50=5|52=20150601-05:56:31.000|10=206|8=FIX.4.2|9=0061|35=0|49=1168|56=ICE|34=0000910|50=5|52=20150601-05:57:01.000|10=196|8=FIX.4.2|9=0061|35=0|49=1168|56=ICE|34=0000911|50=5|52=20150601-05:57:31.000|10=200|8=FIX.4.2|9=0061|35=0|49=1168|56=ICE|34=0000912|50=5|52=20150601-05:58:01.000|10=199|8=FIX.4.2|9=0061|35=0|49=1168|56=ICE|34=0000913|50=5|52=20150601-05:58:31.000|10=203|8=FIX.4.2|9=0061|35=0|49=1168|56=ICE|34=0000914|50=5|52=20150601-05:59:01.000|10=202|8=FIX.4.2|9=0061|35=0|49=1168|56=ICE|34=0000915|50=5|52=20150601-05:59:31.000|10=206|8=FIX.4.2|9=0061|35=0|49=1168|56=ICE|34=0000916|50=5|52=20150601-06:00:01.000|10=191|8=FIX.4.2|9=0061|35=0|49=1168|56=ICE|34=0000917|50=5|52=20150601-06:00:31.000|10=195|8=FIX.4.2|9=0061|35=0|49=1168|56=ICE|34=0000918|50=5|52=20150601-06:01:01.000|10=194|8=FIX.4.2|9=0061|35=0|49=1168|56=ICE|34=0000919|50=5|52=20150601-06:01:31.000|10=198|8=FIX.4.2|9=0061|35=0|49=1168|56=ICE|34=0000920|50=5|52=20150601-06:02:01.000|10=188|8=FIX.4.2|9=0061|35=0|49=1168|56=ICE|34=0000921|50=5|52=20150601-06:02:31.000|10=192|8=FIX.4.2|9=0061|35=0|49=1168|56=ICE|34=0000922|50=5|52=20150601-06:03:01.000|10=191|8=FIX.4.2|9=0061|35=0|49=1168|56=ICE|34=0000923|50=5|52=20150601-06:03:31.000|10=195|8=FIX.4.2|9=0061|35=0|49=1168|56=ICE|34=0000924|50=5|52=20150601-06:04:01.000|10=194|8=FIX.4.2|9=0061|35=0|49=1168|56=ICE|34=0000925|50=5|52=20150601-06:04:31.000|10=198|8=FIX.4.2|9=0061|35=0|49=1168|56=ICE|34=0000926|50=5|52=20150601-06:05:01.000|10=197|8=FIX.4.2|9=0061|35=0|49=1168|56=ICE|34=0000927|50=5|52=20150601-06:05:31.000|10=201|8=FIX.4.2|9=0061|35=0|49=1168|56=ICE|34=0000928|50=5|52=20150601-06:06:01.000|10=200|8=FIX.4.2|9=0061|35=0|49=1168|56=ICE|34=0000929|50=5|52=20150601-06:06:31.000|10=204|8=FIX.4.2|9=0061|35=0|49=1168|56=ICE|34=0000930|50=5|52=20150601-06:07:01.000|10=194|8=FIX.4.2|9=0061|35=0|49=1168|56=ICE|34=0000931|50=5|52=20150601-06:07:31.000|10=198|8=FIX.4.2|9=0061|35=0|49=1168|56=ICE|34=0000932|50=5|52=20150601-06:08:01.000|10=197|8=FIX.4.2|9=0061|35=0|49=1168|56=ICE|34=0000933|50=5|52=20150601-06:08:31.000|10=201|8=FIX.4.2|9=0061|35=0|49=1168|56=ICE|34=0000934|50=5|52=20150601-06:09:01.000|10=200|8=FIX.4.2|9=0061|35=0|49=1168|56=ICE|34=0000935|50=5|52=20150601-06:09:31.000|10=204|8=FIX.4.2|9=0061|35=0|49=1168|56=ICE|34=0000936|50=5|52=20150601-06:10:01.000|10=194|8=FIX.4.2|9=0061|35=0|49=1168|56=ICE|34=0000937|50=5|52=20150601-06:10:31.000|10=198|8=FIX.4.2|9=0061|35=0|49=1168|56=ICE|34=0000938|50=5|52=20150601-06:11:01.000|10=197|8=FIX.4.2|9=0061|35=0|49=1168|56=ICE|34=0000939|50=5|52=20150601-06:11:31.000|10=201|8=FIX.4.2|9=0061|35=0|49=1168|56=ICE|34=0000940|50=5|52=20150601-06:12:01.000|10=191|8=FIX.4.2|9=0061|35=0|49=1168|56=ICE|34=0000941|50=5|52=20150601-06:12:31.000|10=195|8=FIX.4.2|9=0061|35=0|49=1168|56=ICE|34=0000942|50=5|52=20150601-06:13:01.000|10=194|8=FIX.4.2|9=0061|35=0|49=1168|56=ICE|34=0000943|50=5|52=20150601-06:13:31.000|10=198|8=FIX.4.2|9=0061|35=0|49=1168|56=ICE|34=0000944|50=5|52=20150601-06:14:01.000|10=197|8=FIX.4.2|9=0061|35=0|49=1168|56=ICE|34=0000945|50=5|52=20150601-06:14:31.000|10=201|8=FIX.4.2|9=0061|35=0|49=1168|56=ICE|34=0000946|50=5|52=20150601-06:15:01.000|10=200|8=FIX.4.2|9=0061|35=0|49=1168|56=ICE|34=0000947|50=5|52=20150601-06:15:31.000|10=204|8=FIX.4.2|9=0061|35=0|49=1168|56=ICE|34=0000948|50=5|52=20150601-06:16:01.000|10=203|8=FIX.4.2|9=0061|35=0|49=1168|56=ICE|34=0000949|50=5|52=20150601-06:16:31.000|10=207|8=FIX.4.2|9=0061|35=0|49=1168|56=ICE|34=0000950|50=5|52=20150601-06:17:01.000|10=197|8=FIX.4.2|9=0061|35=0|49=1168|56=ICE|34=0000951|50=5|52=20150601-06:17:31.000|10=201|8=FIX.4.2|9=0061|35=0|49=1168|56=ICE|34=0000952|50=5|52=20150601-06:18:01.000|10=200|8=FIX.4.2|9=0061|35=0|49=1168|56=ICE|34=0000953|50=5|52=20150601-06:18:31.000|10=204|8=FIX.4.2|9=0061|35=0|49=1168|56=ICE|34=0000954|50=5|52=20150601-06:19:01.000|10=203|8=FIX.4.2|9=0061|35=0|49=1168|56=ICE|34=0000955|50=5|52=20150601-06:19:31.000|10=207|8=FIX.4.2|9=0061|35=0|49=1168|56=ICE|34=0000956|50=5|52=20150601-06:20:01.000|10=197|8=FIX.4.2|9=0061|35=0|49=1168|56=ICE|34=0000957|50=5|52=20150601-06:20:31.000|10=201|8=FIX.4.2|9=0061|35=0|49=1168|56=ICE|34=0000958|50=5|52=20150601-06:21:01.000|10=200|8=FIX.4.2|9=0061|35=0|49=1168|56=ICE|34=0000959|50=5|52=20150601-06:21:31.000|10=204|8=FIX.4.2|9=0061|35=0|49=1168|56=ICE|34=0000960|50=5|52=20150601-06:22:01.000|10=194|8=FIX.4.2|9=0061|35=0|49=1168|56=ICE|34=0000961|50=5|52=20150601-06:22:31.000|10=198|8=FIX.4.2|9=0061|35=0|49=1168|56=ICE|34=0000962|50=5|52=20150601-06:23:01.000|10=197|8=FIX.4.2|9=0061|35=0|49=1168|56=ICE|34=0000963|50=5|52=20150601-06:23:31.000|10=201|8=FIX.4.2|9=0061|35=0|49=1168|56=ICE|34=0000964|50=5|52=20150601-06:24:01.000|10=200|8=FIX.4.2|9=0061|35=0|49=1168|56=ICE|34=0000965|50=5|52=20150601-06:24:31.000|10=204|8=FIX.4.2|9=0061|35=0|49=1168|56=ICE|34=0000966|50=5|52=20150601-06:25:01.000|10=203|8=FIX.4.2|9=0061|35=0|49=1168|56=ICE|34=0000967|50=5|52=20150601-06:25:31.000|10=207|8=FIX.4.2|9=0061|35=0|49=1168|56=ICE|34=0000968|50=5|52=20150601-06:26:01.000|10=206|8=FIX.4.2|9=0061|35=0|49=1168|56=ICE|34=0000969|50=5|52=20150601-06:26:31.000|10=210|8=FIX.4.2|9=0061|35=0|49=1168|56=ICE|34=0000970|50=5|52=20150601-06:27:01.000|10=200|8=FIX.4.2|9=0061|35=0|49=1168|56=ICE|34=0000971|50=5|52=20150601-06:27:31.000|10=204|8=FIX.4.2|9=0061|35=0|49=1168|56=ICE|34=0000972|50=5|52=20150601-06:28:01.000|10=203|8=FIX.4.2|9=0061|35=0|49=1168|56=ICE|34=0000973|50=5|52=20150601-06:28:31.000|10=207|8=FIX.4.2|9=0061|35=0|49=1168|56=ICE|34=0000974|50=5|52=20150601-06:29:01.000|10=206|8=FIX.4.2|9=0061|35=0|49=1168|56=ICE|34=0000975|50=5|52=20150601-06:29:31.000|10=210|8=FIX.4.2|9=0061|35=0|49=1168|56=ICE|34=0000976|50=5|52=20150601-06:30:01.000|10=200|8=FIX.4.2|9=0061|35=0|49=1168|56=ICE|34=0000977|50=5|52=20150601-06:30:31.000|10=204|8=FIX.4.2|9=0061|35=0|49=1168|56=ICE|34=0000978|50=5|52=20150601-06:31:01.000|10=203|8=FIX.4.2|9=0061|35=0|49=1168|56=ICE|34=0000979|50=5|52=20150601-06:31:31.000|10=207|8=FIX.4.2|9=0061|35=0|49=1168|56=ICE|34=0000980|50=5|52=20150601-06:32:01.000|10=197|8=FIX.4.2|9=0061|35=0|49=1168|56=ICE|34=0000981|50=5|52=20150601-06:32:31.000|10=201|8=FIX.4.2|9=0061|35=0|49=1168|56=ICE|34=0000982|50=5|52=20150601-06:33:01.000|10=200|8=FIX.4.2|9=0061|35=0|49=1168|56=ICE|34=0000983|50=5|52=20150601-06:33:31.000|10=204|8=FIX.4.2|9=0061|35=0|49=1168|56=ICE|34=0000984|50=5|52=20150601-06:34:01.000|10=203|8=FIX.4.2|9=0061|35=0|49=1168|56=ICE|34=0000985|50=5|52=20150601-06:34:31.000|10=207|8=FIX.4.2|9=0061|35=0|49=1168|56=ICE|34=0000986|50=5|52=20150601-06:35:01.000|10=206|8=FIX.4.2|9=0061|35=0|49=1168|56=ICE|34=0000987|50=5|52=20150601-06:35:31.000|10=210|8=FIX.4.2|9=0061|35=0|49=1168|56=ICE|34=0000988|50=5|52=20150601-06:36:01.000|10=209|8=FIX.4.2|9=0061|35=0|49=1168|56=ICE|34=0000989|50=5|52=20150601-06:36:31.000|10=213|8=FIX.4.2|9=0061|35=0|49=1168|56=ICE|34=0000990|50=5|52=20150601-06:37:01.000|10=203|8=FIX.4.2|9=0061|35=0|49=1168|56=ICE|34=0000991|50=5|52=20150601-06:37:31.000|10=207|8=FIX.4.2|9=0061|35=0|49=1168|56=ICE|34=0000992|50=5|52=20150601-06:38:01.000|10=206|8=FIX.4.2|9=0061|35=0|49=1168|56=ICE|34=0000993|50=5|52=20150601-06:38:31.000|10=210|8=FIX.4.2|9=0061|35=0|49=1168|56=ICE|34=0000994|50=5|52=20150601-06:39:01.000|10=209|8=FIX.4.2|9=0061|35=0|49=1168|56=ICE|34=0000995|50=5|52=20150601-06:39:31.000|10=213|8=FIX.4.2|9=0061|35=0|49=1168|56=ICE|34=0000996|50=5|52=20150601-06:40:01.000|10=203|8=FIX.4.2|9=0061|35=0|49=1168|56=ICE|34=0000997|50=5|52=20150601-06:40:31.000|10=207|8=FIX.4.2|9=0061|35=0|49=1168|56=ICE|34=0000998|50=5|52=20150601-06:41:01.000|10=206|8=FIX.4.2|9=0061|35=0|49=1168|56=ICE|34=0000999|50=5|52=20150601-06:41:31.000|10=210|8=FIX.4.2|9=0061|35=0|49=1168|56=ICE|34=0001000|50=5|52=20150601-06:42:01.000|10=182|8=FIX.4.2|9=0061|35=0|49=1168|56=ICE|34=0001001|50=5|52=20150601-06:42:31.000|10=186|8=FIX.4.2|9=0061|35=0|49=1168|56=ICE|34=0001002|50=5|52=20150601-06:43:01.000|10=185|8=FIX.4.2|9=0061|35=0|49=1168|56=ICE|34=0001003|50=5|52=20150601-06:43:31.000|10=189|8=FIX.4.2|9=0061|35=0|49=1168|56=ICE|34=0001004|50=5|52=20150601-06:44:01.000|10=188|8=FIX.4.2|9=0061|35=0|49=1168|56=ICE|34=0001005|50=5|52=20150601-06:44:31.000|10=192|8=FIX.4.2|9=0061|35=0|49=1168|56=ICE|34=0001006|50=5|52=20150601-06:45:01.000|10=191|8=FIX.4.2|9=0061|35=0|49=1168|56=ICE|34=0001007|50=5|52=20150601-06:45:31.000|10=195|8=FIX.4.2|9=0061|35=0|49=1168|56=ICE|34=0001008|50=5|52=20150601-06:46:01.000|10=194|8=FIX.4.2|9=0061|35=0|49=1168|56=ICE|34=0001009|50=5|52=20150601-06:46:31.000|10=198|8=FIX.4.2|9=0061|35=0|49=1168|56=ICE|34=0001010|50=5|52=20150601-06:47:01.000|10=188|8=FIX.4.2|9=0061|35=0|49=1168|56=ICE|34=0001011|50=5|52=20150601-06:47:31.000|10=192|8=FIX.4.2|9=0061|35=0|49=1168|56=ICE|34=0001012|50=5|52=20150601-06:48:01.000|10=191|8=FIX.4.2|9=0061|35=0|49=1168|56=ICE|34=0001013|50=5|52=20150601-06:48:31.000|10=195|8=FIX.4.2|9=0061|35=0|49=1168|56=ICE|34=0001014|50=5|52=20150601-06:49:01.000|10=194|8=FIX.4.2|9=0061|35=0|49=1168|56=ICE|34=0001015|50=5|52=20150601-06:49:31.000|10=198|8=FIX.4.2|9=0061|35=0|49=1168|56=ICE|34=0001016|50=5|52=20150601-06:50:01.000|10=188|8=FIX.4.2|9=0061|35=0|49=1168|56=ICE|34=0001017|50=5|52=20150601-06:50:31.000|10=192|8=FIX.4.2|9=0061|35=0|49=1168|56=ICE|34=0001018|50=5|52=20150601-06:51:01.000|10=191|8=FIX.4.2|9=0061|35=0|49=1168|56=ICE|34=0001019|50=5|52=20150601-06:51:31.000|10=195|8=FIX.4.2|9=0061|35=0|49=1168|56=ICE|34=0001020|50=5|52=20150601-06:52:01.000|10=185|8=FIX.4.2|9=0061|35=0|49=1168|56=ICE|34=0001021|50=5|52=20150601-06:52:31.000|10=189|8=FIX.4.2|9=0061|35=0|49=1168|56=ICE|34=0001022|50=5|52=20150601-06:53:01.000|10=188|8=FIX.4.2|9=0061|35=0|49=1168|56=ICE|34=0001023|50=5|52=20150601-06:53:31.000|10=192|8=FIX.4.2|9=0061|35=0|49=1168|56=ICE|34=0001024|50=5|52=20150601-06:54:01.000|10=191|8=FIX.4.2|9=0061|35=0|49=1168|56=ICE|34=0001025|50=5|52=20150601-06:54:31.000|10=195|8=FIX.4.2|9=0061|35=0|49=1168|56=ICE|34=0001026|50=5|52=20150601-06:55:01.000|10=194|8=FIX.4.2|9=0061|35=0|49=1168|56=ICE|34=0001027|50=5|52=20150601-06:55:31.000|10=198|8=FIX.4.2|9=0061|35=0|49=1168|56=ICE|34=0001028|50=5|52=20150601-06:56:01.000|10=197|8=FIX.4.2|9=0061|35=0|49=1168|56=ICE|34=0001029|50=5|52=20150601-06:56:31.000|10=201|8=FIX.4.2|9=0061|35=0|49=1168|56=ICE|34=0001030|50=5|52=20150601-06:57:01.000|10=191|8=FIX.4.2|9=0061|35=0|49=1168|56=ICE|34=0001031|50=5|52=20150601-06:57:31.000|10=195|8=FIX.4.2|9=0061|35=0|49=1168|56=ICE|34=0001032|50=5|52=20150601-06:58:01.000|10=194|8=FIX.4.2|9=0061|35=0|49=1168|56=ICE|34=0001033|50=5|52=20150601-06:58:31.000|10=198|8=FIX.4.2|9=0061|35=0|49=1168|56=ICE|34=0001034|50=5|52=20150601-06:59:01.000|10=197|8=FIX.4.2|9=0061|35=0|49=1168|56=ICE|34=0001035|50=5|52=20150601-06:59:31.000|10=201|8=FIX.4.2|9=0061|35=0|49=1168|56=ICE|34=0001036|50=5|52=20150601-07:00:01.000|10=186|8=FIX.4.2|9=0061|35=0|49=1168|56=ICE|34=0001037|50=5|52=20150601-07:00:31.000|10=190|8=FIX.4.2|9=0061|35=0|49=1168|56=ICE|34=0001038|50=5|52=20150601-07:01:01.000|10=189|8=FIX.4.2|9=0061|35=0|49=1168|56=ICE|34=0001039|50=5|52=20150601-07:01:31.000|10=193|8=FIX.4.2|9=0061|35=0|49=1168|56=ICE|34=0001040|50=5|52=20150601-07:02:01.000|10=183|8=FIX.4.2|9=0061|35=0|49=1168|56=ICE|34=0001041|50=5|52=20150601-07:02:31.000|10=187|8=FIX.4.2|9=0061|35=0|49=1168|56=ICE|34=0001042|50=5|52=20150601-07:03:01.000|10=186|8=FIX.4.2|9=0061|35=0|49=1168|56=ICE|34=0001043|50=5|52=20150601-07:03:31.000|10=190|8=FIX.4.2|9=0061|35=0|49=1168|56=ICE|34=0001044|50=5|52=20150601-07:04:01.000|10=189|8=FIX.4.2|9=0061|35=0|49=1168|56=ICE|34=0001045|50=5|52=20150601-07:04:31.000|10=193|8=FIX.4.2|9=0061|35=0|49=1168|56=ICE|34=0001046|50=5|52=20150601-07:05:01.000|10=192|8=FIX.4.2|9=0061|35=0|49=1168|56=ICE|34=0001047|50=5|52=20150601-07:05:31.000|10=196|8=FIX.4.2|9=0061|35=0|49=1168|56=ICE|34=0001048|50=5|52=20150601-07:06:01.000|10=195|8=FIX.4.2|9=0061|35=0|49=1168|56=ICE|34=0001049|50=5|52=20150601-07:06:31.000|10=199|8=FIX.4.2|9=0061|35=0|49=1168|56=ICE|34=0001050|50=5|52=20150601-07:07:01.000|10=189|8=FIX.4.2|9=0061|35=0|49=1168|56=ICE|34=0001051|50=5|52=20150601-07:07:31.000|10=193|8=FIX.4.2|9=0061|35=0|49=1168|56=ICE|34=0001052|50=5|52=20150601-07:08:01.000|10=192|8=FIX.4.2|9=0061|35=0|49=1168|56=ICE|34=0001053|50=5|52=20150601-07:08:31.000|10=196|8=FIX.4.2|9=0061|35=0|49=1168|56=ICE|34=0001054|50=5|52=20150601-07:09:01.000|10=195|8=FIX.4.2|9=0061|35=0|49=1168|56=ICE|34=0001055|50=5|52=20150601-07:09:31.000|10=199|8=FIX.4.2|9=0061|35=0|49=1168|56=ICE|34=0001056|50=5|52=20150601-07:10:01.000|10=189|8=FIX.4.2|9=0061|35=0|49=1168|56=ICE|34=0001057|50=5|52=20150601-07:10:31.000|10=193|8=FIX.4.2|9=0061|35=0|49=1168|56=ICE|34=0001058|50=5|52=20150601-07:11:01.000|10=192|8=FIX.4.2|9=0061|35=0|49=1168|56=ICE|34=0001059|50=5|52=20150601-07:11:31.000|10=196|8=FIX.4.2|9=0061|35=0|49=1168|56=ICE|34=0001060|50=5|52=20150601-07:12:01.000|10=186|8=FIX.4.2|9=0061|35=0|49=1168|56=ICE|34=0001061|50=5|52=20150601-07:12:31.000|10=190|8=FIX.4.2|9=0061|35=0|49=1168|56=ICE|34=0001062|50=5|52=20150601-07:13:01.000|10=189|8=FIX.4.2|9=0061|35=0|49=1168|56=ICE|34=0001063|50=5|52=20150601-07:13:31.000|10=193|8=FIX.4.2|9=0061|35=0|49=1168|56=ICE|34=0001064|50=5|52=20150601-07:14:01.000|10=192|8=FIX.4.2|9=0061|35=0|49=1168|56=ICE|34=0001065|50=5|52=20150601-07:14:31.000|10=196|8=FIX.4.2|9=0061|35=0|49=1168|56=ICE|34=0001066|50=5|52=20150601-07:15:01.000|10=195|8=FIX.4.2|9=0061|35=0|49=1168|56=ICE|34=0001067|50=5|52=20150601-07:15:31.000|10=199|8=FIX.4.2|9=0061|35=0|49=1168|56=ICE|34=0001068|50=5|52=20150601-07:16:01.000|10=198|8=FIX.4.2|9=0061|35=0|49=1168|56=ICE|34=0001069|50=5|52=20150601-07:16:31.000|10=202|8=FIX.4.2|9=0061|35=0|49=1168|56=ICE|34=0001070|50=5|52=20150601-07:17:01.000|10=192|8=FIX.4.2|9=0061|35=0|49=1168|56=ICE|34=0001071|50=5|52=20150601-07:17:31.000|10=196|8=FIX.4.2|9=0061|35=0|49=1168|56=ICE|34=0001072|50=5|52=20150601-07:18:01.000|10=195|8=FIX.4.2|9=0061|35=0|49=1168|56=ICE|34=0001073|50=5|52=20150601-07:18:31.000|10=199|8=FIX.4.2|9=0061|35=0|49=1168|56=ICE|34=0001074|50=5|52=20150601-07:19:01.000|10=198|8=FIX.4.2|9=0061|35=0|49=1168|56=ICE|34=0001075|50=5|52=20150601-07:19:31.000|10=202|8=FIX.4.2|9=0061|35=0|49=1168|56=ICE|34=0001076|50=5|52=20150601-07:20:01.000|10=192|8=FIX.4.2|9=0061|35=0|49=1168|56=ICE|34=0001077|50=5|52=20150601-07:20:31.000|10=196|8=FIX.4.2|9=0061|35=0|49=1168|56=ICE|34=0001078|50=5|52=20150601-07:21:01.000|10=195|8=FIX.4.2|9=0061|35=0|49=1168|56=ICE|34=0001079|50=5|52=20150601-07:21:31.000|10=199|8=FIX.4.2|9=0061|35=0|49=1168|56=ICE|34=0001080|50=5|52=20150601-07:22:01.000|10=189|8=FIX.4.2|9=0061|35=0|49=1168|56=ICE|34=0001081|50=5|52=20150601-07:22:31.000|10=193|8=FIX.4.2|9=0061|35=0|49=1168|56=ICE|34=0001082|50=5|52=20150601-07:23:01.000|10=192|8=FIX.4.2|9=0061|35=0|49=1168|56=ICE|34=0001083|50=5|52=20150601-07:23:31.000|10=196|8=FIX.4.2|9=0061|35=0|49=1168|56=ICE|34=0001084|50=5|52=20150601-07:24:01.000|10=195|8=FIX.4.2|9=0061|35=0|49=1168|56=ICE|34=0001085|50=5|52=20150601-07:24:31.000|10=199|8=FIX.4.2|9=0061|35=0|49=1168|56=ICE|34=0001086|50=5|52=20150601-07:25:01.000|10=198|8=FIX.4.2|9=0061|35=0|49=1168|56=ICE|34=0001087|50=5|52=20150601-07:25:31.000|10=202|8=FIX.4.2|9=0061|35=0|49=1168|56=ICE|34=00010