1	8=FIX.4.0|9=58|35=A|49=CHX|56=MLPC|34=1|52=20010131-19:10:35|98=0|108=20|10=058|
2	8=FIX.4.0|9=46|35=0|49=CHX|56=MLPC|34=2|52=20010131-19:10:55|10=017|
3	8=FIX.4.0|9=46|35=0|49=CHX|56=MLPC|34=3|52=20010131-19:11:15|10=015|
4	8=FIX.4.0|9=46|35=0|49=CHX|56=MLPC|34=4|52=20010131-19:11:35|10=018|
5	8=FIX.4.0|9=46|35=0|49=CHX|56=MLPC|34=5|52=20010131-19:11:55|10=021|
6	8=FIX.4.0|9=46|35=0|49=CHX|56=MLPC|34=6|52=20010131-19:12:15|10=019|
7	8=FIX.4.0|9=46|35=0|49=CHX|56=MLPC|34=7|52=20010131-19:12:35|10=022|
8	8=FIX.4.0|9=167|35=8|49=CHX|56=MLPC|34=8|52=20010131-19:12:46|37=A31:00001|11=200101318|20=0|17=1|39=0|55=FDX|54=1|38=100|32=0|31=0.000000000000000|14=0|6=0.000000000000000|59=0|40=2|10=018|
9	8=FIX.4.0|9=46|35=0|49=CHX|56=MLPC|34=9|52=20010131-19:13:06|10=023|
10	8=FIX.4.0|9=47|35=0|49=CHX|56=MLPC|34=10|52=20010131-19:13:26|10=066|
11	8=FIX.4.0|9=47|35=0|49=CHX|56=MLPC|34=11|52=20010131-19:13:46|10=069|
12	8=FIX.4.0|9=203|35=8|49=CHX|56=MLPC|34=12|52=20010131-19:13:51|60=20010131-19:13:00|37=A31:00001|11=200101318|76=TDRS|20=0|17=2|39=2|55=FDX|54=1|38=100|32=100|31=45.600000000000001|14=100|6=45.600000000000001|59=0|40=2|10=089|
13	8=FIX.4.0|9=169|35=8|49=CHX|56=MLPC|34=13|52=20010131-19:14:06|37=A31:00002|11=2001013113|20=0|17=3|39=0|55=FDX|54=1|38=100|32=0|31=0.000000000000000|14=0|6=0.000000000000000|59=0|40=2|10=109|
14	8=FIX.4.0|9=47|35=0|49=CHX|56=MLPC|34=14|52=20010131-19:14:26|10=071|
15	8=FIX.4.0|9=197|35=8|49=CHX|56=MLPC|34=15|52=20010131-19:14:28|60=20010131-19:14:00|37=A31:00002|11=2001013113|20=0|17=4|39=4|55=FDX|54=1|38=100|32=0|31=0.000000000000000|14=0|6=0.000000000000000|84=100|59=0|40=2|10=176|
16	8=FIX.4.0|9=169|35=8|49=CHX|56=MLPC|34=16|52=20010131-19:14:36|37=A31:00003|11=2001013115|20=0|17=5|39=0|55=FDX|54=1|38=100|32=0|31=0.000000000000000|14=0|6=0.000000000000000|59=0|40=2|10=120|
17	8=FIX.4.0|9=197|35=8|49=CHX|56=MLPC|34=17|52=20010131-19:14:46|60=20010131-19:14:00|37=A31:00003|11=2001013115|20=0|17=6|39=4|55=FDX|54=1|38=100|32=0|31=0.000000000000000|14=0|6=0.000000000000000|84=100|59=0|40=2|10=183|
18	8=FIX.4.0|9=47|35=0|49=CHX|56=MLPC|34=18|52=20010131-19:15:06|10=074|
19	8=FIX.4.0|9=47|35=0|49=CHX|56=MLPC|34=19|52=20010131-19:15:26|10=077|
20	8=FIX.4.0|9=47|35=0|49=CHX|56=MLPC|34=20|52=20010131-19:15:46|10=071|
21	8=FIX.4.0|9=47|35=0|49=CHX|56=MLPC|34=21|52=20010131-19:16:06|10=069|
22	8=FIX.4.0|9=47|35=0|49=CHX|56=MLPC|34=22|52=20010131-19:16:26|10=072|
23	8=FIX.4.0|9=169|35=8|49=CHX|56=MLPC|34=23|52=20010131-19:16:30|37=A31:00005|11=2001013122|20=0|17=7|39=0|55=FDX|54=1|38=100|32=0|31=0.000000000000000|14=0|6=0.000000000000000|59=0|40=2|10=116|
24	8=FIX.4.0|9=233|35=8|49=CHX|56=MLPC|34=24|52=20010131-19:16:46|60=20010131-19:16:00|37=A31:00006|11=2001013123|20=0|17=8|39=0|55=FDX|54=1|38=200|32=0|31=0.000000000000000|14=0|6=0.000000000000000|44=45.600000000000001|99=0.000000000000000|59=0|40=2|10=104|
25	8=FIX.4.0|9=47|35=0|49=CHX|56=MLPC|34=25|52=20010131-19:17:06|10=074|
26	8=FIX.4.0|9=47|35=0|49=CHX|56=MLPC|34=26|52=20010131-19:17:26|10=077|
27	8=FIX.4.0|9=47|35=0|49=CHX|56=MLPC|34=27|52=20010131-19:17:46|10=080|
28	8=FIX.4.0|9=47|35=0|49=CHX|56=MLPC|34=28|52=20010131-19:18:06|10=078|
29	8=FIX.4.0|9=47|35=0|49=CHX|56=MLPC|34=29|52=20010131-19:18:26|10=081|
30	8=FIX.4.0|9=47|35=0|49=CHX|56=MLPC|34=30|52=20010131-19:18:46|10=075|
31	8=FIX.4.0|9=47|35=0|49=CHX|56=MLPC|34=31|52=20010131-19:19:06|10=073|
32	8=FIX.4.0|9=47|35=0|49=CHX|56=MLPC|34=32|52=20010131-19:19:26|10=076|
33	8=FIX.4.0|9=47|35=0|49=CHX|56=MLPC|34=33|52=20010131-19:19:46|10=079|
34	8=FIX.4.0|9=77|35=9|49=CHX|56=MLPC|34=34|52=20010131-19:20:01|37=:00000|11=2001013133|102=0|10=172|
35	8=FIX.4.0|9=169|35=8|49=CHX|56=MLPC|34=35|52=20010131-19:20:20|37=A31:00007|11=2001013134|20=0|17=9|39=0|55=FDX|54=1|38=100|32=0|31=0.000000000000000|14=0|6=0.000000000000000|59=0|40=2|10=120|
36	8=FIX.4.0|9=234|35=8|49=CHX|56=MLPC|34=36|52=20010131-19:20:40|60=20010131-19:20:00|37=A31:00008|11=2001013135|20=0|17=10|39=0|55=FDX|54=1|38=100|32=0|31=0.000000000000000|14=0|6=0.000000000000000|44=40.000000000000000|99=0.000000000000000|59=0|40=2|10=125|
37	8=FIX.4.0|9=47|35=0|49=CHX|56=MLPC|34=37|52=20010131-19:21:00|10=066|
38	8=FIX.4.0|9=47|35=0|49=CHX|56=MLPC|34=38|52=20010131-19:21:20|10=069|
39	8=FIX.4.0|9=47|35=0|49=CHX|56=MLPC|34=39|52=20010131-19:21:40|10=072|
40	8=FIX.4.0|9=47|35=0|49=CHX|56=MLPC|34=40|52=20010131-19:22:00|10=061|
41	8=FIX.4.0|9=47|35=0|49=CHX|56=MLPC|34=41|52=20010131-19:22:20|10=064|
42	8=FIX.4.0|9=47|35=0|49=CHX|56=MLPC|34=42|52=20010131-19:22:40|10=067|
43	8=FIX.4.0|9=47|35=0|49=CHX|56=MLPC|34=43|52=20010131-19:23:00|10=065|
44	8=FIX.4.0|9=47|35=0|49=CHX|56=MLPC|34=44|52=20010131-19:23:20|10=068|
45	8=FIX.4.0|9=47|35=0|49=CHX|56=MLPC|34=45|52=20010131-19:23:40|10=071|
46	8=FIX.4.0|9=47|35=0|49=CHX|56=MLPC|34=46|52=20010131-19:24:00|10=069|
47	8=FIX.4.0|9=47|35=0|49=CHX|56=MLPC|34=47|52=20010131-19:24:20|10=072|
48	8=FIX.4.0|9=47|35=0|49=CHX|56=MLPC|34=48|52=20010131-19:24:40|10=075|
49	8=FIX.4.0|9=47|35=0|49=CHX|56=MLPC|34=49|52=20010131-19:25:00|10=073|
50	8=FIX.4.0|9=47|35=0|49=CHX|56=MLPC|34=50|52=20010131-19:25:20|10=067|
51	8=FIX.4.0|9=47|35=0|49=CHX|56=MLPC|34=51|52=20010131-19:25:40|10=070|
52	8=FIX.4.0|9=47|35=0|49=CHX|56=MLPC|34=52|52=20010131-19:26:00|10=068|
53	8=FIX.4.0|9=47|35=0|49=CHX|56=MLPC|34=53|52=20010131-19:26:20|10=071|
54	8=FIX.4.0|9=47|35=0|49=CHX|56=MLPC|34=54|52=20010131-19:26:40|10=074|
55	8=FIX.4.0|9=47|35=0|49=CHX|56=MLPC|34=55|52=20010131-19:27:00|10=072|
56	8=FIX.4.0|9=47|35=0|49=CHX|56=MLPC|34=56|52=20010131-19:27:20|10=075|
57	8=FIX.4.0|9=47|35=0|49=CHX|56=MLPC|34=57|52=20010131-19:27:40|10=078|
58	8=FIX.4.0|9=47|35=0|49=CHX|56=MLPC|34=58|52=20010131-19:28:00|10=076|
59	8=FIX.4.0|9=170|35=8|49=CHX|56=MLPC|34=59|52=20010131-19:28:12|37=A31:00009|11=2001013158|20=0|17=11|39=0|55=FDX|54=1|38=200|32=0|31=0.000000000000000|14=0|6=0.000000000000000|59=0|40=2|10=177|
60	8=FIX.4.0|9=47|35=0|49=CHX|56=MLPC|34=60|52=20010131-19:28:32|10=074|
61	8=FIX.4.0|9=205|35=8|49=CHX|56=MLPC|34=61|52=20010131-19:28:51|60=20010131-19:28:00|37=A31:00006|11=2001013123|76=TDRS|20=0|17=12|39=1|55=FDX|54=1|38=200|32=100|31=45.600000000000001|14=100|6=45.600000000000001|59=0|40=2|10=206|
62	8=FIX.4.0|9=47|35=0|49=CHX|56=MLPC|34=62|52=20010131-19:29:11|10=074|
63	8=FIX.4.0|9=47|35=0|49=CHX|56=MLPC|34=63|52=20010131-19:29:31|10=077|
64	8=FIX.4.0|9=47|35=0|49=CHX|56=MLPC|34=64|52=20010131-19:29:51|10=080|
65	8=FIX.4.0|9=205|35=8|49=CHX|56=MLPC|34=65|52=20010131-19:30:02|60=20010131-19:30:00|37=A31:00009|11=2001013158|76=TDRS|20=0|17=13|39=1|55=FDX|54=1|38=200|32=100|31=45.600000000000001|14=100|6=45.600000000000001|59=0|40=2|10=204|
66	8=FIX.4.0|9=236|35=8|49=CHX|56=MLPC|34=66|52=20010131-19:30:13|60=20010131-19:30:00|37=A31:00010|11=2001013165|20=0|17=14|39=0|55=FDX|54=1|38=50|32=0|31=0.000000000000000|14=100|6=45.600000000000001|44=45.600000000000001|99=0.000000000000000|59=0|40=2|10=005|
67	8=FIX.4.0|9=47|35=0|49=CHX|56=MLPC|34=67|52=20010131-19:30:33|10=075|
68	8=FIX.4.0|9=47|35=0|49=CHX|56=MLPC|34=68|52=20010131-19:30:53|10=078|
69	8=FIX.4.0|9=47|35=0|49=CHX|56=MLPC|34=69|52=20010131-19:31:13|10=076|
70	8=FIX.4.0|9=47|35=0|49=CHX|56=MLPC|34=70|52=20010131-19:31:33|10=070|
71	8=FIX.4.0|9=47|35=0|49=CHX|56=MLPC|34=71|52=20010131-19:31:53|10=073|
72	8=FIX.4.0|9=47|35=0|49=CHX|56=MLPC|34=72|52=20010131-19:32:13|10=071|
73	8=FIX.4.0|9=47|35=0|49=CHX|56=MLPC|34=73|52=20010131-19:32:33|10=074|
74	8=FIX.4.0|9=47|35=0|49=CHX|56=MLPC|34=74|52=20010131-19:32:53|10=077|
75	8=FIX.4.0|9=47|35=0|49=CHX|56=MLPC|34=75|52=20010131-19:33:14|10=076|
76	8=FIX.4.0|9=47|35=0|49=CHX|56=MLPC|34=76|52=20010131-19:33:34|10=079|
77	8=FIX.4.0|9=47|35=0|49=CHX|56=MLPC|34=77|52=20010131-19:33:54|10=082|
78	8=FIX.4.0|9=47|35=0|49=CHX|56=MLPC|34=78|52=20010131-19:34:14|10=080|
79	8=FIX.4.0|9=47|35=0|49=CHX|56=MLPC|34=79|52=20010131-19:34:34|10=083|
80	8=FIX.4.0|9=47|35=0|49=CHX|56=MLPC|34=80|52=20010131-19:34:54|10=077|
81	8=FIX.4.0|9=47|35=0|49=CHX|56=MLPC|34=81|52=20010131-19:35:14|10=075|
82	8=FIX.4.0|9=47|35=0|49=CHX|56=MLPC|34=82|52=20010131-19:35:34|10=078|
83	8=FIX.4.0|9=47|35=0|49=CHX|56=MLPC|34=83|52=20010131-19:35:54|10=081|
84	8=FIX.4.0|9=47|35=0|49=CHX|56=MLPC|34=84|52=20010131-19:36:14|10=079|
85	8=FIX.4.0|9=77|35=9|49=CHX|56=MLPC|34=85|52=20010131-19:36:16|37=:00000|11=2001013184|102=0|10=197|
86	8=FIX.4.0|9=77|35=9|49=CHX|56=MLPC|34=86|52=20010131-19:36:17|37=:00000|11=2001013185|102=0|10=200|
87	8=FIX.4.0|9=77|35=9|49=CHX|56=MLPC|34=87|52=20010131-19:36:17|37=:00000|11=2001013186|102=0|10=202|
