1	8=FIX.4.0|9=67|35=A|49=MLPC|56=CHX|34=1|52=20010131-20:04:58|57=ADMIN|98=0|108=20|10=077|
2	8=FIX.4.0|9=55|35=0|49=MLPC|56=CHX|34=2|52=20010131-20:05:18|57=ADMIN|10=031|
3	8=FIX.4.0|9=55|35=0|49=MLPC|56=CHX|34=3|52=20010131-20:05:38|57=ADMIN|10=034|
4	8=FIX.4.0|9=55|35=0|49=MLPC|56=CHX|34=4|52=20010131-20:05:58|57=ADMIN|10=037|
5	8=FIX.4.0|9=55|35=0|49=MLPC|56=CHX|34=5|52=20010131-20:06:18|57=ADMIN|10=035|
6	8=FIX.4.0|9=55|35=0|49=MLPC|56=CHX|34=6|52=20010131-20:06:38|57=ADMIN|10=038|
7	8=FIX.4.0|9=55|35=0|49=MLPC|56=CHX|34=7|52=20010131-20:06:58|57=ADMIN|10=041|
8	8=FIX.4.0|9=147|35=D|49=MLPC|56=CHX|34=8|52=20010131-20:07:08|57=|50=OM,J77|11=200101318|21=2|55=FDX|54=1|40=2|44=45.600000000000001|38=100|1=41905300D0|59=0|47=A|10=028|
9	8=FIX.4.0|9=55|35=0|49=MLPC|56=CHX|34=9|52=20010131-20:07:28|57=ADMIN|10=041|
10	8=FIX.4.0|9=56|35=0|49=MLPC|56=CHX|34=10|52=20010131-20:07:48|57=ADMIN|10=084|
11	8=FIX.4.0|9=56|35=0|49=MLPC|56=CHX|34=11|52=20010131-20:08:08|57=ADMIN|10=082|
12	8=FIX.4.0|9=56|35=0|49=MLPC|56=CHX|34=12|52=20010131-20:08:28|57=ADMIN|10=085|
13	8=FIX.4.0|9=149|35=D|49=MLPC|56=CHX|34=13|52=20010131-20:08:29|57=|50=OM,J77|11=2001013113|21=2|55=FDX|54=1|40=2|44=45.600000000000001|38=100|1=41905300D0|59=0|47=A|10=122|
14	8=FIX.4.0|9=56|35=0|49=MLPC|56=CHX|34=14|52=20010131-20:08:49|57=ADMIN|10=090|
15	8=FIX.4.0|9=149|35=D|49=MLPC|56=CHX|34=15|52=20010131-20:09:00|57=|50=OM,J77|11=2001013115|21=2|55=FDX|54=1|40=2|44=45.600000000000001|38=100|1=41905300D0|59=0|47=A|10=116|
16	8=FIX.4.0|9=127|35=F|49=MLPC|56=CHX|34=16|52=20010131-20:09:09|57=|50=OM,J77|41=2001013115|11=2001013116|55=FDX|54=1|37=A31:00003|38=100|125=F|10=170|
17	8=FIX.4.0|9=56|35=0|49=MLPC|56=CHX|34=17|52=20010131-20:09:29|57=ADMIN|10=092|
18	8=FIX.4.0|9=56|35=0|49=MLPC|56=CHX|34=18|52=20010131-20:09:49|57=ADMIN|10=095|
19	8=FIX.4.0|9=56|35=0|49=MLPC|56=CHX|34=19|52=20010131-20:10:09|57=ADMIN|10=084|
20	8=FIX.4.0|9=56|35=0|49=MLPC|56=CHX|34=20|52=20010131-20:10:29|57=ADMIN|10=078|
21	8=FIX.4.0|9=56|35=0|49=MLPC|56=CHX|34=21|52=20010131-20:10:49|57=ADMIN|10=081|
22	8=FIX.4.0|9=149|35=D|49=MLPC|56=CHX|34=22|52=20010131-20:10:53|57=|50=OM,J77|11=2001013122|21=2|55=FDX|54=1|40=2|44=45.600000000000001|38=100|1=41905300D0|59=0|47=A|10=112|
23	8=FIX.4.0|9=140|35=G|49=MLPC|56=CHX|34=23|52=20010131-20:11:09|57=|50=OM,J77|41=2001013122|11=2001013123|21=2|55=FDX|54=1|40=2|38=200|44=45.600000000000001|10=191|
24	8=FIX.4.0|9=56|35=0|49=MLPC|56=CHX|34=24|52=20010131-20:11:29|57=ADMIN|10=083|
25	8=FIX.4.0|9=56|35=0|49=MLPC|56=CHX|34=25|52=20010131-20:11:49|57=ADMIN|10=086|
26	8=FIX.4.0|9=56|35=0|49=MLPC|56=CHX|34=26|52=20010131-20:12:09|57=ADMIN|10=084|
27	8=FIX.4.0|9=56|35=0|49=MLPC|56=CHX|34=27|52=20010131-20:12:29|57=ADMIN|10=087|
28	8=FIX.4.0|9=56|35=0|49=MLPC|56=CHX|34=28|52=20010131-20:12:49|57=ADMIN|10=090|
29	8=FIX.4.0|9=56|35=0|49=MLPC|56=CHX|34=29|52=20010131-20:13:09|57=ADMIN|10=088|
30	8=FIX.4.0|9=56|35=0|49=MLPC|56=CHX|34=30|52=20010131-20:13:29|57=ADMIN|10=082|
31	8=FIX.4.0|9=56|35=0|49=MLPC|56=CHX|34=31|52=20010131-20:13:49|57=ADMIN|10=085|
32	8=FIX.4.0|9=56|35=0|49=MLPC|56=CHX|34=32|52=20010131-20:14:09|57=ADMIN|10=083|
33	8=FIX.4.0|9=140|35=G|49=MLPC|56=CHX|34=33|52=20010131-20:14:24|57=|50=OM,J77|41=2001013122|11=2001013133|21=2|55=FDX|54=1|40=2|38=200|44=40.000000000000000|10=181|
34	8=FIX.4.0|9=149|35=D|49=MLPC|56=CHX|34=34|52=20010131-20:14:43|57=|50=OM,J77|11=2001013134|21=2|55=FDX|54=1|40=2|44=45.600000000000001|38=100|1=41905300D0|59=0|47=A|10=121|
35	8=FIX.4.0|9=140|35=G|49=MLPC|56=CHX|34=35|52=20010131-20:15:03|57=|50=OM,J77|41=2001013134|11=2001013135|21=2|55=FDX|54=1|40=2|38=100|44=40.000000000000000|10=185|
36	8=FIX.4.0|9=56|35=0|49=MLPC|56=CHX|34=36|52=20010131-20:15:23|57=ADMIN|10=084|
37	8=FIX.4.0|9=56|35=0|49=MLPC|56=CHX|34=37|52=20010131-20:15:43|57=ADMIN|10=087|
38	8=FIX.4.0|9=56|35=0|49=MLPC|56=CHX|34=38|52=20010131-20:16:03|57=ADMIN|10=085|
39	8=FIX.4.0|9=56|35=0|49=MLPC|56=CHX|34=39|52=20010131-20:16:23|57=ADMIN|10=088|
40	8=FIX.4.0|9=56|35=0|49=MLPC|56=CHX|34=40|52=20010131-20:16:43|57=ADMIN|10=082|
41	8=FIX.4.0|9=56|35=0|49=MLPC|56=CHX|34=41|52=20010131-20:17:03|57=ADMIN|10=080|
42	8=FIX.4.0|9=56|35=0|49=MLPC|56=CHX|34=42|52=20010131-20:17:23|57=ADMIN|10=083|
43	8=FIX.4.0|9=56|35=0|49=MLPC|56=CHX|34=43|52=20010131-20:17:43|57=ADMIN|10=086|
44	8=FIX.4.0|9=56|35=0|49=MLPC|56=CHX|34=44|52=20010131-20:18:03|57=ADMIN|10=084|
45	8=FIX.4.0|9=56|35=0|49=MLPC|56=CHX|34=45|52=20010131-20:18:23|57=ADMIN|10=087|
46	8=FIX.4.0|9=56|35=0|49=MLPC|56=CHX|34=46|52=20010131-20:18:43|57=ADMIN|10=090|
47	8=FIX.4.0|9=56|35=0|49=MLPC|56=CHX|34=47|52=20010131-20:19:03|57=ADMIN|10=088|
48	8=FIX.4.0|9=56|35=0|49=MLPC|56=CHX|34=48|52=20010131-20:19:23|57=ADMIN|10=091|
49	8=FIX.4.0|9=56|35=0|49=MLPC|56=CHX|34=49|52=20010131-20:19:43|57=ADMIN|10=094|
50	8=FIX.4.0|9=56|35=0|49=MLPC|56=CHX|34=50|52=20010131-20:20:03|57=ADMIN|10=074|
51	8=FIX.4.0|9=56|35=0|49=MLPC|56=CHX|34=51|52=20010131-20:20:24|57=ADMIN|10=078|
52	8=FIX.4.0|9=56|35=0|49=MLPC|56=CHX|34=52|52=20010131-20:20:44|57=ADMIN|10=081|
53	8=FIX.4.0|9=56|35=0|49=MLPC|56=CHX|34=53|52=20010131-20:21:04|57=ADMIN|10=079|
54	8=FIX.4.0|9=56|35=0|49=MLPC|56=CHX|34=54|52=20010131-20:21:24|57=ADMIN|10=082|
55	8=FIX.4.0|9=56|35=0|49=MLPC|56=CHX|34=55|52=20010131-20:21:44|57=ADMIN|10=085|
56	8=FIX.4.0|9=56|35=0|49=MLPC|56=CHX|34=56|52=20010131-20:22:04|57=ADMIN|10=083|
57	8=FIX.4.0|9=56|35=0|49=MLPC|56=CHX|34=57|52=20010131-20:22:24|57=ADMIN|10=086|
58	8=FIX.4.0|9=149|35=D|49=MLPC|56=CHX|34=58|52=20010131-20:22:35|57=|50=OM,J77|11=2001013158|21=2|55=FDX|54=1|40=2|44=45.600000000000001|38=200|1=41905300D0|59=0|47=A|10=134|
59	8=FIX.4.0|9=56|35=0|49=MLPC|56=CHX|34=59|52=20010131-20:22:56|57=ADMIN|10=093|
60	8=FIX.4.0|9=56|35=0|49=MLPC|56=CHX|34=60|52=20010131-20:23:16|57=ADMIN|10=082|
61	8=FIX.4.0|9=56|35=0|49=MLPC|56=CHX|34=61|52=20010131-20:23:36|57=ADMIN|10=085|
62	8=FIX.4.0|9=56|35=0|49=MLPC|56=CHX|34=62|52=20010131-20:23:56|57=ADMIN|10=088|
63	8=FIX.4.0|9=56|35=0|49=MLPC|56=CHX|34=63|52=20010131-20:24:16|57=ADMIN|10=086|
64	8=FIX.4.0|9=56|35=0|49=MLPC|56=CHX|34=64|52=20010131-20:24:36|57=ADMIN|10=089|
65	8=FIX.4.0|9=139|35=G|49=MLPC|56=CHX|34=65|52=20010131-20:24:37|57=|50=OM,J77|41=2001013158|11=2001013165|21=2|55=FDX|54=1|40=2|38=50|44=45.600000000000001|10=180|
66	8=FIX.4.0|9=56|35=0|49=MLPC|56=CHX|34=66|52=20010131-20:24:58|57=ADMIN|10=095|
67	8=FIX.4.0|9=56|35=0|49=MLPC|56=CHX|34=67|52=20010131-20:25:18|57=ADMIN|10=093|
68	8=FIX.4.0|9=56|35=0|49=MLPC|56=CHX|34=68|52=20010131-20:25:38|57=ADMIN|10=096|
69	8=FIX.4.0|9=56|35=0|49=MLPC|56=CHX|34=69|52=20010131-20:25:58|57=ADMIN|10=099|
70	8=FIX.4.0|9=56|35=0|49=MLPC|56=CHX|34=70|52=20010131-20:26:18|57=ADMIN|10=088|
71	8=FIX.4.0|9=56|35=0|49=MLPC|56=CHX|34=71|52=20010131-20:26:38|57=ADMIN|10=091|
72	8=FIX.4.0|9=56|35=0|49=MLPC|56=CHX|34=72|52=20010131-20:26:58|57=ADMIN|10=094|
73	8=FIX.4.0|9=56|35=0|49=MLPC|56=CHX|34=73|52=20010131-20:27:18|57=ADMIN|10=092|
74	8=FIX.4.0|9=56|35=0|49=MLPC|56=CHX|34=74|52=20010131-20:27:38|57=ADMIN|10=095|
75	8=FIX.4.0|9=56|35=0|49=MLPC|56=CHX|34=75|52=20010131-20:27:58|57=ADMIN|10=098|
76	8=FIX.4.0|9=56|35=0|49=MLPC|56=CHX|34=76|52=20010131-20:28:18|57=ADMIN|10=096|
77	8=FIX.4.0|9=56|35=0|49=MLPC|56=CHX|34=77|52=20010131-20:28:38|57=ADMIN|10=099|
78	8=FIX.4.0|9=56|35=0|49=MLPC|56=CHX|34=78|52=20010131-20:28:58|57=ADMIN|10=102|
79	8=FIX.4.0|9=56|35=0|49=MLPC|56=CHX|34=79|52=20010131-20:29:18|57=ADMIN|10=100|
80	8=FIX.4.0|9=56|35=0|49=MLPC|56=CHX|34=80|52=20010131-20:29:38|57=ADMIN|10=094|
81	8=FIX.4.0|9=56|35=0|49=MLPC|56=CHX|34=81|52=20010131-20:29:58|57=ADMIN|10=097|
82	8=FIX.4.0|9=56|35=0|49=MLPC|56=CHX|34=82|52=20010131-20:30:18|57=ADMIN|10=086|
83	8=FIX.4.0|9=56|35=0|49=MLPC|56=CHX|34=83|52=20010131-20:30:38|57=ADMIN|10=089|
84	8=FIX.4.0|9=127|35=F|49=MLPC|56=CHX|34=84|52=20010131-20:30:40|57=|50=OM,J77|41=2001013122|11=2001013184|55=FDX|54=1|37=A31:00006|38=100|125=F|10=170|
85	8=FIX.4.0|9=127|35=F|49=MLPC|56=CHX|34=85|52=20010131-20:30:40|57=|50=OM,J77|41=2001013134|11=2001013185|55=FDX|54=1|37=A31:00008|38=100|125=F|10=177|
86	8=FIX.4.0|9=127|35=F|49=MLPC|56=CHX|34=86|52=20010131-20:30:40|57=|50=OM,J77|41=2001013158|11=2001013186|55=FDX|54=1|37=A31:00010|38=200|125=F|10=179|
