2 differences found for ROM tag REGOH-40120224-164427:
	FIX: < 8=FIX.4.2|9=156|35=D|49=DART|56=NITE|34=1717|52=20120224-20:56:05|21=1|11=201202241SO3WBB|54=1|55=TGC|38=300|44=1.15|40=2|59=0|47=A|439=501|1=7ZW61209|60=20120224-20:56:05|10=149|
	FIX: > 8=FIX.4.2|9=194|35=D|49=DART_FIX_INTERFACE|56=DART_FIX_TESTER|34=2|52=20120613-20:43:01|21=1|115=DEGS|100=KM|11=20120613WADAQPU|54=1|55=TGC|38=300|44=1.15|40=2|59=0|47=A|439=501|1=7ZW61209|60=20120613-20:43:01|10=045|
		> 100=KM
		> 115=DEGS
	FIX: < 8=FIX.4.2|9=160|35=F|49=DART|56=NITE|34=1965|52=20120224-20:56:23|21=1|11=201202241SO3WI7|41=201202241SO3WBB|54=1|55=TGC|38=300|47=A|1=7ZW61209|37=DRTA473|60=20120224-20:56:23|10=134|
	FIX: > 8=FIX.4.2|9=198|35=F|49=DART_FIX_INTERFACE|56=DART_FIX_TESTER|34=3|52=20120613-20:43:01|21=1|115=DEGS|100=KM|11=20120613WADAQPV|41=20120613WADAQPU|54=1|55=TGC|38=300|47=A|1=7ZW61209|37=DRTA473|60=20120613-20:43:01|10=092|
		> 100=KM
		> 115=DEGS
1 differences found for ROM tag NGT-30120224-1181:
	FIX: < 8=FIX.4.2|9=166|35=D|49=DART|56=NITE|34=347|52=20120224-14:31:02|21=1|11=201202241SO3VSA|54=1|55=IDCC|38=1000|44=40.80|40=2|59=0|47=A|439=501|1=37JM1209|111=100|60=20120224-14:31:02|10=066|
	FIX: > 8=FIX.4.2|9=205|35=D|49=DART_FIX_INTERFACE|56=DART_FIX_TESTER|34=4|52=20120613-20:43:01|21=1|115=DEGS|100=KM|11=20120613WADAQPW|54=1|55=IDCC|38=1000|44=40.80|40=2|59=0|47=A|439=501|1=37JM1209|111=100|60=20120613-20:43:01|10=007|
		> 100=KM
		> 115=DEGS
1 differences found for ROM tag NGT-30120224-1942:
	FIX: < 8=FIX.4.2|9=157|35=D|49=DART|56=NITE|34=423|52=20120224-14:31:06|21=1|11=201202241SO3VUE|54=2|55=VRSN|38=100|44=38.27|40=2|59=0|47=A|439=501|1=37JM1209|60=20120224-14:31:06|10=248|
	FIX: > 8=FIX.4.2|9=196|35=D|49=DART_FIX_INTERFACE|56=DART_FIX_TESTER|34=5|52=20120613-20:43:01|21=1|115=DEGS|100=KM|11=20120613WADAQPX|54=2|55=VRSN|38=100|44=38.27|40=2|59=0|47=A|439=501|1=37JM1209|60=20120613-20:43:01|10=191|
		> 100=KM
		> 115=DEGS
2 differences found for ROM tag REGOH-40120224-164428:
	FIX: < 8=FIX.4.2|9=154|35=D|49=DART|56=NITE|34=1718|52=20120224-20:56:05|21=1|11=201202241SO3WBC|54=2|55=TG|38=5|44=24.36|40=2|59=0|47=A|439=501|1=7ZW61209|60=20120224-20:56:05|10=045|
	FIX: > 8=FIX.4.2|9=192|35=D|49=DART_FIX_INTERFACE|56=DART_FIX_TESTER|34=6|52=20120613-20:43:01|21=1|115=DEGS|100=KM|11=20120613WADAQPY|54=2|55=TG|38=5|44=24.36|40=2|59=0|47=A|439=501|1=7ZW61209|60=20120613-20:43:01|10=203|
		> 100=KM
		> 115=DEGS
	FIX: < 8=FIX.4.2|9=157|35=F|49=DART|56=NITE|34=1966|52=20120224-20:56:23|21=1|11=201202241SO3WI8|41=201202241SO3WBC|54=2|55=TG|38=5|47=A|1=7ZW61209|37=DRTA474|60=20120224-20:56:23|10=240|
	FIX: > 8=FIX.4.2|9=195|35=F|49=DART_FIX_INTERFACE|56=DART_FIX_TESTER|34=7|52=20120613-20:43:01|21=1|115=DEGS|100=KM|11=20120613WADAQPZ|41=20120613WADAQPY|54=2|55=TG|38=5|47=A|1=7ZW61209|37=DRTA474|60=20120613-20:43:01|10=198|
		> 100=KM
		> 115=DEGS
1 differences found for ROM tag NGT-30120224-3797:
	FIX: < 8=FIX.4.2|9=179|35=D|49=DART|56=NITE|34=819|52=20120224-15:35:00|21=1|11=201202241SO3W1Z|54=5|114=N|55=MNKD|38=300|44=2.20|40=2|59=0|47=A|439=501|1=37JM1209|111=100|60=20120224-15:35:00|5700=MMX|10=027|
	FIX: > 8=FIX.4.2|9=218|35=D|49=DART_FIX_INTERFACE|56=DART_FIX_TESTER|34=8|52=20120613-20:43:01|21=1|115=DEGS|100=KM|11=20120613WADAQQ0|54=5|114=N|55=MNKD|38=300|44=2.20|40=2|59=0|47=A|439=501|1=37JM1209|111=100|60=20120613-20:43:01|5700=MMX|10=188|
		> 100=KM
		> 115=DEGS
2 differences found for ROM tag REGOH-40120224-164429:
	FIX: < 8=FIX.4.2|9=155|35=D|49=DART|56=NITE|34=1719|52=20120224-20:56:05|21=1|11=201202241SO3WBD|54=2|55=TCL|38=32|44=9.52|40=2|59=0|47=A|439=501|1=7ZW61209|60=20120224-20:56:05|10=121|
	FIX: > 8=FIX.4.2|9=193|35=D|49=DART_FIX_INTERFACE|56=DART_FIX_TESTER|34=9|52=20120613-20:43:01|21=1|115=DEGS|100=KM|11=20120613WADAQQ1|54=2|55=TCL|38=32|44=9.52|40=2|59=0|47=A|439=501|1=7ZW61209|60=20120613-20:43:01|10=241|
		> 100=KM
		> 115=DEGS
	FIX: < 8=FIX.4.2|9=159|35=F|49=DART|56=NITE|34=1967|52=20120224-20:56:23|21=1|11=201202241SO3WI9|41=201202241SO3WBD|54=2|55=TCL|38=32|47=A|1=7ZW61209|37=DRTA475|60=20120224-20:56:23|10=110|
	FIX: > 8=FIX.4.2|9=198|35=F|49=DART_FIX_INTERFACE|56=DART_FIX_TESTER|34=10|52=20120613-20:43:01|21=1|115=DEGS|100=KM|11=20120613WADAQQ2|41=20120613WADAQQ1|54=2|55=TCL|38=32|47=A|1=7ZW61209|37=DRTA475|60=20120613-20:43:01|10=030|
		> 100=KM
		> 115=DEGS
1 differences found for ROM tag NGT-30120224-929:
	FIX: < 8=FIX.4.2|9=179|35=D|49=DART|56=NITE|34=297|52=20120224-14:31:02|21=1|11=201202241SO3VQW|54=5|114=N|55=HON|38=300|44=58.95|40=2|59=0|47=A|439=501|1=37JM1209|111=100|60=20120224-14:31:02|5700=MMX|10=051|
	FIX: > 8=FIX.4.2|9=219|35=D|49=DART_FIX_INTERFACE|56=DART_FIX_TESTER|34=11|52=20120613-20:43:01|21=1|115=DEGS|100=KM|11=20120613WADAQQ3|54=5|114=N|55=HON|38=300|44=58.95|40=2|59=0|47=A|439=501|1=37JM1209|111=100|60=20120613-20:43:01|5700=MMX|10=236|
		> 100=KM
		> 115=DEGS
1 differences found for ROM tag NGT-30120224-1943:
	FIX: < 8=FIX.4.2|9=181|35=D|49=DART|56=NITE|34=424|52=20120224-14:31:06|21=1|11=201202241SO3VUF|54=5|114=N|55=ARUN|38=1000|44=21.96|40=2|59=0|47=A|439=501|1=37JM1209|111=100|60=20120224-14:31:06|5700=MMX|10=149|
	FIX: > 8=FIX.4.2|9=221|35=D|49=DART_FIX_INTERFACE|56=DART_FIX_TESTER|34=12|52=20120613-20:43:01|21=1|115=DEGS|100=KM|11=20120613WADAQQ4|54=5|114=N|55=ARUN|38=1000|44=21.96|40=2|59=0|47=A|439=501|1=37JM1209|111=100|60=20120613-20:43:01|5700=MMX|10=093|
		> 100=KM
		> 115=DEGS
2 differences found for ROM tag REGOH-40120224-164760:
	FIX: < 8=FIX.4.2|9=157|35=D|49=DART|56=NITE|34=2164|52=20120224-20:56:23|21=1|11=201202241SO3WNQ|54=2|55=SPPR|38=150|44=1.04|40=2|59=0|47=A|439=501|1=7ZW61209|60=20120224-20:56:23|10=023|
	FIX: > 8=FIX.4.2|9=196|35=D|49=DART_FIX_INTERFACE|56=DART_FIX_TESTER|34=13|52=20120613-20:43:01|21=1|115=DEGS|100=KM|11=20120613WADAQQ5|54=2|55=SPPR|38=150|44=1.04|40=2|59=0|47=A|439=501|1=7ZW61209|60=20120613-20:43:01|10=171|
		> 100=KM
		> 115=DEGS
	FIX: < 8=FIX.4.2|9=161|35=F|49=DART|56=NITE|34=2351|52=20120224-20:56:41|21=1|11=201202241SO3WSX|41=201202241SO3WNQ|54=2|55=SPPR|38=150|47=A|1=7ZW61209|37=DRTA431|60=20120224-20:56:41|10=040|
	FIX: > 8=FIX.4.2|9=200|35=F|49=DART_FIX_INTERFACE|56=DART_FIX_TESTER|34=14|52=20120613-20:43:01|21=1|115=DEGS|100=KM|11=20120613WADAQQ6|41=20120613WADAQQ5|54=2|55=SPPR|38=150|47=A|1=7ZW61209|37=DRTA431|60=20120613-20:43:01|10=165|
		> 100=KM
		> 115=DEGS
1 differences found for ROM tag NGT-30120224-6622:
	FIX: < 8=FIX.4.2|9=180|35=D|49=DART|56=NITE|34=1198|52=20120224-17:20:57|21=1|11=201202241SO3W7N|54=5|114=N|55=RMBS|38=500|44=7.57|40=2|59=0|47=A|439=501|1=37JM1209|111=100|60=20120224-17:20:57|5700=MMX|10=105|
	FIX: > 8=FIX.4.2|9=219|35=D|49=DART_FIX_INTERFACE|56=DART_FIX_TESTER|34=15|52=20120613-20:43:01|21=1|115=DEGS|100=KM|11=20120613WADAQQ7|54=5|114=N|55=RMBS|38=500|44=7.57|40=2|59=0|47=A|439=501|1=37JM1209|111=100|60=20120613-20:43:01|5700=MMX|10=013|
		> 100=KM
		> 115=DEGS
2 differences found for ROM tag REGOH-40120224-164761:
	FIX: < 8=FIX.4.2|9=156|35=D|49=DART|56=NITE|34=2165|52=20120224-20:56:23|21=1|11=201202241SO3WNR|54=2|55=SOCB|38=600|44=1.4|40=2|59=0|47=A|439=501|1=7ZW61209|60=20120224-20:56:23|10=202|
	FIX: > 8=FIX.4.2|9=195|35=D|49=DART_FIX_INTERFACE|56=DART_FIX_TESTER|34=16|52=20120613-20:43:01|21=1|115=DEGS|100=KM|11=20120613WADAQQ8|54=2|55=SOCB|38=600|44=1.4|40=2|59=0|47=A|439=501|1=7ZW61209|60=20120613-20:43:01|10=098|
		> 100=KM
		> 115=DEGS
	FIX: < 8=FIX.4.2|9=161|35=F|49=DART|56=NITE|34=2353|52=20120224-20:56:41|21=1|11=201202241SO3WSZ|41=201202241SO3WNR|54=2|55=SOCB|38=600|47=A|1=7ZW61209|37=DRTA432|60=20120224-20:56:41|10=016|
	FIX: > 8=FIX.4.2|9=200|35=F|49=DART_FIX_INTERFACE|56=DART_FIX_TESTER|34=17|52=20120613-20:43:01|21=1|115=DEGS|100=KM|11=20120613WADAQQ9|41=20120613WADAQQ8|54=2|55=SOCB|38=600|47=A|1=7ZW61209|37=DRTA432|60=20120613-20:43:01|10=145|
		> 100=KM
		> 115=DEGS
2 differences found for ROM tag NGT-30120224-1185:
	FIX: < 8=FIX.4.2|9=181|35=D|49=DART|56=NITE|34=348|52=20120224-14:31:02|21=1|11=201202241SO3VSB|54=5|114=N|55=IDCC|38=1800|44=40.67|40=2|59=0|47=A|439=501|1=37JM1209|111=100|60=20120224-14:31:02|5700=MMX|10=112|
	FIX: > 8=FIX.4.2|9=221|35=D|49=DART_FIX_INTERFACE|56=DART_FIX_TESTER|34=18|52=20120613-20:43:01|21=1|115=DEGS|100=KM|11=20120613WADAQQA|54=5|114=N|55=IDCC|38=1800|44=40.67|40=2|59=0|47=A|439=501|1=37JM1209|111=100|60=20120613-20:43:01|5700=MMX|10=084|
		> 100=KM
		> 115=DEGS
	FIX: < 8=FIX.4.2|9=184|35=F|49=DART|56=NITE|34=382|52=20120224-14:31:04|21=1|11=201202241SO3VT9|41=201202241SO3VSB|54=5|114=N|55=IDCC|38=1800|44=40.67|47=A|1=37JM1209|37=DRTA87|60=20120224-14:31:04|5700=MMX|10=076|
	FIX: > 8=FIX.4.2|9=224|35=F|49=DART_FIX_INTERFACE|56=DART_FIX_TESTER|34=19|52=20120613-20:43:01|21=1|115=DEGS|100=KM|11=20120613WADAQQB|41=20120613WADAQQA|54=5|114=N|55=IDCC|38=1800|44=40.67|47=A|1=37JM1209|37=DRTA87|60=20120613-20:43:01|5700=MMX|10=073|
		> 100=KM
		> 115=DEGS
1 differences found for ROM tag NGT-30120224-6623:
	FIX: < 8=FIX.4.2|9=180|35=D|49=DART|56=NITE|34=1199|52=20120224-17:21:08|21=1|11=201202241SO3W7O|54=5|114=N|55=GLW|38=300|44=13.79|40=2|59=0|47=A|439=501|1=37JM1209|111=100|60=20120224-17:21:08|5700=MMX|10=074|
	FIX: > 8=FIX.4.2|9=219|35=D|49=DART_FIX_INTERFACE|56=DART_FIX_TESTER|34=20|52=20120613-20:43:01|21=1|115=DEGS|100=KM|11=20120613WADAQQC|54=5|114=N|55=GLW|38=300|44=13.79|40=2|59=0|47=A|439=501|1=37JM1209|111=100|60=20120613-20:43:01|5700=MMX|10=250|
		> 100=KM
		> 115=DEGS
1 differences found for ROM tag REGOH-40120224-164762:
	FIX: < 8=FIX.4.2|9=158|35=D|49=DART|56=NITE|34=2166|52=20120224-20:56:23|21=1|11=201202241SO3WNS|54=1|55=SOCL|38=200|44=14.96|40=2|59=0|47=A|439=501|1=7ZW61209|60=20120224-20:56:23|10=066|
	FIX: > 8=FIX.4.2|9=197|35=D|49=DART_FIX_INTERFACE|56=DART_FIX_TESTER|34=21|52=20120613-20:43:01|21=1|115=DEGS|100=KM|11=20120613WADAQQD|54=1|55=SOCL|38=200|44=14.96|40=2|59=0|47=A|439=501|1=7ZW61209|60=20120613-20:43:01|10=224|
		> 100=KM
		> 115=DEGS
1 differences found for ROM tag NGT-30120224-1186:
	FIX: < 8=FIX.4.2|9=181|35=D|49=DART|56=NITE|34=349|52=20120224-14:31:02|21=1|11=201202241SO3VSC|54=5|114=N|55=VRSN|38=1200|44=38.24|40=2|59=0|47=A|439=501|1=37JM1209|111=100|60=20120224-14:31:02|5700=MMX|10=162|
	FIX: > 8=FIX.4.2|9=221|35=D|49=DART_FIX_INTERFACE|56=DART_FIX_TESTER|34=22|52=20120613-20:43:01|21=1|115=DEGS|100=KM|11=20120613WADAQQE|54=5|114=N|55=VRSN|38=1200|44=38.24|40=2|59=0|47=A|439=501|1=37JM1209|111=100|60=20120613-20:43:01|5700=MMX|10=131|
		> 100=KM
		> 115=DEGS
2 differences found for ROM tag REGOH-40120224-165530:
	FIX: < 8=FIX.4.2|9=156|35=D|49=DART|56=NITE|34=2767|52=20120224-20:58:10|21=1|11=201202241SO3X4F|54=1|55=SPP|38=500|44=3.42|40=2|59=0|47=A|439=501|1=7ZW61209|60=20120224-20:58:10|10=167|
	FIX: > 8=FIX.4.2|9=195|35=D|49=DART_FIX_INTERFACE|56=DART_FIX_TESTER|34=23|52=20120613-20:43:01|21=1|115=DEGS|100=KM|11=20120613WADAQQF|54=1|55=SPP|38=500|44=3.42|40=2|59=0|47=A|439=501|1=7ZW61209|60=20120613-20:43:01|10=108|
		> 100=KM
		> 115=DEGS
	FIX: < 8=FIX.4.2|9=160|35=F|49=DART|56=NITE|34=2867|52=20120224-20:58:20|21=1|11=201202241SO3X77|41=201202241SO3X4F|54=1|55=SPP|38=500|47=A|1=7ZW61209|37=DRTA747|60=20120224-20:58:20|10=135|
	FIX: > 8=FIX.4.2|9=199|35=F|49=DART_FIX_INTERFACE|56=DART_FIX_TESTER|34=24|52=20120613-20:43:01|21=1|115=DEGS|100=KM|11=20120613WADAQQG|41=20120613WADAQQF|54=1|55=SPP|38=500|47=A|1=7ZW61209|37=DRTA747|60=20120613-20:43:01|10=143|
		> 100=KM
		> 115=DEGS
2 differences found for ROM tag NGT2-30120224-835:
	FIX: < 8=FIX.4.2|9=163|35=D|49=DART|56=NITE|34=280|52=20120224-14:31:01|21=1|11=201202241SO3VQF|54=2|55=NG|38=1300|44=8.77|40=2|59=0|47=A|439=501|1=37JM1209|111=100|60=20120224-14:31:01|10=156|
	FIX: > 8=FIX.4.2|9=203|35=D|49=DART_FIX_INTERFACE|56=DART_FIX_TESTER|34=25|52=20120613-20:43:01|21=1|115=DEGS|100=KM|11=20120613WADAQQH|54=2|55=NG|38=1300|44=8.77|40=2|59=0|47=A|439=501|1=37JM1209|111=100|60=20120613-20:43:01|10=138|
		> 100=KM
		> 115=DEGS
	FIX: < 8=FIX.4.2|9=166|35=F|49=DART|56=NITE|34=294|52=20120224-14:31:02|21=1|11=201202241SO3VQT|41=201202241SO3VQF|54=2|55=NG|38=1300|44=8.77|47=A|1=37JM1209|37=DRTA33|60=20120224-14:31:02|10=140|
	FIX: > 8=FIX.4.2|9=206|35=F|49=DART_FIX_INTERFACE|56=DART_FIX_TESTER|34=26|52=20120613-20:43:01|21=1|115=DEGS|100=KM|11=20120613WADAQQI|41=20120613WADAQQH|54=2|55=NG|38=1300|44=8.77|47=A|1=37JM1209|37=DRTA33|60=20120613-20:43:01|10=125|
		> 100=KM
		> 115=DEGS
2 differences found for ROM tag REGOH-40120224-164763:
	FIX: < 8=FIX.4.2|9=157|35=D|49=DART|56=NITE|34=2167|52=20120224-20:56:23|21=1|11=201202241SO3WNT|54=1|55=SNAK|38=200|44=4.12|40=2|59=0|47=A|439=501|1=7ZW61209|60=20120224-20:56:23|10=002|
	FIX: > 8=FIX.4.2|9=196|35=D|49=DART_FIX_INTERFACE|56=DART_FIX_TESTER|34=27|52=20120613-20:43:01|21=1|115=DEGS|100=KM|11=20120613WADAQQJ|54=1|55=SNAK|38=200|44=4.12|40=2|59=0|47=A|439=501|1=7ZW61209|60=20120613-20:43:01|10=170|
		> 100=KM
		> 115=DEGS
	FIX: < 8=FIX.4.2|9=161|35=F|49=DART|56=NITE|34=2354|52=20120224-20:56:41|21=1|11=201202241SO3WT0|41=201202241SO3WNT|54=1|55=SNAK|38=200|47=A|1=7ZW61209|37=DRTA434|60=20120224-20:56:41|10=237|
	FIX: > 8=FIX.4.2|9=200|35=F|49=DART_FIX_INTERFACE|56=DART_FIX_TESTER|34=28|52=20120613-20:43:01|21=1|115=DEGS|100=KM|11=20120613WADAQQK|41=20120613WADAQQJ|54=1|55=SNAK|38=200|47=A|1=7ZW61209|37=DRTA434|60=20120613-20:43:01|10=186|
		> 100=KM
		> 115=DEGS
1 differences found for ROM tag NGT-30120224-1187:
	FIX: < 8=FIX.4.2|9=165|35=D|49=DART|56=NITE|34=350|52=20120224-14:31:02|21=1|11=201202241SO3VSD|54=2|55=VMED|38=400|44=25.32|40=2|59=0|47=A|439=501|1=37JM1209|111=100|60=20120224-14:31:02|10=043|
	FIX: > 8=FIX.4.2|9=205|35=D|49=DART_FIX_INTERFACE|56=DART_FIX_TESTER|34=29|52=20120613-20:43:01|21=1|115=DEGS|100=KM|11=20120613WADAQQL|54=2|55=VMED|38=400|44=25.32|40=2|59=0|47=A|439=501|1=37JM1209|111=100|60=20120613-20:43:01|10=033|
		> 100=KM
		> 115=DEGS
2 differences found for ROM tag REGOH-40120224-165531:
	FIX: < 8=FIX.4.2|9=157|35=D|49=DART|56=NITE|34=2768|52=20120224-20:58:10|21=1|11=201202241SO3X4G|54=2|55=SPPR|38=150|44=1.04|40=2|59=0|47=A|439=501|1=7ZW61209|60=20120224-20:58:10|10=250|
	FIX: > 8=FIX.4.2|9=196|35=D|49=DART_FIX_INTERFACE|56=DART_FIX_TESTER|34=30|52=20120613-20:43:01|21=1|115=DEGS|100=KM|11=20120613WADAQQM|54=2|55=SPPR|38=150|44=1.04|40=2|59=0|47=A|439=501|1=7ZW61209|60=20120613-20:43:01|10=194|
		> 100=KM
		> 115=DEGS
	FIX: < 8=FIX.4.2|9=161|35=F|49=DART|56=NITE|34=2866|52=20120224-20:58:20|21=1|11=201202241SO3X76|41=201202241SO3X4G|54=2|55=SPPR|38=150|47=A|1=7ZW61209|37=DRTA615|60=20120224-20:58:20|10=213|
	FIX: > 8=FIX.4.2|9=200|35=F|49=DART_FIX_INTERFACE|56=DART_FIX_TESTER|34=31|52=20120613-20:43:01|21=1|115=DEGS|100=KM|11=20120613WADAQQN|41=20120613WADAQQM|54=2|55=SPPR|38=150|47=A|1=7ZW61209|37=DRTA615|60=20120613-20:43:01|10=216|
		> 100=KM
		> 115=DEGS
2 differences found for ROM tag REGOH-40120224-164764:
	FIX: < 8=FIX.4.2|9=157|35=D|49=DART|56=NITE|34=2168|52=20120224-20:56:23|21=1|11=201202241SO3WNU|54=1|55=SMED|38=116|44=3.81|40=2|59=0|47=A|439=501|1=7ZW61209|60=20120224-20:56:23|10=011|
	FIX: > 8=FIX.4.2|9=196|35=D|49=DART_FIX_INTERFACE|56=DART_FIX_TESTER|34=32|52=20120613-20:43:02|21=1|115=DEGS|100=KM|11=20120613WADAQQO|54=1|55=SMED|38=116|44=3.81|40=2|59=0|47=A|439=501|1=7ZW61209|60=20120613-20:43:02|10=180|
		> 100=KM
		> 115=DEGS
	FIX: < 8=FIX.4.2|9=161|35=F|49=DART|56=NITE|34=2355|52=20120224-20:56:41|21=1|11=201202241SO3WT1|41=201202241SO3WNU|54=1|55=SMED|38=116|47=A|1=7ZW61209|37=DRTA435|60=20120224-20:56:41|10=243|
	FIX: > 8=FIX.4.2|9=200|35=F|49=DART_FIX_INTERFACE|56=DART_FIX_TESTER|34=33|52=20120613-20:43:02|21=1|115=DEGS|100=KM|11=20120613WADAQQP|41=20120613WADAQQO|54=1|55=SMED|38=116|47=A|1=7ZW61209|37=DRTA435|60=20120613-20:43:02|10=197|
		> 100=KM
		> 115=DEGS
2 differences found for ROM tag NGT-30120224-1188:
	FIX: < 8=FIX.4.2|9=165|35=D|49=DART|56=NITE|34=351|52=20120224-14:31:02|21=1|11=201202241SO3VSE|54=2|55=INSP|38=400|44=12.16|40=2|59=0|47=A|439=501|1=37JM1209|111=100|60=20120224-14:31:02|10=057|
	FIX: > 8=FIX.4.2|9=205|35=D|49=DART_FIX_INTERFACE|56=DART_FIX_TESTER|34=34|52=20120613-20:43:02|21=1|115=DEGS|100=KM|11=20120613WADAQQQ|54=2|55=INSP|38=400|44=12.16|40=2|59=0|47=A|439=501|1=37JM1209|111=100|60=20120613-20:43:02|10=048|
		> 100=KM
		> 115=DEGS
	FIX: < 8=FIX.4.2|9=168|35=F|49=DART|56=NITE|34=383|52=20120224-14:31:04|21=1|11=201202241SO3VTA|41=201202241SO3VSE|54=2|55=INSP|38=400|44=12.16|47=A|1=37JM1209|37=DRTA90|60=20120224-14:31:04|10=030|
	FIX: > 8=FIX.4.2|9=208|35=F|49=DART_FIX_INTERFACE|56=DART_FIX_TESTER|34=35|52=20120613-20:43:02|21=1|115=DEGS|100=KM|11=20120613WADAQQR|41=20120613WADAQQQ|54=2|55=INSP|38=400|44=12.16|47=A|1=37JM1209|37=DRTA90|60=20120613-20:43:02|10=047|
		> 100=KM
		> 115=DEGS
2 differences found for ROM tag REGOH-40120224-165532:
	FIX: < 8=FIX.4.2|9=156|35=D|49=DART|56=NITE|34=2769|52=20120224-20:58:10|21=1|11=201202241SO3X4H|54=1|55=SCU|38=135|44=29.5|40=2|59=0|47=A|439=501|1=7ZW61209|60=20120224-20:58:10|10=174|
	FIX: > 8=FIX.4.2|9=195|35=D|49=DART_FIX_INTERFACE|56=DART_FIX_TESTER|34=36|52=20120613-20:43:02|21=1|115=DEGS|100=KM|11=20120613WADAQQS|54=1|55=SCU|38=135|44=29.5|40=2|59=0|47=A|439=501|1=7ZW61209|60=20120613-20:43:02|10=130|
		> 100=KM
		> 115=DEGS
	FIX: < 8=FIX.4.2|9=160|35=F|49=DART|56=NITE|34=2871|52=20120224-20:58:20|21=1|11=201202241SO3X7B|41=201202241SO3X4H|54=1|55=SCU|38=135|47=A|1=7ZW61209|37=DRTA748|60=20120224-20:58:20|10=140|
	FIX: > 8=FIX.4.2|9=199|35=F|49=DART_FIX_INTERFACE|56=DART_FIX_TESTER|34=37|52=20120613-20:43:02|21=1|115=DEGS|100=KM|11=20120613WADAQQT|41=20120613WADAQQS|54=1|55=SCU|38=135|47=A|1=7ZW61209|37=DRTA748|60=20120613-20:43:02|10=172|
		> 100=KM
		> 115=DEGS
2 differences found for ROM tag REGOH-40120224-164765:
	FIX: < 8=FIX.4.2|9=159|35=D|49=DART|56=NITE|34=2169|52=20120224-20:56:23|21=1|11=201202241SO3WNV|54=1|55=SENEB|38=150|44=27.58|40=2|59=0|47=A|439=501|1=7ZW61209|60=20120224-20:56:23|10=139|
	FIX: > 8=FIX.4.2|9=198|35=D|49=DART_FIX_INTERFACE|56=DART_FIX_TESTER|34=38|52=20120613-20:43:02|21=1|115=DEGS|100=KM|11=20120613WADAQQU|54=1|55=SENEB|38=150|44=27.58|40=2|59=0|47=A|439=501|1=7ZW61209|60=20120613-20:43:02|10=062|
		> 100=KM
		> 115=DEGS
	FIX: < 8=FIX.4.2|9=162|35=F|49=DART|56=NITE|34=2356|52=20120224-20:56:41|21=1|11=201202241SO3WT2|41=201202241SO3WNV|54=1|55=SENEB|38=150|47=A|1=7ZW61209|37=DRTA436|60=20120224-20:56:41|10=058|
	FIX: > 8=FIX.4.2|9=201|35=F|49=DART_FIX_INTERFACE|56=DART_FIX_TESTER|34=39|52=20120613-20:43:02|21=1|115=DEGS|100=KM|11=20120613WADAQQV|41=20120613WADAQQU|54=1|55=SENEB|38=150|47=A|1=7ZW61209|37=DRTA436|60=20120613-20:43:02|10=027|
		> 100=KM
		> 115=DEGS
1 differences found for ROM tag NGT-30120224-1189:
	FIX: < 8=FIX.4.2|9=165|35=D|49=DART|56=NITE|34=352|52=20120224-14:31:02|21=1|11=201202241SO3VSF|54=1|55=CIEN|38=200|44=15.51|40=2|59=0|47=A|439=501|1=37JM1209|111=100|60=20120224-14:31:02|10=031|
	FIX: > 8=FIX.4.2|9=205|35=D|49=DART_FIX_INTERFACE|56=DART_FIX_TESTER|34=40|52=20120613-20:43:02|21=1|115=DEGS|100=KM|11=20120613WADAQQW|54=1|55=CIEN|38=200|44=15.51|40=2|59=0|47=A|439=501|1=37JM1209|111=100|60=20120613-20:43:02|10=023|
		> 100=KM
		> 115=DEGS
2 differences found for ROM tag REGOH-40120224-165533:
	FIX: < 8=FIX.4.2|9=156|35=D|49=DART|56=NITE|34=2770|52=20120224-20:58:10|21=1|11=201202241SO3X4I|54=2|55=SOCB|38=600|44=1.4|40=2|59=0|47=A|439=501|1=7ZW61209|60=20120224-20:58:10|10=166|
	FIX: > 8=FIX.4.2|9=195|35=D|49=DART_FIX_INTERFACE|56=DART_FIX_TESTER|34=41|52=20120613-20:43:02|21=1|115=DEGS|100=KM|11=20120613WADAQQX|54=2|55=SOCB|38=600|44=1.4|40=2|59=0|47=A|439=501|1=7ZW61209|60=20120613-20:43:02|10=130|
		> 100=KM
		> 115=DEGS
	FIX: < 8=FIX.4.2|9=161|35=F|49=DART|56=NITE|34=2868|52=20120224-20:58:20|21=1|11=201202241SO3X78|41=201202241SO3X4I|54=2|55=SOCB|38=600|47=A|1=7ZW61209|37=DRTA616|60=20120224-20:58:20|10=190|
	FIX: > 8=FIX.4.2|9=200|35=F|49=DART_FIX_INTERFACE|56=DART_FIX_TESTER|34=42|52=20120613-20:43:02|21=1|115=DEGS|100=KM|11=20120613WADAQQY|41=20120613WADAQQX|54=2|55=SOCB|38=600|47=A|1=7ZW61209|37=DRTA616|60=20120613-20:43:02|10=213|
		> 100=KM
		> 115=DEGS
1 differences found for ROM tag NGT-30120224-3930:
	FIX: < 8=FIX.4.2|9=164|35=D|49=DART|56=NITE|34=861|52=20120224-15:36:00|21=1|11=201202241SO3W34|54=1|55=NOV|38=200|44=86.40|40=2|59=0|47=A|439=501|1=37JM1209|111=100|60=20120224-15:36:00|10=212|
	FIX: > 8=FIX.4.2|9=204|35=D|49=DART_FIX_INTERFACE|56=DART_FIX_TESTER|34=43|52=20120613-20:43:02|21=1|115=DEGS|100=KM|11=20120613WADAQQZ|54=1|55=NOV|38=200|44=86.40|40=2|59=0|47=A|439=501|1=37JM1209|111=100|60=20120613-20:43:02|10=246|
		> 100=KM
		> 115=DEGS
2 differences found for ROM tag REGOH-40120224-164766:
	FIX: < 8=FIX.4.2|9=156|35=D|49=DART|56=NITE|34=2170|52=20120224-20:56:23|21=1|11=201202241SO3WNW|54=2|55=RICK|38=50|44=9.37|40=2|59=0|47=A|439=501|1=7ZW61209|60=20120224-20:56:23|10=218|
	FIX: > 8=FIX.4.2|9=195|35=D|49=DART_FIX_INTERFACE|56=DART_FIX_TESTER|34=44|52=20120613-20:43:02|21=1|115=DEGS|100=KM|11=20120613WADAQR0|54=2|55=RICK|38=50|44=9.37|40=2|59=0|47=A|439=501|1=7ZW61209|60=20120613-20:43:02|10=109|
		> 100=KM
		> 115=DEGS
	FIX: < 8=FIX.4.2|9=160|35=F|49=DART|56=NITE|34=2362|52=20120224-20:56:41|21=1|11=201202241SO3WT8|41=201202241SO3WNW|54=2|55=RICK|38=50|47=A|1=7ZW61209|37=DRTA437|60=20120224-20:56:41|10=201|
	FIX: > 8=FIX.4.2|9=199|35=F|49=DART_FIX_INTERFACE|56=DART_FIX_TESTER|34=45|52=20120613-20:43:02|21=1|115=DEGS|100=KM|11=20120613WADAQR1|41=20120613WADAQR0|54=2|55=RICK|38=50|47=A|1=7ZW61209|37=DRTA437|60=20120613-20:43:02|10=109|
		> 100=KM
		> 115=DEGS
2 differences found for ROM tag REGOH-40120224-165534:
	FIX: < 8=FIX.4.2|9=154|35=D|49=DART|56=NITE|34=2771|52=20120224-20:58:10|21=1|11=201202241SO3X4J|54=2|55=PTX|38=1|44=9.03|40=2|59=0|47=A|439=501|1=7ZW61209|60=20120224-20:58:10|10=077|
	FIX: > 8=FIX.4.2|9=193|35=D|49=DART_FIX_INTERFACE|56=DART_FIX_TESTER|34=46|52=20120613-20:43:02|21=1|115=DEGS|100=KM|11=20120613WADAQR2|54=2|55=PTX|38=1|44=9.03|40=2|59=0|47=A|439=501|1=7ZW61209|60=20120613-20:43:02|10=007|
		> 100=KM
		> 115=DEGS
	FIX: < 8=FIX.4.2|9=158|35=F|49=DART|56=NITE|34=2880|52=20120224-20:58:20|21=1|11=201202241SO3X7K|41=201202241SO3X4J|54=2|55=PTX|38=1|47=A|1=7ZW61209|37=DRTA749|60=20120224-20:58:20|10=073|
	FIX: > 8=FIX.4.2|9=197|35=F|49=DART_FIX_INTERFACE|56=DART_FIX_TESTER|34=47|52=20120613-20:43:02|21=1|115=DEGS|100=KM|11=20120613WADAQR3|41=20120613WADAQR2|54=2|55=PTX|38=1|47=A|1=7ZW61209|37=DRTA749|60=20120613-20:43:02|10=022|
		> 100=KM
		> 115=DEGS
1 differences found for ROM tag NGT-30120224-3931:
	FIX: < 8=FIX.4.2|9=156|35=D|49=DART|56=NITE|34=862|52=20120224-15:36:00|21=1|11=201202241SO3W35|54=1|55=IWM|38=700|44=82.67|40=2|59=0|47=A|439=501|1=37JM1209|60=20120224-15:36:00|10=121|
	FIX: > 8=FIX.4.2|9=196|35=D|49=DART_FIX_INTERFACE|56=DART_FIX_TESTER|34=48|52=20120613-20:43:02|21=1|115=DEGS|100=KM|11=20120613WADAQR4|54=1|55=IWM|38=700|44=82.67|40=2|59=0|47=A|439=501|1=37JM1209|60=20120613-20:43:02|10=130|
		> 100=KM
		> 115=DEGS
1 differences found for ROM tag REGOH-40120224-164767:
	FIX: < 8=FIX.4.2|9=157|35=D|49=DART|56=NITE|34=2171|52=20120224-20:56:23|21=1|11=201202241SO3WNX|54=2|55=SEED|38=100|44=2.45|40=2|59=0|47=A|439=501|1=7ZW61209|60=20120224-20:56:23|10=249|
	FIX: > 8=FIX.4.2|9=196|35=D|49=DART_FIX_INTERFACE|56=DART_FIX_TESTER|34=49|52=20120613-20:43:02|21=1|115=DEGS|100=KM|11=20120613WADAQR5|54=2|55=SEED|38=100|44=2.45|40=2|59=0|47=A|439=501|1=7ZW61209|60=20120613-20:43:02|10=148|
		> 100=KM
		> 115=DEGS
2 differences found for ROM tag REGOH-40120224-165535:
	FIX: < 8=FIX.4.2|9=157|35=D|49=DART|56=NITE|34=2772|52=20120224-20:58:10|21=1|11=201202241SO3X4K|54=1|55=SMED|38=116|44=3.84|40=2|59=0|47=A|439=501|1=7ZW61209|60=20120224-20:58:10|10=232|
	FIX: > 8=FIX.4.2|9=196|35=D|49=DART_FIX_INTERFACE|56=DART_FIX_TESTER|34=50|52=20120613-20:43:02|21=1|115=DEGS|100=KM|11=20120613WADAQR6|54=1|55=SMED|38=116|44=3.84|40=2|59=0|47=A|439=501|1=7ZW61209|60=20120613-20:43:02|10=159|
		> 100=KM
		> 115=DEGS
	FIX: < 8=FIX.4.2|9=161|35=F|49=DART|56=NITE|34=2869|52=20120224-20:58:20|21=1|11=201202241SO3X79|41=201202241SO3X4K|54=1|55=SMED|38=116|47=A|1=7ZW61209|37=DRTA617|60=20120224-20:58:20|10=198|
	FIX: > 8=FIX.4.2|9=200|35=F|49=DART_FIX_INTERFACE|56=DART_FIX_TESTER|34=51|52=20120613-20:43:02|21=1|115=DEGS|100=KM|11=20120613WADAQR7|41=20120613WADAQR6|54=1|55=SMED|38=116|47=A|1=7ZW61209|37=DRTA617|60=20120613-20:43:02|10=151|
		> 100=KM
		> 115=DEGS
2 differences found for ROM tag REGOH-40120224-164830:
	FIX: < 8=FIX.4.2|9=156|35=D|49=DART|56=NITE|34=2232|52=20120224-20:56:23|21=1|11=201202241SO3WPM|54=2|55=JAX|38=134|44=6.95|40=2|59=0|47=A|439=501|1=7ZW61209|60=20120224-20:56:23|10=191|
	FIX: > 8=FIX.4.2|9=195|35=D|49=DART_FIX_INTERFACE|56=DART_FIX_TESTER|34=52|52=20120613-20:43:02|21=1|115=DEGS|100=KM|11=20120613WADAQR8|54=2|55=JAX|38=134|44=6.95|40=2|59=0|47=A|439=501|1=7ZW61209|60=20120613-20:43:02|10=098|
		> 100=KM
		> 115=DEGS
	FIX: < 8=FIX.4.2|9=160|35=F|49=DART|56=NITE|34=2404|52=20120224-20:56:42|21=1|11=201202241SO3WUE|41=201202241SO3WPM|54=2|55=JAX|38=134|47=A|1=7ZW61209|37=DRTA473|60=20120224-20:56:42|10=187|
	FIX: > 8=FIX.4.2|9=199|35=F|49=DART_FIX_INTERFACE|56=DART_FIX_TESTER|34=53|52=20120613-20:43:02|21=1|115=DEGS|100=KM|11=20120613WADAQR9|41=20120613WADAQR8|54=2|55=JAX|38=134|47=A|1=7ZW61209|37=DRTA473|60=20120613-20:43:02|10=105|
		> 100=KM
		> 115=DEGS
1 differences found for ROM tag NGT-30120224-3932:
	FIX: < 8=FIX.4.2|9=171|35=D|49=DART|56=NITE|34=863|52=20120224-15:36:00|21=1|11=201202241SO3W36|54=5|114=N|55=XLF|38=100|44=14.66|40=2|59=0|47=A|439=501|1=37JM1209|60=20120224-15:36:00|5700=MMX|10=139|
	FIX: > 8=FIX.4.2|9=211|35=D|49=DART_FIX_INTERFACE|56=DART_FIX_TESTER|34=54|52=20120613-20:43:02|21=1|115=DEGS|100=KM|11=20120613WADAQRA|54=5|114=N|55=XLF|38=100|44=14.66|40=2|59=0|47=A|439=501|1=37JM1209|60=20120613-20:43:02|5700=MMX|10=147|
		> 100=KM
		> 115=DEGS
1 differences found for ROM tag NGT-30120224-571:
	FIX: < 8=FIX.4.2|9=182|35=D|49=DART|56=NITE|34=231|52=20120224-14:31:00|21=1|11=201202241SO3VP2|54=5|114=N|55=AMZN|38=2700|44=179.27|40=2|59=0|47=A|439=501|1=37JM1209|111=100|60=20120224-14:31:00|5700=MMX|10=173|
	FIX: > 8=FIX.4.2|9=222|35=D|49=DART_FIX_INTERFACE|56=DART_FIX_TESTER|34=55|52=20120613-20:43:02|21=1|115=DEGS|100=KM|11=20120613WADAQRB|54=5|114=N|55=AMZN|38=2700|44=179.27|40=2|59=0|47=A|439=501|1=37JM1209|111=100|60=20120613-20:43:02|5700=MMX|10=182|
		> 100=KM
		> 115=DEGS
1 differences found for ROM tag NGT-30120224-2137:
	FIX: < 8=FIX.4.2|9=165|35=D|49=DART|56=NITE|34=442|52=20120224-14:31:08|21=1|11=201202241SO3VUX|54=1|55=CIEN|38=300|44=15.49|40=2|59=0|47=A|439=501|1=37JM1209|111=100|60=20120224-14:31:08|10=071|
	FIX: > 8=FIX.4.2|9=205|35=D|49=DART_FIX_INTERFACE|56=DART_FIX_TESTER|34=56|52=20120613-20:43:02|21=1|115=DEGS|100=KM|11=20120613WADAQRC|54=1|55=CIEN|38=300|44=15.49|40=2|59=0|47=A|439=501|1=37JM1209|111=100|60=20120613-20:43:02|10=019|
		> 100=KM
		> 115=DEGS
1 differences found for ROM tag REGOH-40120224-165536:
	FIX: < 8=FIX.4.2|9=158|35=D|49=DART|56=NITE|34=2773|52=20120224-20:58:10|21=1|11=201202241SO3X4L|54=1|55=PTGI|38=200|44=13.19|40=2|59=0|47=A|439=501|1=7ZW61209|60=20120224-20:58:10|10=031|
	FIX: > 8=FIX.4.2|9=197|35=D|49=DART_FIX_INTERFACE|56=DART_FIX_TESTER|34=57|52=20120613-20:43:02|21=1|115=DEGS|100=KM|11=20120613WADAQRD|54=1|55=PTGI|38=200|44=13.19|40=2|59=0|47=A|439=501|1=7ZW61209|60=20120613-20:43:02|10=233|
		> 100=KM
		> 115=DEGS
2 differences found for ROM tag REGOH-40120224-164831:
	FIX: < 8=FIX.4.2|9=157|35=D|49=DART|56=NITE|34=2233|52=20120224-20:56:23|21=1|11=201202241SO3WPN|54=1|55=GXF|38=200|44=18.88|40=2|59=0|47=A|439=501|1=7ZW61209|60=20120224-20:56:23|10=242|
	FIX: > 8=FIX.4.2|9=196|35=D|49=DART_FIX_INTERFACE|56=DART_FIX_TESTER|34=58|52=20120613-20:43:02|21=1|115=DEGS|100=KM|11=20120613WADAQRE|54=1|55=GXF|38=200|44=18.88|40=2|59=0|47=A|439=501|1=7ZW61209|60=20120613-20:43:02|10=166|
		> 100=KM
		> 115=DEGS
	FIX: < 8=FIX.4.2|9=160|35=F|49=DART|56=NITE|34=2417|52=20120224-20:56:42|21=1|11=201202241SO3WUR|41=201202241SO3WPN|54=1|55=GXF|38=200|47=A|1=7ZW61209|37=DRTA618|60=20120224-20:56:42|10=201|
	FIX: > 8=FIX.4.2|9=199|35=F|49=DART_FIX_INTERFACE|56=DART_FIX_TESTER|34=59|52=20120613-20:43:02|21=1|115=DEGS|100=KM|11=20120613WADAQRF|41=20120613WADAQRE|54=1|55=GXF|38=200|47=A|1=7ZW61209|37=DRTA618|60=20120613-20:43:02|10=133|
		> 100=KM
		> 115=DEGS
2 differences found for ROM tag REGOH-40120224-164769:
	FIX: < 8=FIX.4.2|9=157|35=D|49=DART|56=NITE|34=2172|52=20120224-20:56:23|21=1|11=201202241SO3WNY|54=1|55=SCIL|38=350|44=2.25|40=2|59=0|47=A|439=501|1=7ZW61209|60=20120224-20:56:23|10=009|
	FIX: > 8=FIX.4.2|9=196|35=D|49=DART_FIX_INTERFACE|56=DART_FIX_TESTER|34=60|52=20120613-20:43:02|21=1|115=DEGS|100=KM|11=20120613WADAQRG|54=1|55=SCIL|38=350|44=2.25|40=2|59=0|47=A|439=501|1=7ZW61209|60=20120613-20:43:02|10=173|
		> 100=KM
		> 115=DEGS
	FIX: < 8=FIX.4.2|9=161|35=F|49=DART|56=NITE|34=2359|52=20120224-20:56:41|21=1|11=201202241SO3WT5|41=201202241SO3WNY|54=1|55=SCIL|38=350|47=A|1=7ZW61209|37=DRTA439|60=20120224-20:56:41|10=005|
	FIX: > 8=FIX.4.2|9=200|35=F|49=DART_FIX_INTERFACE|56=DART_FIX_TESTER|34=61|52=20120613-20:43:02|21=1|115=DEGS|100=KM|11=20120613WADAQRH|41=20120613WADAQRG|54=1|55=SCIL|38=350|47=A|1=7ZW61209|37=DRTA439|60=20120613-20:43:02|10=190|
		> 100=KM
		> 115=DEGS
2 differences found for ROM tag REGOH-40120224-165537:
	FIX: < 8=FIX.4.2|9=159|35=D|49=DART|56=NITE|34=2774|52=20120224-20:58:10|21=1|11=201202241SO3X4M|54=1|55=SENEB|38=150|44=27.66|40=2|59=0|47=A|439=501|1=7ZW61209|60=20120224-20:58:10|10=102|
	FIX: > 8=FIX.4.2|9=198|35=D|49=DART_FIX_INTERFACE|56=DART_FIX_TESTER|34=62|52=20120613-20:43:02|21=1|115=DEGS|100=KM|11=20120613WADAQRI|54=1|55=SENEB|38=150|44=27.66|40=2|59=0|47=A|439=501|1=7ZW61209|60=20120613-20:43:02|10=047|
		> 100=KM
		> 115=DEGS
	FIX: < 8=FIX.4.2|9=162|35=F|49=DART|56=NITE|34=2870|52=20120224-20:58:20|21=1|11=201202241SO3X7A|41=201202241SO3X4M|54=1|55=SENEB|38=150|47=A|1=7ZW61209|37=DRTA618|60=20120224-20:58:20|10=012|
	FIX: > 8=FIX.4.2|9=201|35=F|49=DART_FIX_INTERFACE|56=DART_FIX_TESTER|34=63|52=20120613-20:43:02|21=1|115=DEGS|100=KM|11=20120613WADAQRJ|41=20120613WADAQRI|54=1|55=SENEB|38=150|47=A|1=7ZW61209|37=DRTA618|60=20120613-20:43:02|10=004|
		> 100=KM
		> 115=DEGS
2 differences found for ROM tag REGOH-40120224-164832:
	FIX: < 8=FIX.4.2|9=158|35=D|49=DART|56=NITE|34=2234|52=20120224-20:56:23|21=1|11=201202241SO3WPO|54=2|55=HOME|38=200|44=10.29|40=2|59=0|47=A|439=501|1=7ZW61209|60=20120224-20:56:23|10=045|
	FIX: > 8=FIX.4.2|9=197|35=D|49=DART_FIX_INTERFACE|56=DART_FIX_TESTER|34=64|52=20120613-20:43:02|21=1|115=DEGS|100=KM|11=20120613WADAQRK|54=2|55=HOME|38=200|44=10.29|40=2|59=0|47=A|439=501|1=7ZW61209|60=20120613-20:43:02|10=226|
		> 100=KM
		> 115=DEGS
	FIX: < 8=FIX.4.2|9=161|35=F|49=DART|56=NITE|34=2410|52=20120224-20:56:42|21=1|11=201202241SO3WUK|41=201202241SO3WPO|54=2|55=HOME|38=200|47=A|1=7ZW61209|37=DRTA474|60=20120224-20:56:42|10=002|
	FIX: > 8=FIX.4.2|9=200|35=F|49=DART_FIX_INTERFACE|56=DART_FIX_TESTER|34=65|52=20120613-20:43:02|21=1|115=DEGS|100=KM|11=20120613WADAQRL|41=20120613WADAQRK|54=2|55=HOME|38=200|47=A|1=7ZW61209|37=DRTA474|60=20120613-20:43:02|10=194|
		> 100=KM
		> 115=DEGS
2 differences found for ROM tag REGOH-40120224-165600:
	FIX: < 8=FIX.4.2|9=158|35=D|49=DART|56=NITE|34=2837|52=20120224-20:58:10|21=1|11=201202241SO3X6D|54=2|55=ASEA|38=200|44=15.84|40=2|59=0|47=A|439=501|1=7ZW61209|60=20120224-20:58:10|10=005|
	FIX: > 8=FIX.4.2|9=197|35=D|49=DART_FIX_INTERFACE|56=DART_FIX_TESTER|34=66|52=20120613-20:43:02|21=1|115=DEGS|100=KM|11=20120613WADAQRM|54=2|55=ASEA|38=200|44=15.84|40=2|59=0|47=A|439=501|1=7ZW61209|60=20120613-20:43:02|10=221|
		> 100=KM
		> 115=DEGS
	FIX: < 8=FIX.4.2|9=161|35=F|49=DART|56=NITE|34=2939|52=20120224-20:58:20|21=1|11=201202241SO3X97|41=201202241SO3X6D|54=2|55=ASEA|38=200|47=A|1=7ZW61209|37=DRTA775|60=20120224-20:58:20|10=176|
	FIX: > 8=FIX.4.2|9=200|35=F|49=DART_FIX_INTERFACE|56=DART_FIX_TESTER|34=67|52=20120613-20:43:02|21=1|115=DEGS|100=KM|11=20120613WADAQRN|41=20120613WADAQRM|54=2|55=ASEA|38=200|47=A|1=7ZW61209|37=DRTA775|60=20120613-20:43:02|10=189|
		> 100=KM
		> 115=DEGS
2 differences found for ROM tag REGOH-40120224-165538:
	FIX: < 8=FIX.4.2|9=156|35=D|49=DART|56=NITE|34=2775|52=20120224-20:58:10|21=1|11=201202241SO3X4N|54=2|55=ODC|38=23|44=20.91|40=2|59=0|47=A|439=501|1=7ZW61209|60=20120224-20:58:10|10=149|
	FIX: > 8=FIX.4.2|9=195|35=D|49=DART_FIX_INTERFACE|56=DART_FIX_TESTER|34=68|52=20120613-20:43:02|21=1|115=DEGS|100=KM|11=20120613WADAQRO|54=2|55=ODC|38=23|44=20.91|40=2|59=0|47=A|439=501|1=7ZW61209|60=20120613-20:43:02|10=104|
		> 100=KM
		> 115=DEGS
	FIX: < 8=FIX.4.2|9=159|35=F|49=DART|56=NITE|34=2886|52=20120224-20:58:20|21=1|11=201202241SO3X7Q|41=201202241SO3X4N|54=2|55=ODC|38=23|47=A|1=7ZW61209|37=DRTA751|60=20120224-20:58:20|10=097|
	FIX: > 8=FIX.4.2|9=198|35=F|49=DART_FIX_INTERFACE|56=DART_FIX_TESTER|34=69|52=20120613-20:43:02|21=1|115=DEGS|100=KM|11=20120613WADAQRP|41=20120613WADAQRO|54=2|55=ODC|38=23|47=A|1=7ZW61209|37=DRTA751|60=20120613-20:43:02|10=092|
		> 100=KM
		> 115=DEGS
2 differences found for ROM tag REGOH-40120224-164833:
	FIX: < 8=FIX.4.2|9=156|35=D|49=DART|56=NITE|34=2235|52=20120224-20:56:23|21=1|11=201202241SO3WPP|54=2|55=GPX|38=84|44=15.77|40=2|59=0|47=A|439=501|1=7ZW61209|60=20120224-20:56:23|10=213|
	FIX: > 8=FIX.4.2|9=195|35=D|49=DART_FIX_INTERFACE|56=DART_FIX_TESTER|34=70|52=20120613-20:43:03|21=1|115=DEGS|100=KM|11=20120613WADAQRQ|54=2|55=GPX|38=84|44=15.77|40=2|59=0|47=A|439=501|1=7ZW61209|60=20120613-20:43:03|10=141|
		> 100=KM
		> 115=DEGS
	FIX: < 8=FIX.4.2|9=159|35=F|49=DART|56=NITE|34=2421|52=20120224-20:56:42|21=1|11=201202241SO3WUV|41=201202241SO3WPP|54=2|55=GPX|38=84|47=A|1=7ZW61209|37=DRTA619|60=20120224-20:56:42|10=184|
	FIX: > 8=FIX.4.2|9=198|35=F|49=DART_FIX_INTERFACE|56=DART_FIX_TESTER|34=71|52=20120613-20:43:03|21=1|115=DEGS|100=KM|11=20120613WADAQRR|41=20120613WADAQRQ|54=2|55=GPX|38=84|47=A|1=7ZW61209|37=DRTA619|60=20120613-20:43:03|10=126|
		> 100=KM
		> 115=DEGS
1 differences found for ROM tag NGT-30120224-2202:
	FIX: < 8=FIX.4.2|9=164|35=D|49=DART|56=NITE|34=449|52=20120224-14:31:08|21=1|11=201202241SO3VV4|54=1|55=SEE|38=300|44=20.01|40=2|59=0|47=A|439=501|1=37JM1209|111=100|60=20120224-14:31:08|10=216|
	FIX: > 8=FIX.4.2|9=204|35=D|49=DART_FIX_INTERFACE|56=DART_FIX_TESTER|34=72|52=20120613-20:43:03|21=1|115=DEGS|100=KM|11=20120613WADAQRS|54=1|55=SEE|38=300|44=20.01|40=2|59=0|47=A|439=501|1=37JM1209|111=100|60=20120613-20:43:03|10=208|
		> 100=KM
		> 115=DEGS
2 differences found for ROM tag REGOH-40120224-165601:
	FIX: < 8=FIX.4.2|9=155|35=D|49=DART|56=NITE|34=2838|52=20120224-20:58:10|21=1|11=201202241SO3X6E|54=2|55=AGX|38=3|44=15.35|40=2|59=0|47=A|439=501|1=7ZW61209|60=20120224-20:58:10|10=103|
	FIX: > 8=FIX.4.2|9=194|35=D|49=DART_FIX_INTERFACE|56=DART_FIX_TESTER|34=73|52=20120613-20:43:03|21=1|115=DEGS|100=KM|11=20120613WADAQRT|54=2|55=AGX|38=3|44=15.35|40=2|59=0|47=A|439=501|1=7ZW61209|60=20120613-20:43:03|10=068|
		> 100=KM
		> 115=DEGS
	FIX: < 8=FIX.4.2|9=158|35=F|49=DART|56=NITE|34=2942|52=20120224-20:58:20|21=1|11=201202241SO3X9A|41=201202241SO3X6E|54=2|55=AGX|38=3|47=A|1=7ZW61209|37=DRTA776|60=20120224-20:58:20|10=035|
	FIX: > 8=FIX.4.2|9=197|35=F|49=DART_FIX_INTERFACE|56=DART_FIX_TESTER|34=74|52=20120613-20:43:03|21=1|115=DEGS|100=KM|11=20120613WADAQRU|41=20120613WADAQRT|54=2|55=AGX|38=3|47=A|1=7ZW61209|37=DRTA776|60=20120613-20:43:03|10=066|
		> 100=KM
		> 115=DEGS
2 differences found for ROM tag REGOH-40120224-165539:
	FIX: < 8=FIX.4.2|9=156|35=D|49=DART|56=NITE|34=2776|52=20120224-20:58:10|21=1|11=201202241SO3X4O|54=2|55=RFIL|38=20|44=3.87|40=2|59=0|47=A|439=501|1=7ZW61209|60=20120224-20:58:10|10=193|
	FIX: > 8=FIX.4.2|9=195|35=D|49=DART_FIX_INTERFACE|56=DART_FIX_TESTER|34=75|52=20120613-20:43:03|21=1|115=DEGS|100=KM|11=20120613WADAQRV|54=2|55=RFIL|38=20|44=3.87|40=2|59=0|47=A|439=501|1=7ZW61209|60=20120613-20:43:03|10=153|
		> 100=KM
		> 115=DEGS
	FIX: < 8=FIX.4.2|9=160|35=F|49=DART|56=NITE|34=2877|52=20120224-20:58:20|21=1|11=201202241SO3X7H|41=201202241SO3X4O|54=2|55=RFIL|38=20|47=A|1=7ZW61209|37=DRTA619|60=20120224-20:58:20|10=168|
	FIX: > 8=FIX.4.2|9=199|35=F|49=DART_FIX_INTERFACE|56=DART_FIX_TESTER|34=76|52=20120613-20:43:03|21=1|115=DEGS|100=KM|11=20120613WADAQRW|41=20120613WADAQRV|54=2|55=RFIL|38=20|47=A|1=7ZW61209|37=DRTA619|60=20120613-20:43:03|10=194|
		> 100=KM
		> 115=DEGS
2 differences found for ROM tag REGOH-40120224-164834:
	FIX: < 8=FIX.4.2|9=156|35=D|49=DART|56=NITE|34=2236|52=20120224-20:56:23|21=1|11=201202241SO3WPQ|54=2|55=GCAP|38=73|44=6.59|40=2|59=0|47=A|439=501|1=7ZW61209|60=20120224-20:56:23|10=209|
	FIX: > 8=FIX.4.2|9=195|35=D|49=DART_FIX_INTERFACE|56=DART_FIX_TESTER|34=77|52=20120613-20:43:03|21=1|115=DEGS|100=KM|11=20120613WADAQRX|54=2|55=GCAP|38=73|44=6.59|40=2|59=0|47=A|439=501|1=7ZW61209|60=20120613-20:43:03|10=149|
		> 100=KM
		> 115=DEGS
	FIX: < 8=FIX.4.2|9=160|35=F|49=DART|56=NITE|34=2423|52=20120224-20:56:42|21=1|11=201202241SO3WUX|41=201202241SO3WPQ|54=2|55=GCAP|38=73|47=A|1=7ZW61209|37=DRTA620|60=20120224-20:56:42|10=215|
	FIX: > 8=FIX.4.2|9=199|35=F|49=DART_FIX_INTERFACE|56=DART_FIX_TESTER|34=78|52=20120613-20:43:03|21=1|115=DEGS|100=KM|11=20120613WADAQRY|41=20120613WADAQRX|54=2|55=GCAP|38=73|47=A|1=7ZW61209|37=DRTA620|60=20120613-20:43:03|10=182|
		> 100=KM
		> 115=DEGS
1 differences found for ROM tag NGT-30120224-2203:
	FIX: < 8=FIX.4.2|9=171|35=D|49=DART|56=NITE|34=450|52=20120224-14:31:08|21=1|11=201202241SO3VV5|54=5|114=N|55=SPWR|38=100|44=7.95|40=2|59=0|47=A|439=501|1=37JM1209|60=20120224-14:31:08|5700=MMX|10=222|
	FIX: > 8=FIX.4.2|9=211|35=D|49=DART_FIX_INTERFACE|56=DART_FIX_TESTER|34=79|52=20120613-20:43:03|21=1|115=DEGS|100=KM|11=20120613WADAQRZ|54=5|114=N|55=SPWR|38=100|44=7.95|40=2|59=0|47=A|439=501|1=37JM1209|60=20120613-20:43:03|5700=MMX|10=235|
		> 100=KM
		> 115=DEGS
2 differences found for ROM tag REGOH-40120224-165602:
	FIX: < 8=FIX.4.2|9=160|35=D|49=DART|56=NITE|34=2839|52=20120224-20:58:10|21=1|11=201202241SO3X6F|54=2|55=AMP/PRA|38=12|44=29.34|40=2|59=0|47=A|439=501|1=7ZW61209|60=20120224-20:58:10|10=169|
	FIX: > 8=FIX.4.2|9=199|35=D|49=DART_FIX_INTERFACE|56=DART_FIX_TESTER|34=80|52=20120613-20:43:03|21=1|115=DEGS|100=KM|11=20120613WADAQS0|54=2|55=AMP/PRA|38=12|44=29.34|40=2|59=0|47=A|439=501|1=7ZW61209|60=20120613-20:43:03|10=104|
		> 100=KM
		> 115=DEGS
	FIX: < 8=FIX.4.2|9=163|35=F|49=DART|56=NITE|34=2947|52=20120224-20:58:21|21=1|11=201202241SO3X9F|41=201202241SO3X6F|54=2|55=AMP/PRA|38=12|47=A|1=7ZW61209|37=DRTA777|60=20120224-20:58:21|10=109|
	FIX: > 8=FIX.4.2|9=202|35=F|49=DART_FIX_INTERFACE|56=DART_FIX_TESTER|34=81|52=20120613-20:43:03|21=1|115=DEGS|100=KM|11=20120613WADAQS1|41=20120613WADAQS0|54=2|55=AMP/PRA|38=12|47=A|1=7ZW61209|37=DRTA777|60=20120613-20:43:03|10=046|
		> 100=KM
		> 115=DEGS
2 differences found for ROM tag REGOH-40120224-164835:
	FIX: < 8=FIX.4.2|9=157|35=D|49=DART|56=NITE|34=2237|52=20120224-20:56:23|21=1|11=201202241SO3WPR|54=2|55=CSWC|38=97|44=94.75|40=2|59=0|47=A|439=501|1=7ZW61209|60=20120224-20:56:23|10=036|
	FIX: > 8=FIX.4.2|9=196|35=D|49=DART_FIX_INTERFACE|56=DART_FIX_TESTER|34=82|52=20120613-20:43:03|21=1|115=DEGS|100=KM|11=20120613WADAQS2|54=2|55=CSWC|38=97|44=94.75|40=2|59=0|47=A|439=501|1=7ZW61209|60=20120613-20:43:03|10=189|
		> 100=KM
		> 115=DEGS
	FIX: < 8=FIX.4.2|9=160|35=F|49=DART|56=NITE|34=2445|52=20120224-20:56:42|21=1|11=201202241SO3WVJ|41=201202241SO3WPR|54=2|55=CSWC|38=97|47=A|1=7ZW61209|37=DRTA475|60=20120224-20:56:42|10=242|
	FIX: > 8=FIX.4.2|9=199|35=F|49=DART_FIX_INTERFACE|56=DART_FIX_TESTER|34=83|52=20120613-20:43:03|21=1|115=DEGS|100=KM|11=20120613WADAQS3|41=20120613WADAQS2|54=2|55=CSWC|38=97|47=A|1=7ZW61209|37=DRTA475|60=20120613-20:43:03|10=139|
		> 100=KM
		> 115=DEGS
1 differences found for ROM tag NGT-30120224-4121:
	FIX: < 8=FIX.4.2|9=165|35=D|49=DART|56=NITE|34=899|52=20120224-15:37:00|21=1|11=201202241SO3W44|54=1|55=ACI|38=1100|44=14.38|40=2|59=0|47=A|439=501|1=37JM1209|111=100|60=20120224-15:37:00|10=235|
	FIX: > 8=FIX.4.2|9=205|35=D|49=DART_FIX_INTERFACE|56=DART_FIX_TESTER|34=84|52=20120613-20:43:03|21=1|115=DEGS|100=KM|11=20120613WADAQS4|54=1|55=ACI|38=1100|44=14.38|40=2|59=0|47=A|439=501|1=37JM1209|111=100|60=20120613-20:43:03|10=226|
		> 100=KM
		> 115=DEGS
1 differences found for ROM tag NGT-30120224-2471:
	FIX: < 8=FIX.4.2|9=166|35=D|49=DART|56=NITE|34=482|52=20120224-14:31:10|21=1|11=201202241SO3VW1|54=2|55=OPEN|38=1000|44=48.41|40=2|59=0|47=A|439=501|1=37JM1209|111=100|60=20120224-14:31:10|10=089|
	FIX: > 8=FIX.4.2|9=206|35=D|49=DART_FIX_INTERFACE|56=DART_FIX_TESTER|34=85|52=20120613-20:43:03|21=1|115=DEGS|100=KM|11=20120613WADAQS5|54=2|55=OPEN|38=1000|44=48.41|40=2|59=0|47=A|439=501|1=37JM1209|111=100|60=20120613-20:43:03|10=075|
		> 100=KM
		> 115=DEGS
1 differences found for ROM tag REGOH-40120224-165603:
	FIX: < 8=FIX.4.2|9=157|35=D|49=DART|56=NITE|34=2840|52=20120224-20:58:10|21=1|11=201202241SO3X6G|54=2|55=DDMG|38=100|44=5.55|40=2|59=0|47=A|439=501|1=7ZW61209|60=20120224-20:58:10|10=207|
	FIX: > 8=FIX.4.2|9=196|35=D|49=DART_FIX_INTERFACE|56=DART_FIX_TESTER|34=86|52=20120613-20:43:03|21=1|115=DEGS|100=KM|11=20120613WADAQS6|54=2|55=DDMG|38=100|44=5.55|40=2|59=0|47=A|439=501|1=7ZW61209|60=20120613-20:43:03|10=152|
		> 100=KM
		> 115=DEGS
2 differences found for ROM tag NGT2-30120224-908:
	FIX: < 8=FIX.4.2|9=156|35=D|49=DART|56=NITE|34=292|52=20120224-14:31:02|21=1|11=201202241SO3VQR|54=1|55=GDX|38=100|44=57.23|40=2|59=0|47=A|439=501|1=37JM1209|60=20120224-14:31:02|10=146|
	FIX: > 8=FIX.4.2|9=196|35=D|49=DART_FIX_INTERFACE|56=DART_FIX_TESTER|34=87|52=20120613-20:43:03|21=1|115=DEGS|100=KM|11=20120613WADAQS7|54=1|55=GDX|38=100|44=57.23|40=2|59=0|47=A|439=501|1=37JM1209|60=20120613-20:43:03|10=117|
		> 100=KM
		> 115=DEGS
	FIX: < 8=FIX.4.2|9=167|35=F|49=DART|56=NITE|34=295|52=20120224-14:31:02|21=1|11=201202241SO3VQU|41=201202241SO3VQR|54=1|55=GDX|38=100|44=57.23|47=A|1=37JM1209|37=DRTA39|60=20120224-14:31:02|10=230|
	FIX: > 8=FIX.4.2|9=207|35=F|49=DART_FIX_INTERFACE|56=DART_FIX_TESTER|34=88|52=20120613-20:43:03|21=1|115=DEGS|100=KM|11=20120613WADAQS8|41=20120613WADAQS7|54=1|55=GDX|38=100|44=57.23|47=A|1=37JM1209|37=DRTA39|60=20120613-20:43:03|10=183|
		> 100=KM
		> 115=DEGS
1 differences found for ROM tag NGT-30120224-3936:
	FIX: < 8=FIX.4.2|9=156|35=D|49=DART|56=NITE|34=864|52=20120224-15:36:00|21=1|11=201202241SO3W37|54=2|55=IWM|38=100|44=82.60|40=2|59=0|47=A|439=501|1=37JM1209|60=20120224-15:36:00|10=113|
	FIX: > 8=FIX.4.2|9=196|35=D|49=DART_FIX_INTERFACE|56=DART_FIX_TESTER|34=89|52=20120613-20:43:03|21=1|115=DEGS|100=KM|11=20120613WADAQS9|54=2|55=IWM|38=100|44=82.60|40=2|59=0|47=A|439=501|1=37JM1209|60=20120613-20:43:03|10=131|
		> 100=KM
		> 115=DEGS
1 differences found for ROM tag NGT-30120224-4059:
	FIX: < 8=FIX.4.2|9=156|35=D|49=DART|56=NITE|34=887|52=20120224-15:37:00|21=1|11=201202241SO3W3S|54=2|55=WLP|38=100|44=65.94|40=2|59=0|47=A|439=501|1=37JM1209|60=20120224-15:37:00|10=162|
	FIX: > 8=FIX.4.2|9=196|35=D|49=DART_FIX_INTERFACE|56=DART_FIX_TESTER|34=90|52=20120613-20:43:03|21=1|115=DEGS|100=KM|11=20120613WADAQSA|54=2|55=WLP|38=100|44=65.94|40=2|59=0|47=A|439=501|1=37JM1209|60=20120613-20:43:03|10=145|
		> 100=KM
		> 115=DEGS
2 differences found for ROM tag REGOH-40120224-164836:
	FIX: < 8=FIX.4.2|9=155|35=D|49=DART|56=NITE|34=2238|52=20120224-20:56:23|21=1|11=201202241SO3WPS|54=2|55=FSI|38=15|44=2.19|40=2|59=0|47=A|439=501|1=7ZW61209|60=20120224-20:56:23|10=143|
	FIX: > 8=FIX.4.2|9=194|35=D|49=DART_FIX_INTERFACE|56=DART_FIX_TESTER|34=91|52=20120613-20:43:03|21=1|115=DEGS|100=KM|11=20120613WADAQSB|54=2|55=FSI|38=15|44=2.19|40=2|59=0|47=A|439=501|1=7ZW61209|60=20120613-20:43:03|10=054|
		> 100=KM
		> 115=DEGS
	FIX: < 8=FIX.4.2|9=159|35=F|49=DART|56=NITE|34=2425|52=20120224-20:56:42|21=1|11=201202241SO3WUZ|41=201202241SO3WPS|54=2|55=FSI|38=15|47=A|1=7ZW61209|37=DRTA621|60=20120224-20:56:42|10=169|
	FIX: > 8=FIX.4.2|9=198|35=F|49=DART_FIX_INTERFACE|56=DART_FIX_TESTER|34=92|52=20120613-20:43:03|21=1|115=DEGS|100=KM|11=20120613WADAQSC|41=20120613WADAQSB|54=2|55=FSI|38=15|47=A|1=7ZW61209|37=DRTA621|60=20120613-20:43:03|10=075|
		> 100=KM
		> 115=DEGS
1 differences found for ROM tag NGT-30120224-2205:
	FIX: < 8=FIX.4.2|9=163|35=D|49=DART|56=NITE|34=451|52=20120224-14:31:08|21=1|11=201202241SO3VV6|54=2|55=XL|38=400|44=20.24|40=2|59=0|47=A|439=501|1=37JM1209|111=100|60=20120224-14:31:08|10=160|
	FIX: > 8=FIX.4.2|9=203|35=D|49=DART_FIX_INTERFACE|56=DART_FIX_TESTER|34=93|52=20120613-20:43:03|21=1|115=DEGS|100=KM|11=20120613WADAQSD|54=2|55=XL|38=400|44=20.24|40=2|59=0|47=A|439=501|1=37JM1209|111=100|60=20120613-20:43:03|10=146|
		> 100=KM
		> 115=DEGS
2 differences found for ROM tag REGOH-40120224-165604:
	FIX: < 8=FIX.4.2|9=156|35=D|49=DART|56=NITE|34=2841|52=20120224-20:58:10|21=1|11=201202241SO3X6H|54=2|55=ACW|38=599|44=8.45|40=2|59=0|47=A|439=501|1=7ZW61209|60=20120224-20:58:10|10=167|
	FIX: > 8=FIX.4.2|9=195|35=D|49=DART_FIX_INTERFACE|56=DART_FIX_TESTER|34=94|52=20120613-20:43:03|21=1|115=DEGS|100=KM|11=20120613WADAQSE|54=2|55=ACW|38=599|44=8.45|40=2|59=0|47=A|439=501|1=7ZW61209|60=20120613-20:43:03|10=124|
		> 100=KM
		> 115=DEGS
	FIX: < 8=FIX.4.2|9=160|35=F|49=DART|56=NITE|34=2943|52=20120224-20:58:20|21=1|11=201202241SO3X9B|41=201202241SO3X6H|54=2|55=ACW|38=599|47=A|1=7ZW61209|37=DRTA779|60=20120224-20:58:20|10=147|
	FIX: > 8=FIX.4.2|9=199|35=F|49=DART_FIX_INTERFACE|56=DART_FIX_TESTER|34=95|52=20120613-20:43:03|21=1|115=DEGS|100=KM|11=20120613WADAQSF|41=20120613WADAQSE|54=2|55=ACW|38=599|47=A|1=7ZW61209|37=DRTA779|60=20120613-20:43:03|10=157|
		> 100=KM
		> 115=DEGS
1 differences found for ROM tag NGT-30120224-577:
	FIX: < 8=FIX.4.2|9=165|35=D|49=DART|56=NITE|34=232|52=20120224-14:31:00|21=1|11=201202241SO3VP3|54=1|55=VCLK|38=300|44=20.55|40=2|59=0|47=A|439=501|1=37JM1209|111=100|60=20120224-14:31:00|10=020|
	FIX: > 8=FIX.4.2|9=205|35=D|49=DART_FIX_INTERFACE|56=DART_FIX_TESTER|34=96|52=20120613-20:43:03|21=1|115=DEGS|100=KM|11=20120613WADAQSG|54=1|55=VCLK|38=300|44=20.55|40=2|59=0|47=A|439=501|1=37JM1209|111=100|60=20120613-20:43:03|10=040|
		> 100=KM
		> 115=DEGS
2 differences found for ROM tag REGOH-40120224-164837:
	FIX: < 8=FIX.4.2|9=156|35=D|49=DART|56=NITE|34=2239|52=20120224-20:56:23|21=1|11=201202241SO3WPT|54=1|55=GSL|38=100|44=2.68|40=2|59=0|47=A|439=501|1=7ZW61209|60=20120224-20:56:23|10=196|
	FIX: > 8=FIX.4.2|9=195|35=D|49=DART_FIX_INTERFACE|56=DART_FIX_TESTER|34=97|52=20120613-20:43:03|21=1|115=DEGS|100=KM|11=20120613WADAQSH|54=1|55=GSL|38=100|44=2.68|40=2|59=0|47=A|439=501|1=7ZW61209|60=20120613-20:43:03|10=117|
		> 100=KM
		> 115=DEGS
	FIX: < 8=FIX.4.2|9=160|35=F|49=DART|56=NITE|34=2418|52=20120224-20:56:42|21=1|11=201202241SO3WUS|41=201202241SO3WPT|54=1|55=GSL|38=100|47=A|1=7ZW61209|37=DRTA622|60=20120224-20:56:42|10=204|
	FIX: > 8=FIX.4.2|9=199|35=F|49=DART_FIX_INTERFACE|56=DART_FIX_TESTER|34=98|52=20120613-20:43:03|21=1|115=DEGS|100=KM|11=20120613WADAQSI|41=20120613WADAQSH|54=1|55=GSL|38=100|47=A|1=7ZW61209|37=DRTA622|60=20120613-20:43:03|10=141|
		> 100=KM
		> 115=DEGS
1 differences found for ROM tag NGT-30120224-7150:
	FIX: < 8=FIX.4.2|9=180|35=D|49=DART|56=NITE|34=1935|52=20120224-20:56:17|21=1|11=201202241SO3WHD|54=5|114=N|55=JBLU|38=500|44=4.78|40=2|59=0|47=A|439=501|1=37JM1209|111=100|60=20120224-20:56:17|5700=MMX|10=102|
	FIX: > 8=FIX.4.2|9=219|35=D|49=DART_FIX_INTERFACE|56=DART_FIX_TESTER|34=99|52=20120613-20:43:03|21=1|115=DEGS|100=KM|11=20120613WADAQSJ|54=5|114=N|55=JBLU|38=500|44=4.78|40=2|59=0|47=A|439=501|1=37JM1209|111=100|60=20120613-20:43:03|5700=MMX|10=043|
		> 100=KM
		> 115=DEGS
1 differences found for ROM tag REGOH-40120224-165605:
	FIX: < 8=FIX.4.2|9=156|35=D|49=DART|56=NITE|34=2842|52=20120224-20:58:10|21=1|11=201202241SO3X6I|54=2|55=JAX|38=134|44=6.92|40=2|59=0|47=A|439=501|1=7ZW61209|60=20120224-20:58:10|10=162|
	FIX: > 8=FIX.4.2|9=196|35=D|49=DART_FIX_INTERFACE|56=DART_FIX_TESTER|34=100|52=20120613-20:43:03|21=1|115=DEGS|100=KM|11=20120613WADAQSK|54=2|55=JAX|38=134|44=6.92|40=2|59=0|47=A|439=501|1=7ZW61209|60=20120613-20:43:03|10=160|
		> 100=KM
		> 115=DEGS
2 differences found for ROM tag REGOH-40120224-164900:
	FIX: < 8=FIX.4.2|9=158|35=D|49=DART|56=NITE|34=2302|52=20120224-20:56:23|21=1|11=201202241SO3WRK|54=2|55=BANC|38=150|44=11.91|40=2|59=0|47=A|439=501|1=7ZW61209|60=20120224-20:56:23|10=022|
	FIX: > 8=FIX.4.2|9=198|35=D|49=DART_FIX_INTERFACE|56=DART_FIX_TESTER|34=101|52=20120613-20:43:03|21=1|115=DEGS|100=KM|11=20120613WADAQSL|54=2|55=BANC|38=150|44=11.91|40=2|59=0|47=A|439=501|1=7ZW61209|60=20120613-20:43:03|10=254|
		> 100=KM
		> 115=DEGS
	FIX: < 8=FIX.4.2|9=161|35=F|49=DART|56=NITE|34=2466|52=20120224-20:56:42|21=1|11=201202241SO3WW4|41=201202241SO3WRK|54=2|55=BANC|38=150|47=A|1=7ZW61209|37=DRTA509|60=20120224-20:56:42|10=228|
	FIX: > 8=FIX.4.2|9=201|35=F|49=DART_FIX_INTERFACE|56=DART_FIX_TESTER|34=102|52=20120613-20:43:03|21=1|115=DEGS|100=KM|11=20120613WADAQSM|41=20120613WADAQSL|54=2|55=BANC|38=150|47=A|1=7ZW61209|37=DRTA509|60=20120613-20:43:03|10=223|
		> 100=KM
		> 115=DEGS
2 differences found for ROM tag NGT-30120224-578:
	FIX: < 8=FIX.4.2|9=180|35=D|49=DART|56=NITE|34=233|52=20120224-14:31:00|21=1|11=201202241SO3VP4|54=5|114=N|55=WBSN|38=300|44=18.13|40=2|59=0|47=A|439=501|1=37JM1209|111=100|60=20120224-14:31:00|5700=MMX|10=064|
	FIX: > 8=FIX.4.2|9=221|35=D|49=DART_FIX_INTERFACE|56=DART_FIX_TESTER|34=103|52=20120613-20:43:03|21=1|115=DEGS|100=KM|11=20120613WADAQSN|54=5|114=N|55=WBSN|38=300|44=18.13|40=2|59=0|47=A|439=501|1=37JM1209|111=100|60=20120613-20:43:03|5700=MMX|10=127|
		> 100=KM
		> 115=DEGS
	FIX: < 8=FIX.4.2|9=183|35=F|49=DART|56=NITE|34=247|52=20120224-14:31:00|21=1|11=201202241SO3VPI|41=201202241SO3VP4|54=5|114=N|55=WBSN|38=300|44=18.13|47=A|1=37JM1209|37=DRTA40|60=20120224-14:31:00|5700=MMX|10=032|
	FIX: > 8=FIX.4.2|9=224|35=F|49=DART_FIX_INTERFACE|56=DART_FIX_TESTER|34=104|52=20120613-20:43:03|21=1|115=DEGS|100=KM|11=20120613WADAQSO|41=20120613WADAQSN|54=5|114=N|55=WBSN|38=300|44=18.13|47=A|1=37JM1209|37=DRTA40|60=20120613-20:43:03|5700=MMX|10=120|
		> 100=KM
		> 115=DEGS
2 differences found for ROM tag REGOH-40120224-164838:
	FIX: < 8=FIX.4.2|9=155|35=D|49=DART|56=NITE|34=2240|52=20120224-20:56:23|21=1|11=201202241SO3WPU|54=1|55=ELMD|38=3|44=3.09|40=2|59=0|47=A|439=501|1=7ZW61209|60=20120224-20:56:23|10=150|
	FIX: > 8=FIX.4.2|9=195|35=D|49=DART_FIX_INTERFACE|56=DART_FIX_TESTER|34=105|52=20120613-20:43:04|21=1|115=DEGS|100=KM|11=20120613WADAQSP|54=1|55=ELMD|38=3|44=3.09|40=2|59=0|47=A|439=501|1=7ZW61209|60=20120613-20:43:04|10=127|
		> 100=KM
		> 115=DEGS
	FIX: < 8=FIX.4.2|9=159|35=F|49=DART|56=NITE|34=2434|52=20120224-20:56:42|21=1|11=201202241SO3WV8|41=201202241SO3WPU|54=1|55=ELMD|38=3|47=A|1=7ZW61209|37=DRTA623|60=20120224-20:56:42|10=152|
	FIX: > 8=FIX.4.2|9=199|35=F|49=DART_FIX_INTERFACE|56=DART_FIX_TESTER|34=106|52=20120613-20:43:04|21=1|115=DEGS|100=KM|11=20120613WADAQSQ|41=20120613WADAQSP|54=1|55=ELMD|38=3|47=A|1=7ZW61209|37=DRTA623|60=20120613-20:43:04|10=164|
		> 100=KM
		> 115=DEGS
2 differences found for ROM tag REGOH-40120224-165606:
	FIX: < 8=FIX.4.2|9=156|35=D|49=DART|56=NITE|34=2843|52=20120224-20:58:10|21=1|11=201202241SO3X6J|54=2|55=CAC|38=25|44=35.62|40=2|59=0|47=A|439=501|1=7ZW61209|60=20120224-20:58:10|10=134|
	FIX: > 8=FIX.4.2|9=196|35=D|49=DART_FIX_INTERFACE|56=DART_FIX_TESTER|34=107|52=20120613-20:43:04|21=1|115=DEGS|100=KM|11=20120613WADAQSR|54=2|55=CAC|38=25|44=35.62|40=2|59=0|47=A|439=501|1=7ZW61209|60=20120613-20:43:04|10=146|
		> 100=KM
		> 115=DEGS
	FIX: < 8=FIX.4.2|9=159|35=F|49=DART|56=NITE|34=2937|52=20120224-20:58:20|21=1|11=201202241SO3X95|41=201202241SO3X6J|54=2|55=CAC|38=25|47=A|1=7ZW61209|37=DRTA658|60=20120224-20:58:20|10=059|
	FIX: > 8=FIX.4.2|9=199|35=F|49=DART_FIX_INTERFACE|56=DART_FIX_TESTER|34=108|52=20120613-20:43:04|21=1|115=DEGS|100=KM|11=20120613WADAQSS|41=20120613WADAQSR|54=2|55=CAC|38=25|47=A|1=7ZW61209|37=DRTA658|60=20120613-20:43:04|10=140|
		> 100=KM
		> 115=DEGS
1 differences found for ROM tag NGT-30120224-3939:
	FIX: < 8=FIX.4.2|9=165|35=D|49=DART|56=NITE|34=865|52=20120224-15:36:00|21=1|11=201202241SO3W38|54=2|55=EXPD|38=300|44=43.72|40=2|59=0|47=A|439=501|1=37JM1209|111=100|60=20120224-15:36:00|10=027|
	FIX: > 8=FIX.4.2|9=206|35=D|49=DART_FIX_INTERFACE|56=DART_FIX_TESTER|34=109|52=20120613-20:43:04|21=1|115=DEGS|100=KM|11=20120613WADAQST|54=2|55=EXPD|38=300|44=43.72|40=2|59=0|47=A|439=501|1=37JM1209|111=100|60=20120613-20:43:04|10=105|
		> 100=KM
		> 115=DEGS
2 differences found for ROM tag REGOH-40120224-164901:
	FIX: < 8=FIX.4.2|9=157|35=D|49=DART|56=NITE|34=2303|52=20120224-20:56:23|21=1|11=201202241SO3WRL|54=1|55=ASRV|38=150|44=2.59|40=2|59=0|47=A|439=501|1=7ZW61209|60=20120224-20:56:23|10=018|
	FIX: > 8=FIX.4.2|9=197|35=D|49=DART_FIX_INTERFACE|56=DART_FIX_TESTER|34=110|52=20120613-20:43:04|21=1|115=DEGS|100=KM|11=20120613WADAQSU|54=1|55=ASRV|38=150|44=2.59|40=2|59=0|47=A|439=501|1=7ZW61209|60=20120613-20:43:04|10=003|
		> 100=KM
		> 115=DEGS
	FIX: < 8=FIX.4.2|9=161|35=F|49=DART|56=NITE|34=2467|52=20120224-20:56:42|21=1|11=201202241SO3WW5|41=201202241SO3WRL|54=1|55=ASRV|38=150|47=A|1=7ZW61209|37=DRTA510|60=20120224-20:56:42|10=006|
	FIX: > 8=FIX.4.2|9=201|35=F|49=DART_FIX_INTERFACE|56=DART_FIX_TESTER|34=111|52=20120613-20:43:04|21=1|115=DEGS|100=KM|11=20120613WADAQSV|41=20120613WADAQSU|54=1|55=ASRV|38=150|47=A|1=7ZW61209|37=DRTA510|60=20120613-20:43:04|10=018|
		> 100=KM
		> 115=DEGS
1 differences found for ROM tag NGT-30120224-579:
	FIX: < 8=FIX.4.2|9=156|35=D|49=DART|56=NITE|34=234|52=20120224-14:31:00|21=1|11=201202241SO3VP5|54=1|55=AOL|38=100|44=18.41|40=2|59=0|47=A|439=501|1=37JM1209|60=20120224-14:31:00|10=098|
	FIX: > 8=FIX.4.2|9=197|35=D|49=DART_FIX_INTERFACE|56=DART_FIX_TESTER|34=112|52=20120613-20:43:04|21=1|115=DEGS|100=KM|11=20120613WADAQSW|54=1|55=AOL|38=100|44=18.41|40=2|59=0|47=A|439=501|1=37JM1209|60=20120613-20:43:04|10=179|
		> 100=KM
		> 115=DEGS
1 differences found for ROM tag NGT2-30120224-2654:
	FIX: < 8=FIX.4.2|9=156|35=D|49=DART|56=NITE|34=501|52=20120224-14:31:11|21=1|11=201202241SO3VWK|54=1|55=SLV|38=100|44=34.42|40=2|59=0|47=A|439=501|1=37JM1209|60=20120224-14:31:11|10=152|
	FIX: > 8=FIX.4.2|9=197|35=D|49=DART_FIX_INTERFACE|56=DART_FIX_TESTER|34=113|52=20120613-20:43:04|21=1|115=DEGS|100=KM|11=20120613WADAQSX|54=1|55=SLV|38=100|44=34.42|40=2|59=0|47=A|439=501|1=37JM1209|60=20120613-20:43:04|10=205|
		> 100=KM
		> 115=DEGS
2 differences found for ROM tag REGOH-40120224-164839:
	FIX: < 8=FIX.4.2|9=157|35=D|49=DART|56=NITE|34=2241|52=20120224-20:56:23|21=1|11=201202241SO3WPV|54=2|55=HNH|38=150|44=12.91|40=2|59=0|47=A|439=501|1=7ZW61209|60=20120224-20:56:23|10=235|
	FIX: > 8=FIX.4.2|9=197|35=D|49=DART_FIX_INTERFACE|56=DART_FIX_TESTER|34=114|52=20120613-20:43:04|21=1|115=DEGS|100=KM|11=20120613WADAQSY|54=2|55=HNH|38=150|44=12.91|40=2|59=0|47=A|439=501|1=7ZW61209|60=20120613-20:43:04|10=219|
		> 100=KM
		> 115=DEGS
	FIX: < 8=FIX.4.2|9=160|35=F|49=DART|56=NITE|34=2411|52=20120224-20:56:42|21=1|11=201202241SO3WUL|41=201202241SO3WPV|54=2|55=HNH|38=150|47=A|1=7ZW61209|37=DRTA476|60=20120224-20:56:42|10=197|
	FIX: > 8=FIX.4.2|9=200|35=F|49=DART_FIX_INTERFACE|56=DART_FIX_TESTER|34=115|52=20120613-20:43:04|21=1|115=DEGS|100=KM|11=20120613WADAQSZ|41=20120613WADAQSY|54=2|55=HNH|38=150|47=A|1=7ZW61209|37=DRTA476|60=20120613-20:43:04|10=203|
		> 100=KM
		> 115=DEGS
2 differences found for ROM tag REGOH-40120224-165607:
	FIX: < 8=FIX.4.2|9=157|35=D|49=DART|56=NITE|34=2844|52=20120224-20:58:10|21=1|11=201202241SO3X6K|54=1|55=ANCX|38=10|44=10.37|40=2|59=0|47=A|439=501|1=7ZW61209|60=20120224-20:58:10|10=224|
	FIX: > 8=FIX.4.2|9=197|35=D|49=DART_FIX_INTERFACE|56=DART_FIX_TESTER|34=116|52=20120613-20:43:04|21=1|115=DEGS|100=KM|11=20120613WADAQT0|54=1|55=ANCX|38=10|44=10.37|40=2|59=0|47=A|439=501|1=7ZW61209|60=20120613-20:43:04|10=201|
		> 100=KM
		> 115=DEGS
	FIX: < 8=FIX.4.2|9=160|35=F|49=DART|56=NITE|34=2940|52=20120224-20:58:20|21=1|11=201202241SO3X98|41=201202241SO3X6K|54=1|55=ANCX|38=10|47=A|1=7ZW61209|37=DRTA659|60=20120224-20:58:20|10=142|
	FIX: > 8=FIX.4.2|9=200|35=F|49=DART_FIX_INTERFACE|56=DART_FIX_TESTER|34=117|52=20120613-20:43:04|21=1|115=DEGS|100=KM|11=20120613WADAQT1|41=20120613WADAQT0|54=1|55=ANCX|38=10|47=A|1=7ZW61209|37=DRTA659|60=20120613-20:43:04|10=150|
		> 100=KM
		> 115=DEGS
2 differences found for ROM tag REGOH-40120224-164902:
	FIX: < 8=FIX.4.2|9=158|35=D|49=DART|56=NITE|34=2304|52=20120224-20:56:23|21=1|11=201202241SO3WRM|54=2|55=ALNC|38=300|44=29.97|40=2|59=0|47=A|439=501|1=7ZW61209|60=20120224-20:56:23|10=048|
	FIX: > 8=FIX.4.2|9=198|35=D|49=DART_FIX_INTERFACE|56=DART_FIX_TESTER|34=118|52=20120613-20:43:04|21=1|115=DEGS|100=KM|11=20120613WADAQT2|54=2|55=ALNC|38=300|44=29.97|40=2|59=0|47=A|439=501|1=7ZW61209|60=20120613-20:43:04|10=005|
		> 100=KM
		> 115=DEGS
	FIX: < 8=FIX.4.2|9=161|35=F|49=DART|56=NITE|34=2470|52=20120224-20:56:42|21=1|11=201202241SO3WW8|41=201202241SO3WRM|54=2|55=ALNC|38=300|47=A|1=7ZW61209|37=DRTA511|60=20120224-20:56:42|10=229|
	FIX: > 8=FIX.4.2|9=201|35=F|49=DART_FIX_INTERFACE|56=DART_FIX_TESTER|34=119|52=20120613-20:43:04|21=1|115=DEGS|100=KM|11=20120613WADAQT3|41=20120613WADAQT2|54=2|55=ALNC|38=300|47=A|1=7ZW61209|37=DRTA511|60=20120613-20:43:04|10=183|
		> 100=KM
		> 115=DEGS
1 differences found for ROM tag NGT-30120224-2476:
	FIX: < 8=FIX.4.2|9=180|35=D|49=DART|56=NITE|34=483|52=20120224-14:31:10|21=1|11=201202241SO3VW2|54=5|114=N|55=JDSU|38=900|44=14.14|40=2|59=0|47=A|439=501|1=37JM1209|111=100|60=20120224-14:31:10|5700=MMX|10=077|
	FIX: > 8=FIX.4.2|9=221|35=D|49=DART_FIX_INTERFACE|56=DART_FIX_TESTER|34=120|52=20120613-20:43:04|21=1|115=DEGS|100=KM|11=20120613WADAQT4|54=5|114=N|55=JDSU|38=900|44=14.14|40=2|59=0|47=A|439=501|1=37JM1209|111=100|60=20120613-20:43:04|5700=MMX|10=102|
		> 100=KM
		> 115=DEGS
1 differences found for ROM tag NGT-30120224-643:
	FIX: < 8=FIX.4.2|9=165|35=D|49=DART|56=NITE|34=259|52=20120224-14:31:00|21=1|11=201202241SO3VPU|54=2|55=SYMC|38=300|44=17.94|40=2|59=0|47=A|439=501|1=37JM1209|111=100|60=20120224-14:31:00|10=085|
	FIX: > 8=FIX.4.2|9=206|35=D|49=DART_FIX_INTERFACE|56=DART_FIX_TESTER|34=121|52=20120613-20:43:04|21=1|115=DEGS|100=KM|11=20120613WADAQT5|54=2|55=SYMC|38=300|44=17.94|40=2|59=0|47=A|439=501|1=37JM1209|111=100|60=20120613-20:43:04|10=085|
		> 100=KM
		> 115=DEGS
2 differences found for ROM tag REGOH-40120224-165608:
	FIX: < 8=FIX.4.2|9=156|35=D|49=DART|56=NITE|34=2845|52=20120224-20:58:10|21=1|11=201202241SO3X6L|54=2|55=BANF|38=90|44=40.8|40=2|59=0|47=A|439=501|1=7ZW61209|60=20120224-20:58:10|10=168|
	FIX: > 8=FIX.4.2|9=196|35=D|49=DART_FIX_INTERFACE|56=DART_FIX_TESTER|34=122|52=20120613-20:43:04|21=1|115=DEGS|100=KM|11=20120613WADAQT6|54=2|55=BANF|38=90|44=40.8|40=2|59=0|47=A|439=501|1=7ZW61209|60=20120613-20:43:04|10=146|
		> 100=KM
		> 115=DEGS
	FIX: < 8=FIX.4.2|9=160|35=F|49=DART|56=NITE|34=2938|52=20120224-20:58:20|21=1|11=201202241SO3X96|41=201202241SO3X6L|54=2|55=BANF|38=90|47=A|1=7ZW61209|37=DRTA660|60=20120224-20:58:20|10=130|
	FIX: > 8=FIX.4.2|9=200|35=F|49=DART_FIX_INTERFACE|56=DART_FIX_TESTER|34=123|52=20120613-20:43:04|21=1|115=DEGS|100=KM|11=20120613WADAQT7|41=20120613WADAQT6|54=2|55=BANF|38=90|47=A|1=7ZW61209|37=DRTA660|60=20120613-20:43:04|10=141|
		> 100=KM
		> 115=DEGS
2 differences found for ROM tag REGOH-40120224-164903:
	FIX: < 8=FIX.4.2|9=157|35=D|49=DART|56=NITE|34=2305|52=20120224-20:56:23|21=1|11=201202241SO3WRN|54=1|55=AERL|38=100|44=6.72|40=2|59=0|47=A|439=501|1=7ZW61209|60=20120224-20:56:23|10=248|
	FIX: > 8=FIX.4.2|9=197|35=D|49=DART_FIX_INTERFACE|56=DART_FIX_TESTER|34=124|52=20120613-20:43:04|21=1|115=DEGS|100=KM|11=20120613WADAQT8|54=1|55=AERL|38=100|44=6.72|40=2|59=0|47=A|439=501|1=7ZW61209|60=20120613-20:43:04|10=206|
		> 100=KM
		> 115=DEGS
	FIX: < 8=FIX.4.2|9=161|35=F|49=DART|56=NITE|34=2472|52=20120224-20:56:42|21=1|11=201202241SO3WWA|41=201202241SO3WRN|54=1|55=AERL|38=100|47=A|1=7ZW61209|37=DRTA512|60=20120224-20:56:42|10=245|
	FIX: > 8=FIX.4.2|9=201|35=F|49=DART_FIX_INTERFACE|56=DART_FIX_TESTER|34=125|52=20120613-20:43:04|21=1|115=DEGS|100=KM|11=20120613WADAQT9|41=20120613WADAQT8|54=1|55=AERL|38=100|47=A|1=7ZW61209|37=DRTA512|60=20120613-20:43:04|10=196|
		> 100=KM
		> 115=DEGS
1 differences found for ROM tag NGT2-30120224-2656:
	FIX: < 8=FIX.4.2|9=181|35=D|49=DART|56=NITE|34=503|52=20120224-14:31:11|21=1|11=201202241SO3VWM|54=5|114=N|55=GLD|38=2200|44=172.59|40=2|59=0|47=A|439=501|1=37JM1209|111=100|60=20120224-14:31:11|5700=MMX|10=110|
	FIX: > 8=FIX.4.2|9=222|35=D|49=DART_FIX_INTERFACE|56=DART_FIX_TESTER|34=126|52=20120613-20:43:04|21=1|115=DEGS|100=KM|11=20120613WADAQTA|54=5|114=N|55=GLD|38=2200|44=172.59|40=2|59=0|47=A|439=501|1=37JM1209|111=100|60=20120613-20:43:04|5700=MMX|10=132|
		> 100=KM
		> 115=DEGS
1 differences found for ROM tag REGOH-40120224-166060:
	FIX: < 8=FIX.4.2|9=156|35=D|49=DART|56=NITE|34=3410|52=20120224-20:59:08|21=1|11=201202241SO3XMA|54=2|55=MGPI|38=55|44=6.37|40=2|59=0|47=A|439=501|1=7ZW61209|60=20120224-20:59:08|10=212|
	FIX: > 8=FIX.4.2|9=196|35=D|49=DART_FIX_INTERFACE|56=DART_FIX_TESTER|34=127|52=20120613-20:43:04|21=1|115=DEGS|100=KM|11=20120613WADAQTB|54=2|55=MGPI|38=55|44=6.37|40=2|59=0|47=A|439=501|1=7ZW61209|60=20120613-20:43:04|10=190|
		> 100=KM
		> 115=DEGS
2 differences found for ROM tag REGOH-40120224-165609:
	FIX: < 8=FIX.4.2|9=158|35=D|49=DART|56=NITE|34=2846|52=20120224-20:58:10|21=1|11=201202241SO3X6M|54=2|55=ALNC|38=300|44=29.89|40=2|59=0|47=A|439=501|1=7ZW61209|60=20120224-20:58:10|10=029|
	FIX: > 8=FIX.4.2|9=198|35=D|49=DART_FIX_INTERFACE|56=DART_FIX_TESTER|34=128|52=20120613-20:43:04|21=1|115=DEGS|100=KM|11=20120613WADAQTC|54=2|55=ALNC|38=300|44=29.89|40=2|59=0|47=A|439=501|1=7ZW61209|60=20120613-20:43:04|10=024|
		> 100=KM
		> 115=DEGS
	FIX: < 8=FIX.4.2|9=161|35=F|49=DART|56=NITE|34=2941|52=20120224-20:58:20|21=1|11=201202241SO3X99|41=201202241SO3X6M|54=2|55=ALNC|38=300|47=A|1=7ZW61209|37=DRTA661|60=20120224-20:58:20|10=179|
	FIX: > 8=FIX.4.2|9=201|35=F|49=DART_FIX_INTERFACE|56=DART_FIX_TESTER|34=129|52=20120613-20:43:04|21=1|115=DEGS|100=KM|11=20120613WADAQTD|41=20120613WADAQTC|54=2|55=ALNC|38=300|47=A|1=7ZW61209|37=DRTA661|60=20120613-20:43:04|10=224|
		> 100=KM
		> 115=DEGS
2 differences found for ROM tag REGOH-40120224-164904:
	FIX: < 8=FIX.4.2|9=154|35=D|49=DART|56=NITE|34=2306|52=20120224-20:56:23|21=1|11=201202241SO3WRO|54=1|55=ABTL|38=178|44=1|40=2|59=0|47=A|439=501|1=7ZW61209|60=20120224-20:56:23|10=105|
	FIX: > 8=FIX.4.2|9=194|35=D|49=DART_FIX_INTERFACE|56=DART_FIX_TESTER|34=130|52=20120613-20:43:04|21=1|115=DEGS|100=KM|11=20120613WADAQTE|54=1|55=ABTL|38=178|44=1|40=2|59=0|47=A|439=501|1=7ZW61209|60=20120613-20:43:04|10=071|
		> 100=KM
		> 115=DEGS
	FIX: < 8=FIX.4.2|9=161|35=F|49=DART|56=NITE|34=2476|52=20120224-20:56:42|21=1|11=201202241SO3WWE|41=201202241SO3WRO|54=1|55=ABTL|38=178|47=A|1=7ZW61209|37=DRTA513|60=20120224-20:56:42|10=013|
	FIX: > 8=FIX.4.2|9=201|35=F|49=DART_FIX_INTERFACE|56=DART_FIX_TESTER|34=131|52=20120613-20:43:04|21=1|115=DEGS|100=KM|11=20120613WADAQTF|41=20120613WADAQTE|54=1|55=ABTL|38=178|47=A|1=7ZW61209|37=DRTA513|60=20120613-20:43:04|10=234|
		> 100=KM
		> 115=DEGS
2 differences found for ROM tag REGOH-40120224-165940:
	FIX: < 8=FIX.4.2|9=155|35=D|49=DART|56=NITE|34=3295|52=20120224-20:58:39|21=1|11=201202241SO3XJ3|54=2|55=AGX|38=3|44=15.31|40=2|59=0|47=A|439=501|1=7ZW61209|60=20120224-20:58:39|10=121|
	FIX: > 8=FIX.4.2|9=195|35=D|49=DART_FIX_INTERFACE|56=DART_FIX_TESTER|34=132|52=20120613-20:43:04|21=1|115=DEGS|100=KM|11=20120613WADAQTG|54=2|55=AGX|38=3|44=15.31|40=2|59=0|47=A|439=501|1=7ZW61209|60=20120613-20:43:04|10=100|
		> 100=KM
		> 115=DEGS
	FIX: < 8=FIX.4.2|9=158|35=F|49=DART|56=NITE|34=3327|52=20120224-20:58:50|21=1|11=201202241SO3XJZ|41=201202241SO3XJ3|54=2|55=AGX|38=3|47=A|1=7ZW61209|37=DRTA871|60=20120224-20:58:50|10=079|
	FIX: > 8=FIX.4.2|9=198|35=F|49=DART_FIX_INTERFACE|56=DART_FIX_TESTER|34=133|52=20120613-20:43:04|21=1|115=DEGS|100=KM|11=20120613WADAQTH|41=20120613WADAQTG|54=2|55=AGX|38=3|47=A|1=7ZW61209|37=DRTA871|60=20120613-20:43:04|10=087|
		> 100=KM
		> 115=DEGS
2 differences found for ROM tag REGOH-40120224-166061:
	FIX: < 8=FIX.4.2|9=156|35=D|49=DART|56=NITE|34=3411|52=20120224-20:59:08|21=1|11=201202241SO3XMB|54=2|55=MCOX|38=50|44=1.26|40=2|59=0|47=A|439=501|1=7ZW61209|60=20120224-20:59:08|10=212|
	FIX: > 8=FIX.4.2|9=196|35=D|49=DART_FIX_INTERFACE|56=DART_FIX_TESTER|34=134|52=20120613-20:43:04|21=1|115=DEGS|100=KM|11=20120613WADAQTI|54=2|55=MCOX|38=50|44=1.26|40=2|59=0|47=A|439=501|1=7ZW61209|60=20120613-20:43:04|10=193|
		> 100=KM
		> 115=DEGS
	FIX: < 8=FIX.4.2|9=170|35=G|49=DART|56=NITE|34=3436|52=20120224-20:59:17|21=1|11=201202241SO3XN0|41=201202241SO3XMB|54=2|55=MCOX|40=1|59=0|47=A|1=7ZW61209|37=DRTA821|38=50|60=20120224-20:59:17|10=114|
	FIX: > 8=FIX.4.2|9=210|35=G|49=DART_FIX_INTERFACE|56=DART_FIX_TESTER|34=135|52=20120613-20:43:04|21=1|115=DEGS|100=KM|11=20120613WADAQTJ|41=20120613WADAQTI|54=2|55=MCOX|40=1|59=0|47=A|1=7ZW61209|37=DRTA821|38=50|60=20120613-20:43:04|10=130|
		> 100=KM
		> 115=DEGS
1 differences found for ROM tag REGOH-40120224-164905:
	FIX: < 8=FIX.4.2|9=157|35=D|49=DART|56=NITE|34=2307|52=20120224-20:56:23|21=1|11=201202241SO3WRP|54=2|55=FUL|38=730|44=30.57|40=2|59=0|47=A|439=501|1=7ZW61209|60=20120224-20:56:23|10=249|
	FIX: > 8=FIX.4.2|9=197|35=D|49=DART_FIX_INTERFACE|56=DART_FIX_TESTER|34=136|52=20120613-20:43:04|21=1|115=DEGS|100=KM|11=20120613WADAQTK|54=2|55=FUL|38=730|44=30.57|40=2|59=0|47=A|439=501|1=7ZW61209|60=20120613-20:43:04|10=225|
		> 100=KM
		> 115=DEGS
1 differences found for ROM tag NGT-30120224-2541:
	FIX: < 8=FIX.4.2|9=164|35=D|49=DART|56=NITE|34=493|52=20120224-14:31:11|21=1|11=201202241SO3VWC|54=1|55=LNC|38=500|44=25.29|40=2|59=0|47=A|439=501|1=37JM1209|111=100|60=20120224-14:31:11|10=236|
	FIX: > 8=FIX.4.2|9=205|35=D|49=DART_FIX_INTERFACE|56=DART_FIX_TESTER|34=137|52=20120613-20:43:04|21=1|115=DEGS|100=KM|11=20120613WADAQTL|54=1|55=LNC|38=500|44=25.29|40=2|59=0|47=A|439=501|1=37JM1209|111=100|60=20120613-20:43:04|10=017|
		> 100=KM
		> 115=DEGS
2 differences found for ROM tag REGOH-40120224-165941:
	FIX: < 8=FIX.4.2|9=160|35=D|49=DART|56=NITE|34=3296|52=20120224-20:58:39|21=1|11=201202241SO3XJ4|54=2|55=AMP/PRA|38=12|44=29.29|40=2|59=0|47=A|439=501|1=7ZW61209|60=20120224-20:58:39|10=195|
	FIX: > 8=FIX.4.2|9=200|35=D|49=DART_FIX_INTERFACE|56=DART_FIX_TESTER|34=138|52=20120613-20:43:04|21=1|115=DEGS|100=KM|11=20120613WADAQTM|54=2|55=AMP/PRA|38=12|44=29.29|40=2|59=0|47=A|439=501|1=7ZW61209|60=20120613-20:43:04|10=175|
		> 100=KM
		> 115=DEGS
	FIX: < 8=FIX.4.2|9=163|35=F|49=DART|56=NITE|34=3329|52=20120224-20:58:50|21=1|11=201202241SO3XK1|41=201202241SO3XJ4|54=2|55=AMP/PRA|38=12|47=A|1=7ZW61209|37=DRTA872|60=20120224-20:58:50|10=103|
	FIX: > 8=FIX.4.2|9=203|35=F|49=DART_FIX_INTERFACE|56=DART_FIX_TESTER|34=139|52=20120613-20:43:04|21=1|115=DEGS|100=KM|11=20120613WADAQTN|41=20120613WADAQTM|54=2|55=AMP/PRA|38=12|47=A|1=7ZW61209|37=DRTA872|60=20120613-20:43:04|10=157|
		> 100=KM
		> 115=DEGS
1 differences found for ROM tag NGT-30120224-5278:
	FIX: < 8=FIX.4.2|9=165|35=D|49=DART|56=NITE|34=1107|52=20120224-17:03:51|21=1|11=201202241SO3W5C|54=2|55=ELN|38=500|44=12.60|40=2|59=0|47=A|439=501|1=37JM1209|111=100|60=20120224-17:03:51|10=251|
	FIX: > 8=FIX.4.2|9=205|35=D|49=DART_FIX_INTERFACE|56=DART_FIX_TESTER|34=140|52=20120613-20:43:04|21=1|115=DEGS|100=KM|11=20120613WADAQTO|54=2|55=ELN|38=500|44=12.60|40=2|59=0|47=A|439=501|1=37JM1209|111=100|60=20120613-20:43:04|10=008|
		> 100=KM
		> 115=DEGS
1 differences found for ROM tag REGOH-40120224-166062:
	FIX: < 8=FIX.4.2|9=155|35=D|49=DART|56=NITE|34=3412|52=20120224-20:59:08|21=1|11=201202241SO3XMC|54=1|55=MASC|38=50|44=8.8|40=2|59=0|47=A|439=501|1=7ZW61209|60=20120224-20:59:08|10=152|
	FIX: > 8=FIX.4.2|9=195|35=D|49=DART_FIX_INTERFACE|56=DART_FIX_TESTER|34=141|52=20120613-20:43:04|21=1|115=DEGS|100=KM|11=20120613WADAQTP|54=1|55=MASC|38=50|44=8.8|40=2|59=0|47=A|439=501|1=7ZW61209|60=20120613-20:43:04|10=136|
		> 100=KM
		> 115=DEGS
2 differences found for ROM tag REGOH-40120224-165180:
	FIX: < 8=FIX.4.2|9=157|35=D|49=DART|56=NITE|34=2611|52=20120224-20:56:42|21=1|11=201202241SO3X05|54=2|55=CSCD|38=300|44=3.73|40=2|59=0|47=A|439=501|1=7ZW61209|60=20120224-20:56:42|10=186|
	FIX: > 8=FIX.4.2|9=197|35=D|49=DART_FIX_INTERFACE|56=DART_FIX_TESTER|34=142|52=20120613-20:43:05|21=1|115=DEGS|100=KM|11=20120613WADAQTQ|54=2|55=CSCD|38=300|44=3.73|40=2|59=0|47=A|439=501|1=7ZW61209|60=20120613-20:43:05|10=227|
		> 100=KM
		> 115=DEGS
	FIX: < 8=FIX.4.2|9=161|35=F|49=DART|56=NITE|34=2722|52=20120224-20:58:09|21=1|11=201202241SO3X36|41=201202241SO3X05|54=2|55=CSCD|38=300|47=A|1=7ZW61209|37=DRTA580|60=20120224-20:58:09|10=150|
	FIX: > 8=FIX.4.2|9=201|35=F|49=DART_FIX_INTERFACE|56=DART_FIX_TESTER|34=143|52=20120613-20:43:05|21=1|115=DEGS|100=KM|11=20120613WADAQTR|41=20120613WADAQTQ|54=2|55=CSCD|38=300|47=A|1=7ZW61209|37=DRTA580|60=20120613-20:43:05|10=249|
		> 100=KM
		> 115=DEGS
2 differences found for ROM tag REGOH-40120224-164906:
	FIX: < 8=FIX.4.2|9=157|35=D|49=DART|56=NITE|34=2308|52=20120224-20:56:23|21=1|11=201202241SO3WRQ|54=1|55=FPT|38=600|44=15.83|40=2|59=0|47=A|439=501|1=7ZW61209|60=20120224-20:56:23|10=251|
	FIX: > 8=FIX.4.2|9=197|35=D|49=DART_FIX_INTERFACE|56=DART_FIX_TESTER|34=144|52=20120613-20:43:05|21=1|115=DEGS|100=KM|11=20120613WADAQTS|54=1|55=FPT|38=600|44=15.83|40=2|59=0|47=A|439=501|1=7ZW61209|60=20120613-20:43:05|10=234|
		> 100=KM
		> 115=DEGS
	FIX: < 8=FIX.4.2|9=160|35=F|49=DART|56=NITE|34=2427|52=20120224-20:56:42|21=1|11=201202241SO3WV1|41=201202241SO3WRQ|54=1|55=FPT|38=600|47=A|1=7ZW61209|37=DRTA653|60=20120224-20:56:42|10=183|
	FIX: > 8=FIX.4.2|9=200|35=F|49=DART_FIX_INTERFACE|56=DART_FIX_TESTER|34=145|52=20120613-20:43:05|21=1|115=DEGS|100=KM|11=20120613WADAQTT|41=20120613WADAQTS|54=1|55=FPT|38=600|47=A|1=7ZW61209|37=DRTA653|60=20120613-20:43:05|10=206|
		> 100=KM
		> 115=DEGS
1 differences found for ROM tag NGT2-30120224-2659:
	FIX: < 8=FIX.4.2|9=157|35=D|49=DART|56=NITE|34=504|52=20120224-14:31:11|21=1|11=201202241SO3VWN|54=1|55=SIAL|38=100|44=72.45|40=2|59=0|47=A|439=501|1=37JM1209|60=20120224-14:31:11|10=216|
	FIX: > 8=FIX.4.2|9=198|35=D|49=DART_FIX_INTERFACE|56=DART_FIX_TESTER|34=146|52=20120613-20:43:05|21=1|115=DEGS|100=KM|11=20120613WADAQTU|54=1|55=SIAL|38=100|44=72.45|40=2|59=0|47=A|439=501|1=37JM1209|60=20120613-20:43:05|10=013|
		> 100=KM
		> 115=DEGS
1 differences found for ROM tag REGOH-40120224-166063:
	FIX: < 8=FIX.4.2|9=156|35=D|49=DART|56=NITE|34=3413|52=20120224-20:59:08|21=1|11=201202241SO3XMD|54=2|55=HEOP|38=85|44=3.81|40=2|59=0|47=A|439=501|1=7ZW61209|60=20120224-20:59:08|10=216|
	FIX: > 8=FIX.4.2|9=196|35=D|49=DART_FIX_INTERFACE|56=DART_FIX_TESTER|34=147|52=20120613-20:43:05|21=1|115=DEGS|100=KM|11=20120613WADAQTV|54=2|55=HEOP|38=85|44=3.81|40=2|59=0|47=A|439=501|1=7ZW61209|60=20120613-20:43:05|10=212|
		> 100=KM
		> 115=DEGS
1 differences found for ROM tag REGOH-40120224-165181:
	FIX: < 8=FIX.4.2|9=156|35=D|49=DART|56=NITE|34=2612|52=20120224-20:56:42|21=1|11=201202241SO3X06|54=2|55=ACO|38=40|44=29.79|40=2|59=0|47=A|439=501|1=7ZW61209|60=20120224-20:56:42|10=128|
	FIX: > 8=FIX.4.2|9=196|35=D|49=DART_FIX_INTERFACE|56=DART_FIX_TESTER|34=148|52=20120613-20:43:05|21=1|115=DEGS|100=KM|11=20120613WADAQTW|54=2|55=ACO|38=40|44=29.79|40=2|59=0|47=A|439=501|1=7ZW61209|60=20120613-20:43:05|10=179|
		> 100=KM
		> 115=DEGS
2 differences found for ROM tag REGOH-40120224-164907:
	FIX: < 8=FIX.4.2|9=156|35=D|49=DART|56=NITE|34=2309|52=20120224-20:56:23|21=1|11=201202241SO3WRR|54=2|55=FPP|38=100|44=5.42|40=2|59=0|47=A|439=501|1=7ZW61209|60=20120224-20:56:23|10=190|
	FIX: > 8=FIX.4.2|9=196|35=D|49=DART_FIX_INTERFACE|56=DART_FIX_TESTER|34=149|52=20120613-20:43:05|21=1|115=DEGS|100=KM|11=20120613WADAQTX|54=2|55=FPP|38=100|44=5.42|40=2|59=0|47=A|439=501|1=7ZW61209|60=20120613-20:43:05|10=181|
		> 100=KM
		> 115=DEGS
	FIX: < 8=FIX.4.2|9=160|35=F|49=DART|56=NITE|34=2428|52=20120224-20:56:42|21=1|11=201202241SO3WV2|41=201202241SO3WRR|54=2|55=FPP|38=100|47=A|1=7ZW61209|37=DRTA654|60=20120224-20:56:42|10=179|
	FIX: > 8=FIX.4.2|9=200|35=F|49=DART_FIX_INTERFACE|56=DART_FIX_TESTER|34=150|52=20120613-20:43:05|21=1|115=DEGS|100=KM|11=20120613WADAQTY|41=20120613WADAQTX|54=2|55=FPP|38=100|47=A|1=7ZW61209|37=DRTA654|60=20120613-20:43:05|10=205|
		> 100=KM
		> 115=DEGS
1 differences found for ROM tag REGOH-40120224-166064:
	FIX: < 8=FIX.4.2|9=155|35=D|49=DART|56=NITE|34=3414|52=20120224-20:59:08|21=1|11=201202241SO3XME|54=2|55=GRR|38=2|44=13.37|40=2|59=0|47=A|439=501|1=7ZW61209|60=20120224-20:59:08|10=143|
	FIX: > 8=FIX.4.2|9=195|35=D|49=DART_FIX_INTERFACE|56=DART_FIX_TESTER|34=151|52=20120613-20:43:05|21=1|115=DEGS|100=KM|11=20120613WADAQTZ|54=2|55=GRR|38=2|44=13.37|40=2|59=0|47=A|439=501|1=7ZW61209|60=20120613-20:43:05|10=136|
		> 100=KM
		> 115=DEGS
2 differences found for ROM tag REGOH-40120224-165182:
	FIX: < 8=FIX.4.2|9=158|35=D|49=DART|56=NITE|34=2613|52=20120224-20:56:42|21=1|11=201202241SO3X07|54=2|55=ASEA|38=200|44=15.85|40=2|59=0|47=A|439=501|1=7ZW61209|60=20120224-20:56:42|10=241|
	FIX: > 8=FIX.4.2|9=198|35=D|49=DART_FIX_INTERFACE|56=DART_FIX_TESTER|34=152|52=20120613-20:43:05|21=1|115=DEGS|100=KM|11=20120613WADAQU0|54=2|55=ASEA|38=200|44=15.85|40=2|59=0|47=A|439=501|1=7ZW61209|60=20120613-20:43:05|10=247|
		> 100=KM
		> 115=DEGS
	FIX: < 8=FIX.4.2|9=161|35=F|49=DART|56=NITE|34=2738|52=20120224-20:58:10|21=1|11=201202241SO3X3M|41=201202241SO3X07|54=2|55=ASEA|38=200|47=A|1=7ZW61209|37=DRTA733|60=20120224-20:58:10|10=162|
	FIX: > 8=FIX.4.2|9=201|35=F|49=DART_FIX_INTERFACE|56=DART_FIX_TESTER|34=153|52=20120613-20:43:05|21=1|115=DEGS|100=KM|11=20120613WADAQU1|41=20120613WADAQU0|54=2|55=ASEA|38=200|47=A|1=7ZW61209|37=DRTA733|60=20120613-20:43:05|10=182|
		> 100=KM
		> 115=DEGS
2 differences found for ROM tag REGOH-40120224-164908:
	FIX: < 8=FIX.4.2|9=157|35=D|49=DART|56=NITE|34=2310|52=20120224-20:56:23|21=1|11=201202241SO3WRS|54=1|55=FEM|38=188|44=26.68|40=2|59=0|47=A|439=501|1=7ZW61209|60=20120224-20:56:23|10=244|
	FIX: > 8=FIX.4.2|9=197|35=D|49=DART_FIX_INTERFACE|56=DART_FIX_TESTER|34=154|52=20120613-20:43:05|21=1|115=DEGS|100=KM|11=20120613WADAQU2|54=1|55=FEM|38=188|44=26.68|40=2|59=0|47=A|439=501|1=7ZW61209|60=20120613-20:43:05|10=201|
		> 100=KM
		> 115=DEGS
	FIX: < 8=FIX.4.2|9=160|35=F|49=DART|56=NITE|34=2431|52=20120224-20:56:42|21=1|11=201202241SO3WV5|41=201202241SO3WRS|54=1|55=FEM|38=188|47=A|1=7ZW61209|37=DRTA655|60=20120224-20:56:42|10=179|
	FIX: > 8=FIX.4.2|9=200|35=F|49=DART_FIX_INTERFACE|56=DART_FIX_TESTER|34=155|52=20120613-20:43:05|21=1|115=DEGS|100=KM|11=20120613WADAQU3|41=20120613WADAQU2|54=1|55=FEM|38=188|47=A|1=7ZW61209|37=DRTA655|60=20120613-20:43:05|10=138|
		> 100=KM
		> 115=DEGS
1 differences found for ROM tag REGOH-40120224-166065:
	FIX: < 8=FIX.4.2|9=155|35=D|49=DART|56=NITE|34=3415|52=20120224-20:59:08|21=1|11=201202241SO3XMF|54=2|55=FSI|38=15|44=2.17|40=2|59=0|47=A|439=501|1=7ZW61209|60=20120224-20:59:08|10=136|
	FIX: > 8=FIX.4.2|9=195|35=D|49=DART_FIX_INTERFACE|56=DART_FIX_TESTER|34=156|52=20120613-20:43:05|21=1|115=DEGS|100=KM|11=20120613WADAQU4|54=2|55=FSI|38=15|44=2.17|40=2|59=0|47=A|439=501|1=7ZW61209|60=20120613-20:43:05|10=095|
		> 100=KM
		> 115=DEGS
2 differences found for ROM tag REGOH-40120224-165183:
	FIX: < 8=FIX.4.2|9=156|35=D|49=DART|56=NITE|34=2614|52=20120224-20:56:42|21=1|11=201202241SO3X08|54=2|55=ACW|38=599|44=8.45|40=2|59=0|47=A|439=501|1=7ZW61209|60=20120224-20:56:42|10=149|
	FIX: > 8=FIX.4.2|9=196|35=D|49=DART_FIX_INTERFACE|56=DART_FIX_TESTER|34=157|52=20120613-20:43:05|21=1|115=DEGS|100=KM|11=20120613WADAQU5|54=2|55=ACW|38=599|44=8.45|40=2|59=0|47=A|439=501|1=7ZW61209|60=20120613-20:43:05|10=163|
		> 100=KM
		> 115=DEGS
	FIX: < 8=FIX.4.2|9=160|35=F|49=DART|56=NITE|34=2742|52=20120224-20:58:10|21=1|11=201202241SO3X3Q|41=201202241SO3X08|54=2|55=ACW|38=599|47=A|1=7ZW61209|37=DRTA734|60=20120224-20:58:10|10=120|
	FIX: > 8=FIX.4.2|9=200|35=F|49=DART_FIX_INTERFACE|56=DART_FIX_TESTER|34=158|52=20120613-20:43:05|21=1|115=DEGS|100=KM|11=20120613WADAQU6|41=20120613WADAQU5|54=2|55=ACW|38=599|47=A|1=7ZW61209|37=DRTA734|60=20120613-20:43:05|10=155|
		> 100=KM
		> 115=DEGS
2 differences found for ROM tag REGOH-40120224-164909:
	FIX: < 8=FIX.4.2|9=155|35=D|49=DART|56=NITE|34=2311|52=20120224-20:56:23|21=1|11=201202241SO3WRT|54=2|55=DRL|38=260|44=1.5|40=2|59=0|47=A|439=501|1=7ZW61209|60=20120224-20:56:23|10=134|
	FIX: > 8=FIX.4.2|9=195|35=D|49=DART_FIX_INTERFACE|56=DART_FIX_TESTER|34=159|52=20120613-20:43:05|21=1|115=DEGS|100=KM|11=20120613WADAQU7|54=2|55=DRL|38=260|44=1.5|40=2|59=0|47=A|439=501|1=7ZW61209|60=20120613-20:43:05|10=099|
		> 100=KM
		> 115=DEGS
	FIX: < 8=FIX.4.2|9=160|35=F|49=DART|56=NITE|34=2438|52=20120224-20:56:42|21=1|11=201202241SO3WVC|41=201202241SO3WRT|54=2|55=DRL|38=260|47=A|1=7ZW61209|37=DRTA656|60=20120224-20:56:42|10=204|
	FIX: > 8=FIX.4.2|9=200|35=F|49=DART_FIX_INTERFACE|56=DART_FIX_TESTER|34=160|52=20120613-20:43:05|21=1|115=DEGS|100=KM|11=20120613WADAQU8|41=20120613WADAQU7|54=2|55=DRL|38=260|47=A|1=7ZW61209|37=DRTA656|60=20120613-20:43:05|10=147|
		> 100=KM
		> 115=DEGS
1 differences found for ROM tag REGOH-40120224-166066:
	FIX: < 8=FIX.4.2|9=155|35=D|49=DART|56=NITE|34=3416|52=20120224-20:59:08|21=1|11=201202241SO3XMG|54=1|55=ELMD|38=3|44=3.11|40=2|59=0|47=A|439=501|1=7ZW61209|60=20120224-20:59:08|10=145|
	FIX: > 8=FIX.4.2|9=195|35=D|49=DART_FIX_INTERFACE|56=DART_FIX_TESTER|34=161|52=20120613-20:43:05|21=1|115=DEGS|100=KM|11=20120613WADAQU9|54=1|55=ELMD|38=3|44=3.11|40=2|59=0|47=A|439=501|1=7ZW61209|60=20120613-20:43:05|10=103|
		> 100=KM
		> 115=DEGS
2 differences found for ROM tag REGOH-40120224-165184:
	FIX: < 8=FIX.4.2|9=160|35=D|49=DART|56=NITE|34=2615|52=20120224-20:56:42|21=1|11=201202241SO3X09|54=2|55=AMP/PRA|38=12|44=29.34|40=2|59=0|47=A|439=501|1=7ZW61209|60=20120224-20:56:42|10=148|
	FIX: > 8=FIX.4.2|9=200|35=D|49=DART_FIX_INTERFACE|56=DART_FIX_TESTER|34=162|52=20120613-20:43:05|21=1|115=DEGS|100=KM|11=20120613WADAQUA|54=2|55=AMP/PRA|38=12|44=29.34|40=2|59=0|47=A|439=501|1=7ZW61209|60=20120613-20:43:05|10=159|
		> 100=KM
		> 115=DEGS
	FIX: < 8=FIX.4.2|9=163|35=F|49=DART|56=NITE|34=2746|52=20120224-20:58:10|21=1|11=201202241SO3X3U|41=201202241SO3X09|54=2|55=AMP/PRA|38=12|47=A|1=7ZW61209|37=DRTA735|60=20120224-20:58:10|10=086|
	FIX: > 8=FIX.4.2|9=203|35=F|49=DART_FIX_INTERFACE|56=DART_FIX_TESTER|34=163|52=20120613-20:43:05|21=1|115=DEGS|100=KM|11=20120613WADAQUB|41=20120613WADAQUA|54=2|55=AMP/PRA|38=12|47=A|1=7ZW61209|37=DRTA735|60=20120613-20:43:05|10=132|
		> 100=KM
		> 115=DEGS
1 differences found for ROM tag NGT-30120224-3582:
	FIX: < 8=FIX.4.2|9=165|35=D|49=DART|56=NITE|34=774|52=20120224-15:33:00|21=1|11=201202241SO3W0U|54=1|55=BRCM|38=400|44=37.10|40=2|59=0|47=A|439=501|1=37JM1209|111=100|60=20120224-15:33:00|10=028|
	FIX: > 8=FIX.4.2|9=206|35=D|49=DART_FIX_INTERFACE|56=DART_FIX_TESTER|34=164|52=20120613-20:43:05|21=1|115=DEGS|100=KM|11=20120613WADAQUC|54=1|55=BRCM|38=400|44=37.10|40=2|59=0|47=A|439=501|1=37JM1209|111=100|60=20120613-20:43:05|10=075|
		> 100=KM
		> 115=DEGS
2 differences found for ROM tag REGOH-40120224-166067:
	FIX: < 8=FIX.4.2|9=155|35=D|49=DART|56=NITE|34=3417|52=20120224-20:59:08|21=1|11=201202241SO3XMH|54=1|55=GRNB|38=73|44=1.4|40=2|59=0|47=A|439=501|1=7ZW61209|60=20120224-20:59:08|10=161|
	FIX: > 8=FIX.4.2|9=195|35=D|49=DART_FIX_INTERFACE|56=DART_FIX_TESTER|34=165|52=20120613-20:43:05|21=1|115=DEGS|100=KM|11=20120613WADAQUD|54=1|55=GRNB|38=73|44=1.4|40=2|59=0|47=A|439=501|1=7ZW61209|60=20120613-20:43:05|10=132|
		> 100=KM
		> 115=DEGS
	FIX: < 8=FIX.4.2|9=170|35=G|49=DART|56=NITE|34=3437|52=20120224-20:59:17|21=1|11=201202241SO3XN1|41=201202241SO3XMH|54=1|55=GRNB|40=1|59=0|47=A|1=7ZW61209|37=DRTA824|38=73|60=20120224-20:59:17|10=115|
	FIX: > 8=FIX.4.2|9=210|35=G|49=DART_FIX_INTERFACE|56=DART_FIX_TESTER|34=166|52=20120613-20:43:05|21=1|115=DEGS|100=KM|11=20120613WADAQUE|41=20120613WADAQUD|54=1|55=GRNB|40=1|59=0|47=A|1=7ZW61209|37=DRTA824|38=73|60=20120613-20:43:05|10=121|
		> 100=KM
		> 115=DEGS
2 differences found for ROM tag REGOH-40120224-165185:
	FIX: < 8=FIX.4.2|9=157|35=D|49=DART|56=NITE|34=2616|52=20120224-20:56:42|21=1|11=201202241SO3X0A|54=2|55=EBTC|38=41|44=16.59|40=2|59=0|47=A|439=501|1=7ZW61209|60=20120224-20:56:42|10=214|
	FIX: > 8=FIX.4.2|9=197|35=D|49=DART_FIX_INTERFACE|56=DART_FIX_TESTER|34=167|52=20120613-20:43:05|21=1|115=DEGS|100=KM|11=20120613WADAQUF|54=2|55=EBTC|38=41|44=16.59|40=2|59=0|47=A|439=501|1=7ZW61209|60=20120613-20:43:05|10=235|
		> 100=KM
		> 115=DEGS
	FIX: < 8=FIX.4.2|9=160|35=F|49=DART|56=NITE|34=2712|52=20120224-20:58:09|21=1|11=201202241SO3X2W|41=201202241SO3X0A|54=2|55=EBTC|38=41|47=A|1=7ZW61209|37=DRTA581|60=20120224-20:58:09|10=148|
	FIX: > 8=FIX.4.2|9=200|35=F|49=DART_FIX_INTERFACE|56=DART_FIX_TESTER|34=168|52=20120613-20:43:05|21=1|115=DEGS|100=KM|11=20120613WADAQUG|41=20120613WADAQUF|54=2|55=EBTC|38=41|47=A|1=7ZW61209|37=DRTA581|60=20120613-20:43:05|10=191|
		> 100=KM
		> 115=DEGS
1 differences found for ROM tag REGOH-40120224-164480:
	FIX: < 8=FIX.4.2|9=156|35=D|49=DART|56=NITE|34=1770|52=20120224-20:56:05|21=1|11=201202241SO3WCS|54=1|55=OWW|38=700|44=3.48|40=2|59=0|47=A|439=501|1=7ZW61209|60=20120224-20:56:05|10=209|
	FIX: > 8=FIX.4.2|9=196|35=D|49=DART_FIX_INTERFACE|56=DART_FIX_TESTER|34=169|52=20120613-20:43:05|21=1|115=DEGS|100=KM|11=20120613WADAQUH|54=1|55=OWW|38=700|44=3.48|40=2|59=0|47=A|439=501|1=7ZW61209|60=20120613-20:43:05|10=200|
		> 100=KM
		> 115=DEGS
2 differences found for ROM tag REGOH-40120224-166068:
	FIX: < 8=FIX.4.2|9=157|35=D|49=DART|56=NITE|34=3418|52=20120224-20:59:08|21=1|11=201202241SO3XMI|54=2|55=EBTC|38=41|44=16.49|40=2|59=0|47=A|439=501|1=7ZW61209|60=20120224-20:59:08|10=005|
	FIX: > 8=FIX.4.2|9=197|35=D|49=DART_FIX_INTERFACE|56=DART_FIX_TESTER|34=170|52=20120613-20:43:05|21=1|115=DEGS|100=KM|11=20120613WADAQUI|54=2|55=EBTC|38=41|44=16.49|40=2|59=0|47=A|439=501|1=7ZW61209|60=20120613-20:43:05|10=231|
		> 100=KM
		> 115=DEGS
	FIX: < 8=FIX.4.2|9=170|35=G|49=DART|56=NITE|34=3438|52=20120224-20:59:17|21=1|11=201202241SO3XN2|41=201202241SO3XMI|54=2|55=EBTC|40=1|59=0|47=A|1=7ZW61209|37=DRTA825|38=41|60=20120224-20:59:17|10=104|
	FIX: > 8=FIX.4.2|9=210|35=G|49=DART_FIX_INTERFACE|56=DART_FIX_TESTER|34=171|52=20120613-20:43:05|21=1|115=DEGS|100=KM|11=20120613WADAQUJ|41=20120613WADAQUI|54=2|55=EBTC|40=1|59=0|47=A|1=7ZW61209|37=DRTA825|38=41|60=20120613-20:43:05|10=113|
		> 100=KM
		> 115=DEGS
2 differences found for ROM tag REGOH-40120224-165186:
	FIX: < 8=FIX.4.2|9=157|35=D|49=DART|56=NITE|34=2617|52=20120224-20:56:42|21=1|11=201202241SO3X0B|54=2|55=DDMG|38=200|44=5.56|40=2|59=0|47=A|439=501|1=7ZW61209|60=20120224-20:56:42|10=206|
	FIX: > 8=FIX.4.2|9=197|35=D|49=DART_FIX_INTERFACE|56=DART_FIX_TESTER|34=172|52=20120613-20:43:05|21=1|115=DEGS|100=KM|11=20120613WADAQUK|54=2|55=DDMG|38=200|44=5.56|40=2|59=0|47=A|439=501|1=7ZW61209|60=20120613-20:43:05|10=226|
		> 100=KM
		> 115=DEGS
	FIX: < 8=FIX.4.2|9=161|35=F|49=DART|56=NITE|34=2718|52=20120224-20:58:09|21=1|11=201202241SO3X32|41=201202241SO3X0B|54=2|55=DDMG|38=200|47=A|1=7ZW61209|37=DRTA736|60=20120224-20:58:09|10=165|
	FIX: > 8=FIX.4.2|9=201|35=F|49=DART_FIX_INTERFACE|56=DART_FIX_TESTER|34=173|52=20120613-20:43:05|21=1|115=DEGS|100=KM|11=20120613WADAQUL|41=20120613WADAQUK|54=2|55=DDMG|38=200|47=A|1=7ZW61209|37=DRTA736|60=20120613-20:43:05|10=243|
		> 100=KM
		> 115=DEGS
2 differences found for ROM tag REGOH-40120224-164481:
	FIX: < 8=FIX.4.2|9=156|35=D|49=DART|56=NITE|34=1771|52=20120224-20:56:05|21=1|11=201202241SO3WCT|54=2|55=OUTD|38=25|44=7.18|40=2|59=0|47=A|439=501|1=7ZW61209|60=20120224-20:56:05|10=228|
	FIX: > 8=FIX.4.2|9=196|35=D|49=DART_FIX_INTERFACE|56=DART_FIX_TESTER|34=174|52=20120613-20:43:05|21=1|115=DEGS|100=KM|11=20120613WADAQUM|54=2|55=OUTD|38=25|44=7.18|40=2|59=0|47=A|439=501|1=7ZW61209|60=20120613-20:43:05|10=218|
		> 100=KM
		> 115=DEGS
	FIX: < 8=FIX.4.2|9=160|35=F|49=DART|56=NITE|34=2005|52=20120224-20:56:23|21=1|11=201202241SO3WJB|41=201202241SO3WCT|54=2|55=OUTD|38=25|47=A|1=7ZW61209|37=DRTA331|60=20120224-20:56:23|10=195|
	FIX: > 8=FIX.4.2|9=200|35=F|49=DART_FIX_INTERFACE|56=DART_FIX_TESTER|34=175|52=20120613-20:43:05|21=1|115=DEGS|100=KM|11=20120613WADAQUN|41=20120613WADAQUM|54=2|55=OUTD|38=25|47=A|1=7ZW61209|37=DRTA331|60=20120613-20:43:05|10=228|
		> 100=KM
		> 115=DEGS
2 differences found for ROM tag NGT-30120224-3584:
	FIX: < 8=FIX.4.2|9=164|35=D|49=DART|56=NITE|34=775|52=20120224-15:33:00|21=1|11=201202241SO3W0V|54=2|55=WPI|38=400|44=58.70|40=2|59=0|47=A|439=501|1=37JM1209|111=100|60=20120224-15:33:00|10=243|
	FIX: > 8=FIX.4.2|9=205|35=D|49=DART_FIX_INTERFACE|56=DART_FIX_TESTER|34=176|52=20120613-20:43:05|21=1|115=DEGS|100=KM|11=20120613WADAQUO|54=2|55=WPI|38=400|44=58.70|40=2|59=0|47=A|439=501|1=37JM1209|111=100|60=20120613-20:43:05|10=047|
		> 100=KM
		> 115=DEGS
	FIX: < 8=FIX.4.2|9=168|35=F|49=DART|56=NITE|34=781|52=20120224-15:33:00|21=1|11=201202241SO3W11|41=201202241SO3W0V|54=2|55=WPI|38=400|44=58.70|47=A|1=37JM1209|37=DRTA223|60=20120224-15:33:00|10=201|
	FIX: > 8=FIX.4.2|9=209|35=F|49=DART_FIX_INTERFACE|56=DART_FIX_TESTER|34=177|52=20120613-20:43:06|21=1|115=DEGS|100=KM|11=20120613WADAQUP|41=20120613WADAQUO|54=2|55=WPI|38=400|44=58.70|47=A|1=37JM1209|37=DRTA223|60=20120613-20:43:06|10=097|
		> 100=KM
		> 115=DEGS
2 differences found for ROM tag REGOH-40120224-166069:
	FIX: < 8=FIX.4.2|9=154|35=D|49=DART|56=NITE|34=3419|52=20120224-20:59:08|21=1|11=201202241SO3XMJ|54=1|55=DVD|38=50|44=1.4|40=2|59=0|47=A|439=501|1=7ZW61209|60=20120224-20:59:08|10=084|
	FIX: > 8=FIX.4.2|9=194|35=D|49=DART_FIX_INTERFACE|56=DART_FIX_TESTER|34=178|52=20120613-20:43:06|21=1|115=DEGS|100=KM|11=20120613WADAQUQ|54=1|55=DVD|38=50|44=1.4|40=2|59=0|47=A|439=501|1=7ZW61209|60=20120613-20:43:06|10=070|
		> 100=KM
		> 115=DEGS
	FIX: < 8=FIX.4.2|9=169|35=G|49=DART|56=NITE|34=3439|52=20120224-20:59:17|21=1|11=201202241SO3XN3|41=201202241SO3XMJ|54=1|55=DVD|40=1|59=0|47=A|1=7ZW61209|37=DRTA899|38=50|60=20120224-20:59:17|10=061|
	FIX: > 8=FIX.4.2|9=209|35=G|49=DART_FIX_INTERFACE|56=DART_FIX_TESTER|34=179|52=20120613-20:43:06|21=1|115=DEGS|100=KM|11=20120613WADAQUR|41=20120613WADAQUQ|54=1|55=DVD|40=1|59=0|47=A|1=7ZW61209|37=DRTA899|38=50|60=20120613-20:43:06|10=093|
		> 100=KM
		> 115=DEGS
1 differences found for ROM tag REGOH-40120224-165187:
	FIX: < 8=FIX.4.2|9=157|35=D|49=DART|56=NITE|34=2618|52=20120224-20:56:42|21=1|11=201202241SO3X0C|54=2|55=UACL|38=18|44=15.99|40=2|59=0|47=A|439=501|1=7ZW61209|60=20120224-20:56:42|10=232|
	FIX: > 8=FIX.4.2|9=197|35=D|49=DART_FIX_INTERFACE|56=DART_FIX_TESTER|34=180|52=20120613-20:43:06|21=1|115=DEGS|100=KM|11=20120613WADAQUS|54=2|55=UACL|38=18|44=15.99|40=2|59=0|47=A|439=501|1=7ZW61209|60=20120613-20:43:06|10=003|
		> 100=KM
		> 115=DEGS
2 differences found for ROM tag REGOH-40120224-164482:
	FIX: < 8=FIX.4.2|9=156|35=D|49=DART|56=NITE|34=1772|52=20120224-20:56:05|21=1|11=201202241SO3WCU|54=2|55=ONP|38=300|44=4.11|40=2|59=0|47=A|439=501|1=7ZW61209|60=20120224-20:56:05|10=185|
	FIX: > 8=FIX.4.2|9=196|35=D|49=DART_FIX_INTERFACE|56=DART_FIX_TESTER|34=181|52=20120613-20:43:06|21=1|115=DEGS|100=KM|11=20120613WADAQUT|54=2|55=ONP|38=300|44=4.11|40=2|59=0|47=A|439=501|1=7ZW61209|60=20120613-20:43:06|10=180|
		> 100=KM
		> 115=DEGS
	FIX: < 8=FIX.4.2|9=160|35=F|49=DART|56=NITE|34=2006|52=20120224-20:56:23|21=1|11=201202241SO3WJC|41=201202241SO3WCU|54=2|55=ONP|38=300|47=A|1=7ZW61209|37=DRTA493|60=20120224-20:56:23|10=172|
	FIX: > 8=FIX.4.2|9=200|35=F|49=DART_FIX_INTERFACE|56=DART_FIX_TESTER|34=182|52=20120613-20:43:06|21=1|115=DEGS|100=KM|11=20120613WADAQUU|41=20120613WADAQUT|54=2|55=ONP|38=300|47=A|1=7ZW61209|37=DRTA493|60=20120613-20:43:06|10=216|
		> 100=KM
		> 115=DEGS
1 differences found for ROM tag NGT-30120224-3585:
	FIX: < 8=FIX.4.2|9=172|35=D|49=DART|56=NITE|34=776|52=20120224-15:33:00|21=1|11=201202241SO3W0W|54=5|114=N|55=DIA|38=100|44=129.54|40=2|59=0|47=A|439=501|1=37JM1209|60=20120224-15:33:00|5700=MMX|10=191|
	FIX: > 8=FIX.4.2|9=213|35=D|49=DART_FIX_INTERFACE|56=DART_FIX_TESTER|34=183|52=20120613-20:43:06|21=1|115=DEGS|100=KM|11=20120613WADAQUV|54=5|114=N|55=DIA|38=100|44=129.54|40=2|59=0|47=A|439=501|1=37JM1209|60=20120613-20:43:06|5700=MMX|10=000|
		> 100=KM
		> 115=DEGS
1 differences found for ROM tag NGT-30120224-5349:
	FIX: < 8=FIX.4.2|9=158|35=D|49=DART|56=NITE|34=1108|52=20120224-17:04:14|21=1|11=201202241SO3W5D|54=2|55=VCLK|38=100|44=20.64|40=2|59=0|47=A|439=501|1=37JM1209|60=20120224-17:04:14|10=237|
	FIX: > 8=FIX.4.2|9=198|35=D|49=DART_FIX_INTERFACE|56=DART_FIX_TESTER|34=184|52=20120613-20:43:06|21=1|115=DEGS|100=KM|11=20120613WADAQUW|54=2|55=VCLK|38=100|44=20.64|40=2|59=0|47=A|439=501|1=37JM1209|60=20120613-20:43:06|10=022|
		> 100=KM
		> 115=DEGS
1 differences found for ROM tag REGOH-40120224-165188:
	FIX: < 8=FIX.4.2|9=158|35=D|49=DART|56=NITE|34=2619|52=20120224-20:56:42|21=1|11=201202241SO3X0D|54=1|55=SPY|38=509|44=137.06|40=2|59=0|47=A|439=501|1=7ZW61209|60=20120224-20:56:42|10=031|
	FIX: > 8=FIX.4.2|9=198|35=D|49=DART_FIX_INTERFACE|56=DART_FIX_TESTER|34=185|52=20120613-20:43:06|21=1|115=DEGS|100=KM|11=20120613WADAQUX|54=1|55=SPY|38=509|44=137.06|40=2|59=0|47=A|439=501|1=7ZW61209|60=20120613-20:43:06|10=066|
		> 100=KM
		> 115=DEGS
2 differences found for ROM tag REGOH-40120224-164483:
	FIX: < 8=FIX.4.2|9=156|35=D|49=DART|56=NITE|34=1773|52=20120224-20:56:05|21=1|11=201202241SO3WCV|54=2|55=OMN|38=274|44=5.54|40=2|59=0|47=A|439=501|1=7ZW61209|60=20120224-20:56:05|10=202|
	FIX: > 8=FIX.4.2|9=196|35=D|49=DART_FIX_INTERFACE|56=DART_FIX_TESTER|34=186|52=20120613-20:43:06|21=1|115=DEGS|100=KM|11=20120613WADAQUY|54=2|55=OMN|38=274|44=5.54|40=2|59=0|47=A|439=501|1=7ZW61209|60=20120613-20:43:06|10=205|
		> 100=KM
		> 115=DEGS
	FIX: < 8=FIX.4.2|9=160|35=F|49=DART|56=NITE|34=2007|52=20120224-20:56:23|21=1|11=201202241SO3WJD|41=201202241SO3WCV|54=2|55=OMN|38=274|47=A|1=7ZW61209|37=DRTA494|60=20120224-20:56:23|10=183|
	FIX: > 8=FIX.4.2|9=200|35=F|49=DART_FIX_INTERFACE|56=DART_FIX_TESTER|34=187|52=20120613-20:43:06|21=1|115=DEGS|100=KM|11=20120613WADAQUZ|41=20120613WADAQUY|54=2|55=OMN|38=274|47=A|1=7ZW61209|37=DRTA494|60=20120613-20:43:06|10=239|
		> 100=KM
		> 115=DEGS
1 differences found for ROM tag NGT-30120224-3586:
	FIX: < 8=FIX.4.2|9=157|35=D|49=DART|56=NITE|34=777|52=20120224-15:33:00|21=1|11=201202241SO3W0X|54=1|55=DIA|38=100|44=129.61|40=2|59=0|47=A|439=501|1=37JM1209|60=20120224-15:33:00|10=160|
	FIX: > 8=FIX.4.2|9=198|35=D|49=DART_FIX_INTERFACE|56=DART_FIX_TESTER|34=188|52=20120613-20:43:06|21=1|115=DEGS|100=KM|11=20120613WADAQV0|54=1|55=DIA|38=100|44=129.61|40=2|59=0|47=A|439=501|1=37JM1209|60=20120613-20:43:06|10=200|
		> 100=KM
		> 115=DEGS
2 differences found for ROM tag REGOH-40120224-164484:
	FIX: < 8=FIX.4.2|9=156|35=D|49=DART|56=NITE|34=1774|52=20120224-20:56:05|21=1|11=201202241SO3WCW|54=2|55=OIIM|38=50|44=5.21|40=2|59=0|47=A|439=501|1=7ZW61209|60=20120224-20:56:05|10=210|
	FIX: > 8=FIX.4.2|9=196|35=D|49=DART_FIX_INTERFACE|56=DART_FIX_TESTER|34=189|52=20120613-20:43:06|21=1|115=DEGS|100=KM|11=20120613WADAQV1|54=2|55=OIIM|38=50|44=5.21|40=2|59=0|47=A|439=501|1=7ZW61209|60=20120613-20:43:06|10=175|
		> 100=KM
		> 115=DEGS
	FIX: < 8=FIX.4.2|9=160|35=F|49=DART|56=NITE|34=2008|52=20120224-20:56:23|21=1|11=201202241SO3WJE|41=201202241SO3WCW|54=2|55=OIIM|38=50|47=A|1=7ZW61209|37=DRTA332|60=20120224-20:56:23|10=189|
	FIX: > 8=FIX.4.2|9=200|35=F|49=DART_FIX_INTERFACE|56=DART_FIX_TESTER|34=190|52=20120613-20:43:06|21=1|115=DEGS|100=KM|11=20120613WADAQV2|41=20120613WADAQV1|54=2|55=OIIM|38=50|47=A|1=7ZW61209|37=DRTA332|60=20120613-20:43:06|10=158|
		> 100=KM
		> 115=DEGS
1 differences found for ROM tag NGT-30120224-3587:
	FIX: < 8=FIX.4.2|9=164|35=D|49=DART|56=NITE|34=778|52=20120224-15:33:00|21=1|11=201202241SO3W0Y|54=1|55=JCP|38=700|44=41.61|40=2|59=0|47=A|439=501|1=37JM1209|111=100|60=20120224-15:33:00|10=224|
	FIX: > 8=FIX.4.2|9=205|35=D|49=DART_FIX_INTERFACE|56=DART_FIX_TESTER|34=191|52=20120613-20:43:06|21=1|115=DEGS|100=KM|11=20120613WADAQV3|54=1|55=JCP|38=700|44=41.61|40=2|59=0|47=A|439=501|1=37JM1209|111=100|60=20120613-20:43:06|10=250|
		> 100=KM
		> 115=DEGS
2 differences found for ROM tag REGOH-40120224-164485:
	FIX: < 8=FIX.4.2|9=156|35=D|49=DART|56=NITE|34=1775|52=20120224-20:56:05|21=1|11=201202241SO3WCX|54=2|55=ODC|38=23|44=20.91|40=2|59=0|47=A|439=501|1=7ZW61209|60=20120224-20:56:05|10=176|
	FIX: > 8=FIX.4.2|9=196|35=D|49=DART_FIX_INTERFACE|56=DART_FIX_TESTER|34=192|52=20120613-20:43:06|21=1|115=DEGS|100=KM|11=20120613WADAQV4|54=2|55=ODC|38=23|44=20.91|40=2|59=0|47=A|439=501|1=7ZW61209|60=20120613-20:43:06|10=136|
		> 100=KM
		> 115=DEGS
	FIX: < 8=FIX.4.2|9=159|35=F|49=DART|56=NITE|34=2009|52=20120224-20:56:23|21=1|11=201202241SO3WJF|41=201202241SO3WCX|54=2|55=ODC|38=23|47=A|1=7ZW61209|37=DRTA495|60=20120224-20:56:23|10=122|
	FIX: > 8=FIX.4.2|9=199|35=F|49=DART_FIX_INTERFACE|56=DART_FIX_TESTER|34=193|52=20120613-20:43:06|21=1|115=DEGS|100=KM|11=20120613WADAQV5|41=20120613WADAQV4|54=2|55=ODC|38=23|47=A|1=7ZW61209|37=DRTA495|60=20120613-20:43:06|10=106|
		> 100=KM
		> 115=DEGS
2 differences found for ROM tag NGT-30120224-2883:
	FIX: < 8=FIX.4.2|9=165|35=D|49=DART|56=NITE|34=579|52=20120224-14:31:12|21=1|11=201202241SO3VYQ|54=2|55=INSP|38=400|44=12.16|40=2|59=0|47=A|439=501|1=37JM1209|111=100|60=20120224-14:31:12|10=089|
	FIX: > 8=FIX.4.2|9=206|35=D|49=DART_FIX_INTERFACE|56=DART_FIX_TESTER|34=194|52=20120613-20:43:06|21=1|115=DEGS|100=KM|11=20120613WADAQV6|54=2|55=INSP|38=400|44=12.16|40=2|59=0|47=A|439=501|1=37JM1209|111=100|60=20120613-20:43:06|10=090|
		> 100=KM
		> 115=DEGS
	FIX: < 8=FIX.4.2|9=169|35=F|49=DART|56=NITE|34=611|52=20120224-14:31:14|21=1|11=201202241SO3VZM|41=201202241SO3VYQ|54=2|55=INSP|38=400|44=12.16|47=A|1=37JM1209|37=DRTA181|60=20120224-14:31:14|10=112|
	FIX: > 8=FIX.4.2|9=210|35=F|49=DART_FIX_INTERFACE|56=DART_FIX_TESTER|34=195|52=20120613-20:43:06|21=1|115=DEGS|100=KM|11=20120613WADAQV7|41=20120613WADAQV6|54=2|55=INSP|38=400|44=12.16|47=A|1=37JM1209|37=DRTA181|60=20120613-20:43:06|10=108|
		> 100=KM
		> 115=DEGS
1 differences found for ROM tag REGOH-40120224-152719:
	FIX: < 8=FIX.4.2|9=158|35=D|49=DART|56=NITE|34=1603|52=20120224-20:20:57|21=1|11=201202241SO3W9W|54=1|55=SPY|38=513|44=137.09|40=2|59=0|47=A|439=501|1=7ZW61209|60=20120224-20:20:57|10=042|
	FIX: > 8=FIX.4.2|9=198|35=D|49=DART_FIX_INTERFACE|56=DART_FIX_TESTER|34=196|52=20120613-20:43:06|21=1|115=DEGS|100=KM|11=20120613WADAQV8|54=1|55=SPY|38=513|44=137.09|40=2|59=0|47=A|439=501|1=7ZW61209|60=20120613-20:43:06|10=035|
		> 100=KM
		> 115=DEGS
1 differences found for ROM tag NGT-30120224-3651:
	FIX: < 8=FIX.4.2|9=165|35=D|49=DART|56=NITE|34=794|52=20120224-15:35:00|21=1|11=201202241SO3W1A|54=1|55=DIA|38=500|44=129.61|40=2|59=0|47=A|439=501|1=37JM1209|111=200|60=20120224-15:35:00|10=243|
	FIX: > 8=FIX.4.2|9=206|35=D|49=DART_FIX_INTERFACE|56=DART_FIX_TESTER|34=197|52=20120613-20:43:06|21=1|115=DEGS|100=KM|11=20120613WADAQV9|54=1|55=DIA|38=500|44=129.61|40=2|59=0|47=A|439=501|1=37JM1209|111=200|60=20120613-20:43:06|10=046|
		> 100=KM
		> 115=DEGS
2 differences found for ROM tag REGOH-40120224-164486:
	FIX: < 8=FIX.4.2|9=157|35=D|49=DART|56=NITE|34=1776|52=20120224-20:56:05|21=1|11=201202241SO3WCY|54=1|55=OBCI|38=900|44=2.51|40=2|59=0|47=A|439=501|1=7ZW61209|60=20120224-20:56:05|10=249|
	FIX: > 8=FIX.4.2|9=197|35=D|49=DART_FIX_INTERFACE|56=DART_FIX_TESTER|34=198|52=20120613-20:43:06|21=1|115=DEGS|100=KM|11=20120613WADAQVA|54=1|55=OBCI|38=900|44=2.51|40=2|59=0|47=A|439=501|1=7ZW61209|60=20120613-20:43:06|10=226|
		> 100=KM
		> 115=DEGS
	FIX: < 8=FIX.4.2|9=161|35=F|49=DART|56=NITE|34=2010|52=20120224-20:56:23|21=1|11=201202241SO3WJG|41=201202241SO3WCY|54=1|55=OBCI|38=900|47=A|1=7ZW61209|37=DRTA333|60=20120224-20:56:23|10=222|
	FIX: > 8=FIX.4.2|9=201|35=F|49=DART_FIX_INTERFACE|56=DART_FIX_TESTER|34=199|52=20120613-20:43:06|21=1|115=DEGS|100=KM|11=20120613WADAQVB|41=20120613WADAQVA|54=1|55=OBCI|38=900|47=A|1=7ZW61209|37=DRTA333|60=20120613-20:43:06|10=235|
		> 100=KM
		> 115=DEGS
2 differences found for ROM tag REGOH-40120224-164550:
	FIX: < 8=FIX.4.2|9=156|35=D|49=DART|56=NITE|34=1840|52=20120224-20:56:05|21=1|11=201202241SO3WEQ|54=1|55=GSL|38=100|44=2.67|40=2|59=0|47=A|439=501|1=7ZW61209|60=20120224-20:56:05|10=178|
	FIX: > 8=FIX.4.2|9=196|35=D|49=DART_FIX_INTERFACE|56=DART_FIX_TESTER|34=200|52=20120613-20:43:06|21=1|115=DEGS|100=KM|11=20120613WADAQVC|54=1|55=GSL|38=100|44=2.67|40=2|59=0|47=A|439=501|1=7ZW61209|60=20120613-20:43:06|10=155|
		> 100=KM
		> 115=DEGS
	FIX: < 8=FIX.4.2|9=160|35=F|49=DART|56=NITE|34=2059|52=20120224-20:56:23|21=1|11=201202241SO3WKT|41=201202241SO3WEQ|54=1|55=GSL|38=100|47=A|1=7ZW61209|37=DRTA530|60=20120224-20:56:23|10=178|
	FIX: > 8=FIX.4.2|9=200|35=F|49=DART_FIX_INTERFACE|56=DART_FIX_TESTER|34=201|52=20120613-20:43:06|21=1|115=DEGS|100=KM|11=20120613WADAQVD|41=20120613WADAQVC|54=1|55=GSL|38=100|47=A|1=7ZW61209|37=DRTA530|60=20120613-20:43:06|10=158|
		> 100=KM
		> 115=DEGS
1 differences found for ROM tag NGT-30120224-2884:
	FIX: < 8=FIX.4.2|9=179|35=D|49=DART|56=NITE|34=580|52=20120224-14:31:12|21=1|11=201202241SO3VYR|54=5|114=N|55=EWZ|38=500|44=69.08|40=2|59=0|47=A|439=501|1=37JM1209|111=100|60=20120224-14:31:12|5700=MMX|10=066|
	FIX: > 8=FIX.4.2|9=220|35=D|49=DART_FIX_INTERFACE|56=DART_FIX_TESTER|34=202|52=20120613-20:43:06|21=1|115=DEGS|100=KM|11=20120613WADAQVE|54=5|114=N|55=EWZ|38=500|44=69.08|40=2|59=0|47=A|439=501|1=37JM1209|111=100|60=20120613-20:43:06|5700=MMX|10=070|
		> 100=KM
		> 115=DEGS
1 differences found for ROM tag REGOH-40120224-164487:
	FIX: < 8=FIX.4.2|9=157|35=D|49=DART|56=NITE|34=1777|52=20120224-20:56:05|21=1|11=201202241SO3WCZ|54=1|55=NYNY|38=300|44=2.49|40=2|59=0|47=A|439=501|1=7ZW61209|60=20120224-20:56:05|10=045|
	FIX: > 8=FIX.4.2|9=197|35=D|49=DART_FIX_INTERFACE|56=DART_FIX_TESTER|34=203|52=20120613-20:43:06|21=1|115=DEGS|100=KM|11=20120613WADAQVF|54=1|55=NYNY|38=300|44=2.49|40=2|59=0|47=A|439=501|1=7ZW61209|60=20120613-20:43:06|10=012|
		> 100=KM
		> 115=DEGS
1 differences found for ROM tag REGOH-40120224-164551:
	FIX: < 8=FIX.4.2|9=156|35=D|49=DART|56=NITE|34=1841|52=20120224-20:56:05|21=1|11=201202241SO3WER|54=2|55=GSI|38=100|44=1.06|40=2|59=0|47=A|439=501|1=7ZW61209|60=20120224-20:56:05|10=170|
	FIX: > 8=FIX.4.2|9=196|35=D|49=DART_FIX_INTERFACE|56=DART_FIX_TESTER|34=204|52=20120613-20:43:06|21=1|115=DEGS|100=KM|11=20120613WADAQVG|54=2|55=GSI|38=100|44=1.06|40=2|59=0|47=A|439=501|1=7ZW61209|60=20120613-20:43:06|10=153|
		> 100=KM
		> 115=DEGS
1 differences found for ROM tag NGT-30120224-2885:
	FIX: < 8=FIX.4.2|9=156|35=D|49=DART|56=NITE|34=581|52=20120224-14:31:12|21=1|11=201202241SO3VYS|54=1|55=EWZ|38=100|44=69.16|40=2|59=0|47=A|439=501|1=37JM1209|60=20120224-14:31:12|10=182|
	FIX: > 8=FIX.4.2|9=197|35=D|49=DART_FIX_INTERFACE|56=DART_FIX_TESTER|34=205|52=20120613-20:43:06|21=1|115=DEGS|100=KM|11=20120613WADAQVH|54=1|55=EWZ|38=100|44=69.16|40=2|59=0|47=A|439=501|1=37JM1209|60=20120613-20:43:06|10=208|
		> 100=KM
		> 115=DEGS
1 differences found for ROM tag NGT-30120224-6680:
	FIX: < 8=FIX.4.2|9=181|35=D|49=DART|56=NITE|34=1216|52=20120224-17:26:54|21=1|11=201202241SO3W7W|54=5|114=N|55=PLCE|38=300|44=48.98|40=2|59=0|47=A|439=501|1=37JM1209|111=100|60=20120224-17:26:54|5700=MMX|10=152|
	FIX: > 8=FIX.4.2|9=221|35=D|49=DART_FIX_INTERFACE|56=DART_FIX_TESTER|34=206|52=20120613-20:43:06|21=1|115=DEGS|100=KM|11=20120613WADAQVI|54=5|114=N|55=PLCE|38=300|44=48.98|40=2|59=0|47=A|439=501|1=37JM1209|111=100|60=20120613-20:43:06|5700=MMX|10=129|
		> 100=KM
		> 115=DEGS
2 differences found for ROM tag REGOH-40120224-164488:
	FIX: < 8=FIX.4.2|9=157|35=D|49=DART|56=NITE|34=1778|52=20120224-20:56:05|21=1|11=201202241SO3WD0|54=2|55=NXST|38=300|44=8.43|40=2|59=0|47=A|439=501|1=7ZW61209|60=20120224-20:56:05|10=005|
	FIX: > 8=FIX.4.2|9=197|35=D|49=DART_FIX_INTERFACE|56=DART_FIX_TESTER|34=207|52=20120613-20:43:06|21=1|115=DEGS|100=KM|11=20120613WADAQVJ|54=2|55=NXST|38=300|44=8.43|40=2|59=0|47=A|439=501|1=7ZW61209|60=20120613-20:43:06|10=020|
		> 100=KM
		> 115=DEGS
