1	8=FIX.4.0|9=77|35=A|49=BRAS|56=STAF|34=1|50=ADMIN|57=ADMIN|52=20000619-16:35:18|98=0|108=20|10=176|
2	8=FIX.4.0|9=298|35=8|49=BRAS|56=STAF|34=2|52=20000619-16:35:16|37=BRST0170000004|11=20000619BRAS5MANUAL|76=DATK|17=801000004|20=0|19=801000004|39=2|1=MA03|55=COMS|48=885535104|22=1|54=2|38=0|40=2|44=0.000000000000000|32=130|31=48.000000000000000|30=O|29=4|14=0|6=0.000000000000000|75=20000619|60=20000619-13:30:31|10=174|
3	8=FIX.4.0|9=233|35=8|49=BRAS|56=STAF|34=3|43=Y|52=20000619-16:35:17|37=0170000033|11=20000619BRAS25MANUAL|17=3|20=0|39=4|55=RMBS|54=1|38=100|40=1|44=0.000000000000000|59=0|32=0|31=0.000000000000000|29=4|14=0|6=0.000000000000000|60=20000619-16:35:17|10=169|
4	8=FIX.4.0|9=231|35=8|49=BRAS|56=STAF|34=4|43=Y|52=20000619-16:35:17|37=0170000036|11=20000619BRAS28MANUAL|17=4|20=0|39=4|55=BOW|54=1|38=60|40=1|44=0.000000000000000|59=0|32=0|31=0.000000000000000|29=4|14=0|6=0.000000000000000|60=20000619-16:35:17|10=056|
5	8=FIX.4.0|9=230|35=8|49=BRAS|56=STAF|34=5|43=Y|52=20000619-16:35:17|37=0170000037|11=20000619BRAS29MANUAL|17=5|20=0|39=4|55=P|54=1|38=130|40=1|44=0.000000000000000|59=0|32=0|31=0.000000000000000|29=4|14=0|6=0.000000000000000|60=20000619-16:35:17|10=209|
6	8=FIX.4.0|9=74|35=1|49=BRAS|56=STAF|34=6|43=Y|52=20000619-16:35:18|112=20000619-16:40:21|10=156|
7	8=FIX.4.0|9=233|35=8|49=BRAS|56=STAF|34=7|43=Y|52=20000619-16:35:17|37=0170000042|11=20000619BRAS34MANUAL|17=7|20=0|39=4|55=DIR|54=2|38=1000|40=2|44=8.312500000000000|59=0|32=0|31=0.000000000000000|29=4|14=0|6=0.000000000000000|60=20000619-16:35:17|10=161|
8	8=FIX.4.0|9=289|35=8|49=BRAS|56=STAF|34=8|43=Y|52=20000619-16:35:23|37=BRSO0170000046|11=20000619BRAS171MANUAL|76=JEFF|17=801000302|20=0|19=801000302|39=2|1=MB7|55=CSCO|48=17275R102|22=1|54=2|38=0|40=1|59=0|32=1697|31=67.000000000000000|30=O|29=4|14=0|6=0.000000000000000|75=20000619|60=20000619-16:35:24|10=066|
9	8=FIX.4.0|9=70|35=0|49=BRAS|56=STAF|34=9|50=ADMIN|57=ADMIN|43=Y|52=20000619-16:35:43|10=132|
10	8=FIX.4.0|9=65|35=4|49=BRAS|56=STAF|34=10|43=Y|52=20000619-16:41:31|123=Y|36=12|10=198|
0	12
12	8=FIX.4.0|9=305|35=8|49=BRAS|56=STAF|34=12|43=Y|52=20000619-16:36:25|37=BRST0170000303|11=20000619BRAS257MANUAL|76=INCA|17=801000303|20=0|19=801000303|39=1|1=MB7|55=CSCO|48=17275R102|22=1|54=1|38=0|40=2|44=0.000000000000000|32=600|31=67.000000000000000|30=O|29=4|14=0|6=0.000000000000000|75=20000619|60=20000619-16:36:25|10=037|
13	8=FIX.4.0|9=71|35=0|49=BRAS|56=STAF|34=13|50=ADMIN|57=ADMIN|43=Y|52=20000619-16:36:45|10=179|
14	8=FIX.4.0|9=71|35=0|49=BRAS|56=STAF|34=14|50=ADMIN|57=ADMIN|43=Y|52=20000619-16:37:05|10=177|
15	8=FIX.4.0|9=93|35=1|49=BRAS|56=STAF|34=15|50=ADMIN|57=ADMIN|43=Y|52=20000619-16:37:15|112=20000619-16:41:31|10=237|
16	8=FIX.4.0|9=65|35=4|49=BRAS|56=STAF|34=16|43=Y|52=20000619-16:41:31|123=Y|36=17|10=209|
0	17
17	8=FIX.4.0|9=307|35=8|49=BRAS|56=STAF|34=17|43=Y|52=20000619-16:37:29|37=BRST0170000305|11=20000619BRAS259MANUAL|76=INCX|17=801000305|20=0|19=801000305|39=1|1=SD01|55=ABGX|48=00339B107|22=1|54=2|38=0|40=2|44=0.000000000000000|32=100|31=116.015625000000000|30=O|29=4|14=0|6=0.000000000000000|75=20000619|60=20000619-16:37:29|10=169|
18	8=FIX.4.0|9=306|35=8|49=BRAS|56=STAF|34=18|43=Y|52=20000619-16:38:44|37=BRST0170000307|11=20000619BRAS261MANUAL|76=INCX|17=801000307|20=0|19=801000307|39=1|1=FH04|55=GSPN|48=379571102|22=1|54=2|38=0|40=2|44=0.000000000000000|32=100|31=88.375000000000000|30=O|29=4|14=0|6=0.000000000000000|75=20000619|60=20000619-16:38:45|10=131|
19	8=FIX.4.0|9=65|35=4|49=BRAS|56=STAF|34=19|43=Y|52=20000619-16:41:31|123=Y|36=20|10=206|
0	20
20	8=FIX.4.0|9=75|35=1|49=BRAS|56=STAF|34=20|43=Y|52=20000619-16:40:21|112=20000619-16:41:31|10=193|
21	8=FIX.4.0|9=65|35=4|49=BRAS|56=STAF|34=21|43=Y|52=20000619-16:41:31|123=Y|36=22|10=201|
0	22
22	8=FIX.4.0|9=310|35=8|49=BRAS|56=STAF|34=22|43=Y|52=20000619-16:40:41|37=BRSO0170000048|11=20000619BRAS38MANUAL|76=TRIM|17=801000308|20=0|19=801000308|39=2|1=BF02|55=PNC|48=693475105|22=1|54=2|38=0|40=2|44=52.500000000000000|59=0|32=500|31=52.375000000000000|30=O|29=4|14=0|6=0.000000000000000|75=20000619|60=20000619-16:40:42|10=250|
23	8=FIX.4.0|9=301|35=8|49=BRAS|56=STAF|34=23|52=20000619-16:41:36|37=BRST0170000309|11=20000619BRAS262MANUAL|76=INCX|17=801000309|20=0|19=801000309|39=1|1=FH04|55=GSPN|48=379571102|22=1|54=2|38=0|40=2|44=0.000000000000000|32=200|31=88.375000000000000|30=O|29=4|14=0|6=0.000000000000000|75=20000619|60=20000619-16:41:37|10=122|
24	8=FIX.4.0|9=302|35=8|49=BRAS|56=STAF|34=24|52=20000619-16:41:52|37=BRST0170000310|11=20000619BRAS263MANUAL|76=INCX|17=801000310|20=0|19=801000310|39=1|1=SD01|55=AETH|48=00808V105|22=1|54=2|38=0|40=2|44=0.000000000000000|32=100|31=184.500000000000000|30=O|29=4|14=0|6=0.000000000000000|75=20000619|60=20000619-16:41:52|10=139|
25	8=FIX.4.0|9=301|35=8|49=BRAS|56=STAF|34=25|52=20000619-16:41:55|37=BRST0170000311|11=20000619BRAS264MANUAL|76=BTRD|17=801000311|20=0|19=801000311|39=2|1=FH04|55=SPYG|48=852192103|22=1|54=2|38=0|40=2|44=0.000000000000000|32=200|31=37.625000000000000|30=O|29=4|14=0|6=0.000000000000000|75=20000619|60=20000619-16:41:56|10=101|
26	8=FIX.4.0|9=66|35=0|49=BRAS|56=STAF|34=26|50=ADMIN|57=ADMIN|52=20000619-16:42:17|10=185|
