1	8=FIX.4.0|9=77|35=A|49=BRAS|56=STAF|34=1|50=ADMIN|57=ADMIN|52=20000726-12:29:25|98=0|108=20|10=172|
2	8=FIX.4.0|9=74|35=2|49=BRAS|56=STAF|34=2|50=ADMIN|57=ADMIN|52=20000726-12:29:25|7=1|16=1|10=255|
3	8=FIX.4.0|9=65|35=0|49=BRAS|56=STAF|34=3|50=ADMIN|57=ADMIN|52=20000726-12:29:46|10=133|
4	8=FIX.4.0|9=77|35=A|49=BRAS|56=STAF|34=4|50=ADMIN|57=ADMIN|52=20000726-12:30:15|98=0|108=20|10=166|
5	8=FIX.4.0|9=74|35=2|49=BRAS|56=STAF|34=5|50=ADMIN|57=ADMIN|52=20000726-12:30:15|7=4|16=4|10=255|
6	8=FIX.4.0|9=65|35=0|49=BRAS|56=STAF|34=6|50=ADMIN|57=ADMIN|52=20000726-12:30:35|10=126|
7	8=FIX.4.0|9=65|35=0|49=BRAS|56=STAF|34=7|50=ADMIN|57=ADMIN|52=20000726-12:30:55|10=129|
8	8=FIX.4.0|9=65|35=0|49=BRAS|56=STAF|34=8|50=ADMIN|57=ADMIN|52=20000726-12:31:16|10=128|
9	8=FIX.4.0|9=65|35=0|49=BRAS|56=STAF|34=9|50=ADMIN|57=ADMIN|52=20000726-12:31:36|10=131|
10	8=FIX.4.0|9=66|35=0|49=BRAS|56=STAF|34=10|50=ADMIN|57=ADMIN|52=20000726-12:31:56|10=174|
11	8=FIX.4.0|9=66|35=0|49=BRAS|56=STAF|34=11|50=ADMIN|57=ADMIN|52=20000726-12:32:16|10=172|
12	8=FIX.4.0|9=66|35=0|49=BRAS|56=STAF|34=12|50=ADMIN|57=ADMIN|52=20000726-12:32:36|10=175|
13	8=FIX.4.0|9=66|35=0|49=BRAS|56=STAF|34=13|50=ADMIN|57=ADMIN|52=20000726-12:32:56|10=178|
14	8=FIX.4.0|9=66|35=0|49=BRAS|56=STAF|34=14|50=ADMIN|57=ADMIN|52=20000726-12:33:16|10=176|
15	8=FIX.4.0|9=66|35=0|49=BRAS|56=STAF|34=15|50=ADMIN|57=ADMIN|52=20000726-12:33:36|10=179|
16	8=FIX.4.0|9=66|35=0|49=BRAS|56=STAF|34=16|50=ADMIN|57=ADMIN|52=20000726-12:33:56|10=182|
17	8=FIX.4.0|9=66|35=0|49=BRAS|56=STAF|34=17|50=ADMIN|57=ADMIN|52=20000726-12:34:16|10=180|
18	8=FIX.4.0|9=66|35=0|49=BRAS|56=STAF|34=18|50=ADMIN|57=ADMIN|52=20000726-12:34:36|10=183|
19	8=FIX.4.0|9=66|35=0|49=BRAS|56=STAF|34=19|50=ADMIN|57=ADMIN|52=20000726-12:34:56|10=186|
20	8=FIX.4.0|9=66|35=0|49=BRAS|56=STAF|34=20|50=ADMIN|57=ADMIN|52=20000726-12:35:16|10=175|
21	8=FIX.4.0|9=66|35=0|49=BRAS|56=STAF|34=21|50=ADMIN|57=ADMIN|52=20000726-12:35:36|10=178|
22	8=FIX.4.0|9=66|35=0|49=BRAS|56=STAF|34=22|50=ADMIN|57=ADMIN|52=20000726-12:35:56|10=181|
23	8=FIX.4.0|9=66|35=0|49=BRAS|56=STAF|34=23|50=ADMIN|57=ADMIN|52=20000726-12:36:16|10=179|
24	8=FIX.4.0|9=66|35=0|49=BRAS|56=STAF|34=24|50=ADMIN|57=ADMIN|52=20000726-12:36:36|10=182|
25	8=FIX.4.0|9=66|35=0|49=BRAS|56=STAF|34=25|50=ADMIN|57=ADMIN|52=20000726-12:36:56|10=185|
26	8=FIX.4.0|9=66|35=0|49=BRAS|56=STAF|34=26|50=ADMIN|57=ADMIN|52=20000726-12:37:16|10=183|
27	8=FIX.4.0|9=66|35=0|49=BRAS|56=STAF|34=27|50=ADMIN|57=ADMIN|52=20000726-12:37:36|10=186|
28	8=FIX.4.0|9=66|35=0|49=BRAS|56=STAF|34=28|50=ADMIN|57=ADMIN|52=20000726-12:37:56|10=189|
29	8=FIX.4.0|9=66|35=0|49=BRAS|56=STAF|34=29|50=ADMIN|57=ADMIN|52=20000726-12:38:16|10=187|
30	8=FIX.4.0|9=66|35=0|49=BRAS|56=STAF|34=30|50=ADMIN|57=ADMIN|52=20000726-12:38:36|10=181|
31	8=FIX.4.0|9=66|35=0|49=BRAS|56=STAF|34=31|50=ADMIN|57=ADMIN|52=20000726-12:38:56|10=184|
32	8=FIX.4.0|9=66|35=0|49=BRAS|56=STAF|34=32|50=ADMIN|57=ADMIN|52=20000726-12:39:16|10=182|
33	8=FIX.4.0|9=66|35=0|49=BRAS|56=STAF|34=33|50=ADMIN|57=ADMIN|52=20000726-12:39:36|10=185|
34	8=FIX.4.0|9=66|35=0|49=BRAS|56=STAF|34=34|50=ADMIN|57=ADMIN|52=20000726-12:39:56|10=188|
35	8=FIX.4.0|9=66|35=0|49=BRAS|56=STAF|34=35|50=ADMIN|57=ADMIN|52=20000726-12:40:16|10=177|
36	8=FIX.4.0|9=66|35=0|49=BRAS|56=STAF|34=36|50=ADMIN|57=ADMIN|52=20000726-12:40:36|10=180|
37	8=FIX.4.0|9=66|35=0|49=BRAS|56=STAF|34=37|50=ADMIN|57=ADMIN|52=20000726-12:40:56|10=183|
38	8=FIX.4.0|9=66|35=0|49=BRAS|56=STAF|34=38|50=ADMIN|57=ADMIN|52=20000726-12:41:16|10=181|
39	8=FIX.4.0|9=66|35=0|49=BRAS|56=STAF|34=39|50=ADMIN|57=ADMIN|52=20000726-12:41:36|10=184|
40	8=FIX.4.0|9=66|35=0|49=BRAS|56=STAF|34=40|50=ADMIN|57=ADMIN|52=20000726-12:41:57|10=179|
41	8=FIX.4.0|9=66|35=0|49=BRAS|56=STAF|34=41|50=ADMIN|57=ADMIN|52=20000726-12:42:17|10=177|
42	8=FIX.4.0|9=66|35=0|49=BRAS|56=STAF|34=42|50=ADMIN|57=ADMIN|52=20000726-12:42:37|10=180|
43	8=FIX.4.0|9=66|35=0|49=BRAS|56=STAF|34=43|50=ADMIN|57=ADMIN|52=20000726-12:42:57|10=183|
44	8=FIX.4.0|9=66|35=0|49=BRAS|56=STAF|34=44|50=ADMIN|57=ADMIN|52=20000726-12:43:17|10=181|
45	8=FIX.4.0|9=66|35=0|49=BRAS|56=STAF|34=45|50=ADMIN|57=ADMIN|52=20000726-12:43:37|10=184|
46	8=FIX.4.0|9=66|35=0|49=BRAS|56=STAF|34=46|50=ADMIN|57=ADMIN|52=20000726-12:43:57|10=187|
47	8=FIX.4.0|9=66|35=0|49=BRAS|56=STAF|34=47|50=ADMIN|57=ADMIN|52=20000726-12:44:17|10=185|
48	8=FIX.4.0|9=66|35=0|49=BRAS|56=STAF|34=48|50=ADMIN|57=ADMIN|52=20000726-12:44:37|10=188|
49	8=FIX.4.0|9=66|35=0|49=BRAS|56=STAF|34=49|50=ADMIN|57=ADMIN|52=20000726-12:44:57|10=191|
50	8=FIX.4.0|9=66|35=0|49=BRAS|56=STAF|34=50|50=ADMIN|57=ADMIN|52=20000726-12:45:17|10=180|
51	8=FIX.4.0|9=66|35=0|49=BRAS|56=STAF|34=51|50=ADMIN|57=ADMIN|52=20000726-12:45:37|10=183|
52	8=FIX.4.0|9=66|35=0|49=BRAS|56=STAF|34=52|50=ADMIN|57=ADMIN|52=20000726-12:45:57|10=186|
53	8=FIX.4.0|9=66|35=0|49=BRAS|56=STAF|34=53|50=ADMIN|57=ADMIN|52=20000726-12:46:17|10=184|
54	8=FIX.4.0|9=66|35=0|49=BRAS|56=STAF|34=54|50=ADMIN|57=ADMIN|52=20000726-12:46:37|10=187|
55	8=FIX.4.0|9=66|35=0|49=BRAS|56=STAF|34=55|50=ADMIN|57=ADMIN|52=20000726-12:46:57|10=190|
56	8=FIX.4.0|9=66|35=0|49=BRAS|56=STAF|34=56|50=ADMIN|57=ADMIN|52=20000726-12:47:17|10=188|
57	8=FIX.4.0|9=66|35=0|49=BRAS|56=STAF|34=57|50=ADMIN|57=ADMIN|52=20000726-12:47:37|10=191|
58	8=FIX.4.0|9=66|35=0|49=BRAS|56=STAF|34=58|50=ADMIN|57=ADMIN|52=20000726-12:47:57|10=194|
59	8=FIX.4.0|9=66|35=0|49=BRAS|56=STAF|34=59|50=ADMIN|57=ADMIN|52=20000726-12:48:17|10=192|
60	8=FIX.4.0|9=57|35=0|49=BRAS|56=STAF|34=60|52=20000726-12:48:19|112=TEST|10=173|
61	8=FIX.4.0|9=66|35=0|49=BRAS|56=STAF|34=61|50=ADMIN|57=ADMIN|52=20000726-12:48:39|10=189|
62	8=FIX.4.0|9=66|35=0|49=BRAS|56=STAF|34=62|50=ADMIN|57=ADMIN|52=20000726-12:48:59|10=192|
63	8=FIX.4.0|9=66|35=0|49=BRAS|56=STAF|34=63|50=ADMIN|57=ADMIN|52=20000726-12:49:20|10=182|
64	8=FIX.4.0|9=66|35=0|49=BRAS|56=STAF|34=64|50=ADMIN|57=ADMIN|52=20000726-12:49:40|10=185|
65	8=FIX.4.0|9=66|35=0|49=BRAS|56=STAF|34=65|50=ADMIN|57=ADMIN|52=20000726-12:50:00|10=174|
66	8=FIX.4.0|9=66|35=0|49=BRAS|56=STAF|34=66|50=ADMIN|57=ADMIN|52=20000726-12:50:20|10=177|
67	8=FIX.4.0|9=66|35=0|49=BRAS|56=STAF|34=67|50=ADMIN|57=ADMIN|52=20000726-12:50:40|10=180|
68	8=FIX.4.0|9=66|35=0|49=BRAS|56=STAF|34=68|50=ADMIN|57=ADMIN|52=20000726-12:51:00|10=178|
69	8=FIX.4.0|9=66|35=0|49=BRAS|56=STAF|34=69|50=ADMIN|57=ADMIN|52=20000726-12:51:20|10=181|
70	8=FIX.4.0|9=66|35=0|49=BRAS|56=STAF|34=70|50=ADMIN|57=ADMIN|52=20000726-12:51:40|10=175|
71	8=FIX.4.0|9=66|35=0|49=BRAS|56=STAF|34=71|50=ADMIN|57=ADMIN|52=20000726-12:52:00|10=173|
72	8=FIX.4.0|9=66|35=0|49=BRAS|56=STAF|34=72|50=ADMIN|57=ADMIN|52=20000726-12:52:20|10=176|
73	8=FIX.4.0|9=66|35=0|49=BRAS|56=STAF|34=73|50=ADMIN|57=ADMIN|52=20000726-12:52:40|10=179|
74	8=FIX.4.0|9=66|35=0|49=BRAS|56=STAF|34=74|50=ADMIN|57=ADMIN|52=20000726-12:53:00|10=177|
75	8=FIX.4.0|9=66|35=0|49=BRAS|56=STAF|34=75|50=ADMIN|57=ADMIN|52=20000726-12:53:20|10=180|
76	8=FIX.4.0|9=66|35=0|49=BRAS|56=STAF|34=76|50=ADMIN|57=ADMIN|52=20000726-12:53:40|10=183|
77	8=FIX.4.0|9=66|35=0|49=BRAS|56=STAF|34=77|50=ADMIN|57=ADMIN|52=20000726-12:54:00|10=181|
78	8=FIX.4.0|9=66|35=0|49=BRAS|56=STAF|34=78|50=ADMIN|57=ADMIN|52=20000726-12:54:20|10=184|
79	8=FIX.4.0|9=66|35=0|49=BRAS|56=STAF|34=79|50=ADMIN|57=ADMIN|52=20000726-12:54:40|10=187|
80	8=FIX.4.0|9=66|35=0|49=BRAS|56=STAF|34=80|50=ADMIN|57=ADMIN|52=20000726-12:55:00|10=176|
81	8=FIX.4.0|9=66|35=0|49=BRAS|56=STAF|34=81|50=ADMIN|57=ADMIN|52=20000726-12:55:20|10=179|
82	8=FIX.4.0|9=66|35=0|49=BRAS|56=STAF|34=82|50=ADMIN|57=ADMIN|52=20000726-12:55:40|10=182|
83	8=FIX.4.0|9=66|35=0|49=BRAS|56=STAF|34=83|50=ADMIN|57=ADMIN|52=20000726-12:56:00|10=180|
84	8=FIX.4.0|9=66|35=0|49=BRAS|56=STAF|34=84|50=ADMIN|57=ADMIN|52=20000726-12:56:21|10=184|
85	8=FIX.4.0|9=66|35=0|49=BRAS|56=STAF|34=85|50=ADMIN|57=ADMIN|52=20000726-12:56:41|10=187|
86	8=FIX.4.0|9=66|35=0|49=BRAS|56=STAF|34=86|50=ADMIN|57=ADMIN|52=20000726-12:57:02|10=186|
87	8=FIX.4.0|9=66|35=0|49=BRAS|56=STAF|34=87|50=ADMIN|57=ADMIN|52=20000726-12:57:23|10=190|
88	8=FIX.4.0|9=66|35=0|49=BRAS|56=STAF|34=88|50=ADMIN|57=ADMIN|52=20000726-12:57:43|10=193|
89	8=FIX.4.0|9=66|35=0|49=BRAS|56=STAF|34=89|50=ADMIN|57=ADMIN|52=20000726-12:58:03|10=191|
90	8=FIX.4.0|9=66|35=0|49=BRAS|56=STAF|34=90|50=ADMIN|57=ADMIN|52=20000726-12:58:23|10=185|
91	8=FIX.4.0|9=66|35=0|49=BRAS|56=STAF|34=91|50=ADMIN|57=ADMIN|52=20000726-12:58:43|10=188|
92	8=FIX.4.0|9=66|35=0|49=BRAS|56=STAF|34=92|50=ADMIN|57=ADMIN|52=20000726-12:59:03|10=186|
93	8=FIX.4.0|9=66|35=0|49=BRAS|56=STAF|34=93|50=ADMIN|57=ADMIN|52=20000726-12:59:23|10=189|
94	8=FIX.4.0|9=66|35=0|49=BRAS|56=STAF|34=94|50=ADMIN|57=ADMIN|52=20000726-12:59:43|10=192|
95	8=FIX.4.0|9=66|35=0|49=BRAS|56=STAF|34=95|50=ADMIN|57=ADMIN|52=20000726-13:00:03|10=176|
96	8=FIX.4.0|9=66|35=0|49=BRAS|56=STAF|34=96|50=ADMIN|57=ADMIN|52=20000726-13:00:23|10=179|
97	8=FIX.4.0|9=66|35=0|49=BRAS|56=STAF|34=97|50=ADMIN|57=ADMIN|52=20000726-13:00:43|10=182|
98	8=FIX.4.0|9=66|35=0|49=BRAS|56=STAF|34=98|50=ADMIN|57=ADMIN|52=20000726-13:01:03|10=180|
99	8=FIX.4.0|9=66|35=0|49=BRAS|56=STAF|34=99|50=ADMIN|57=ADMIN|52=20000726-13:01:23|10=183|
100	8=FIX.4.0|9=67|35=0|49=BRAS|56=STAF|34=100|50=ADMIN|57=ADMIN|52=20000726-13:01:43|10=217|
101	8=FIX.4.0|9=67|35=0|49=BRAS|56=STAF|34=101|50=ADMIN|57=ADMIN|52=20000726-13:02:03|10=215|
102	8=FIX.4.0|9=67|35=0|49=BRAS|56=STAF|34=102|50=ADMIN|57=ADMIN|52=20000726-13:02:23|10=218|
103	8=FIX.4.0|9=67|35=0|49=BRAS|56=STAF|34=103|50=ADMIN|57=ADMIN|52=20000726-13:02:43|10=221|
104	8=FIX.4.0|9=67|35=0|49=BRAS|56=STAF|34=104|50=ADMIN|57=ADMIN|52=20000726-13:03:03|10=219|
105	8=FIX.4.0|9=67|35=0|49=BRAS|56=STAF|34=105|50=ADMIN|57=ADMIN|52=20000726-13:03:23|10=222|
106	8=FIX.4.0|9=67|35=0|49=BRAS|56=STAF|34=106|50=ADMIN|57=ADMIN|52=20000726-13:03:43|10=225|
107	8=FIX.4.0|9=67|35=0|49=BRAS|56=STAF|34=107|50=ADMIN|57=ADMIN|52=20000726-13:04:03|10=223|
108	8=FIX.4.0|9=67|35=0|49=BRAS|56=STAF|34=108|50=ADMIN|57=ADMIN|52=20000726-13:04:23|10=226|
109	8=FIX.4.0|9=67|35=0|49=BRAS|56=STAF|34=109|50=ADMIN|57=ADMIN|52=20000726-13:04:43|10=229|
110	8=FIX.4.0|9=67|35=0|49=BRAS|56=STAF|34=110|50=ADMIN|57=ADMIN|52=20000726-13:05:03|10=218|
111	8=FIX.4.0|9=67|35=0|49=BRAS|56=STAF|34=111|50=ADMIN|57=ADMIN|52=20000726-13:05:23|10=221|
112	8=FIX.4.0|9=67|35=0|49=BRAS|56=STAF|34=112|50=ADMIN|57=ADMIN|52=20000726-13:05:43|10=224|
113	8=FIX.4.0|9=67|35=0|49=BRAS|56=STAF|34=113|50=ADMIN|57=ADMIN|52=20000726-13:06:03|10=222|
114	8=FIX.4.0|9=67|35=0|49=BRAS|56=STAF|34=114|50=ADMIN|57=ADMIN|52=20000726-13:06:23|10=225|
115	8=FIX.4.0|9=67|35=0|49=BRAS|56=STAF|34=115|50=ADMIN|57=ADMIN|52=20000726-13:06:43|10=228|
116	8=FIX.4.0|9=67|35=0|49=BRAS|56=STAF|34=116|50=ADMIN|57=ADMIN|52=20000726-13:07:03|10=226|
117	8=FIX.4.0|9=67|35=0|49=BRAS|56=STAF|34=117|50=ADMIN|57=ADMIN|52=20000726-13:07:23|10=229|
118	8=FIX.4.0|9=67|35=0|49=BRAS|56=STAF|34=118|50=ADMIN|57=ADMIN|52=20000726-13:07:43|10=232|
119	8=FIX.4.0|9=67|35=0|49=BRAS|56=STAF|34=119|50=ADMIN|57=ADMIN|52=20000726-13:08:03|10=230|
120	8=FIX.4.0|9=67|35=0|49=BRAS|56=STAF|34=120|50=ADMIN|57=ADMIN|52=20000726-13:08:23|10=224|
121	8=FIX.4.0|9=67|35=0|49=BRAS|56=STAF|34=121|50=ADMIN|57=ADMIN|52=20000726-13:08:43|10=227|
122	8=FIX.4.0|9=67|35=0|49=BRAS|56=STAF|34=122|50=ADMIN|57=ADMIN|52=20000726-13:09:03|10=225|
123	8=FIX.4.0|9=67|35=0|49=BRAS|56=STAF|34=123|50=ADMIN|57=ADMIN|52=20000726-13:09:23|10=228|
124	8=FIX.4.0|9=67|35=0|49=BRAS|56=STAF|34=124|50=ADMIN|57=ADMIN|52=20000726-13:09:43|10=231|
125	8=FIX.4.0|9=67|35=0|49=BRAS|56=STAF|34=125|50=ADMIN|57=ADMIN|52=20000726-13:10:03|10=220|
126	8=FIX.4.0|9=67|35=0|49=BRAS|56=STAF|34=126|50=ADMIN|57=ADMIN|52=20000726-13:10:24|10=224|
127	8=FIX.4.0|9=67|35=0|49=BRAS|56=STAF|34=127|50=ADMIN|57=ADMIN|52=20000726-13:10:44|10=227|
128	8=FIX.4.0|9=67|35=0|49=BRAS|56=STAF|34=128|50=ADMIN|57=ADMIN|52=20000726-13:11:04|10=225|
129	8=FIX.4.0|9=67|35=0|49=BRAS|56=STAF|34=129|50=ADMIN|57=ADMIN|52=20000726-13:11:24|10=228|
130	8=FIX.4.0|9=67|35=0|49=BRAS|56=STAF|34=130|50=ADMIN|57=ADMIN|52=20000726-13:11:44|10=222|
131	8=FIX.4.0|9=67|35=0|49=BRAS|56=STAF|34=131|50=ADMIN|57=ADMIN|52=20000726-13:12:04|10=220|
132	8=FIX.4.0|9=67|35=0|49=BRAS|56=STAF|34=132|50=ADMIN|57=ADMIN|52=20000726-13:12:24|10=223|
133	8=FIX.4.0|9=67|35=0|49=BRAS|56=STAF|34=133|50=ADMIN|57=ADMIN|52=20000726-13:12:44|10=226|
134	8=FIX.4.0|9=67|35=0|49=BRAS|56=STAF|34=134|50=ADMIN|57=ADMIN|52=20000726-13:13:04|10=224|
135	8=FIX.4.0|9=67|35=0|49=BRAS|56=STAF|34=135|50=ADMIN|57=ADMIN|52=20000726-13:13:24|10=227|
136	8=FIX.4.0|9=67|35=0|49=BRAS|56=STAF|34=136|50=ADMIN|57=ADMIN|52=20000726-13:13:44|10=230|
137	8=FIX.4.0|9=67|35=0|49=BRAS|56=STAF|34=137|50=ADMIN|57=ADMIN|52=20000726-13:14:04|10=228|
138	8=FIX.4.0|9=67|35=0|49=BRAS|56=STAF|34=138|50=ADMIN|57=ADMIN|52=20000726-13:14:24|10=231|
139	8=FIX.4.0|9=67|35=0|49=BRAS|56=STAF|34=139|50=ADMIN|57=ADMIN|52=20000726-13:14:44|10=234|
140	8=FIX.4.0|9=67|35=0|49=BRAS|56=STAF|34=140|50=ADMIN|57=ADMIN|52=20000726-13:15:04|10=223|
141	8=FIX.4.0|9=67|35=0|49=BRAS|56=STAF|34=141|50=ADMIN|57=ADMIN|52=20000726-13:15:24|10=226|
142	8=FIX.4.0|9=67|35=0|49=BRAS|56=STAF|34=142|50=ADMIN|57=ADMIN|52=20000726-13:15:44|10=229|
143	8=FIX.4.0|9=67|35=0|49=BRAS|56=STAF|34=143|50=ADMIN|57=ADMIN|52=20000726-13:16:04|10=227|
144	8=FIX.4.0|9=67|35=0|49=BRAS|56=STAF|34=144|50=ADMIN|57=ADMIN|52=20000726-13:16:24|10=230|
145	8=FIX.4.0|9=67|35=0|49=BRAS|56=STAF|34=145|50=ADMIN|57=ADMIN|52=20000726-13:16:44|10=233|
146	8=FIX.4.0|9=67|35=0|49=BRAS|56=STAF|34=146|50=ADMIN|57=ADMIN|52=20000726-13:17:04|10=231|
147	8=FIX.4.0|9=67|35=0|49=BRAS|56=STAF|34=147|50=ADMIN|57=ADMIN|52=20000726-13:17:24|10=234|
148	8=FIX.4.0|9=67|35=0|49=BRAS|56=STAF|34=148|50=ADMIN|57=ADMIN|52=20000726-13:17:44|10=237|
149	8=FIX.4.0|9=67|35=0|49=BRAS|56=STAF|34=149|50=ADMIN|57=ADMIN|52=20000726-13:18:04|10=235|
150	8=FIX.4.0|9=67|35=0|49=BRAS|56=STAF|34=150|50=ADMIN|57=ADMIN|52=20000726-13:18:24|10=229|
151	8=FIX.4.0|9=67|35=0|49=BRAS|56=STAF|34=151|50=ADMIN|57=ADMIN|52=20000726-13:18:44|10=232|
152	8=FIX.4.0|9=67|35=0|49=BRAS|56=STAF|34=152|50=ADMIN|57=ADMIN|52=20000726-13:19:04|10=230|
153	8=FIX.4.0|9=67|35=0|49=BRAS|56=STAF|34=153|50=ADMIN|57=ADMIN|52=20000726-13:19:24|10=233|
154	8=FIX.4.0|9=67|35=0|49=BRAS|56=STAF|34=154|50=ADMIN|57=ADMIN|52=20000726-13:19:44|10=236|
155	8=FIX.4.0|9=67|35=0|49=BRAS|56=STAF|34=155|50=ADMIN|57=ADMIN|52=20000726-13:20:04|10=225|
156	8=FIX.4.0|9=67|35=0|49=BRAS|56=STAF|34=156|50=ADMIN|57=ADMIN|52=20000726-13:20:24|10=228|
157	8=FIX.4.0|9=67|35=0|49=BRAS|56=STAF|34=157|50=ADMIN|57=ADMIN|52=20000726-13:20:44|10=231|
158	8=FIX.4.0|9=67|35=0|49=BRAS|56=STAF|34=158|50=ADMIN|57=ADMIN|52=20000726-13:21:04|10=229|
159	8=FIX.4.0|9=67|35=0|49=BRAS|56=STAF|34=159|50=ADMIN|57=ADMIN|52=20000726-13:21:24|10=232|
160	8=FIX.4.0|9=67|35=0|49=BRAS|56=STAF|34=160|50=ADMIN|57=ADMIN|52=20000726-13:21:44|10=226|
161	8=FIX.4.0|9=67|35=0|49=BRAS|56=STAF|34=161|50=ADMIN|57=ADMIN|52=20000726-13:22:04|10=224|
162	8=FIX.4.0|9=67|35=0|49=BRAS|56=STAF|34=162|50=ADMIN|57=ADMIN|52=20000726-13:22:24|10=227|
163	8=FIX.4.0|9=67|35=0|49=BRAS|56=STAF|34=163|50=ADMIN|57=ADMIN|52=20000726-13:22:44|10=230|
164	8=FIX.4.0|9=67|35=0|49=BRAS|56=STAF|34=164|50=ADMIN|57=ADMIN|52=20000726-13:23:04|10=228|
165	8=FIX.4.0|9=67|35=0|49=BRAS|56=STAF|34=165|50=ADMIN|57=ADMIN|52=20000726-13:23:25|10=232|
166	8=FIX.4.0|9=67|35=0|49=BRAS|56=STAF|34=166|50=ADMIN|57=ADMIN|52=20000726-13:23:45|10=235|
167	8=FIX.4.0|9=67|35=0|49=BRAS|56=STAF|34=167|50=ADMIN|57=ADMIN|52=20000726-13:24:05|10=233|
168	8=FIX.4.0|9=67|35=0|49=BRAS|56=STAF|34=168|50=ADMIN|57=ADMIN|52=20000726-13:24:25|10=236|
169	8=FIX.4.0|9=67|35=0|49=BRAS|56=STAF|34=169|50=ADMIN|57=ADMIN|52=20000726-13:24:45|10=239|
170	8=FIX.4.0|9=67|35=0|49=BRAS|56=STAF|34=170|50=ADMIN|57=ADMIN|52=20000726-13:25:05|10=228|
171	8=FIX.4.0|9=67|35=0|49=BRAS|56=STAF|34=171|50=ADMIN|57=ADMIN|52=20000726-13:25:25|10=231|
172	8=FIX.4.0|9=67|35=0|49=BRAS|56=STAF|34=172|50=ADMIN|57=ADMIN|52=20000726-13:25:45|10=234|
173	8=FIX.4.0|9=67|35=0|49=BRAS|56=STAF|34=173|50=ADMIN|57=ADMIN|52=20000726-13:26:05|10=232|
174	8=FIX.4.0|9=67|35=0|49=BRAS|56=STAF|34=174|50=ADMIN|57=ADMIN|52=20000726-13:26:25|10=235|
175	8=FIX.4.0|9=67|35=0|49=BRAS|56=STAF|34=175|50=ADMIN|57=ADMIN|52=20000726-13:26:45|10=238|
176	8=FIX.4.0|9=67|35=0|49=BRAS|56=STAF|34=176|50=ADMIN|57=ADMIN|52=20000726-13:27:05|10=236|
177	8=FIX.4.0|9=67|35=0|49=BRAS|56=STAF|34=177|50=ADMIN|57=ADMIN|52=20000726-13:27:25|10=239|
178	8=FIX.4.0|9=67|35=0|49=BRAS|56=STAF|34=178|50=ADMIN|57=ADMIN|52=20000726-13:27:45|10=242|
179	8=FIX.4.0|9=67|35=0|49=BRAS|56=STAF|34=179|50=ADMIN|57=ADMIN|52=20000726-13:28:05|10=240|
180	8=FIX.4.0|9=67|35=0|49=BRAS|56=STAF|34=180|50=ADMIN|57=ADMIN|52=20000726-13:28:25|10=234|
181	8=FIX.4.0|9=67|35=0|49=BRAS|56=STAF|34=181|50=ADMIN|57=ADMIN|52=20000726-13:28:45|10=237|
182	8=FIX.4.0|9=67|35=0|49=BRAS|56=STAF|34=182|50=ADMIN|57=ADMIN|52=20000726-13:29:05|10=235|
183	8=FIX.4.0|9=67|35=0|49=BRAS|56=STAF|34=183|50=ADMIN|57=ADMIN|52=20000726-13:29:25|10=238|
184	8=FIX.4.0|9=67|35=0|49=BRAS|56=STAF|34=184|50=ADMIN|57=ADMIN|52=20000726-13:29:45|10=241|
185	8=FIX.4.0|9=67|35=0|49=BRAS|56=STAF|34=185|50=ADMIN|57=ADMIN|52=20000726-13:30:05|10=230|
186	8=FIX.4.0|9=67|35=0|49=BRAS|56=STAF|34=186|50=ADMIN|57=ADMIN|52=20000726-13:30:25|10=233|
187	8=FIX.4.0|9=67|35=0|49=BRAS|56=STAF|34=187|50=ADMIN|57=ADMIN|52=20000726-13:30:45|10=236|
188	8=FIX.4.0|9=67|35=0|49=BRAS|56=STAF|34=188|50=ADMIN|57=ADMIN|52=20000726-13:31:05|10=234|
189	8=FIX.4.0|9=300|35=8|49=BRAS|56=STAF|34=189|52=20000726-13:31:09|37=BRST0207000001|11=20000726BRAS2MANUAL|76=HMQT|17=801000001|20=0|19=801000001|39=2|1=MA03|55=DRYR|48=261878102|22=1|54=2|38=0|40=2|44=0.000000000000000|32=100|31=25.000000000000000|30=O|29=4|14=0|6=0.000000000000000|75=20000726|60=20000726-13:31:10|10=017|
190	8=FIX.4.0|9=58|35=0|49=BRAS|56=STAF|34=190|52=20000726-13:31:31|112=TEST|10=213|
191	8=FIX.4.0|9=67|35=0|49=BRAS|56=STAF|34=191|50=ADMIN|57=ADMIN|52=20000726-13:31:51|10=229|
192	8=FIX.4.0|9=67|35=0|49=BRAS|56=STAF|34=192|50=ADMIN|57=ADMIN|52=20000726-13:32:11|10=227|
193	8=FIX.4.0|9=67|35=0|49=BRAS|56=STAF|34=193|50=ADMIN|57=ADMIN|52=20000726-13:32:31|10=230|
194	8=FIX.4.0|9=67|35=0|49=BRAS|56=STAF|34=194|50=ADMIN|57=ADMIN|52=20000726-13:32:51|10=233|
195	8=FIX.4.0|9=67|35=0|49=BRAS|56=STAF|34=195|50=ADMIN|57=ADMIN|52=20000726-13:33:11|10=231|
196	8=FIX.4.0|9=67|35=0|49=BRAS|56=STAF|34=196|50=ADMIN|57=ADMIN|52=20000726-13:33:31|10=234|
197	8=FIX.4.0|9=67|35=0|49=BRAS|56=STAF|34=197|50=ADMIN|57=ADMIN|52=20000726-13:33:51|10=237|
198	8=FIX.4.0|9=301|35=8|49=BRAS|56=STAF|34=198|52=20000726-13:34:05|37=BRST0207000005|11=20000726BRAS6MANUAL|76=ISLD|17=801000005|20=0|19=801000005|39=2|1=MA03|55=INKT|48=457277101|22=1|54=1|38=0|40=2|44=0.000000000000000|32=100|31=114.250000000000000|30=O|29=4|14=0|6=0.000000000000000|75=20000726|60=20000726-13:34:07|10=069|
199	8=FIX.4.0|9=301|35=8|49=BRAS|56=STAF|34=199|52=20000726-13:34:15|37=BRST0207000006|11=20000726BRAS7MANUAL|76=ISLD|17=801000006|20=0|19=801000006|39=2|1=MA03|55=INKT|48=457277101|22=1|54=1|38=0|40=2|44=0.000000000000000|32=100|31=114.468750000000000|30=O|29=4|14=0|6=0.000000000000000|75=20000726|60=20000726-13:34:17|10=099|
200	8=FIX.4.0|9=301|35=8|49=BRAS|56=STAF|34=200|52=20000726-13:34:21|37=BRST0207000007|11=20000726BRAS8MANUAL|76=INCA|17=801000007|20=0|19=801000007|39=2|1=SD01|55=AFFX|48=00826T108|22=1|54=5|38=0|40=2|44=0.000000000000000|32=300|31=162.296875000000000|30=O|29=4|14=0|6=0.000000000000000|75=20000726|60=20000726-13:34:22|10=095|
201	8=FIX.4.0|9=67|35=0|49=BRAS|56=STAF|34=201|50=ADMIN|57=ADMIN|52=20000726-13:34:41|10=223|
202	8=FIX.4.0|9=301|35=8|49=BRAS|56=STAF|34=202|52=20000726-13:34:44|37=BRST0207000008|11=20000726BRAS9MANUAL|76=BTRD|17=801000008|20=0|19=801000008|39=2|1=MA03|55=INKT|48=457277101|22=1|54=1|38=0|40=2|44=0.000000000000000|32=100|31=114.000000000000000|30=O|29=4|14=0|6=0.000000000000000|75=20000726|60=20000726-13:34:45|10=065|
203	8=FIX.4.0|9=302|35=8|49=BRAS|56=STAF|34=203|52=20000726-13:34:51|37=BRST0207000009|11=20000726BRAS10MANUAL|76=ISLD|17=801000009|20=0|19=801000009|39=2|1=SD01|55=AFFX|48=00826T108|22=1|54=1|38=0|40=2|44=0.000000000000000|32=300|31=162.312500000000000|30=O|29=4|14=0|6=0.000000000000000|75=20000726|60=20000726-13:34:52|10=139|
204	8=FIX.4.0|9=67|35=0|49=BRAS|56=STAF|34=204|50=ADMIN|57=ADMIN|52=20000726-13:35:11|10=224|
205	8=FIX.4.0|9=67|35=0|49=BRAS|56=STAF|34=205|50=ADMIN|57=ADMIN|52=20000726-13:35:31|10=227|
206	8=FIX.4.0|9=67|35=0|49=BRAS|56=STAF|34=206|50=ADMIN|57=ADMIN|52=20000726-13:35:51|10=230|
207	8=FIX.4.0|9=301|35=8|49=BRAS|56=STAF|34=207|52=20000726-13:35:52|37=BRST0207000010|11=20000726BRAS11MANUAL|76=HRZG|17=801000010|20=0|19=801000010|39=2|1=MA03|55=NAVI|48=63935M109|22=1|54=1|38=0|40=2|44=0.000000000000000|32=100|31=41.875000000000000|30=O|29=4|14=0|6=0.000000000000000|75=20000726|60=20000726-13:35:53|10=099|
208	8=FIX.4.0|9=301|35=8|49=BRAS|56=STAF|34=208|52=20000726-13:36:08|37=BRST0207000011|11=20000726BRAS12MANUAL|76=REDI|17=801000011|20=0|19=801000011|39=2|1=MA03|55=NAVI|48=63935M109|22=1|54=2|38=0|40=2|44=0.000000000000000|32=100|31=42.875000000000000|30=O|29=4|14=0|6=0.000000000000000|75=20000726|60=20000726-13:36:09|10=087|
209	8=FIX.4.0|9=301|35=8|49=BRAS|56=STAF|34=209|52=20000726-13:36:21|37=BRST0207000012|11=20000726BRAS13MANUAL|76=BTRD|17=801000012|20=0|19=801000012|39=2|1=MA03|55=PALM|48=696642107|22=1|54=1|38=0|40=2|44=0.000000000000000|32=100|31=36.000000000000000|30=O|29=4|14=0|6=0.000000000000000|75=20000726|60=20000726-13:36:22|10=044|
210	8=FIX.4.0|9=71|35=1|49=BRAS|56=STAF|34=210|52=20000726-13:36:41|112=20000726-13:36:41|10=244|
211	8=FIX.4.0|9=302|35=8|49=BRAS|56=STAF|34=211|52=20000726-13:36:41|37=BRST0207000013|11=20000726BRAS14MANUAL|76=NITE|17=801000013|20=0|19=801000013|39=2|1=MA03|55=INKT|48=457277101|22=1|54=1|38=0|40=2|44=0.000000000000000|32=100|31=113.500000000000000|30=O|29=4|14=0|6=0.000000000000000|75=20000726|60=20000726-13:36:42|10=104|
212	8=FIX.4.0|9=67|35=0|49=BRAS|56=STAF|34=212|50=ADMIN|57=ADMIN|52=20000726-13:37:01|10=224|
213	8=FIX.4.0|9=302|35=8|49=BRAS|56=STAF|34=213|52=20000726-13:37:10|37=BRST0207000014|11=20000726BRAS15MANUAL|76=INCX|17=801000014|20=0|19=801000014|39=1|1=FH04|55=WEBM|48=94768C108|22=1|54=1|38=0|40=2|44=0.000000000000000|32=100|31=138.187500000000000|30=O|29=4|14=0|6=0.000000000000000|75=20000726|60=20000726-13:37:12|10=147|
214	8=FIX.4.0|9=67|35=0|49=BRAS|56=STAF|34=214|50=ADMIN|57=ADMIN|52=20000726-13:37:32|10=230|
215	8=FIX.4.0|9=58|35=0|49=BRAS|56=STAF|34=215|52=20000726-13:37:34|112=TEST|10=220|
216	8=FIX.4.0|9=67|35=0|49=BRAS|56=STAF|34=216|50=ADMIN|57=ADMIN|52=20000726-13:37:54|10=236|
217	8=FIX.4.0|9=302|35=8|49=BRAS|56=STAF|34=217|52=20000726-13:38:10|37=BRST0207000015|11=20000726BRAS16MANUAL|76=ISLD|17=801000015|20=0|19=801000015|39=2|1=MA03|55=INKT|48=457277101|22=1|54=1|38=0|40=2|44=0.000000000000000|32=100|31=113.500000000000000|30=O|29=4|14=0|6=0.000000000000000|75=20000726|60=20000726-13:38:11|10=110|
218	8=FIX.4.0|9=302|35=8|49=BRAS|56=STAF|34=218|52=20000726-13:38:20|37=BRST0207000016|11=20000726BRAS17MANUAL|76=FBRC|17=801000016|20=0|19=801000016|39=2|1=FH04|55=WEBM|48=94768C108|22=1|54=2|38=0|40=2|44=0.000000000000000|32=100|31=138.000000000000000|30=O|29=4|14=0|6=0.000000000000000|75=20000726|60=20000726-13:38:21|10=123|
219	8=FIX.4.0|9=302|35=8|49=BRAS|56=STAF|34=219|52=20000726-13:38:35|37=BRST0207000017|11=20000726BRAS18MANUAL|76=FBRC|17=801000017|20=0|19=801000017|39=2|1=FH04|55=WEBM|48=94768C108|22=1|54=5|38=0|40=2|44=0.000000000000000|32=100|31=138.000000000000000|30=O|29=4|14=0|6=0.000000000000000|75=20000726|60=20000726-13:38:36|10=143|
220	8=FIX.4.0|9=302|35=8|49=BRAS|56=STAF|34=220|52=20000726-13:38:37|37=BRST0207000018|11=20000726BRAS19MANUAL|76=FBCO|17=801000018|20=0|19=801000018|39=2|1=SD01|55=AETH|48=00808V105|22=1|54=5|38=0|40=2|44=0.000000000000000|32=100|31=171.875000000000000|30=O|29=4|14=0|6=0.000000000000000|75=20000726|60=20000726-13:38:38|10=152|
221	8=FIX.4.0|9=58|35=0|49=BRAS|56=STAF|34=221|52=20000726-13:39:00|112=TEST|10=212|
222	8=FIX.4.0|9=300|35=8|49=BRAS|56=STAF|34=222|52=20000726-13:39:08|37=BRST0207000019|11=20000726BRAS20MANUAL|76=INCX|17=801000019|20=0|19=801000019|39=1|1=BF02|55=RATL|48=75409P202|22=1|54=1|38=0|40=2|44=0.000000000000000|32=57|31=98.000000000000000|30=O|29=4|14=0|6=0.000000000000000|75=20000726|60=20000726-13:39:09|10=071|
223	8=FIX.4.0|9=58|35=0|49=BRAS|56=STAF|34=223|52=20000726-13:39:30|112=TEST|10=217|
224	8=FIX.4.0|9=67|35=0|49=BRAS|56=STAF|34=224|50=ADMIN|57=ADMIN|52=20000726-13:39:50|10=233|
225	8=FIX.4.0|9=302|35=8|49=BRAS|56=STAF|34=225|52=20000726-13:39:58|37=BRST0207000020|11=20000726BRAS21MANUAL|76=BTRD|17=801000020|20=0|19=801000020|39=2|1=MA03|55=INKT|48=457277101|22=1|54=1|38=0|40=2|44=0.000000000000000|32=100|31=113.000000000000000|30=O|29=4|14=0|6=0.000000000000000|75=20000726|60=20000726-13:39:59|10=114|
226	8=FIX.4.0|9=58|35=0|49=BRAS|56=STAF|34=226|52=20000726-13:40:20|112=TEST|10=211|
227	8=FIX.4.0|9=67|35=0|49=BRAS|56=STAF|34=227|50=ADMIN|57=ADMIN|52=20000726-13:40:40|10=227|
228	8=FIX.4.0|9=67|35=0|49=BRAS|56=STAF|34=228|50=ADMIN|57=ADMIN|52=20000726-13:41:00|10=225|
229	8=FIX.4.0|9=67|35=0|49=BRAS|56=STAF|34=229|50=ADMIN|57=ADMIN|52=20000726-13:41:20|10=228|
230	8=FIX.4.0|9=67|35=0|49=BRAS|56=STAF|34=230|50=ADMIN|57=ADMIN|52=20000726-13:41:40|10=222|
231	8=FIX.4.0|9=67|35=0|49=BRAS|56=STAF|34=231|50=ADMIN|57=ADMIN|52=20000726-13:42:00|10=220|
232	8=FIX.4.0|9=67|35=0|49=BRAS|56=STAF|34=232|50=ADMIN|57=ADMIN|52=20000726-13:42:20|10=223|
233	8=FIX.4.0|9=67|35=0|49=BRAS|56=STAF|34=233|50=ADMIN|57=ADMIN|52=20000726-13:42:40|10=226|
234	8=FIX.4.0|9=67|35=0|49=BRAS|56=STAF|34=234|50=ADMIN|57=ADMIN|52=20000726-13:43:00|10=224|
235	8=FIX.4.0|9=67|35=0|49=BRAS|56=STAF|34=235|50=ADMIN|57=ADMIN|52=20000726-13:43:20|10=227|
236	8=FIX.4.0|9=71|35=1|49=BRAS|56=STAF|34=236|52=20000726-13:43:33|112=20000726-13:43:33|10=250|
237	8=FIX.4.0|9=301|35=8|49=BRAS|56=STAF|34=237|52=20000726-13:43:33|37=BRST0207000021|11=20000726BRAS22MANUAL|76=CYBR|17=801000021|20=0|19=801000021|39=2|1=MA03|55=VGNX|48=922196100|22=1|54=1|38=0|40=2|44=0.000000000000000|32=200|31=25.500000000000000|30=O|29=4|14=0|6=0.000000000000000|75=20000726|60=20000726-13:43:34|10=069|
238	8=FIX.4.0|9=67|35=0|49=BRAS|56=STAF|34=238|50=ADMIN|57=ADMIN|52=20000726-13:43:54|10=237|
239	8=FIX.4.0|9=302|35=8|49=BRAS|56=STAF|34=239|52=20000726-13:44:04|37=BRST0207000022|11=20000726BRAS23MANUAL|76=NFSC|17=801000022|20=0|19=801000022|39=2|1=SD01|55=AETH|48=00808V105|22=1|54=1|38=0|40=2|44=0.000000000000000|32=100|31=171.937500000000000|30=O|29=4|14=0|6=0.000000000000000|75=20000726|60=20000726-13:44:06|10=141|
240	8=FIX.4.0|9=302|35=8|49=BRAS|56=STAF|34=240|52=20000726-13:44:22|37=BRST0207000023|11=20000726BRAS24MANUAL|76=REDI|17=801000023|20=0|19=801000023|39=2|1=FH04|55=GSPN|48=379571102|22=1|54=5|38=0|40=2|44=0.000000000000000|32=100|31=121.625000000000000|30=O|29=4|14=0|6=0.000000000000000|75=20000726|60=20000726-13:44:23|10=109|
241	8=FIX.4.0|9=67|35=0|49=BRAS|56=STAF|34=241|50=ADMIN|57=ADMIN|52=20000726-13:44:44|10=231|
242	8=FIX.4.0|9=58|35=0|49=BRAS|56=STAF|34=242|52=20000726-13:44:44|112=TEST|10=219|
243	8=FIX.4.0|9=301|35=8|49=BRAS|56=STAF|34=243|52=20000726-13:45:01|37=BRST0207000024|11=20000726BRAS25MANUAL|76=HMQT|17=801000024|20=0|19=801000024|39=2|1=MA03|55=VGNX|48=922196100|22=1|54=1|38=0|40=2|44=0.000000000000000|32=200|31=25.000000000000000|30=O|29=4|14=0|6=0.000000000000000|75=20000726|60=20000726-13:45:02|10=077|
244	8=FIX.4.0|9=300|35=8|49=BRAS|56=STAF|34=244|52=20000726-13:45:08|37=BRST0207000025|11=20000726BRAS26MANUAL|76=INCA|17=801000025|20=0|19=801000025|39=1|1=BF02|55=BA|48=097023105|22=1|54=5|38=0|40=2|44=0.000000000000000|32=1900|31=48.468750000000000|30=O|29=4|14=0|6=0.000000000000000|75=20000726|60=20000726-13:45:09|10=212|
245	8=FIX.4.0|9=302|35=8|49=BRAS|56=STAF|34=245|52=20000726-13:45:14|37=BRST0207000026|11=20000726BRAS27MANUAL|76=REDI|17=801000026|20=0|19=801000026|39=2|1=FH04|55=GSPN|48=379571102|22=1|54=5|38=0|40=2|44=0.000000000000000|32=100|31=121.625000000000000|30=O|29=4|14=0|6=0.000000000000000|75=20000726|60=20000726-13:45:15|10=130|
246	8=FIX.4.0|9=67|35=0|49=BRAS|56=STAF|34=246|50=ADMIN|57=ADMIN|52=20000726-13:45:34|10=236|
247	8=FIX.4.0|9=67|35=0|49=BRAS|56=STAF|34=247|50=ADMIN|57=ADMIN|52=20000726-13:45:54|10=239|
248	8=FIX.4.0|9=58|35=0|49=BRAS|56=STAF|34=248|52=20000726-13:46:16|112=TEST|10=226|
249	8=FIX.4.0|9=302|35=8|49=BRAS|56=STAF|34=249|52=20000726-13:46:30|37=BRST0207000028|11=20000726BRAS29MANUAL|76=SHWD|17=801000028|20=0|19=801000028|39=2|1=SD01|55=AETH|48=00808V105|22=1|54=1|38=0|40=2|44=0.000000000000000|32=100|31=172.125000000000000|30=O|29=4|14=0|6=0.000000000000000|75=20000726|60=20000726-13:46:32|10=165|
250	8=FIX.4.0|9=58|35=0|49=BRAS|56=STAF|34=250|52=20000726-13:46:52|112=TEST|10=219|
251	8=FIX.4.0|9=67|35=0|49=BRAS|56=STAF|34=251|50=ADMIN|57=ADMIN|52=20000726-13:47:12|10=230|
252	8=FIX.4.0|9=67|35=0|49=BRAS|56=STAF|34=252|50=ADMIN|57=ADMIN|52=20000726-13:47:32|10=233|
253	8=FIX.4.0|9=305|35=8|49=BRAS|56=STAF|34=253|52=20000726-13:47:44|37=BRSO0207000001|11=20000726BRAS2MANUAL|76=TRIM|17=801000029|20=0|19=801000029|39=2|1=BF02|55=BA|48=097023105|22=1|54=1|38=0|40=2|44=48.312500000000000|59=0|32=1000|31=48.312500000000000|30=O|29=4|14=0|6=0.000000000000000|75=20000726|60=20000726-13:47:46|10=202|
254	8=FIX.4.0|9=58|35=0|49=BRAS|56=STAF|34=254|52=20000726-13:48:06|112=TEST|10=224|
255	8=FIX.4.0|9=67|35=0|49=BRAS|56=STAF|34=255|50=ADMIN|57=ADMIN|52=20000726-13:48:26|10=240|
256	8=FIX.4.0|9=67|35=0|49=BRAS|56=STAF|34=256|50=ADMIN|57=ADMIN|52=20000726-13:48:46|10=243|
257	8=FIX.4.0|9=71|35=1|49=BRAS|56=STAF|34=257|52=20000726-13:48:57|112=20000726-13:48:57|10=019|
258	8=FIX.4.0|9=301|35=8|49=BRAS|56=STAF|34=258|52=20000726-13:48:57|37=BRST0207000031|11=20000726BRAS31MANUAL|76=ISLD|17=801000031|20=0|19=801000031|39=2|1=MA03|55=CYMI|48=232572107|22=1|54=2|38=0|40=2|44=0.000000000000000|32=100|31=50.765625000000000|30=O|29=4|14=0|6=0.000000000000000|75=20000726|60=20000726-13:48:58|10=099|
259	8=FIX.4.0|9=301|35=8|49=BRAS|56=STAF|34=259|52=20000726-13:49:01|37=BRST0207000032|11=20000726BRAS32MANUAL|76=MONT|17=801000032|20=0|19=801000032|39=2|1=MA03|55=CYMI|48=232572107|22=1|54=2|38=0|40=2|44=0.000000000000000|32=100|31=50.750000000000000|30=O|29=4|14=0|6=0.000000000000000|75=20000726|60=20000726-13:49:02|10=083|
260	8=FIX.4.0|9=301|35=8|49=BRAS|56=STAF|34=260|52=20000726-13:49:02|37=BRST0207000033|11=20000726BRAS33MANUAL|76=MONT|17=801000033|20=0|19=801000033|39=2|1=MA03|55=CYMI|48=232572107|22=1|54=2|38=0|40=2|44=0.000000000000000|32=100|31=50.750000000000000|30=O|29=4|14=0|6=0.000000000000000|75=20000726|60=20000726-13:49:03|10=081|
261	8=FIX.4.0|9=302|35=8|49=BRAS|56=STAF|34=261|52=20000726-13:49:04|37=BRST0207000034|11=20000726BRAS34MANUAL|76=MLCO|17=801000034|20=0|19=801000034|39=2|1=SD01|55=AETH|48=00808V105|22=1|54=2|38=0|40=2|44=0.000000000000000|32=100|31=171.625000000000000|30=O|29=4|14=0|6=0.000000000000000|75=20000726|60=20000726-13:49:06|10=148|
262	8=FIX.4.0|9=301|35=8|49=BRAS|56=STAF|34=262|52=20000726-13:49:21|37=BRST0207000035|11=20000726BRAS35MANUAL|76=INCA|17=801000035|20=0|19=801000035|39=1|1=BF02|55=APD|48=009158106|22=1|54=5|38=0|40=2|44=0.000000000000000|32=2400|31=32.875000000000000|30=O|29=4|14=0|6=0.000000000000000|75=20000726|60=20000726-13:49:22|10=022|
263	8=FIX.4.0|9=58|35=0|49=BRAS|56=STAF|34=263|52=20000726-13:49:45|112=TEST|10=228|
264	8=FIX.4.0|9=301|35=8|49=BRAS|56=STAF|34=264|52=20000726-13:49:54|37=BRST0207000036|11=20000726BRAS36MANUAL|76=INCA|17=801000036|20=0|19=801000036|39=1|1=SD01|55=EBAY|48=278642103|22=1|54=1|38=0|40=2|44=0.000000000000000|32=100|31=53.750000000000000|30=O|29=4|14=0|6=0.000000000000000|75=20000726|60=20000726-13:49:55|10=071|
265	8=FIX.4.0|9=301|35=8|49=BRAS|56=STAF|34=265|52=20000726-13:50:06|37=BRST0207000037|11=20000726BRAS37MANUAL|76=HRLD|17=801000037|20=0|19=801000037|39=2|1=MA03|55=NAVI|48=63935M109|22=1|54=2|38=0|40=2|44=0.000000000000000|32=100|31=43.875000000000000|30=O|29=4|14=0|6=0.000000000000000|75=20000726|60=20000726-13:50:08|10=117|
266	8=FIX.4.0|9=301|35=8|49=BRAS|56=STAF|34=266|52=20000726-13:50:28|37=BRST0207000038|11=20000726BRAS38MANUAL|76=MASH|17=801000038|20=0|19=801000038|39=2|1=MA03|55=CYMI|48=232572107|22=1|54=2|38=0|40=2|44=0.000000000000000|32=100|31=51.000000000000000|30=O|29=4|14=0|6=0.000000000000000|75=20000726|60=20000726-13:50:29|10=075|
267	8=FIX.4.0|9=58|35=0|49=BRAS|56=STAF|34=267|52=20000726-13:50:51|112=TEST|10=221|
268	8=FIX.4.0|9=67|35=0|49=BRAS|56=STAF|34=268|50=ADMIN|57=ADMIN|52=20000726-13:51:11|10=232|
269	8=FIX.4.0|9=67|35=0|49=BRAS|56=STAF|34=269|50=ADMIN|57=ADMIN|52=20000726-13:51:31|10=235|
270	8=FIX.4.0|9=67|35=0|49=BRAS|56=STAF|34=270|50=ADMIN|57=ADMIN|52=20000726-13:51:51|10=229|
271	8=FIX.4.0|9=301|35=8|49=BRAS|56=STAF|34=271|52=20000726-13:51:56|37=BRST0207000041|11=20000726BRAS41MANUAL|76=BRUT|17=801000041|20=0|19=801000041|39=2|1=SD01|55=CSCO|48=17275R102|22=1|54=2|38=0|40=2|44=0.000000000000000|32=200|31=67.687500000000000|30=O|29=4|14=0|6=0.000000000000000|75=20000726|60=20000726-13:51:58|10=133|
272	8=FIX.4.0|9=58|35=0|49=BRAS|56=STAF|34=272|52=20000726-13:52:19|112=TEST|10=223|
273	8=FIX.4.0|9=67|35=0|49=BRAS|56=STAF|34=273|50=ADMIN|57=ADMIN|52=20000726-13:52:39|10=239|
274	8=FIX.4.0|9=302|35=8|49=BRAS|56=STAF|34=274|52=20000726-13:52:54|37=BRST0207000043|11=20000726BRAS43MANUAL|76=MASH|17=801000043|20=0|19=801000043|39=2|1=FH04|55=GSPN|48=379571102|22=1|54=1|38=0|40=2|44=0.000000000000000|32=100|31=122.250000000000000|30=O|29=4|14=0|6=0.000000000000000|75=20000726|60=20000726-13:52:55|10=127|
275	8=FIX.4.0|9=302|35=8|49=BRAS|56=STAF|34=275|52=20000726-13:52:57|37=BRST0207000044|11=20000726BRAS44MANUAL|76=FLTT|17=801000044|20=0|19=801000044|39=2|1=FH04|55=GSPN|48=379571102|22=1|54=1|38=0|40=2|44=0.000000000000000|32=100|31=122.250000000000000|30=O|29=4|14=0|6=0.000000000000000|75=20000726|60=20000726-13:52:59|10=156|
276	8=FIX.4.0|9=67|35=0|49=BRAS|56=STAF|34=276|50=ADMIN|57=ADMIN|52=20000726-13:53:19|10=241|
277	8=FIX.4.0|9=67|35=0|49=BRAS|56=STAF|34=277|50=ADMIN|57=ADMIN|52=20000726-13:53:39|10=244|
278	8=FIX.4.0|9=67|35=0|49=BRAS|56=STAF|34=278|50=ADMIN|57=ADMIN|52=20000726-13:53:59|10=247|
279	8=FIX.4.0|9=67|35=0|49=BRAS|56=STAF|34=279|50=ADMIN|57=ADMIN|52=20000726-13:54:19|10=245|
280	8=FIX.4.0|9=67|35=0|49=BRAS|56=STAF|34=280|50=ADMIN|57=ADMIN|52=20000726-13:54:39|10=239|
281	8=FIX.4.0|9=301|35=8|49=BRAS|56=STAF|34=281|52=20000726-13:54:41|37=BRST0207000047|11=20000726BRAS47MANUAL|76=FAHN|17=801000047|20=0|19=801000047|39=2|1=MA03|55=PANL|48=91347P105|22=1|54=1|38=0|40=2|44=0.000000000000000|32=100|31=29.500000000000000|30=O|29=4|14=0|6=0.000000000000000|75=20000726|60=20000726-13:54:42|10=093|
282	8=FIX.4.0|9=58|35=0|49=BRAS|56=STAF|34=282|52=20000726-13:55:04|112=TEST|10=221|
283	8=FIX.4.0|9=58|35=0|49=BRAS|56=STAF|34=283|52=20000726-13:55:27|112=TEST|10=227|
284	8=FIX.4.0|9=302|35=8|49=BRAS|56=STAF|34=284|52=20000726-13:55:46|37=BRST0207000048|11=20000726BRAS48MANUAL|76=LEHM|17=801000048|20=0|19=801000048|39=2|1=FH04|55=WEBM|48=94768C108|22=1|54=5|38=0|40=2|44=0.000000000000000|32=100|31=137.375000000000000|30=O|29=4|14=0|6=0.000000000000000|75=20000726|60=20000726-13:55:48|10=186|
285	8=FIX.4.0|9=67|35=0|49=BRAS|56=STAF|34=285|50=ADMIN|57=ADMIN|52=20000726-13:56:07|10=241|
286	8=FIX.4.0|9=67|35=0|49=BRAS|56=STAF|34=286|50=ADMIN|57=ADMIN|52=20000726-13:56:27|10=244|
287	8=FIX.4.0|9=302|35=8|49=BRAS|56=STAF|34=287|52=20000726-13:56:36|37=BRST0207000052|11=20000726BRAS52MANUAL|76=NITE|17=801000052|20=0|19=801000052|39=2|1=MA03|55=INKT|48=457277101|22=1|54=1|38=0|40=2|44=0.000000000000000|32=100|31=112.937500000000000|30=O|29=4|14=0|6=0.000000000000000|75=20000726|60=20000726-13:56:38|10=159|
288	8=FIX.4.0|9=67|35=0|49=BRAS|56=STAF|34=288|50=ADMIN|57=ADMIN|52=20000726-13:56:59|10=251|
289	8=FIX.4.0|9=302|35=8|49=BRAS|56=STAF|34=289|52=20000726-13:57:19|37=BRST0207000053|11=20000726BRAS53MANUAL|76=INCX|17=801000053|20=0|19=801000053|39=1|1=FH04|55=WEBM|48=94768C108|22=1|54=1|38=0|40=2|44=0.000000000000000|32=100|31=136.687500000000000|30=O|29=4|14=0|6=0.000000000000000|75=20000726|60=20000726-13:57:20|10=186|
290	8=FIX.4.0|9=58|35=0|49=BRAS|56=STAF|34=290|52=20000726-13:57:41|112=TEST|10=223|
291	8=FIX.4.0|9=302|35=8|49=BRAS|56=STAF|34=291|52=20000726-13:57:53|37=BRST0207000056|11=20000726BRAS56MANUAL|76=INCX|17=801000056|20=0|19=801000056|39=1|1=FH04|55=WEBM|48=94768C108|22=1|54=1|38=0|40=2|44=0.000000000000000|32=100|31=136.687500000000000|30=O|29=4|14=0|6=0.000000000000000|75=20000726|60=20000726-13:57:55|10=197|
292	8=FIX.4.0|9=58|35=0|49=BRAS|56=STAF|34=292|52=20000726-13:58:15|112=TEST|10=227|
293	8=FIX.4.0|9=67|35=0|49=BRAS|56=STAF|34=293|50=ADMIN|57=ADMIN|52=20000726-13:58:35|10=243|
294	8=FIX.4.0|9=302|35=8|49=BRAS|56=STAF|34=294|52=20000726-13:58:54|37=BRST0207000057|11=20000726BRAS57MANUAL|76=INCX|17=801000057|20=0|19=801000057|39=1|1=FH04|55=GSPN|48=379571102|22=1|54=5|38=0|40=2|44=0.000000000000000|32=200|31=122.500000000000000|30=O|29=4|14=0|6=0.000000000000000|75=20000726|60=20000726-13:58:55|10=172|
295	8=FIX.4.0|9=67|35=0|49=BRAS|56=STAF|34=295|50=ADMIN|57=ADMIN|52=20000726-13:59:15|10=244|
296	8=FIX.4.0|9=67|35=0|49=BRAS|56=STAF|34=296|50=ADMIN|57=ADMIN|52=20000726-13:59:35|10=247|
297	8=FIX.4.0|9=67|35=0|49=BRAS|56=STAF|34=297|50=ADMIN|57=ADMIN|52=20000726-13:59:55|10=250|
298	8=FIX.4.0|9=71|35=1|49=BRAS|56=STAF|34=298|52=20000726-14:00:03|112=20000726-14:00:03|10=240|
299	8=FIX.4.0|9=302|35=8|49=BRAS|56=STAF|34=299|52=20000726-14:00:03|37=BRST0207000058|11=20000726BRAS58MANUAL|76=FLTT|17=801000058|20=0|19=801000058|39=2|1=FH04|55=GSPN|48=379571102|22=1|54=1|38=0|40=2|44=0.000000000000000|32=100|31=123.750000000000000|30=O|29=4|14=0|6=0.000000000000000|75=20000726|60=20000726-14:00:04|10=157|
300	8=FIX.4.0|9=67|35=0|49=BRAS|56=STAF|34=300|50=ADMIN|57=ADMIN|52=20000726-14:00:23|10=217|
301	8=FIX.4.0|9=302|35=8|49=BRAS|56=STAF|34=301|52=20000726-14:00:29|37=BRST0207000059|11=20000726BRAS59MANUAL|76=ISLD|17=801000059|20=0|19=801000059|39=2|1=FH04|55=GSPN|48=379571102|22=1|54=1|38=0|40=2|44=0.000000000000000|32=100|31=124.250000000000000|30=O|29=4|14=0|6=0.000000000000000|75=20000726|60=20000726-14:00:31|10=135|
302	8=FIX.4.0|9=58|35=0|49=BRAS|56=STAF|34=302|52=20000726-14:00:51|112=TEST|10=207|
303	8=FIX.4.0|9=301|35=8|49=BRAS|56=STAF|34=303|52=20000726-14:01:04|37=BRST0207000060|11=20000726BRAS60MANUAL|76=BEST|17=801000060|20=0|19=801000060|39=2|1=SD01|55=FDRY|48=35063R100|22=1|54=5|38=0|40=2|44=0.000000000000000|32=200|31=86.000000000000000|30=O|29=4|14=0|6=0.000000000000000|75=20000726|60=20000726-14:01:05|10=079|
304	8=FIX.4.0|9=71|35=1|49=BRAS|56=STAF|34=304|52=20000726-14:01:24|112=20000726-14:01:24|10=236|
305	8=FIX.4.0|9=300|35=8|49=BRAS|56=STAF|34=305|52=20000726-14:01:24|37=BRST0207000061|11=20000726BRAS61MANUAL|76=INCA|17=801000061|20=0|19=801000061|39=1|1=BF02|55=NT|48=656568102|22=1|54=5|38=0|40=2|44=0.000000000000000|32=3000|31=84.000000000000000|30=O|29=4|14=0|6=0.000000000000000|75=20000726|60=20000726-14:01:25|10=197|
306	8=FIX.4.0|9=302|35=8|49=BRAS|56=STAF|34=306|52=20000726-14:01:31|37=BRST0207000062|11=20000726BRAS62MANUAL|76=FBRC|17=801000062|20=0|19=801000062|39=2|1=FH04|55=WEBM|48=94768C108|22=1|54=5|38=0|40=2|44=0.000000000000000|32=100|31=137.000000000000000|30=O|29=4|14=0|6=0.000000000000000|75=20000726|60=20000726-14:01:32|10=112|
307	8=FIX.4.0|9=58|35=0|49=BRAS|56=STAF|34=307|52=20000726-14:01:53|112=TEST|10=215|
308	8=FIX.4.0|9=300|35=8|49=BRAS|56=STAF|34=308|52=20000726-14:01:58|37=BRST0207000063|11=20000726BRAS63MANUAL|76=INCA|17=801000063|20=0|19=801000063|39=1|1=BF02|55=NT|48=656568102|22=1|54=5|38=0|40=2|44=0.000000000000000|32=3000|31=84.000000000000000|30=O|29=4|14=0|6=0.000000000000000|75=20000726|60=20000726-14:01:59|10=222|
309	8=FIX.4.0|9=302|35=8|49=BRAS|56=STAF|34=309|52=20000726-14:02:03|37=BRST0207000064|11=20000726BRAS64MANUAL|76=FBRC|17=801000064|20=0|19=801000064|39=2|1=FH04|55=WEBM|48=94768C108|22=1|54=5|38=0|40=2|44=0.000000000000000|32=100|31=137.000000000000000|30=O|29=4|14=0|6=0.000000000000000|75=20000726|60=20000726-14:02:04|10=123|
310	8=FIX.4.0|9=71|35=1|49=BRAS|56=STAF|34=310|52=20000726-14:02:17|112=20000726-14:02:17|10=239|
311	8=FIX.4.0|9=304|35=8|49=BRAS|56=STAF|34=311|52=20000726-14:02:17|37=BRSO0207000002|11=20000726BRAS3MANUAL|76=TRIM|17=801000065|20=0|19=801000065|39=2|1=BF02|55=C|48=172967101|22=1|54=2|38=0|40=2|44=70.000000000000000|59=0|32=1000|31=70.000000000000000|30=O|29=4|14=0|6=0.000000000000000|75=20000726|60=20000726-14:02:18|10=093|
312	8=FIX.4.0|9=301|35=8|49=BRAS|56=STAF|34=312|52=20000726-14:02:26|37=BRST0207000066|11=20000726BRAS65MANUAL|76=INCX|17=801000066|20=0|19=801000066|39=1|1=SD01|55=FDRY|48=35063R100|22=1|54=1|38=0|40=2|44=0.000000000000000|32=100|31=86.250000000000000|30=O|29=4|14=0|6=0.000000000000000|75=20000726|60=20000726-14:02:27|10=117|
313	8=FIX.4.0|9=301|35=8|49=BRAS|56=STAF|34=313|52=20000726-14:02:43|37=BRST0207000067|11=20000726BRAS66MANUAL|76=INCX|17=801000067|20=0|19=801000067|39=1|1=SD01|55=FDRY|48=35063R100|22=1|54=1|38=0|40=2|44=0.000000000000000|32=100|31=86.937500000000000|30=O|29=4|14=0|6=0.000000000000000|75=20000726|60=20000726-14:02:45|10=138|
314	8=FIX.4.0|9=58|35=0|49=BRAS|56=STAF|34=314|52=20000726-14:03:06|112=TEST|10=213|
315	8=FIX.4.0|9=301|35=8|49=BRAS|56=STAF|34=315|52=20000726-14:03:08|37=BRST0207000069|11=20000726BRAS68MANUAL|76=NITE|17=801000069|20=0|19=801000069|39=2|1=MA03|55=KREM|48=501014104|22=1|54=1|38=0|40=2|44=0.000000000000000|32=100|31=71.000000000000000|30=O|29=4|14=0|6=0.000000000000000|75=20000726|60=20000726-14:03:10|10=063|
316	8=FIX.4.0|9=58|35=0|49=BRAS|56=STAF|34=316|52=20000726-14:03:34|112=TEST|10=216|
317	8=FIX.4.0|9=58|35=0|49=BRAS|56=STAF|34=317|52=20000726-14:03:34|112=TEST|10=217|
318	8=FIX.4.0|9=67|35=0|49=BRAS|56=STAF|34=318|50=ADMIN|57=ADMIN|52=20000726-14:03:54|10=233|
319	8=FIX.4.0|9=67|35=0|49=BRAS|56=STAF|34=319|50=ADMIN|57=ADMIN|52=20000726-14:04:14|10=231|
320	8=FIX.4.0|9=67|35=0|49=BRAS|56=STAF|34=320|50=ADMIN|57=ADMIN|52=20000726-14:04:34|10=225|
321	8=FIX.4.0|9=67|35=0|49=BRAS|56=STAF|34=321|50=ADMIN|57=ADMIN|52=20000726-14:04:54|10=228|
322	8=FIX.4.0|9=301|35=8|49=BRAS|56=STAF|34=322|52=20000726-14:05:11|37=BRST0207000073|11=20000726BRAS72MANUAL|76=BEST|17=801000073|20=0|19=801000073|39=2|1=SD01|55=FDRY|48=35063R100|22=1|54=5|38=0|40=2|44=0.000000000000000|32=300|31=86.250000000000000|30=O|29=4|14=0|6=0.000000000000000|75=20000726|60=20000726-14:05:12|10=107|
323	8=FIX.4.0|9=67|35=0|49=BRAS|56=STAF|34=323|50=ADMIN|57=ADMIN|52=20000726-14:05:34|10=229|
324	8=FIX.4.0|9=58|35=0|49=BRAS|56=STAF|34=324|52=20000726-14:05:34|112=TEST|10=217|
325	8=FIX.4.0|9=302|35=8|49=BRAS|56=STAF|34=325|52=20000726-14:05:49|37=BRST0207000074|11=20000726BRAS73MANUAL|76=INCA|17=801000074|20=0|19=801000074|39=1|1=FH04|55=WEBM|48=94768C108|22=1|54=1|38=0|40=2|44=0.000000000000000|32=200|31=136.031250000000000|30=O|29=4|14=0|6=0.000000000000000|75=20000726|60=20000726-14:05:51|10=146|
326	8=FIX.4.0|9=71|35=1|49=BRAS|56=STAF|34=326|52=20000726-14:06:05|112=20000726-14:06:05|10=248|
327	8=FIX.4.0|9=301|35=8|49=BRAS|56=STAF|34=327|52=20000726-14:06:05|37=BRST0207000075|11=20000726BRAS74MANUAL|76=INCX|17=801000075|20=0|19=801000075|39=1|1=SD01|55=FDRY|48=35063R100|22=1|54=1|38=0|40=2|44=0.000000000000000|32=300|31=85.437500000000000|30=O|29=4|14=0|6=0.000000000000000|75=20000726|60=20000726-14:06:07|10=139|
328	8=FIX.4.0|9=301|35=8|49=BRAS|56=STAF|34=328|52=20000726-14:06:17|37=BRST0207000076|11=20000726BRAS75MANUAL|76=REDI|17=801000076|20=0|19=801000076|39=2|1=MA03|55=KREM|48=501014104|22=1|54=1|38=0|40=2|44=0.000000000000000|32=100|31=70.000000000000000|30=O|29=4|14=0|6=0.000000000000000|75=20000726|60=20000726-14:06:18|10=060|
329	8=FIX.4.0|9=58|35=0|49=BRAS|56=STAF|34=329|52=20000726-14:06:42|112=TEST|10=222|
330	8=FIX.4.0|9=67|35=0|49=BRAS|56=STAF|34=330|50=ADMIN|57=ADMIN|52=20000726-14:07:02|10=224|
331	8=FIX.4.0|9=67|35=0|49=BRAS|56=STAF|34=331|50=ADMIN|57=ADMIN|52=20000726-14:07:22|10=227|
332	8=FIX.4.0|9=71|35=1|49=BRAS|56=STAF|34=332|52=20000726-14:07:30|112=20000726-14:07:30|10=243|
333	8=FIX.4.0|9=301|35=8|49=BRAS|56=STAF|34=333|52=20000726-14:07:30|37=BRST0207000077|11=20000726BRAS76MANUAL|76=ISLO|17=801000077|20=0|19=801000077|39=2|1=MA03|55=CYMI|48=232572107|22=1|54=1|38=0|40=2|44=0.000000000000000|32=100|31=50.000000000000000|30=O|29=4|14=0|6=0.000000000000000|75=20000726|60=20000726-14:07:31|10=085|
334	8=FIX.4.0|9=301|35=8|49=BRAS|56=STAF|34=334|52=20000726-14:07:32|37=BRST0207000078|11=20000726BRAS77MANUAL|76=DATK|17=801000078|20=0|19=801000078|39=2|1=MA03|55=EXDS|48=302088109|22=1|54=1|38=0|40=2|44=0.000000000000000|32=100|31=53.000000000000000|30=O|29=4|14=0|6=0.000000000000000|75=20000726|60=20000726-14:07:33|10=082|
335	8=FIX.4.0|9=58|35=0|49=BRAS|56=STAF|34=335|52=20000726-14:07:56|112=TEST|10=225|
336	8=FIX.4.0|9=301|35=8|49=BRAS|56=STAF|34=336|52=20000726-14:07:57|37=BRST0207000079|11=20000726BRAS78MANUAL|76=GSCO|17=801000079|20=0|19=801000079|39=2|1=FH04|55=VIAN|48=92553N107|22=1|54=1|38=0|40=2|44=0.000000000000000|32=200|31=33.375000000000000|30=O|29=4|14=0|6=0.000000000000000|75=20000726|60=20000726-14:07:59|10=151|
337	8=FIX.4.0|9=308|35=8|49=BRAS|56=STAF|34=337|52=20000726-14:08:13|37=BRSO0207000003|11=20000726BRAS40MANUAL|76=JEFF|17=801000080|20=0|19=801000080|39=2|1=MA03|55=PALM|48=696642107|22=1|54=1|38=0|40=2|44=36.000000000000000|59=0|32=2000|31=36.000000000000000|30=O|29=4|14=0|6=0.000000000000000|75=20000726|60=20000726-14:08:14|10=113|
338	8=FIX.4.0|9=58|35=0|49=BRAS|56=STAF|34=338|52=20000726-14:08:34|112=TEST|10=225|
339	8=FIX.4.0|9=301|35=8|49=BRAS|56=STAF|34=339|52=20000726-14:08:53|37=BRST0207000081|11=20000726BRAS79MANUAL|76=ISLD|17=801000081|20=0|19=801000081|39=2|1=SD01|55=FDRY|48=35063R100|22=1|54=1|38=0|40=2|44=0.000000000000000|32=150|31=84.750000000000000|30=O|29=4|14=0|6=0.000000000000000|75=20000726|60=20000726-14:08:55|10=138|
340	8=FIX.4.0|9=300|35=8|49=BRAS|56=STAF|34=340|52=20000726-14:08:54|37=BRST0207000082|11=20000726BRAS80MANUAL|76=ISLD|17=801000082|20=0|19=801000082|39=2|1=SD01|55=FDRY|48=35063R100|22=1|54=1|38=0|40=2|44=0.000000000000000|32=50|31=84.750000000000000|30=O|29=4|14=0|6=0.000000000000000|75=20000726|60=20000726-14:08:55|10=076|
341	8=FIX.4.0|9=298|35=8|49=BRAS|56=STAF|34=341|52=20000726-14:09:01|37=BRST0207000083|11=20000726BRAS81MANUAL|76=INCA|17=801000083|20=0|19=801000083|39=1|1=BF02|55=C|48=172967101|22=1|54=5|38=0|40=2|44=0.000000000000000|32=200|31=70.375000000000000|30=O|29=4|14=0|6=0.000000000000000|75=20000726|60=20000726-14:09:02|10=094|
342	8=FIX.4.0|9=67|35=0|49=BRAS|56=STAF|34=342|50=ADMIN|57=ADMIN|52=20000726-14:09:24|10=233|
343	8=FIX.4.0|9=58|35=0|49=BRAS|56=STAF|34=343|52=20000726-14:09:24|112=TEST|10=221|
344	8=FIX.4.0|9=67|35=0|49=BRAS|56=STAF|34=344|50=ADMIN|57=ADMIN|52=20000726-14:09:44|10=237|
345	8=FIX.4.0|9=67|35=0|49=BRAS|56=STAF|34=345|50=ADMIN|57=ADMIN|52=20000726-14:10:04|10=226|
346	8=FIX.4.0|9=301|35=8|49=BRAS|56=STAF|34=346|52=20000726-14:10:06|37=BRST0207000085|11=20000726BRAS83MANUAL|76=INCA|17=801000085|20=0|19=801000085|39=2|1=MA03|55=CYMI|48=232572107|22=1|54=1|38=0|40=2|44=0.000000000000000|32=100|31=50.125000000000000|30=O|29=4|14=0|6=0.000000000000000|75=20000726|60=20000726-14:10:07|10=058|
347	8=FIX.4.0|9=284|35=8|49=BRAS|56=STAF|34=347|52=20000726-14:10:13|37=BRSO0207000005|11=20000726BRAS4MANUAL|76=SLKC|17=801000086|20=0|19=801000086|39=2|1=SD01|55=FDRY|48=35063R100|22=1|54=2|38=0|40=1|59=0|32=200|31=83.750000000000000|30=O|29=4|14=0|6=0.000000000000000|75=20000726|60=20000726-14:10:15|10=070|
348	8=FIX.4.0|9=67|35=0|49=BRAS|56=STAF|34=348|50=ADMIN|57=ADMIN|52=20000726-14:10:34|10=232|
349	8=FIX.4.0|9=301|35=8|49=BRAS|56=STAF|34=349|52=20000726-14:10:37|37=BRST0207000087|11=20000726BRAS84MANUAL|76=MASH|17=801000087|20=0|19=801000087|39=2|1=SD01|55=FDRY|48=35063R100|22=1|54=1|38=0|40=2|44=0.000000000000000|32=200|31=84.500000000000000|30=O|29=4|14=0|6=0.000000000000000|75=20000726|60=20000726-14:10:38|10=128|
350	8=FIX.4.0|9=302|35=8|49=BRAS|56=STAF|34=350|52=20000726-14:10:39|37=BRST0207000088|11=20000726BRAS85MANUAL|76=RSSF|17=801000088|20=0|19=801000088|39=2|1=FH04|55=GSPN|48=379571102|22=1|54=5|38=0|40=2|44=0.000000000000000|32=100|31=123.875000000000000|30=O|29=4|14=0|6=0.000000000000000|75=20000726|60=20000726-14:10:41|10=182|
351	8=FIX.4.0|9=302|35=8|49=BRAS|56=STAF|34=351|52=20000726-14:11:03|37=BRST0207000089|11=20000726BRAS86MANUAL|76=RSSF|17=801000089|20=0|19=801000089|39=2|1=FH04|55=GSPN|48=379571102|22=1|54=5|38=0|40=2|44=0.000000000000000|32=100|31=123.875000000000000|30=O|29=4|14=0|6=0.000000000000000|75=20000726|60=20000726-14:11:05|10=180|
352	8=FIX.4.0|9=58|35=0|49=BRAS|56=STAF|34=352|52=20000726-14:11:04|112=TEST|10=212|
353	8=FIX.4.0|9=71|35=1|49=BRAS|56=STAF|34=353|52=20000726-14:11:07|112=20000726-14:11:07|10=244|
354	8=FIX.4.0|9=234|35=8|49=BRAS|56=STAF|34=354|52=20000726-14:11:07|37=0207000004|11=20000726BRAS42MANUAL|17=354|20=0|39=4|55=PALM|54=1|38=2000|40=2|44=35.812500000000000|59=0|32=0|31=0.000000000000000|29=4|14=0|6=0.000000000000000|60=20000726-14:11:07|10=215|
355	8=FIX.4.0|9=284|35=8|49=BRAS|56=STAF|34=355|52=20000726-14:11:22|37=BRSO0207000006|11=20000726BRAS5MANUAL|76=NITE|17=801000090|20=0|19=801000090|39=2|1=SD01|55=FDRY|48=35063R100|22=1|54=2|38=0|40=1|59=0|32=200|31=83.968750000000000|30=O|29=4|14=0|6=0.000000000000000|75=20000726|60=20000726-14:11:24|10=089|
356	8=FIX.4.0|9=58|35=0|49=BRAS|56=STAF|34=356|52=20000726-14:11:44|112=TEST|10=220|
357	8=FIX.4.0|9=301|35=8|49=BRAS|56=STAF|34=357|52=20000726-14:12:02|37=BRST0207000091|11=20000726BRAS87MANUAL|76=DATK|17=801000091|20=0|19=801000091|39=2|1=MA03|55=CYMI|48=232572107|22=1|54=1|38=0|40=2|44=0.000000000000000|32=120|31=50.000000000000000|30=O|29=4|14=0|6=0.000000000000000|75=20000726|60=20000726-14:12:03|10=054|
358	8=FIX.4.0|9=67|35=0|49=BRAS|56=STAF|34=358|50=ADMIN|57=ADMIN|52=20000726-14:12:24|10=234|
359	8=FIX.4.0|9=67|35=0|49=BRAS|56=STAF|34=359|50=ADMIN|57=ADMIN|52=20000726-14:12:44|10=237|
360	8=FIX.4.0|9=302|35=8|49=BRAS|56=STAF|34=360|52=20000726-14:12:48|37=BRST0207000092|11=20000726BRAS88MANUAL|76=ELEC|17=801000092|20=0|19=801000092|39=2|1=MA03|55=INKT|48=457277101|22=1|54=1|38=0|40=2|44=0.000000000000000|32=100|31=112.500000000000000|30=O|29=4|14=0|6=0.000000000000000|75=20000726|60=20000726-14:12:49|10=121|
361	8=FIX.4.0|9=58|35=0|49=BRAS|56=STAF|34=361|52=20000726-14:13:10|112=TEST|10=211|
362	8=FIX.4.0|9=301|35=8|49=BRAS|56=STAF|34=362|52=20000726-14:13:18|37=BRST0207000093|11=20000726BRAS89MANUAL|76=BTRD|17=801000093|20=0|19=801000093|39=2|1=FH04|55=VIAN|48=92553N107|22=1|54=2|38=0|40=2|44=0.000000000000000|32=200|31=33.312500000000000|30=O|29=4|14=0|6=0.000000000000000|75=20000726|60=20000726-14:13:20|10=116|
363	8=FIX.4.0|9=302|35=8|49=BRAS|56=STAF|34=363|52=20000726-14:13:29|37=BRST0207000095|11=20000726BRAS91MANUAL|76=DLJP|17=801000095|20=0|19=801000095|39=2|1=SD01|55=AETH|48=00808V105|22=1|54=5|38=0|40=2|44=0.000000000000000|32=300|31=169.500000000000000|30=O|29=4|14=0|6=0.000000000000000|75=20000726|60=20000726-14:13:30|10=166|
364	8=FIX.4.0|9=67|35=0|49=BRAS|56=STAF|34=364|50=ADMIN|57=ADMIN|52=20000726-14:13:50|10=231|
365	8=FIX.4.0|9=58|35=0|49=BRAS|56=STAF|34=365|52=20000726-14:13:50|112=TEST|10=219|
366	8=FIX.4.0|9=302|35=8|49=BRAS|56=STAF|34=366|52=20000726-14:13:53|37=BRST0207000096|11=20000726BRAS92MANUAL|76=COST|17=801000096|20=0|19=801000096|39=2|1=MA03|55=INKT|48=457277101|22=1|54=1|38=0|40=2|44=0.000000000000000|32=100|31=112.000000000000000|30=O|29=4|14=0|6=0.000000000000000|75=20000726|60=20000726-14:13:55|10=156|
367	8=FIX.4.0|9=302|35=8|49=BRAS|56=STAF|34=367|52=20000726-14:13:54|37=BRST0207000097|11=20000726BRAS93MANUAL|76=BRUT|17=801000097|20=0|19=801000097|39=2|1=SD01|55=AETH|48=00808V105|22=1|54=1|38=0|40=2|44=0.000000000000000|32=200|31=168.625000000000000|30=O|29=4|14=0|6=0.000000000000000|75=20000726|60=20000726-14:13:55|10=204|
368	8=FIX.4.0|9=58|35=0|49=BRAS|56=STAF|34=368|52=20000726-14:14:19|112=TEST|10=228|
369	8=FIX.4.0|9=58|35=0|49=BRAS|56=STAF|34=369|52=20000726-14:14:19|112=TEST|10=229|
370	8=FIX.4.0|9=302|35=8|49=BRAS|56=STAF|34=370|52=20000726-14:14:22|37=BRST0207000098|11=20000726BRAS94MANUAL|76=MLCO|17=801000098|20=0|19=801000098|39=2|1=FH04|55=WEBM|48=94768C108|22=1|54=5|38=0|40=2|44=0.000000000000000|32=100|31=134.500000000000000|30=O|29=4|14=0|6=0.000000000000000|75=20000726|60=20000726-14:14:24|10=170|
371	8=FIX.4.0|9=58|35=0|49=BRAS|56=STAF|34=371|52=20000726-14:14:44|112=TEST|10=220|
372	8=FIX.4.0|9=67|35=0|49=BRAS|56=STAF|34=372|50=ADMIN|57=ADMIN|52=20000726-14:15:04|10=231|
373	8=FIX.4.0|9=301|35=8|49=BRAS|56=STAF|34=373|52=20000726-14:15:23|37=BRST0207000099|11=20000726BRAS95MANUAL|76=NITE|17=801000099|20=0|19=801000099|39=2|1=MA03|55=DRYR|48=261878102|22=1|54=1|38=0|40=2|44=0.000000000000000|32=100|31=24.000000000000000|30=O|29=4|14=0|6=0.000000000000000|75=20000726|60=20000726-14:15:25|10=120|
374	8=FIX.4.0|9=71|35=1|49=BRAS|56=STAF|34=374|52=20000726-14:15:37|112=20000726-14:15:37|10=005|
375	8=FIX.4.0|9=301|35=8|49=BRAS|56=STAF|34=375|52=20000726-14:15:37|37=BRST0207000100|11=20000726BRAS96MANUAL|76=INCX|17=801000100|20=0|19=801000100|39=1|1=BF02|55=AXP|48=025816109|22=1|54=1|38=0|40=2|44=0.000000000000000|32=4500|31=55.812500000000000|30=O|29=4|14=0|6=0.000000000000000|75=20000726|60=20000726-14:15:39|10=061|
376	8=FIX.4.0|9=67|35=0|49=BRAS|56=STAF|34=376|50=ADMIN|57=ADMIN|52=20000726-14:15:58|10=244|
377	8=FIX.4.0|9=67|35=0|49=BRAS|56=STAF|34=377|50=ADMIN|57=ADMIN|52=20000726-14:16:19|10=243|
378	8=FIX.4.0|9=302|35=8|49=BRAS|56=STAF|34=378|52=20000726-14:16:25|37=BRST0207000101|11=20000726BRAS97MANUAL|76=MLCO|17=801000101|20=0|19=801000101|39=2|1=FH04|55=WEBM|48=94768C108|22=1|54=5|38=0|40=2|44=0.000000000000000|32=100|31=133.500000000000000|30=O|29=4|14=0|6=0.000000000000000|75=20000726|60=20000726-14:16:26|10=144|
379	8=FIX.4.0|9=302|35=8|49=BRAS|56=STAF|34=379|52=20000726-14:16:30|37=BRST0207000102|11=20000726BRAS98MANUAL|76=BRUT|17=801000102|20=0|19=801000102|39=2|1=SD01|55=AETH|48=00808V105|22=1|54=1|38=0|40=2|44=0.000000000000000|32=100|31=168.625000000000000|30=O|29=4|14=0|6=0.000000000000000|75=20000726|60=20000726-14:16:32|10=167|
380	8=FIX.4.0|9=58|35=0|49=BRAS|56=STAF|34=380|52=20000726-14:16:53|112=TEST|10=222|
381	8=FIX.4.0|9=303|35=8|49=BRAS|56=STAF|34=381|52=20000726-14:17:05|37=BRST0207000104|11=20000726BRAS100MANUAL|76=INCA|17=801000104|20=0|19=801000104|39=2|1=MA03|55=PALM|48=696642107|22=1|54=2|38=0|40=2|44=0.000000000000000|32=1300|31=35.937500000000000|30=O|29=4|14=0|6=0.000000000000000|75=20000726|60=20000726-14:17:07|10=161|
382	8=FIX.4.0|9=303|35=8|49=BRAS|56=STAF|34=382|52=20000726-14:17:05|37=BRST0207000105|11=20000726BRAS101MANUAL|76=INCA|17=801000105|20=0|19=801000105|39=2|1=MA03|55=PALM|48=696642107|22=1|54=2|38=0|40=2|44=0.000000000000000|32=1000|31=35.937500000000000|30=O|29=4|14=0|6=0.000000000000000|75=20000726|60=20000726-14:17:07|10=163|
383	8=FIX.4.0|9=302|35=8|49=BRAS|56=STAF|34=383|52=20000726-14:17:05|37=BRST0207000106|11=20000726BRAS102MANUAL|76=INCA|17=801000106|20=0|19=801000106|39=2|1=MA03|55=PALM|48=696642107|22=1|54=2|38=0|40=2|44=0.000000000000000|32=800|31=35.937500000000000|30=O|29=4|14=0|6=0.000000000000000|75=20000726|60=20000726-14:17:07|10=126|
384	8=FIX.4.0|9=303|35=8|49=BRAS|56=STAF|34=384|52=20000726-14:17:08|37=BRST0207000107|11=20000726BRAS103MANUAL|76=TASN|17=801000107|20=0|19=801000107|39=2|1=MA03|55=PALM|48=696642107|22=1|54=2|38=0|40=2|44=0.000000000000000|32=1000|31=35.937500000000000|30=O|29=4|14=0|6=0.000000000000000|75=20000726|60=20000726-14:17:10|10=197|
385	8=FIX.4.0|9=71|35=1|49=BRAS|56=STAF|34=385|52=20000726-14:17:19|112=20000726-14:17:19|10=011|
386	8=FIX.4.0|9=308|35=8|49=BRAS|56=STAF|34=386|52=20000726-14:17:19|37=BRSO0207000007|11=20000726BRAS51MANUAL|76=JEFF|17=801000108|20=0|19=801000108|39=2|1=MA03|55=PALM|48=696642107|22=1|54=1|38=0|40=2|44=35.937500000000000|59=0|32=3500|31=35.937500000000000|30=O|29=4|14=0|6=0.000000000000000|75=20000726|60=20000726-14:17:20|10=180|
387	8=FIX.4.0|9=303|35=8|49=BRAS|56=STAF|34=387|52=20000726-14:17:20|37=BRST0207000109|11=20000726BRAS104MANUAL|76=ISLD|17=801000109|20=0|19=801000109|39=2|1=SD01|55=AETH|48=00808V105|22=1|54=5|38=0|40=2|44=0.000000000000000|32=100|31=168.500000000000000|30=O|29=4|14=0|6=0.000000000000000|75=20000726|60=20000726-14:17:22|10=203|
388	8=FIX.4.0|9=303|35=8|49=BRAS|56=STAF|34=388|52=20000726-14:17:20|37=BRST0207000110|11=20000726BRAS105MANUAL|76=ISLD|17=801000110|20=0|19=801000110|39=2|1=SD01|55=AETH|48=00808V105|22=1|54=5|38=0|40=2|44=0.000000000000000|32=100|31=168.500000000000000|30=O|29=4|14=0|6=0.000000000000000|75=20000726|60=20000726-14:17:22|10=181|
389	8=FIX.4.0|9=303|35=8|49=BRAS|56=STAF|34=389|52=20000726-14:17:21|37=BRST0207000111|11=20000726BRAS106MANUAL|76=INCA|17=801000111|20=0|19=801000111|39=1|1=FH04|55=WEBM|48=94768C108|22=1|54=1|38=0|40=2|44=0.000000000000000|32=100|31=132.156250000000000|30=O|29=4|14=0|6=0.000000000000000|75=20000726|60=20000726-14:17:22|10=175|
390	8=FIX.4.0|9=302|35=8|49=BRAS|56=STAF|34=390|52=20000726-14:17:25|37=BRST0207000112|11=20000726BRAS107MANUAL|76=SHWD|17=801000112|20=0|19=801000112|39=2|1=MA03|55=VGNX|48=922196100|22=1|54=1|38=0|40=2|44=0.000000000000000|32=200|31=24.500000000000000|30=O|29=4|14=0|6=0.000000000000000|75=20000726|60=20000726-14:17:26|10=136|
391	8=FIX.4.0|9=71|35=1|49=BRAS|56=STAF|34=391|52=20000726-14:17:36|112=20000726-14:17:36|10=006|
392	8=FIX.4.0|9=303|35=8|49=BRAS|56=STAF|34=392|52=20000726-14:17:36|37=BRST0207000113|11=20000726BRAS108MANUAL|76=INCA|17=801000113|20=0|19=801000113|39=2|1=FH04|55=WEBM|48=94768C108|22=1|54=1|38=0|40=2|44=0.000000000000000|32=100|31=132.156250000000000|30=O|29=4|14=0|6=0.000000000000000|75=20000726|60=20000726-14:17:38|10=191|
393	8=FIX.4.0|9=67|35=0|49=BRAS|56=STAF|34=393|50=ADMIN|57=ADMIN|52=20000726-14:17:56|10=243|
394	8=FIX.4.0|9=283|35=8|49=BRAS|56=STAF|34=394|52=20000726-14:18:05|37=BRSO0207000008|11=20000726BRAS6MANUAL|76=NFGR|17=801000114|20=0|19=801000114|39=2|1=FH04|55=XRX|48=984121103|22=1|54=5|38=0|40=1|59=0|32=600|31=15.687500000000000|30=O|29=4|14=0|6=0.000000000000000|75=20000726|60=20000726-14:18:06|10=013|
395	8=FIX.4.0|9=303|35=8|49=BRAS|56=STAF|34=395|52=20000726-14:18:18|37=BRST0207000115|11=20000726BRAS109MANUAL|76=INCX|17=801000115|20=0|19=801000115|39=1|1=SD01|55=AETH|48=00808V105|22=1|54=1|38=0|40=2|44=0.000000000000000|32=200|31=167.609375000000000|30=O|29=4|14=0|6=0.000000000000000|75=20000726|60=20000726-14:18:19|10=239|
396	8=FIX.4.0|9=283|35=8|49=BRAS|56=STAF|34=396|52=20000726-14:18:24|37=BRSO0207000009|11=20000726BRAS7MANUAL|76=TRIM|17=801000117|20=0|19=801000117|39=2|1=FH04|55=XRX|48=984121103|22=1|54=1|38=0|40=1|59=0|32=300|31=15.687500000000000|30=O|29=4|14=0|6=0.000000000000000|75=20000726|60=20000726-14:18:26|10=034|
397	8=FIX.4.0|9=71|35=1|49=BRAS|56=STAF|34=397|52=20000726-14:18:43|112=20000726-14:18:43|10=010|
398	8=FIX.4.0|9=303|35=8|49=BRAS|56=STAF|34=398|52=20000726-14:18:43|37=BRST0207000119|11=20000726BRAS112MANUAL|76=INCA|17=801000119|20=0|19=801000119|39=2|1=MA03|55=INKT|48=457277101|22=1|54=1|38=0|40=2|44=0.000000000000000|32=100|31=111.625000000000000|30=O|29=4|14=0|6=0.000000000000000|75=20000726|60=20000726-14:18:44|10=180|
399	8=FIX.4.0|9=303|35=8|49=BRAS|56=STAF|34=399|52=20000726-14:18:45|37=BRST0207000120|11=20000726BRAS113MANUAL|76=CWCO|17=801000120|20=0|19=801000120|39=2|1=MA03|55=INKT|48=457277101|22=1|54=1|38=0|40=2|44=0.000000000000000|32=100|31=111.625000000000000|30=O|29=4|14=0|6=0.000000000000000|75=20000726|60=20000726-14:18:47|10=180|
400	8=FIX.4.0|9=58|35=0|49=BRAS|56=STAF|34=400|52=20000726-14:19:07|112=TEST|10=217|
401	8=FIX.4.0|9=308|35=8|49=BRAS|56=STAF|34=401|52=20000726-14:19:14|37=BRSO0207000010|11=20000726BRAS55MANUAL|76=JEFF|17=801000122|20=0|19=801000122|39=2|1=MA03|55=PALM|48=696642107|22=1|54=1|38=0|40=2|44=35.937500000000000|59=0|32=1500|31=35.937500000000000|30=O|29=4|14=0|6=0.000000000000000|75=20000726|60=20000726-14:19:16|10=160|
402	8=FIX.4.0|9=67|35=0|49=BRAS|56=STAF|34=402|50=ADMIN|57=ADMIN|52=20000726-14:19:37|10=235|
403	8=FIX.4.0|9=58|35=0|49=BRAS|56=STAF|34=403|52=20000726-14:19:37|112=TEST|10=223|
404	8=FIX.4.0|9=67|35=0|49=BRAS|56=STAF|34=404|50=ADMIN|57=ADMIN|52=20000726-14:19:57|10=239|
405	8=FIX.4.0|9=231|35=8|49=BRAS|56=STAF|34=405|52=20000726-14:20:04|37=0207000011|11=20000726BRAS8MANUAL|17=405|20=0|39=4|55=XRX|54=1|38=300|40=2|44=15.687500000000000|59=0|32=0|31=0.000000000000000|29=4|14=0|6=0.000000000000000|60=20000726-14:20:04|10=073|
406	8=FIX.4.0|9=58|35=0|49=BRAS|56=STAF|34=406|52=20000726-14:20:27|112=TEST|10=217|
407	8=FIX.4.0|9=67|35=0|49=BRAS|56=STAF|34=407|50=ADMIN|57=ADMIN|52=20000726-14:20:47|10=233|
408	8=FIX.4.0|9=67|35=0|49=BRAS|56=STAF|34=408|50=ADMIN|57=ADMIN|52=20000726-14:21:07|10=231|
409	8=FIX.4.0|9=67|35=0|49=BRAS|56=STAF|34=409|50=ADMIN|57=ADMIN|52=20000726-14:21:27|10=234|
410	8=FIX.4.0|9=283|35=8|49=BRAS|56=STAF|34=410|52=20000726-14:21:29|37=BRSO0207000013|11=20000726BRAS9MANUAL|76=TRIM|17=801000123|20=0|19=801000123|39=2|1=FH04|55=XRX|48=984121103|22=1|54=1|38=0|40=1|59=0|32=300|31=15.812500000000000|30=O|29=4|14=0|6=0.000000000000000|75=20000726|60=20000726-14:21:31|10=247|
411	8=FIX.4.0|9=308|35=8|49=BRAS|56=STAF|34=411|52=20000726-14:21:30|37=BRSO0207000012|11=20000726BRAS57MANUAL|76=JEFF|17=801000124|20=0|19=801000124|39=2|1=MA03|55=PALM|48=696642107|22=1|54=1|38=0|40=2|44=35.875000000000000|59=0|32=1500|31=35.875000000000000|30=O|29=4|14=0|6=0.000000000000000|75=20000726|60=20000726-14:21:32|10=143|
412	8=FIX.4.0|9=303|35=8|49=BRAS|56=STAF|34=412|52=20000726-14:21:33|37=BRST0207000125|11=20000726BRAS115MANUAL|76=MONT|17=801000125|20=0|19=801000125|39=2|1=MA03|55=INKT|48=457277101|22=1|54=1|38=0|40=2|44=0.000000000000000|32=100|31=111.000000000000000|30=O|29=4|14=0|6=0.000000000000000|75=20000726|60=20000726-14:21:35|10=170|
413	8=FIX.4.0|9=58|35=0|49=BRAS|56=STAF|34=413|52=20000726-14:21:55|112=TEST|10=217|
414	8=FIX.4.0|9=67|35=0|49=BRAS|56=STAF|34=414|50=ADMIN|57=ADMIN|52=20000726-14:22:15|10=228|
415	8=FIX.4.0|9=301|35=8|49=BRAS|56=STAF|34=415|52=20000726-14:22:31|37=BRST0207000126|11=20000726BRAS116MANUAL|76=ISLD|17=801000126|20=0|19=801000126|39=2|1=MA03|55=NAVI|48=63935M109|22=1|54=1|38=0|40=2|44=0.000000000000000|32=25|31=42.875000000000000|30=O|29=4|14=0|6=0.000000000000000|75=20000726|60=20000726-14:22:32|10=110|
416	8=FIX.4.0|9=302|35=8|49=BRAS|56=STAF|34=416|52=20000726-14:22:34|37=BRST0207000127|11=20000726BRAS117MANUAL|76=BRUT|17=801000127|20=0|19=801000127|39=2|1=MA03|55=NAVI|48=63935M109|22=1|54=1|38=0|40=2|44=0.000000000000000|32=100|31=42.875000000000000|30=O|29=4|14=0|6=0.000000000000000|75=20000726|60=20000726-14:22:35|10=181|
417	8=FIX.4.0|9=303|35=8|49=BRAS|56=STAF|34=417|52=20000726-14:22:50|37=BRST0207000128|11=20000726BRAS118MANUAL|76=INCA|17=801000128|20=0|19=801000128|39=1|1=FH04|55=GSPN|48=379571102|22=1|54=1|38=0|40=2|44=0.000000000000000|32=100|31=121.937500000000000|30=O|29=4|14=0|6=0.000000000000000|75=20000726|60=20000726-14:22:51|10=179|
418	8=FIX.4.0|9=71|35=1|49=BRAS|56=STAF|34=418|52=20000726-14:22:59|112=20000726-14:22:59|10=008|
419	8=FIX.4.0|9=303|35=8|49=BRAS|56=STAF|34=419|52=20000726-14:22:59|37=BRST0207000129|11=20000726BRAS119MANUAL|76=INCA|17=801000129|20=0|19=801000129|39=1|1=FH04|55=GSPN|48=379571102|22=1|54=1|38=0|40=2|44=0.000000000000000|32=100|31=121.921875000000000|30=O|29=4|14=0|6=0.000000000000000|75=20000726|60=20000726-14:23:00|10=197|
420	8=FIX.4.0|9=67|35=0|49=BRAS|56=STAF|34=420|50=ADMIN|57=ADMIN|52=20000726-14:23:19|10=230|
421	8=FIX.4.0|9=306|35=8|49=BRAS|56=STAF|34=421|52=20000726-14:23:28|37=BRSO0207000014|11=20000726BRAS10MANUAL|76=NITE|17=801000130|20=0|19=801000130|39=2|1=MA03|55=SNMM|48=855552105|22=1|54=1|38=0|40=2|44=3.000000000000000|59=0|32=1000|31=2.990000000000000|30=O|29=4|14=0|6=0.000000000000000|75=20000726|60=20000726-14:23:30|10=035|
422	8=FIX.4.0|9=67|35=0|49=BRAS|56=STAF|34=422|50=ADMIN|57=ADMIN|52=20000726-14:23:49|10=235|
423	8=FIX.4.0|9=67|35=0|49=BRAS|56=STAF|34=423|50=ADMIN|57=ADMIN|52=20000726-14:24:09|10=233|
424	8=FIX.4.0|9=71|35=1|49=BRAS|56=STAF|34=424|52=20000726-14:24:25|112=20000726-14:24:25|10=251|
425	8=FIX.4.0|9=308|35=8|49=BRAS|56=STAF|34=425|52=20000726-14:24:25|37=BRSO0207000016|11=20000726BRAS58MANUAL|76=JEFF|17=801000131|20=0|19=801000131|39=2|1=MA03|55=PALM|48=696642107|22=1|54=1|38=0|40=2|44=35.750000000000000|59=0|32=1500|31=35.750000000000000|30=O|29=4|14=0|6=0.000000000000000|75=20000726|60=20000726-14:24:27|10=147|
426	8=FIX.4.0|9=67|35=0|49=BRAS|56=STAF|34=426|50=ADMIN|57=ADMIN|52=20000726-14:24:45|10=236|
427	8=FIX.4.0|9=67|35=0|49=BRAS|56=STAF|34=427|50=ADMIN|57=ADMIN|52=20000726-14:25:05|10=234|
428	8=FIX.4.0|9=67|35=0|49=BRAS|56=STAF|34=428|50=ADMIN|57=ADMIN|52=20000726-14:25:25|10=237|
429	8=FIX.4.0|9=67|35=0|49=BRAS|56=STAF|34=429|50=ADMIN|57=ADMIN|52=20000726-14:25:45|10=240|
430	8=FIX.4.0|9=71|35=1|49=BRAS|56=STAF|34=430|52=20000726-14:25:48|112=20000726-14:25:48|10=004|
431	8=FIX.4.0|9=302|35=8|49=BRAS|56=STAF|34=431|52=20000726-14:25:48|37=BRST0207000132|11=20000726BRAS120MANUAL|76=ISLD|17=801000132|20=0|19=801000132|39=2|1=MA03|55=CYMI|48=232572107|22=1|54=1|38=0|40=2|44=0.000000000000000|32=100|31=49.875000000000000|30=O|29=4|14=0|6=0.000000000000000|75=20000726|60=20000726-14:25:49|10=134|
432	8=FIX.4.0|9=301|35=8|49=BRAS|56=STAF|34=432|52=20000726-14:25:52|37=BRST0207000133|11=20000726BRAS121MANUAL|76=ARCA|17=801000133|20=0|19=801000133|39=2|1=MA03|55=FTRL|48=36114Q208|22=1|54=1|38=0|40=2|44=0.000000000000000|32=100|31=4.875000000000000|30=O|29=4|14=0|6=0.000000000000000|75=20000726|60=20000726-14:25:54|10=086|
433	8=FIX.4.0|9=233|35=8|49=BRAS|56=STAF|34=433|52=20000726-14:26:00|37=0207000015|11=20000726BRAS11MANUAL|17=433|20=0|39=4|55=ISCO|54=1|38=1000|40=2|44=3.937500000000000|59=0|32=0|31=0.000000000000000|29=4|14=0|6=0.000000000000000|60=20000726-14:26:00|10=164|
434	8=FIX.4.0|9=67|35=0|49=BRAS|56=STAF|34=434|50=ADMIN|57=ADMIN|52=20000726-14:26:21|10=231|
435	8=FIX.4.0|9=58|35=0|49=BRAS|56=STAF|34=435|52=20000726-14:26:43|112=TEST|10=223|
436	8=FIX.4.0|9=71|35=1|49=BRAS|56=STAF|34=436|52=20000726-14:27:00|112=20000726-14:27:00|10=246|
437	8=FIX.4.0|9=306|35=8|49=BRAS|56=STAF|34=437|52=20000726-14:27:00|37=BRSO0207000017|11=20000726BRAS12MANUAL|76=NITE|17=801000134|20=0|19=801000134|39=2|1=MA03|55=ISCO|48=452284102|22=1|54=1|38=0|40=2|44=3.937500000000000|59=0|32=1000|31=3.906250000000000|30=O|29=4|14=0|6=0.000000000000000|75=20000726|60=20000726-14:27:01|10=059|
438	8=FIX.4.0|9=58|35=0|49=BRAS|56=STAF|34=438|52=20000726-14:27:21|112=TEST|10=223|
439	8=FIX.4.0|9=308|35=8|49=BRAS|56=STAF|34=439|52=20000726-14:27:30|37=BRSO0207000018|11=20000726BRAS60MANUAL|76=JEFF|17=801000135|20=0|19=801000135|39=2|1=MA03|55=PALM|48=696642107|22=1|54=1|38=0|40=2|44=35.750000000000000|59=0|32=1500|31=35.750000000000000|30=O|29=4|14=0|6=0.000000000000000|75=20000726|60=20000726-14:27:32|10=153|
440	8=FIX.4.0|9=302|35=8|49=BRAS|56=STAF|34=440|52=20000726-14:27:49|37=BRST0207000136|11=20000726BRAS122MANUAL|76=MASH|17=801000136|20=0|19=801000136|39=2|1=MA03|55=CYMI|48=232572107|22=1|54=1|38=0|40=2|44=0.000000000000000|32=100|31=49.875000000000000|30=O|29=4|14=0|6=0.000000000000000|75=20000726|60=20000726-14:27:51|10=143|
441	8=FIX.4.0|9=67|35=0|49=BRAS|56=STAF|34=441|50=ADMIN|57=ADMIN|52=20000726-14:28:11|10=230|
442	8=FIX.4.0|9=67|35=0|49=BRAS|56=STAF|34=442|50=ADMIN|57=ADMIN|52=20000726-14:28:32|10=234|
443	8=FIX.4.0|9=67|35=0|49=BRAS|56=STAF|34=443|50=ADMIN|57=ADMIN|52=20000726-14:28:52|10=237|
444	8=FIX.4.0|9=58|35=0|49=BRAS|56=STAF|34=444|52=20000726-14:29:14|112=TEST|10=224|
445	8=FIX.4.0|9=67|35=0|49=BRAS|56=STAF|34=445|50=ADMIN|57=ADMIN|52=20000726-14:29:34|10=240|
446	8=FIX.4.0|9=67|35=0|49=BRAS|56=STAF|34=446|50=ADMIN|57=ADMIN|52=20000726-14:29:54|10=243|
447	8=FIX.4.0|9=71|35=1|49=BRAS|56=STAF|34=447|52=20000726-14:30:08|112=20000726-14:30:08|10=252|
448	8=FIX.4.0|9=302|35=8|49=BRAS|56=STAF|34=448|52=20000726-14:30:08|37=BRST0207000137|11=20000726BRAS123MANUAL|76=NITE|17=801000137|20=0|19=801000137|39=2|1=MA03|55=CYMI|48=232572107|22=1|54=1|38=0|40=2|44=0.000000000000000|32=100|31=49.937500000000000|30=O|29=4|14=0|6=0.000000000000000|75=20000726|60=20000726-14:30:10|10=144|
449	8=FIX.4.0|9=67|35=0|49=BRAS|56=STAF|34=449|50=ADMIN|57=ADMIN|52=20000726-14:30:30|10=232|
450	8=FIX.4.0|9=58|35=0|49=BRAS|56=STAF|34=450|52=20000726-14:30:30|112=TEST|10=211|
451	8=FIX.4.0|9=303|35=8|49=BRAS|56=STAF|34=451|52=20000726-14:30:47|37=BRST0207000138|11=20000726BRAS124MANUAL|76=BRUT|17=801000138|20=0|19=801000138|39=2|1=MA03|55=INKT|48=457277101|22=1|54=2|38=0|40=2|44=0.000000000000000|32=100|31=110.500000000000000|30=O|29=4|14=0|6=0.000000000000000|75=20000726|60=20000726-14:30:49|10=199|
452	8=FIX.4.0|9=303|35=8|49=BRAS|56=STAF|34=452|52=20000726-14:30:48|37=BRST0207000139|11=20000726BRAS125MANUAL|76=ISLD|17=801000139|20=0|19=801000139|39=2|1=MA03|55=INKT|48=457277101|22=1|54=2|38=0|40=2|44=0.000000000000000|32=100|31=110.750000000000000|30=O|29=4|14=0|6=0.000000000000000|75=20000726|60=20000726-14:30:49|10=195|
453	8=FIX.4.0|9=303|35=8|49=BRAS|56=STAF|34=453|52=20000726-14:30:48|37=BRST0207000140|11=20000726BRAS126MANUAL|76=ISLD|17=801000140|20=0|19=801000140|39=2|1=MA03|55=INKT|48=457277101|22=1|54=2|38=0|40=2|44=0.000000000000000|32=100|31=110.500000000000000|30=O|29=4|14=0|6=0.000000000000000|75=20000726|60=20000726-14:30:49|10=166|
454	8=FIX.4.0|9=71|35=1|49=BRAS|56=STAF|34=454|52=20000726-14:30:48|112=20000726-14:30:48|10=002|
455	8=FIX.4.0|9=303|35=8|49=BRAS|56=STAF|34=455|52=20000726-14:30:48|37=BRST0207000141|11=20000726BRAS127MANUAL|76=ISLD|17=801000141|20=0|19=801000141|39=2|1=MA03|55=INKT|48=457277101|22=1|54=2|38=0|40=2|44=0.000000000000000|32=200|31=110.515625000000000|30=O|29=4|14=0|6=0.000000000000000|75=20000726|60=20000726-14:30:49|10=192|
456	8=FIX.4.0|9=303|35=8|49=BRAS|56=STAF|34=456|52=20000726-14:30:50|37=BRST0207000142|11=20000726BRAS128MANUAL|76=GSCO|17=801000142|20=0|19=801000142|39=2|1=MA03|55=INKT|48=457277101|22=1|54=2|38=0|40=2|44=0.000000000000000|32=400|31=110.500000000000000|30=O|29=4|14=0|6=0.000000000000000|75=20000726|60=20000726-14:30:52|10=167|
457	8=FIX.4.0|9=303|35=8|49=BRAS|56=STAF|34=457|52=20000726-14:30:53|37=BRST0207000143|11=20000726BRAS129MANUAL|76=LEHM|17=801000143|20=0|19=801000143|39=2|1=MA03|55=INKT|48=457277101|22=1|54=2|38=0|40=2|44=0.000000000000000|32=100|31=110.500000000000000|30=O|29=4|14=0|6=0.000000000000000|75=20000726|60=20000726-14:30:55|10=169|
458	8=FIX.4.0|9=303|35=8|49=BRAS|56=STAF|34=458|52=20000726-14:30:54|37=BRST0207000144|11=20000726BRAS130MANUAL|76=JPMS|17=801000144|20=0|19=801000144|39=2|1=MA03|55=INKT|48=457277101|22=1|54=2|38=0|40=2|44=0.000000000000000|32=100|31=110.500000000000000|30=O|29=4|14=0|6=0.000000000000000|75=20000726|60=20000726-14:30:56|10=187|
459	8=FIX.4.0|9=58|35=0|49=BRAS|56=STAF|34=459|52=20000726-14:31:16|112=TEST|10=225|
460	8=FIX.4.0|9=71|35=1|49=BRAS|56=STAF|34=460|52=20000726-14:31:19|112=20000726-14:31:19|10=253|
461	8=FIX.4.0|9=284|35=8|49=BRAS|56=STAF|34=461|52=20000726-14:31:19|37=BRSO0207000019|11=20000726BRAS13MANUAL|76=NFGR|17=801000146|20=0|19=801000146|39=2|1=FH04|55=XRX|48=984121103|22=1|54=5|38=0|40=1|59=0|32=600|31=15.687500000000000|30=O|29=4|14=0|6=0.000000000000000|75=20000726|60=20000726-14:31:20|10=058|
462	8=FIX.4.0|9=67|35=0|49=BRAS|56=STAF|34=462|50=ADMIN|57=ADMIN|52=20000726-14:31:39|10=237|
463	8=FIX.4.0|9=67|35=0|49=BRAS|56=STAF|34=463|50=ADMIN|57=ADMIN|52=20000726-14:32:00|10=227|
464	8=FIX.4.0|9=226|35=8|49=BRAS|56=STAF|34=464|52=20000726-14:32:04|37=0207000020|11=20000726BRAS61MANUAL|17=464|20=0|39=5|55=PALM|54=2|38=0|44=35.750000000000000|59=0|32=0|31=0.000000000000000|29=4|14=0|6=0.000000000000000|60=20000726-14:32:04|10=115|
465	8=FIX.4.0|9=308|35=8|49=BRAS|56=STAF|34=465|52=20000726-14:32:04|37=BRSO0207000021|11=20000726BRAS62MANUAL|76=JEFF|17=801000147|20=0|19=801000147|39=2|1=MA03|55=PALM|48=696642107|22=1|54=1|38=0|40=2|44=35.687500000000000|59=0|32=1500|31=35.687500000000000|30=O|29=4|14=0|6=0.000000000000000|75=20000726|60=20000726-14:32:06|10=176|
466	8=FIX.4.0|9=58|35=0|49=BRAS|56=STAF|34=466|52=20000726-14:32:26|112=TEST|10=225|
467	8=FIX.4.0|9=67|35=0|49=BRAS|56=STAF|34=467|50=ADMIN|57=ADMIN|52=20000726-14:32:46|10=241|
468	8=FIX.4.0|9=67|35=0|49=BRAS|56=STAF|34=468|50=ADMIN|57=ADMIN|52=20000726-14:33:06|10=239|
469	8=FIX.4.0|9=303|35=8|49=BRAS|56=STAF|34=469|52=20000726-14:33:22|37=BRST0207000149|11=20000726BRAS133MANUAL|76=ISLO|17=801000149|20=0|19=801000149|39=2|1=MA03|55=INKT|48=457277101|22=1|54=1|38=0|40=2|44=0.000000000000000|32=100|31=110.000000000000000|30=O|29=4|14=0|6=0.000000000000000|75=20000726|60=20000726-14:33:24|10=194|
470	8=FIX.4.0|9=308|35=8|49=BRAS|56=STAF|34=470|52=20000726-14:33:30|37=BRSO0207000022|11=20000726BRAS63MANUAL|76=JEFF|17=801000150|20=0|19=801000150|39=2|1=MA03|55=PALM|48=696642107|22=1|54=1|38=0|40=2|44=35.687500000000000|59=0|32=1500|31=35.687500000000000|30=O|29=4|14=0|6=0.000000000000000|75=20000726|60=20000726-14:33:31|10=161|
471	8=FIX.4.0|9=302|35=8|49=BRAS|56=STAF|34=471|52=20000726-14:33:38|37=BRST0207000151|11=20000726BRAS134MANUAL|76=MWSE|17=801000151|20=0|19=801000151|39=2|1=SD01|55=FDRY|48=35063R100|22=1|54=1|38=0|40=2|44=0.000000000000000|32=200|31=83.000000000000000|30=O|29=4|14=0|6=0.000000000000000|75=20000726|60=20000726-14:33:40|10=162|
472	8=FIX.4.0|9=303|35=8|49=BRAS|56=STAF|34=472|52=20000726-14:33:55|37=BRST0207000152|11=20000726BRAS135MANUAL|76=MASH|17=801000152|20=0|19=801000152|39=2|1=MA03|55=INKT|48=457277101|22=1|54=2|38=0|40=2|44=0.000000000000000|32=100|31=110.000000000000000|30=O|29=4|14=0|6=0.000000000000000|75=20000726|60=20000726-14:33:56|10=170|
473	8=FIX.4.0|9=303|35=8|49=BRAS|56=STAF|34=473|52=20000726-14:33:55|37=BRST0207000153|11=20000726BRAS136MANUAL|76=REDI|17=801000153|20=0|19=801000153|39=2|1=MA03|55=INKT|48=457277101|22=1|54=2|38=0|40=2|44=0.000000000000000|32=100|31=110.000000000000000|30=O|29=4|14=0|6=0.000000000000000|75=20000726|60=20000726-14:33:56|10=170|
474	8=FIX.4.0|9=302|35=8|49=BRAS|56=STAF|34=474|52=20000726-14:33:55|37=BRST0207000154|11=20000726BRAS137MANUAL|76=ISLD|17=801000154|20=0|19=801000154|39=2|1=MA03|55=INKT|48=457277101|22=1|54=2|38=0|40=2|44=0.000000000000000|32=28|31=110.000000000000000|30=O|29=4|14=0|6=0.000000000000000|75=20000726|60=20000726-14:33:57|10=144|
475	8=FIX.4.0|9=302|35=8|49=BRAS|56=STAF|34=475|52=20000726-14:33:55|37=BRST0207000155|11=20000726BRAS138MANUAL|76=ISLD|17=801000155|20=0|19=801000155|39=2|1=MA03|55=INKT|48=457277101|22=1|54=2|38=0|40=2|44=0.000000000000000|32=47|31=110.000000000000000|30=O|29=4|14=0|6=0.000000000000000|75=20000726|60=20000726-14:33:57|10=150|
476	8=FIX.4.0|9=302|35=8|49=BRAS|56=STAF|34=476|52=20000726-14:33:55|37=BRST0207000156|11=20000726BRAS139MANUAL|76=ISLD|17=801000156|20=0|19=801000156|39=2|1=MA03|55=INKT|48=457277101|22=1|54=2|38=0|40=2|44=0.000000000000000|32=25|31=110.000000000000000|30=O|29=4|14=0|6=0.000000000000000|75=20000726|60=20000726-14:33:57|10=151|
477	8=FIX.4.0|9=71|35=1|49=BRAS|56=STAF|34=477|52=20000726-14:33:56|112=20000726-14:33:56|10=011|
478	8=FIX.4.0|9=303|35=8|49=BRAS|56=STAF|34=478|52=20000726-14:33:56|37=BRST0207000157|11=20000726BRAS140MANUAL|76=BRUT|17=801000157|20=0|19=801000157|39=2|1=MA03|55=INKT|48=457277101|22=1|54=2|38=0|40=2|44=0.000000000000000|32=100|31=110.000000000000000|30=O|29=4|14=0|6=0.000000000000000|75=20000726|60=20000726-14:33:57|10=209|
479	8=FIX.4.0|9=303|35=8|49=BRAS|56=STAF|34=479|52=20000726-14:33:57|37=BRST0207000158|11=20000726BRAS141MANUAL|76=HRZG|17=801000158|20=0|19=801000158|39=2|1=MA03|55=INKT|48=457277101|22=1|54=2|38=0|40=2|44=0.000000000000000|32=100|31=110.000000000000000|30=O|29=4|14=0|6=0.000000000000000|75=20000726|60=20000726-14:33:58|10=214|
480	8=FIX.4.0|9=303|35=8|49=BRAS|56=STAF|34=480|52=20000726-14:33:57|37=BRST0207000159|11=20000726BRAS142MANUAL|76=MWSE|17=801000159|20=0|19=801000159|39=2|1=MA03|55=INKT|48=457277101|22=1|54=2|38=0|40=2|44=0.000000000000000|32=100|31=110.000000000000000|30=O|29=4|14=0|6=0.000000000000000|75=20000726|60=20000726-14:33:59|10=212|
481	8=FIX.4.0|9=303|35=8|49=BRAS|56=STAF|34=481|52=20000726-14:33:58|37=BRST0207000160|11=20000726BRAS143MANUAL|76=SBSH|17=801000160|20=0|19=801000160|39=2|1=MA03|55=INKT|48=457277101|22=1|54=2|38=0|40=2|44=0.000000000000000|32=100|31=110.000000000000000|30=O|29=4|14=0|6=0.000000000000000|75=20000726|60=20000726-14:34:00|10=166|
482	8=FIX.4.0|9=303|35=8|49=BRAS|56=STAF|34=482|52=20000726-14:33:59|37=BRST0207000161|11=20000726BRAS144MANUAL|76=PERT|17=801000161|20=0|19=801000161|39=2|1=MA03|55=INKT|48=457277101|22=1|54=2|38=0|40=2|44=0.000000000000000|32=100|31=110.000000000000000|30=O|29=4|14=0|6=0.000000000000000|75=20000726|60=20000726-14:34:01|10=184|
483	8=FIX.4.0|9=303|35=8|49=BRAS|56=STAF|34=483|52=20000726-14:34:02|37=BRST0207000162|11=20000726BRAS145MANUAL|76=LEHM|17=801000162|20=0|19=801000162|39=2|1=MA03|55=INKT|48=457277101|22=1|54=2|38=0|40=2|44=0.000000000000000|32=100|31=110.000000000000000|30=O|29=4|14=0|6=0.000000000000000|75=20000726|60=20000726-14:34:04|10=160|
484	8=FIX.4.0|9=71|35=1|49=BRAS|56=STAF|34=484|52=20000726-14:34:03|112=20000726-14:34:03|10=251|
485	8=FIX.4.0|9=303|35=8|49=BRAS|56=STAF|34=485|52=20000726-14:34:03|37=BRST0207000163|11=20000726BRAS146MANUAL|76=PRUS|17=801000163|20=0|19=801000163|39=2|1=MA03|55=INKT|48=457277101|22=1|54=2|38=0|40=2|44=0.000000000000000|32=100|31=110.000000000000000|30=O|29=4|14=0|6=0.000000000000000|75=20000726|60=20000726-14:34:05|10=204|
486	8=FIX.4.0|9=303|35=8|49=BRAS|56=STAF|34=486|52=20000726-14:34:05|37=BRST0207000164|11=20000726BRAS147MANUAL|76=MLCO|17=801000164|20=0|19=801000164|39=2|1=MA03|55=INKT|48=457277101|22=1|54=2|38=0|40=2|44=0.000000000000000|32=100|31=110.000000000000000|30=O|29=4|14=0|6=0.000000000000000|75=20000726|60=20000726-14:34:07|10=182|
487	8=FIX.4.0|9=303|35=8|49=BRAS|56=STAF|34=487|52=20000726-14:34:19|37=BRST0207000165|11=20000726BRAS148MANUAL|76=FLTT|17=801000165|20=0|19=801000165|39=2|1=MA03|55=INKT|48=457277101|22=1|54=2|38=0|40=2|44=0.000000000000000|32=100|31=110.000000000000000|30=O|29=4|14=0|6=0.000000000000000|75=20000726|60=20000726-14:34:20|10=202|
488	8=FIX.4.0|9=302|35=8|49=BRAS|56=STAF|34=488|52=20000726-14:34:41|37=BRST0207000166|11=20000726BRAS149MANUAL|76=PRUS|17=801000166|20=0|19=801000166|39=2|1=SD01|55=FDRY|48=35063R100|22=1|54=2|38=0|40=2|44=0.000000000000000|32=100|31=82.875000000000000|30=O|29=4|14=0|6=0.000000000000000|75=20000726|60=20000726-14:34:42|10=225|
489	8=FIX.4.0|9=302|35=8|49=BRAS|56=STAF|34=489|52=20000726-14:34:41|37=BRST0207000167|11=20000726BRAS150MANUAL|76=JPMS|17=801000167|20=0|19=801000167|39=2|1=SD01|55=FDRY|48=35063R100|22=1|54=2|38=0|40=2|44=0.000000000000000|32=100|31=82.812500000000000|30=O|29=4|14=0|6=0.000000000000000|75=20000726|60=20000726-14:34:43|10=202|
490	8=FIX.4.0|9=71|35=1|49=BRAS|56=STAF|34=490|52=20000726-14:34:46|112=20000726-14:34:46|10=006|
491	8=FIX.4.0|9=302|35=8|49=BRAS|56=STAF|34=491|52=20000726-14:34:46|37=BRST0207000168|11=20000726BRAS151MANUAL|76=GSCO|17=801000168|20=0|19=801000168|39=2|1=MA03|55=PALM|48=696642107|22=1|54=2|38=0|40=2|44=0.000000000000000|32=500|31=35.625000000000000|30=O|29=4|14=0|6=0.000000000000000|75=20000726|60=20000726-14:34:47|10=164|
492	8=FIX.4.0|9=303|35=8|49=BRAS|56=STAF|34=492|52=20000726-14:34:55|37=BRST0207000169|11=20000726BRAS152MANUAL|76=ARCA|17=801000169|20=0|19=801000169|39=2|1=FH04|55=WEBM|48=94768C108|22=1|54=1|38=0|40=2|44=0.000000000000000|32=100|31=130.062500000000000|30=O|29=4|14=0|6=0.000000000000000|75=20000726|60=20000726-14:34:57|10=212|
493	8=FIX.4.0|9=58|35=0|49=BRAS|56=STAF|34=493|52=20000726-14:35:18|112=TEST|10=229|
494	8=FIX.4.0|9=67|35=0|49=BRAS|56=STAF|34=494|50=ADMIN|57=ADMIN|52=20000726-14:35:38|10=245|
495	8=FIX.4.0|9=302|35=8|49=BRAS|56=STAF|34=495|52=20000726-14:35:49|37=BRST0207000170|11=20000726BRAS153MANUAL|76=REDI|17=801000170|20=0|19=801000170|39=2|1=MA03|55=PALM|48=696642107|22=1|54=2|38=0|40=2|44=0.000000000000000|32=200|31=35.562500000000000|30=O|29=4|14=0|6=0.000000000000000|75=20000726|60=20000726-14:35:51|10=143|
496	8=FIX.4.0|9=302|35=8|49=BRAS|56=STAF|34=496|52=20000726-14:35:49|37=BRST0207000171|11=20000726BRAS154MANUAL|76=ISLD|17=801000171|20=0|19=801000171|39=2|1=MA03|55=PALM|48=696642107|22=1|54=2|38=0|40=2|44=0.000000000000000|32=200|31=35.593750000000000|30=O|29=4|14=0|6=0.000000000000000|75=20000726|60=20000726-14:35:51|10=167|
497	8=FIX.4.0|9=71|35=1|49=BRAS|56=STAF|34=497|52=20000726-14:35:50|112=20000726-14:35:50|10=005|
498	8=FIX.4.0|9=302|35=8|49=BRAS|56=STAF|34=498|52=20000726-14:35:50|37=BRST0207000172|11=20000726BRAS155MANUAL|76=BEST|17=801000172|20=0|19=801000172|39=2|1=MA03|55=PALM|48=696642107|22=1|54=2|38=0|40=2|44=0.000000000000000|32=200|31=35.562500000000000|30=O|29=4|14=0|6=0.000000000000000|75=20000726|60=20000726-14:35:52|10=157|
499	8=FIX.4.0|9=302|35=8|49=BRAS|56=STAF|34=499|52=20000726-14:35:51|37=BRST0207000173|11=20000726BRAS156MANUAL|76=WARR|17=801000173|20=0|19=801000173|39=2|1=MA03|55=PALM|48=696642107|22=1|54=2|38=0|40=2|44=0.000000000000000|32=100|31=35.562500000000000|30=O|29=4|14=0|6=0.000000000000000|75=20000726|60=20000726-14:35:53|10=177|
500	8=FIX.4.0|9=302|35=8|49=BRAS|56=STAF|34=500|52=20000726-14:35:52|37=BRST0207000174|11=20000726BRAS157MANUAL|76=PWJC|17=801000174|20=0|19=801000174|39=2|1=MA03|55=PALM|48=696642107|22=1|54=2|38=0|40=2|44=0.000000000000000|32=200|31=35.562500000000000|30=O|29=4|14=0|6=0.000000000000000|75=20000726|60=20000726-14:35:54|10=159|
501	8=FIX.4.0|9=302|35=8|49=BRAS|56=STAF|34=501|52=20000726-14:35:53|37=BRST0207000175|11=20000726BRAS158MANUAL|76=GSCO|17=801000175|20=0|19=801000175|39=2|1=MA03|55=PALM|48=696642107|22=1|54=2|38=0|40=2|44=0.000000000000000|32=200|31=35.562500000000000|30=O|29=4|14=0|6=0.000000000000000|75=20000726|60=20000726-14:35:55|10=158|
502	8=FIX.4.0|9=302|35=8|49=BRAS|56=STAF|34=502|52=20000726-14:35:57|37=BRST0207000176|11=20000726BRAS159MANUAL|76=DAIN|17=801000176|20=0|19=801000176|39=2|1=MA03|55=PALM|48=696642107|22=1|54=2|38=0|40=2|44=0.000000000000000|32=200|31=35.562500000000000|30=O|29=4|14=0|6=0.000000000000000|75=20000726|60=20000726-14:35:58|10=154|
503	8=FIX.4.0|9=302|35=8|49=BRAS|56=STAF|34=503|52=20000726-14:35:58|37=BRST0207000177|11=20000726BRAS160MANUAL|76=ADAM|17=801000177|20=0|19=801000177|39=2|1=MA03|55=PALM|48=696642107|22=1|54=2|38=0|40=2|44=0.000000000000000|32=200|31=35.562500000000000|30=O|29=4|14=0|6=0.000000000000000|75=20000726|60=20000726-14:35:59|10=143|
504	8=FIX.4.0|9=71|35=1|49=BRAS|56=STAF|34=504|52=20000726-14:36:07|112=20000726-14:36:07|10=000|
505	8=FIX.4.0|9=302|35=8|49=BRAS|56=STAF|34=505|52=20000726-14:36:07|37=BRST0207000178|11=20000726BRAS161MANUAL|76=ISLD|17=801000178|20=0|19=801000178|39=2|1=MA03|55=PALM|48=696642107|22=1|54=2|38=0|40=2|44=0.000000000000000|32=372|31=35.593750000000000|30=O|29=4|14=0|6=0.000000000000000|75=20000726|60=20000726-14:36:09|10=186|
506	8=FIX.4.0|9=302|35=8|49=BRAS|56=STAF|34=506|52=20000726-14:36:07|37=BRST0207000179|11=20000726BRAS162MANUAL|76=ISLD|17=801000179|20=0|19=801000179|39=2|1=MA03|55=PALM|48=696642107|22=1|54=2|38=0|40=2|44=0.000000000000000|32=128|31=35.562500000000000|30=O|29=4|14=0|6=0.000000000000000|75=20000726|60=20000726-14:36:09|10=179|
507	8=FIX.4.0|9=302|35=8|49=BRAS|56=STAF|34=507|52=20000726-14:36:08|37=BRST0207000180|11=20000726BRAS163MANUAL|76=GSCO|17=801000180|20=0|19=801000180|39=2|1=MA03|55=PALM|48=696642107|22=1|54=2|38=0|40=2|44=0.000000000000000|32=500|31=35.562500000000000|30=O|29=4|14=0|6=0.000000000000000|75=20000726|60=20000726-14:36:10|10=144|
508	8=FIX.4.0|9=302|35=8|49=BRAS|56=STAF|34=508|52=20000726-14:36:13|37=BRST0207000181|11=20000726BRAS164MANUAL|76=DAIN|17=801000181|20=0|19=801000181|39=2|1=MA03|55=PALM|48=696642107|22=1|54=2|38=0|40=2|44=0.000000000000000|32=100|31=35.562500000000000|30=O|29=4|14=0|6=0.000000000000000|75=20000726|60=20000726-14:36:15|10=130|
509	8=FIX.4.0|9=302|35=8|49=BRAS|56=STAF|34=509|52=20000726-14:36:20|37=BRST0207000182|11=20000726BRAS165MANUAL|76=GSCO|17=801000182|20=0|19=801000182|39=2|1=MA03|55=PALM|48=696642107|22=1|54=2|38=0|40=2|44=0.000000000000000|32=200|31=35.562500000000000|30=O|29=4|14=0|6=0.000000000000000|75=20000726|60=20000726-14:36:21|10=147|
510	8=FIX.4.0|9=302|35=8|49=BRAS|56=STAF|34=510|52=20000726-14:36:20|37=BRST0207000183|11=20000726BRAS166MANUAL|76=ISLD|17=801000183|20=0|19=801000183|39=2|1=MA03|55=PALM|48=696642107|22=1|54=2|38=0|40=2|44=0.000000000000000|32=200|31=35.562500000000000|30=O|29=4|14=0|6=0.000000000000000|75=20000726|60=20000726-14:36:22|10=144|
511	8=FIX.4.0|9=71|35=1|49=BRAS|56=STAF|34=511|52=20000726-14:36:23|112=20000726-14:36:23|10=250|
512	8=FIX.4.0|9=302|35=8|49=BRAS|56=STAF|34=512|52=20000726-14:36:23|37=BRST0207000184|11=20000726BRAS167MANUAL|76=PWJC|17=801000184|20=0|19=801000184|39=2|1=MA03|55=PALM|48=696642107|22=1|54=2|38=0|40=2|44=0.000000000000000|32=100|31=35.562500000000000|30=O|29=4|14=0|6=0.000000000000000|75=20000726|60=20000726-14:36:25|10=163|
513	8=FIX.4.0|9=302|35=8|49=BRAS|56=STAF|34=513|52=20000726-14:36:28|37=BRST0207000185|11=20000726BRAS168MANUAL|76=BTRD|17=801000185|20=0|19=801000185|39=2|1=SD01|55=FDRY|48=35063R100|22=1|54=1|38=0|40=2|44=0.000000000000000|32=200|31=83.000000000000000|30=O|29=4|14=0|6=0.000000000000000|75=20000726|60=20000726-14:36:30|10=175|
514	8=FIX.4.0|9=58|35=0|49=BRAS|56=STAF|34=514|52=20000726-14:36:50|112=TEST|10=220|
515	8=FIX.4.0|9=303|35=8|49=BRAS|56=STAF|34=515|52=20000726-14:36:50|37=BRST0207000186|11=20000726BRAS169MANUAL|76=ARCA|17=801000186|20=0|19=801000186|39=2|1=FH04|55=WEBM|48=94768C108|22=1|54=1|38=0|40=2|44=0.000000000000000|32=100|31=130.062500000000000|30=O|29=4|14=0|6=0.000000000000000|75=20000726|60=20000726-14:36:52|10=207|
516	8=FIX.4.0|9=302|35=8|49=BRAS|56=STAF|34=516|52=20000726-14:36:54|37=BRST0207000187|11=20000726BRAS170MANUAL|76=REDI|17=801000187|20=0|19=801000187|39=2|1=MA03|55=PALM|48=696642107|22=1|54=2|38=0|40=2|44=0.000000000000000|32=300|31=35.562500000000000|30=O|29=4|14=0|6=0.000000000000000|75=20000726|60=20000726-14:36:55|10=163|
517	8=FIX.4.0|9=302|35=8|49=BRAS|56=STAF|34=517|52=20000726-14:36:54|37=BRST0207000188|11=20000726BRAS171MANUAL|76=ISLD|17=801000188|20=0|19=801000188|39=2|1=MA03|55=PALM|48=696642107|22=1|54=2|38=0|40=2|44=0.000000000000000|32=300|31=35.593750000000000|30=O|29=4|14=0|6=0.000000000000000|75=20000726|60=20000726-14:36:56|10=188|
518	8=FIX.4.0|9=71|35=1|49=BRAS|56=STAF|34=518|52=20000726-14:36:54|112=20000726-14:36:54|10=009|
519	8=FIX.4.0|9=302|35=8|49=BRAS|56=STAF|34=519|52=20000726-14:36:54|37=BRST0207000189|11=20000726BRAS172MANUAL|76=GSCO|17=801000189|20=0|19=801000189|39=2|1=MA03|55=PALM|48=696642107|22=1|54=2|38=0|40=2|44=0.000000000000000|32=300|31=35.562500000000000|30=O|29=4|14=0|6=0.000000000000000|75=20000726|60=20000726-14:36:56|10=183|
520	8=FIX.4.0|9=67|35=0|49=BRAS|56=STAF|34=520|50=ADMIN|57=ADMIN|52=20000726-14:37:14|10=231|
521	8=FIX.4.0|9=67|35=0|49=BRAS|56=STAF|34=521|50=ADMIN|57=ADMIN|52=20000726-14:37:34|10=234|
522	8=FIX.4.0|9=303|35=8|49=BRAS|56=STAF|34=522|52=20000726-14:37:42|37=BRST0207000191|11=20000726BRAS174MANUAL|76=FBRC|17=801000191|20=0|19=801000191|39=2|1=FH04|55=WEBM|48=94768C108|22=1|54=2|38=0|40=2|44=0.000000000000000|32=100|31=131.250000000000000|30=O|29=4|14=0|6=0.000000000000000|75=20000726|60=20000726-14:37:43|10=194|
523	8=FIX.4.0|9=67|35=0|49=BRAS|56=STAF|34=523|50=ADMIN|57=ADMIN|52=20000726-14:38:04|10=234|
524	8=FIX.4.0|9=58|35=0|49=BRAS|56=STAF|34=524|52=20000726-14:38:04|112=TEST|10=222|
525	8=FIX.4.0|9=67|35=0|49=BRAS|56=STAF|34=525|50=ADMIN|57=ADMIN|52=20000726-14:38:24|10=238|
526	8=FIX.4.0|9=305|35=8|49=BRAS|56=STAF|34=526|52=20000726-14:38:34|37=BRSO0207000014|11=20000726BRAS10MANUAL|76=NITE|17=802000130|20=2|19=801000130|39=2|1=MB6|55=SNMM|48=855552105|22=1|54=1|38=0|40=2|44=3.000000000000000|59=0|32=1000|31=2.990000000000000|30=O|29=4|14=0|6=0.000000000000000|75=20000726|60=20000726-14:38:35|10=013|
527	8=FIX.4.0|9=67|35=0|49=BRAS|56=STAF|34=527|50=ADMIN|57=ADMIN|52=20000726-14:38:54|10=243|
528	8=FIX.4.0|9=303|35=8|49=BRAS|56=STAF|34=528|52=20000726-14:38:57|37=BRST0207000194|11=20000726BRAS177MANUAL|76=INCA|17=801000194|20=0|19=801000194|39=2|1=MA03|55=PALM|48=696642107|22=1|54=2|38=0|40=2|44=0.000000000000000|32=2000|31=35.562500000000000|30=O|29=4|14=0|6=0.000000000000000|75=20000726|60=20000726-14:38:59|10=217|
529	8=FIX.4.0|9=303|35=8|49=BRAS|56=STAF|34=529|52=20000726-14:39:02|37=BRST0207000195|11=20000726BRAS178MANUAL|76=ISLO|17=801000195|20=0|19=801000195|39=2|1=MA03|55=INKT|48=457277101|22=1|54=2|38=0|40=2|44=0.000000000000000|32=100|31=111.000000000000000|30=O|29=4|14=0|6=0.000000000000000|75=20000726|60=20000726-14:39:03|10=212|
530	8=FIX.4.0|9=308|35=8|49=BRAS|56=STAF|34=530|52=20000726-14:39:05|37=BRSO0207000023|11=20000726BRAS64MANUAL|76=JEFF|17=801000196|20=0|19=801000196|39=2|1=MA03|55=PALM|48=696642107|22=1|54=1|38=0|40=2|44=35.562500000000000|59=0|32=1000|31=35.562500000000000|30=O|29=4|14=0|6=0.000000000000000|75=20000726|60=20000726-14:39:07|10=176|
531	8=FIX.4.0|9=303|35=8|49=BRAS|56=STAF|34=531|52=20000726-14:39:07|37=BRST0207000197|11=20000726BRAS179MANUAL|76=ISLO|17=801000197|20=0|19=801000197|39=2|1=MA03|55=INKT|48=457277101|22=1|54=2|38=0|40=2|44=0.000000000000000|32=100|31=111.000000000000000|30=O|29=4|14=0|6=0.000000000000000|75=20000726|60=20000726-14:39:08|10=222|
532	8=FIX.4.0|9=58|35=0|49=BRAS|56=STAF|34=532|52=20000726-14:39:28|112=TEST|10=228|
533	8=FIX.4.0|9=67|35=0|49=BRAS|56=STAF|34=533|50=ADMIN|57=ADMIN|52=20000726-14:39:48|10=244|
534	8=FIX.4.0|9=71|35=1|49=BRAS|56=STAF|34=534|52=20000726-14:39:51|112=20000726-14:39:51|10=007|
535	8=FIX.4.0|9=302|35=8|49=BRAS|56=STAF|34=535|52=20000726-14:39:51|37=BRST0207000198|11=20000726BRAS180MANUAL|76=REDI|17=801000198|20=0|19=801000198|39=2|1=SD01|55=FDRY|48=35063R100|22=1|54=2|38=0|40=2|44=0.000000000000000|32=200|31=82.875000000000000|30=O|29=4|14=0|6=0.000000000000000|75=20000726|60=20000726-14:39:53|10=204|
536	8=FIX.4.0|9=67|35=0|49=BRAS|56=STAF|34=536|50=ADMIN|57=ADMIN|52=20000726-14:40:11|10=229|
537	8=FIX.4.0|9=302|35=8|49=BRAS|56=STAF|34=537|52=20000726-14:40:24|37=BRST0207000201|11=20000726BRAS183MANUAL|76=MSCO|17=801000201|20=0|19=801000201|39=2|1=MA03|55=PALM|48=696642107|22=1|54=2|38=0|40=2|44=0.000000000000000|32=500|31=35.500000000000000|30=O|29=4|14=0|6=0.000000000000000|75=20000726|60=20000726-14:40:26|10=119|
538	8=FIX.4.0|9=302|35=8|49=BRAS|56=STAF|34=538|52=20000726-14:40:24|37=BRST0207000202|11=20000726BRAS184MANUAL|76=REDI|17=801000202|20=0|19=801000202|39=2|1=MA03|55=PALM|48=696642107|22=1|54=2|38=0|40=2|44=0.000000000000000|32=500|31=35.500000000000000|30=O|29=4|14=0|6=0.000000000000000|75=20000726|60=20000726-14:40:26|10=110|
539	8=FIX.4.0|9=302|35=8|49=BRAS|56=STAF|34=539|52=20000726-14:40:25|37=BRST0207000203|11=20000726BRAS185MANUAL|76=GSCO|17=801000203|20=0|19=801000203|39=2|1=MA03|55=PALM|48=696642107|22=1|54=2|38=0|40=2|44=0.000000000000000|32=500|31=35.500000000000000|30=O|29=4|14=0|6=0.000000000000000|75=20000726|60=20000726-14:40:27|10=125|
540	8=FIX.4.0|9=302|35=8|49=BRAS|56=STAF|34=540|52=20000726-14:40:26|37=BRST0207000204|11=20000726BRAS186MANUAL|76=INCA|17=801000204|20=0|19=801000204|39=2|1=MA03|55=PALM|48=696642107|22=1|54=2|38=0|40=2|44=0.000000000000000|32=500|31=35.515625000000000|30=O|29=4|14=0|6=0.000000000000000|75=20000726|60=20000726-14:40:28|10=125|
541	8=FIX.4.0|9=302|35=8|49=BRAS|56=STAF|34=541|52=20000726-14:40:39|37=BRST0207000205|11=20000726BRAS187MANUAL|76=ARCA|17=801000205|20=0|19=801000205|39=2|1=MA03|55=VGNX|48=922196100|22=1|54=1|38=0|40=2|44=0.000000000000000|32=200|31=24.000000000000000|30=O|29=4|14=0|6=0.000000000000000|75=20000726|60=20000726-14:40:41|10=109|
542	8=FIX.4.0|9=67|35=0|49=BRAS|56=STAF|34=542|50=ADMIN|57=ADMIN|52=20000726-14:41:03|10=228|
543	8=FIX.4.0|9=58|35=0|49=BRAS|56=STAF|34=543|52=20000726-14:41:03|112=TEST|10=216|
544	8=FIX.4.0|9=67|35=0|49=BRAS|56=STAF|34=544|50=ADMIN|57=ADMIN|52=20000726-14:41:23|10=232|
545	8=FIX.4.0|9=67|35=0|49=BRAS|56=STAF|34=545|50=ADMIN|57=ADMIN|52=20000726-14:41:43|10=235|
546	8=FIX.4.0|9=302|35=8|49=BRAS|56=STAF|34=546|52=20000726-14:42:00|37=BRST0207000207|11=20000726BRAS189MANUAL|76=MSCO|17=801000207|20=0|19=801000207|39=2|1=MA03|55=PALM|48=696642107|22=1|54=2|38=0|40=2|44=0.000000000000000|32=500|31=35.500000000000000|30=O|29=4|14=0|6=0.000000000000000|75=20000726|60=20000726-14:42:02|10=135|
547	8=FIX.4.0|9=302|35=8|49=BRAS|56=STAF|34=547|52=20000726-14:42:01|37=BRST0207000208|11=20000726BRAS190MANUAL|76=INCA|17=801000208|20=0|19=801000208|39=2|1=MA03|55=PALM|48=696642107|22=1|54=2|38=0|40=2|44=0.000000000000000|32=500|31=35.500000000000000|30=O|29=4|14=0|6=0.000000000000000|75=20000726|60=20000726-14:42:03|10=110|
548	8=FIX.4.0|9=67|35=0|49=BRAS|56=STAF|34=548|50=ADMIN|57=ADMIN|52=20000726-14:42:21|10=235|
549	8=FIX.4.0|9=67|35=0|49=BRAS|56=STAF|34=549|50=ADMIN|57=ADMIN|52=20000726-14:42:43|10=240|
550	8=FIX.4.0|9=58|35=0|49=BRAS|56=STAF|34=550|52=20000726-14:42:43|112=TEST|10=219|
551	8=FIX.4.0|9=67|35=0|49=BRAS|56=STAF|34=551|50=ADMIN|57=ADMIN|52=20000726-14:43:03|10=230|
552	8=FIX.4.0|9=67|35=0|49=BRAS|56=STAF|34=552|50=ADMIN|57=ADMIN|52=20000726-14:43:23|10=233|
553	8=FIX.4.0|9=303|35=8|49=BRAS|56=STAF|34=553|52=20000726-14:43:23|37=BRST0207000209|11=20000726BRAS191MANUAL|76=INCA|17=801000209|20=0|19=801000209|39=1|1=FH04|55=WEBM|48=94768C108|22=1|54=2|38=0|40=2|44=0.000000000000000|32=100|31=132.062500000000000|30=O|29=4|14=0|6=0.000000000000000|75=20000726|60=20000726-14:43:25|10=194|
554	8=FIX.4.0|9=67|35=0|49=BRAS|56=STAF|34=554|50=ADMIN|57=ADMIN|52=20000726-14:43:43|10=237|
555	8=FIX.4.0|9=67|35=0|49=BRAS|56=STAF|34=555|50=ADMIN|57=ADMIN|52=20000726-14:44:03|10=235|
556	8=FIX.4.0|9=302|35=8|49=BRAS|56=STAF|34=556|52=20000726-14:44:18|37=BRST0207000210|11=20000726BRAS192MANUAL|76=BTRD|17=801000210|20=0|19=801000210|39=2|1=MA03|55=CYMI|48=232572107|22=1|54=2|38=0|40=2|44=0.000000000000000|32=100|31=50.000000000000000|30=O|29=4|14=0|6=0.000000000000000|75=20000726|60=20000726-14:44:20|10=103|
557	8=FIX.4.0|9=58|35=0|49=BRAS|56=STAF|34=557|52=20000726-14:44:41|112=TEST|10=226|
558	8=FIX.4.0|9=67|35=0|49=BRAS|56=STAF|34=558|50=ADMIN|57=ADMIN|52=20000726-14:45:01|10=237|
559	8=FIX.4.0|9=303|35=8|49=BRAS|56=STAF|34=559|52=20000726-14:45:04|37=BRST0207000211|11=20000726BRAS193MANUAL|76=FBRC|17=801000211|20=0|19=801000211|39=2|1=FH04|55=WEBM|48=94768C108|22=1|54=5|38=0|40=2|44=0.000000000000000|32=100|31=132.000000000000000|30=O|29=4|14=0|6=0.000000000000000|75=20000726|60=20000726-14:45:05|10=175|
560	8=FIX.4.0|9=58|35=0|49=BRAS|56=STAF|34=560|52=20000726-14:45:27|112=TEST|10=225|
561	8=FIX.4.0|9=300|35=8|49=BRAS|56=STAF|34=561|52=20000726-14:45:30|37=BRST0207000212|11=20000726BRAS194MANUAL|76=SWFT|17=801000212|20=0|19=801000212|39=2|1=MA03|55=PALM|48=696642107|22=1|54=2|38=0|40=2|44=0.000000000000000|32=5|31=35.687500000000000|30=O|29=4|14=0|6=0.000000000000000|75=20000726|60=20000726-14:45:32|10=069|
562	8=FIX.4.0|9=58|35=0|49=BRAS|56=STAF|34=562|52=20000726-14:45:53|112=TEST|10=226|
563	8=FIX.4.0|9=67|35=0|49=BRAS|56=STAF|34=563|50=ADMIN|57=ADMIN|52=20000726-14:46:13|10=237|
564	8=FIX.4.0|9=67|35=0|49=BRAS|56=STAF|34=564|50=ADMIN|57=ADMIN|52=20000726-14:46:33|10=240|
565	8=FIX.4.0|9=67|35=0|49=BRAS|56=STAF|34=565|50=ADMIN|57=ADMIN|52=20000726-14:46:53|10=243|
566	8=FIX.4.0|9=67|35=0|49=BRAS|56=STAF|34=566|50=ADMIN|57=ADMIN|52=20000726-14:47:13|10=241|
567	8=FIX.4.0|9=67|35=0|49=BRAS|56=STAF|34=567|50=ADMIN|57=ADMIN|52=20000726-14:47:33|10=244|
568	8=FIX.4.0|9=303|35=8|49=BRAS|56=STAF|34=568|52=20000726-14:47:40|37=BRST0207000213|11=20000726BRAS195MANUAL|76=ISLD|17=801000213|20=0|19=801000213|39=2|1=MA03|55=INKT|48=457277101|22=1|54=1|38=0|40=2|44=0.000000000000000|32=500|31=111.375000000000000|30=O|29=4|14=0|6=0.000000000000000|75=20000726|60=20000726-14:47:41|10=196|
569	8=FIX.4.0|9=303|35=8|49=BRAS|56=STAF|34=569|52=20000726-14:47:42|37=BRST0207000214|11=20000726BRAS196MANUAL|76=INCA|17=801000214|20=0|19=801000214|39=2|1=MA03|55=INKT|48=457277101|22=1|54=1|38=0|40=2|44=0.000000000000000|32=500|31=111.375000000000000|30=O|29=4|14=0|6=0.000000000000000|75=20000726|60=20000726-14:47:43|10=188|
570	8=FIX.4.0|9=302|35=8|49=BRAS|56=STAF|34=570|52=20000726-14:47:51|37=BRST0207000215|11=20000726BRAS197MANUAL|76=MSCO|17=801000215|20=0|19=801000215|39=2|1=MA03|55=PALM|48=696642107|22=1|54=2|38=0|40=2|44=0.000000000000000|32=100|31=35.687500000000000|30=O|29=4|14=0|6=0.000000000000000|75=20000726|60=20000726-14:47:53|10=167|
571	8=FIX.4.0|9=303|35=8|49=BRAS|56=STAF|34=571|52=20000726-14:48:07|37=BRST0207000216|11=20000726BRAS198MANUAL|76=COST|17=801000216|20=0|19=801000216|39=2|1=MA03|55=INKT|48=457277101|22=1|54=1|38=0|40=2|44=0.000000000000000|32=200|31=111.312500000000000|30=O|29=4|14=0|6=0.000000000000000|75=20000726|60=20000726-14:48:09|10=217|
572	8=FIX.4.0|9=58|35=0|49=BRAS|56=STAF|34=572|52=20000726-14:48:29|112=TEST|10=233|
573	8=FIX.4.0|9=67|35=0|49=BRAS|56=STAF|34=573|50=ADMIN|57=ADMIN|52=20000726-14:48:49|10=249|
574	8=FIX.4.0|9=302|35=8|49=BRAS|56=STAF|34=574|52=20000726-14:49:04|37=BRST0207000217|11=20000726BRAS199MANUAL|76=ISLD|17=801000217|20=0|19=801000217|39=2|1=MA03|55=KREM|48=501014104|22=1|54=1|38=0|40=2|44=0.000000000000000|32=100|31=69.000000000000000|30=O|29=4|14=0|6=0.000000000000000|75=20000726|60=20000726-14:49:06|10=133|
575	8=FIX.4.0|9=71|35=1|49=BRAS|56=STAF|34=575|52=20000726-14:49:25|112=20000726-14:49:25|10=016|
576	8=FIX.4.0|9=303|35=8|49=BRAS|56=STAF|34=576|52=20000726-14:49:25|37=BRST0207000218|11=20000726BRAS200MANUAL|76=FBRC|17=801000218|20=0|19=801000218|39=2|1=FH04|55=WEBM|48=94768C108|22=1|54=5|38=0|40=2|44=0.000000000000000|32=100|31=132.000000000000000|30=O|29=4|14=0|6=0.000000000000000|75=20000726|60=20000726-14:49:27|10=199|
577	8=FIX.4.0|9=67|35=0|49=BRAS|56=STAF|34=577|50=ADMIN|57=ADMIN|52=20000726-14:49:45|10=250|
578	8=FIX.4.0|9=67|35=0|49=BRAS|56=STAF|34=578|50=ADMIN|57=ADMIN|52=20000726-14:50:05|10=239|
579	8=FIX.4.0|9=67|35=0|49=BRAS|56=STAF|34=579|50=ADMIN|57=ADMIN|52=20000726-14:50:25|10=242|
580	8=FIX.4.0|9=302|35=8|49=BRAS|56=STAF|34=580|52=20000726-14:50:36|37=BRST0207000219|11=20000726BRAS201MANUAL|76=JPMS|17=801000219|20=0|19=801000219|39=2|1=SD01|55=FDRY|48=35063R100|22=1|54=5|38=0|40=2|44=0.000000000000000|32=300|31=82.812500000000000|30=O|29=4|14=0|6=0.000000000000000|75=20000726|60=20000726-14:50:38|10=194|
581	8=FIX.4.0|9=58|35=0|49=BRAS|56=STAF|34=581|52=20000726-14:50:59|112=TEST|10=229|
582	8=FIX.4.0|9=302|35=8|49=BRAS|56=STAF|34=582|52=20000726-14:51:00|37=BRST0207000220|11=20000726BRAS202MANUAL|76=SCOT|17=801000220|20=0|19=801000220|39=2|1=MA03|55=KREM|48=501014104|22=1|54=1|38=0|40=2|44=0.000000000000000|32=100|31=68.000000000000000|30=O|29=4|14=0|6=0.000000000000000|75=20000726|60=20000726-14:51:02|10=089|
