1	8=FIX.4.0|9=68|35=A|49=STAF|56=BRAS|34=1|52=20000726-12:29:28|57=ADMIN|98=0|108=20|10=163|
2	8=FIX.4.0|9=68|35=A|49=STAF|56=BRAS|34=2|52=20000726-12:29:28|57=ADMIN|98=0|108=20|10=164|
3	8=FIX.4.0|9=56|35=0|49=STAF|56=BRAS|34=3|52=20000726-12:29:48|57=ADMIN|10=123|
4	8=FIX.4.0|9=68|35=A|49=STAF|56=BRAS|34=4|52=20000726-12:30:18|57=ADMIN|98=0|108=20|10=157|
5	8=FIX.4.0|9=68|35=A|49=STAF|56=BRAS|34=5|52=20000726-12:30:18|57=ADMIN|98=0|108=20|10=158|
6	8=FIX.4.0|9=56|35=0|49=STAF|56=BRAS|34=6|52=20000726-12:30:38|57=ADMIN|10=117|
7	8=FIX.4.0|9=56|35=0|49=STAF|56=BRAS|34=7|52=20000726-12:30:58|57=ADMIN|10=120|
8	8=FIX.4.0|9=56|35=0|49=STAF|56=BRAS|34=8|52=20000726-12:31:18|57=ADMIN|10=118|
9	8=FIX.4.0|9=56|35=0|49=STAF|56=BRAS|34=9|52=20000726-12:31:38|57=ADMIN|10=121|
10	8=FIX.4.0|9=57|35=0|49=STAF|56=BRAS|34=10|52=20000726-12:31:58|57=ADMIN|10=164|
11	8=FIX.4.0|9=57|35=0|49=STAF|56=BRAS|34=11|52=20000726-12:32:18|57=ADMIN|10=162|
12	8=FIX.4.0|9=57|35=0|49=STAF|56=BRAS|34=12|52=20000726-12:32:38|57=ADMIN|10=165|
13	8=FIX.4.0|9=57|35=0|49=STAF|56=BRAS|34=13|52=20000726-12:32:58|57=ADMIN|10=168|
14	8=FIX.4.0|9=57|35=0|49=STAF|56=BRAS|34=14|52=20000726-12:33:18|57=ADMIN|10=166|
15	8=FIX.4.0|9=57|35=0|49=STAF|56=BRAS|34=15|52=20000726-12:33:38|57=ADMIN|10=169|
16	8=FIX.4.0|9=57|35=0|49=STAF|56=BRAS|34=16|52=20000726-12:33:58|57=ADMIN|10=172|
17	8=FIX.4.0|9=57|35=0|49=STAF|56=BRAS|34=17|52=20000726-12:34:19|57=ADMIN|10=171|
18	8=FIX.4.0|9=57|35=0|49=STAF|56=BRAS|34=18|52=20000726-12:34:39|57=ADMIN|10=174|
19	8=FIX.4.0|9=57|35=0|49=STAF|56=BRAS|34=19|52=20000726-12:34:59|57=ADMIN|10=177|
20	8=FIX.4.0|9=57|35=0|49=STAF|56=BRAS|34=20|52=20000726-12:35:19|57=ADMIN|10=166|
21	8=FIX.4.0|9=57|35=0|49=STAF|56=BRAS|34=21|52=20000726-12:35:39|57=ADMIN|10=169|
22	8=FIX.4.0|9=57|35=0|49=STAF|56=BRAS|34=22|52=20000726-12:35:59|57=ADMIN|10=172|
23	8=FIX.4.0|9=57|35=0|49=STAF|56=BRAS|34=23|52=20000726-12:36:19|57=ADMIN|10=170|
24	8=FIX.4.0|9=57|35=0|49=STAF|56=BRAS|34=24|52=20000726-12:36:39|57=ADMIN|10=173|
25	8=FIX.4.0|9=57|35=0|49=STAF|56=BRAS|34=25|52=20000726-12:36:59|57=ADMIN|10=176|
26	8=FIX.4.0|9=57|35=0|49=STAF|56=BRAS|34=26|52=20000726-12:37:19|57=ADMIN|10=174|
27	8=FIX.4.0|9=57|35=0|49=STAF|56=BRAS|34=27|52=20000726-12:37:39|57=ADMIN|10=177|
28	8=FIX.4.0|9=57|35=0|49=STAF|56=BRAS|34=28|52=20000726-12:37:59|57=ADMIN|10=180|
29	8=FIX.4.0|9=57|35=0|49=STAF|56=BRAS|34=29|52=20000726-12:38:19|57=ADMIN|10=178|
30	8=FIX.4.0|9=57|35=0|49=STAF|56=BRAS|34=30|52=20000726-12:38:39|57=ADMIN|10=172|
31	8=FIX.4.0|9=57|35=0|49=STAF|56=BRAS|34=31|52=20000726-12:38:59|57=ADMIN|10=175|
32	8=FIX.4.0|9=57|35=0|49=STAF|56=BRAS|34=32|52=20000726-12:39:19|57=ADMIN|10=173|
33	8=FIX.4.0|9=57|35=0|49=STAF|56=BRAS|34=33|52=20000726-12:39:39|57=ADMIN|10=176|
34	8=FIX.4.0|9=57|35=0|49=STAF|56=BRAS|34=34|52=20000726-12:39:59|57=ADMIN|10=179|
35	8=FIX.4.0|9=57|35=0|49=STAF|56=BRAS|34=35|52=20000726-12:40:19|57=ADMIN|10=168|
36	8=FIX.4.0|9=57|35=0|49=STAF|56=BRAS|34=36|52=20000726-12:40:39|57=ADMIN|10=171|
37	8=FIX.4.0|9=57|35=0|49=STAF|56=BRAS|34=37|52=20000726-12:40:59|57=ADMIN|10=174|
38	8=FIX.4.0|9=57|35=0|49=STAF|56=BRAS|34=38|52=20000726-12:41:19|57=ADMIN|10=172|
39	8=FIX.4.0|9=57|35=0|49=STAF|56=BRAS|34=39|52=20000726-12:41:39|57=ADMIN|10=175|
40	8=FIX.4.0|9=57|35=0|49=STAF|56=BRAS|34=40|52=20000726-12:41:59|57=ADMIN|10=169|
41	8=FIX.4.0|9=57|35=0|49=STAF|56=BRAS|34=41|52=20000726-12:42:19|57=ADMIN|10=167|
42	8=FIX.4.0|9=57|35=0|49=STAF|56=BRAS|34=42|52=20000726-12:42:39|57=ADMIN|10=170|
43	8=FIX.4.0|9=57|35=0|49=STAF|56=BRAS|34=43|52=20000726-12:42:59|57=ADMIN|10=173|
44	8=FIX.4.0|9=57|35=0|49=STAF|56=BRAS|34=44|52=20000726-12:43:19|57=ADMIN|10=171|
45	8=FIX.4.0|9=57|35=0|49=STAF|56=BRAS|34=45|52=20000726-12:43:39|57=ADMIN|10=174|
46	8=FIX.4.0|9=57|35=0|49=STAF|56=BRAS|34=46|52=20000726-12:44:00|57=ADMIN|10=164|
47	8=FIX.4.0|9=57|35=0|49=STAF|56=BRAS|34=47|52=20000726-12:44:20|57=ADMIN|10=167|
48	8=FIX.4.0|9=57|35=0|49=STAF|56=BRAS|34=48|52=20000726-12:44:40|57=ADMIN|10=170|
49	8=FIX.4.0|9=57|35=0|49=STAF|56=BRAS|34=49|52=20000726-12:45:00|57=ADMIN|10=168|
50	8=FIX.4.0|9=57|35=0|49=STAF|56=BRAS|34=50|52=20000726-12:45:20|57=ADMIN|10=162|
51	8=FIX.4.0|9=57|35=0|49=STAF|56=BRAS|34=51|52=20000726-12:45:40|57=ADMIN|10=165|
52	8=FIX.4.0|9=57|35=0|49=STAF|56=BRAS|34=52|52=20000726-12:46:00|57=ADMIN|10=163|
53	8=FIX.4.0|9=57|35=0|49=STAF|56=BRAS|34=53|52=20000726-12:46:20|57=ADMIN|10=166|
54	8=FIX.4.0|9=57|35=0|49=STAF|56=BRAS|34=54|52=20000726-12:46:40|57=ADMIN|10=169|
55	8=FIX.4.0|9=57|35=0|49=STAF|56=BRAS|34=55|52=20000726-12:47:00|57=ADMIN|10=167|
56	8=FIX.4.0|9=57|35=0|49=STAF|56=BRAS|34=56|52=20000726-12:47:20|57=ADMIN|10=170|
57	8=FIX.4.0|9=57|35=0|49=STAF|56=BRAS|34=57|52=20000726-12:47:40|57=ADMIN|10=173|
58	8=FIX.4.0|9=57|35=0|49=STAF|56=BRAS|34=58|52=20000726-12:48:00|57=ADMIN|10=171|
59	8=FIX.4.0|9=57|35=0|49=STAF|56=BRAS|34=59|52=20000726-12:48:20|57=ADMIN|10=174|
60	8=FIX.4.0|9=66|35=1|49=STAF|56=BRAS|34=60|52=20000726-12:48:22|57=ADMIN|112=TEST|10=187|
61	8=FIX.4.0|9=57|35=0|49=STAF|56=BRAS|34=61|52=20000726-12:48:42|57=ADMIN|10=171|
62	8=FIX.4.0|9=57|35=0|49=STAF|56=BRAS|34=62|52=20000726-12:49:02|57=ADMIN|10=169|
63	8=FIX.4.0|9=57|35=0|49=STAF|56=BRAS|34=63|52=20000726-12:49:22|57=ADMIN|10=172|
64	8=FIX.4.0|9=57|35=0|49=STAF|56=BRAS|34=64|52=20000726-12:49:43|57=ADMIN|10=176|
65	8=FIX.4.0|9=57|35=0|49=STAF|56=BRAS|34=65|52=20000726-12:50:03|57=ADMIN|10=165|
66	8=FIX.4.0|9=57|35=0|49=STAF|56=BRAS|34=66|52=20000726-12:50:23|57=ADMIN|10=168|
67	8=FIX.4.0|9=57|35=0|49=STAF|56=BRAS|34=67|52=20000726-12:50:43|57=ADMIN|10=171|
68	8=FIX.4.0|9=57|35=0|49=STAF|56=BRAS|34=68|52=20000726-12:51:03|57=ADMIN|10=169|
69	8=FIX.4.0|9=57|35=0|49=STAF|56=BRAS|34=69|52=20000726-12:51:23|57=ADMIN|10=172|
70	8=FIX.4.0|9=57|35=0|49=STAF|56=BRAS|34=70|52=20000726-12:51:43|57=ADMIN|10=166|
71	8=FIX.4.0|9=57|35=0|49=STAF|56=BRAS|34=71|52=20000726-12:52:03|57=ADMIN|10=164|
72	8=FIX.4.0|9=57|35=0|49=STAF|56=BRAS|34=72|52=20000726-12:52:23|57=ADMIN|10=167|
73	8=FIX.4.0|9=57|35=0|49=STAF|56=BRAS|34=73|52=20000726-12:52:43|57=ADMIN|10=170|
74	8=FIX.4.0|9=57|35=0|49=STAF|56=BRAS|34=74|52=20000726-12:53:03|57=ADMIN|10=168|
75	8=FIX.4.0|9=57|35=0|49=STAF|56=BRAS|34=75|52=20000726-12:53:23|57=ADMIN|10=171|
76	8=FIX.4.0|9=57|35=0|49=STAF|56=BRAS|34=76|52=20000726-12:53:43|57=ADMIN|10=174|
77	8=FIX.4.0|9=57|35=0|49=STAF|56=BRAS|34=77|52=20000726-12:54:03|57=ADMIN|10=172|
78	8=FIX.4.0|9=57|35=0|49=STAF|56=BRAS|34=78|52=20000726-12:54:23|57=ADMIN|10=175|
79	8=FIX.4.0|9=57|35=0|49=STAF|56=BRAS|34=79|52=20000726-12:54:43|57=ADMIN|10=178|
80	8=FIX.4.0|9=57|35=0|49=STAF|56=BRAS|34=80|52=20000726-12:55:03|57=ADMIN|10=167|
81	8=FIX.4.0|9=57|35=0|49=STAF|56=BRAS|34=81|52=20000726-12:55:23|57=ADMIN|10=170|
82	8=FIX.4.0|9=57|35=0|49=STAF|56=BRAS|34=82|52=20000726-12:55:43|57=ADMIN|10=173|
83	8=FIX.4.0|9=57|35=0|49=STAF|56=BRAS|34=83|52=20000726-12:56:03|57=ADMIN|10=171|
84	8=FIX.4.0|9=57|35=0|49=STAF|56=BRAS|34=84|52=20000726-12:56:24|57=ADMIN|10=175|
85	8=FIX.4.0|9=57|35=0|49=STAF|56=BRAS|34=85|52=20000726-12:56:45|57=ADMIN|10=179|
86	8=FIX.4.0|9=57|35=0|49=STAF|56=BRAS|34=86|52=20000726-12:57:05|57=ADMIN|10=177|
87	8=FIX.4.0|9=57|35=0|49=STAF|56=BRAS|34=87|52=20000726-12:57:25|57=ADMIN|10=180|
88	8=FIX.4.0|9=57|35=0|49=STAF|56=BRAS|34=88|52=20000726-12:57:45|57=ADMIN|10=183|
89	8=FIX.4.0|9=57|35=0|49=STAF|56=BRAS|34=89|52=20000726-12:58:06|57=ADMIN|10=182|
90	8=FIX.4.0|9=57|35=0|49=STAF|56=BRAS|34=90|52=20000726-12:58:26|57=ADMIN|10=176|
91	8=FIX.4.0|9=57|35=0|49=STAF|56=BRAS|34=91|52=20000726-12:58:46|57=ADMIN|10=179|
92	8=FIX.4.0|9=57|35=0|49=STAF|56=BRAS|34=92|52=20000726-12:59:06|57=ADMIN|10=177|
93	8=FIX.4.0|9=57|35=0|49=STAF|56=BRAS|34=93|52=20000726-12:59:26|57=ADMIN|10=180|
94	8=FIX.4.0|9=57|35=0|49=STAF|56=BRAS|34=94|52=20000726-12:59:46|57=ADMIN|10=183|
95	8=FIX.4.0|9=57|35=0|49=STAF|56=BRAS|34=95|52=20000726-13:00:06|57=ADMIN|10=167|
96	8=FIX.4.0|9=57|35=0|49=STAF|56=BRAS|34=96|52=20000726-13:00:26|57=ADMIN|10=170|
97	8=FIX.4.0|9=57|35=0|49=STAF|56=BRAS|34=97|52=20000726-13:00:46|57=ADMIN|10=173|
98	8=FIX.4.0|9=57|35=0|49=STAF|56=BRAS|34=98|52=20000726-13:01:06|57=ADMIN|10=171|
99	8=FIX.4.0|9=57|35=0|49=STAF|56=BRAS|34=99|52=20000726-13:01:26|57=ADMIN|10=174|
100	8=FIX.4.0|9=58|35=0|49=STAF|56=BRAS|34=100|52=20000726-13:01:46|57=ADMIN|10=208|
101	8=FIX.4.0|9=58|35=0|49=STAF|56=BRAS|34=101|52=20000726-13:02:06|57=ADMIN|10=206|
102	8=FIX.4.0|9=58|35=0|49=STAF|56=BRAS|34=102|52=20000726-13:02:26|57=ADMIN|10=209|
103	8=FIX.4.0|9=58|35=0|49=STAF|56=BRAS|34=103|52=20000726-13:02:46|57=ADMIN|10=212|
104	8=FIX.4.0|9=58|35=0|49=STAF|56=BRAS|34=104|52=20000726-13:03:06|57=ADMIN|10=210|
105	8=FIX.4.0|9=58|35=0|49=STAF|56=BRAS|34=105|52=20000726-13:03:26|57=ADMIN|10=213|
106	8=FIX.4.0|9=58|35=0|49=STAF|56=BRAS|34=106|52=20000726-13:03:46|57=ADMIN|10=216|
107	8=FIX.4.0|9=58|35=0|49=STAF|56=BRAS|34=107|52=20000726-13:04:06|57=ADMIN|10=214|
108	8=FIX.4.0|9=58|35=0|49=STAF|56=BRAS|34=108|52=20000726-13:04:26|57=ADMIN|10=217|
109	8=FIX.4.0|9=58|35=0|49=STAF|56=BRAS|34=109|52=20000726-13:04:46|57=ADMIN|10=220|
110	8=FIX.4.0|9=58|35=0|49=STAF|56=BRAS|34=110|52=20000726-13:05:06|57=ADMIN|10=209|
111	8=FIX.4.0|9=58|35=0|49=STAF|56=BRAS|34=111|52=20000726-13:05:26|57=ADMIN|10=212|
112	8=FIX.4.0|9=58|35=0|49=STAF|56=BRAS|34=112|52=20000726-13:05:46|57=ADMIN|10=215|
113	8=FIX.4.0|9=58|35=0|49=STAF|56=BRAS|34=113|52=20000726-13:06:06|57=ADMIN|10=213|
114	8=FIX.4.0|9=58|35=0|49=STAF|56=BRAS|34=114|52=20000726-13:06:26|57=ADMIN|10=216|
115	8=FIX.4.0|9=58|35=0|49=STAF|56=BRAS|34=115|52=20000726-13:06:46|57=ADMIN|10=219|
116	8=FIX.4.0|9=58|35=0|49=STAF|56=BRAS|34=116|52=20000726-13:07:06|57=ADMIN|10=217|
117	8=FIX.4.0|9=58|35=0|49=STAF|56=BRAS|34=117|52=20000726-13:07:26|57=ADMIN|10=220|
118	8=FIX.4.0|9=58|35=0|49=STAF|56=BRAS|34=118|52=20000726-13:07:46|57=ADMIN|10=223|
119	8=FIX.4.0|9=58|35=0|49=STAF|56=BRAS|34=119|52=20000726-13:08:06|57=ADMIN|10=221|
120	8=FIX.4.0|9=58|35=0|49=STAF|56=BRAS|34=120|52=20000726-13:08:26|57=ADMIN|10=215|
121	8=FIX.4.0|9=58|35=0|49=STAF|56=BRAS|34=121|52=20000726-13:08:46|57=ADMIN|10=218|
122	8=FIX.4.0|9=58|35=0|49=STAF|56=BRAS|34=122|52=20000726-13:09:06|57=ADMIN|10=216|
123	8=FIX.4.0|9=58|35=0|49=STAF|56=BRAS|34=123|52=20000726-13:09:27|57=ADMIN|10=220|
124	8=FIX.4.0|9=58|35=0|49=STAF|56=BRAS|34=124|52=20000726-13:09:47|57=ADMIN|10=223|
125	8=FIX.4.0|9=58|35=0|49=STAF|56=BRAS|34=125|52=20000726-13:10:07|57=ADMIN|10=212|
126	8=FIX.4.0|9=58|35=0|49=STAF|56=BRAS|34=126|52=20000726-13:10:27|57=ADMIN|10=215|
127	8=FIX.4.0|9=58|35=0|49=STAF|56=BRAS|34=127|52=20000726-13:10:47|57=ADMIN|10=218|
128	8=FIX.4.0|9=58|35=0|49=STAF|56=BRAS|34=128|52=20000726-13:11:07|57=ADMIN|10=216|
129	8=FIX.4.0|9=58|35=0|49=STAF|56=BRAS|34=129|52=20000726-13:11:27|57=ADMIN|10=219|
130	8=FIX.4.0|9=58|35=0|49=STAF|56=BRAS|34=130|52=20000726-13:11:47|57=ADMIN|10=213|
131	8=FIX.4.0|9=58|35=0|49=STAF|56=BRAS|34=131|52=20000726-13:12:07|57=ADMIN|10=211|
132	8=FIX.4.0|9=58|35=0|49=STAF|56=BRAS|34=132|52=20000726-13:12:27|57=ADMIN|10=214|
133	8=FIX.4.0|9=58|35=0|49=STAF|56=BRAS|34=133|52=20000726-13:12:47|57=ADMIN|10=217|
134	8=FIX.4.0|9=58|35=0|49=STAF|56=BRAS|34=134|52=20000726-13:13:07|57=ADMIN|10=215|
135	8=FIX.4.0|9=58|35=0|49=STAF|56=BRAS|34=135|52=20000726-13:13:27|57=ADMIN|10=218|
136	8=FIX.4.0|9=58|35=0|49=STAF|56=BRAS|34=136|52=20000726-13:13:47|57=ADMIN|10=221|
137	8=FIX.4.0|9=58|35=0|49=STAF|56=BRAS|34=137|52=20000726-13:14:07|57=ADMIN|10=219|
138	8=FIX.4.0|9=58|35=0|49=STAF|56=BRAS|34=138|52=20000726-13:14:27|57=ADMIN|10=222|
139	8=FIX.4.0|9=58|35=0|49=STAF|56=BRAS|34=139|52=20000726-13:14:47|57=ADMIN|10=225|
140	8=FIX.4.0|9=58|35=0|49=STAF|56=BRAS|34=140|52=20000726-13:15:07|57=ADMIN|10=214|
141	8=FIX.4.0|9=58|35=0|49=STAF|56=BRAS|34=141|52=20000726-13:15:27|57=ADMIN|10=217|
142	8=FIX.4.0|9=58|35=0|49=STAF|56=BRAS|34=142|52=20000726-13:15:47|57=ADMIN|10=220|
143	8=FIX.4.0|9=58|35=0|49=STAF|56=BRAS|34=143|52=20000726-13:16:07|57=ADMIN|10=218|
144	8=FIX.4.0|9=58|35=0|49=STAF|56=BRAS|34=144|52=20000726-13:16:27|57=ADMIN|10=221|
145	8=FIX.4.0|9=58|35=0|49=STAF|56=BRAS|34=145|52=20000726-13:16:47|57=ADMIN|10=224|
146	8=FIX.4.0|9=58|35=0|49=STAF|56=BRAS|34=146|52=20000726-13:17:07|57=ADMIN|10=222|
147	8=FIX.4.0|9=58|35=0|49=STAF|56=BRAS|34=147|52=20000726-13:17:27|57=ADMIN|10=225|
148	8=FIX.4.0|9=58|35=0|49=STAF|56=BRAS|34=148|52=20000726-13:17:47|57=ADMIN|10=228|
149	8=FIX.4.0|9=58|35=0|49=STAF|56=BRAS|34=149|52=20000726-13:18:07|57=ADMIN|10=226|
150	8=FIX.4.0|9=58|35=0|49=STAF|56=BRAS|34=150|52=20000726-13:18:27|57=ADMIN|10=220|
151	8=FIX.4.0|9=58|35=0|49=STAF|56=BRAS|34=151|52=20000726-13:18:47|57=ADMIN|10=223|
152	8=FIX.4.0|9=58|35=0|49=STAF|56=BRAS|34=152|52=20000726-13:19:07|57=ADMIN|10=221|
153	8=FIX.4.0|9=58|35=0|49=STAF|56=BRAS|34=153|52=20000726-13:19:27|57=ADMIN|10=224|
154	8=FIX.4.0|9=58|35=0|49=STAF|56=BRAS|34=154|52=20000726-13:19:47|57=ADMIN|10=227|
155	8=FIX.4.0|9=58|35=0|49=STAF|56=BRAS|34=155|52=20000726-13:20:07|57=ADMIN|10=216|
156	8=FIX.4.0|9=58|35=0|49=STAF|56=BRAS|34=156|52=20000726-13:20:27|57=ADMIN|10=219|
157	8=FIX.4.0|9=58|35=0|49=STAF|56=BRAS|34=157|52=20000726-13:20:47|57=ADMIN|10=222|
158	8=FIX.4.0|9=58|35=0|49=STAF|56=BRAS|34=158|52=20000726-13:21:08|57=ADMIN|10=221|
159	8=FIX.4.0|9=58|35=0|49=STAF|56=BRAS|34=159|52=20000726-13:21:28|57=ADMIN|10=224|
160	8=FIX.4.0|9=58|35=0|49=STAF|56=BRAS|34=160|52=20000726-13:21:48|57=ADMIN|10=218|
161	8=FIX.4.0|9=58|35=0|49=STAF|56=BRAS|34=161|52=20000726-13:22:08|57=ADMIN|10=216|
162	8=FIX.4.0|9=58|35=0|49=STAF|56=BRAS|34=162|52=20000726-13:22:28|57=ADMIN|10=219|
163	8=FIX.4.0|9=58|35=0|49=STAF|56=BRAS|34=163|52=20000726-13:22:48|57=ADMIN|10=222|
164	8=FIX.4.0|9=58|35=0|49=STAF|56=BRAS|34=164|52=20000726-13:23:08|57=ADMIN|10=220|
165	8=FIX.4.0|9=58|35=0|49=STAF|56=BRAS|34=165|52=20000726-13:23:28|57=ADMIN|10=223|
166	8=FIX.4.0|9=58|35=0|49=STAF|56=BRAS|34=166|52=20000726-13:23:48|57=ADMIN|10=226|
167	8=FIX.4.0|9=58|35=0|49=STAF|56=BRAS|34=167|52=20000726-13:24:08|57=ADMIN|10=224|
168	8=FIX.4.0|9=58|35=0|49=STAF|56=BRAS|34=168|52=20000726-13:24:28|57=ADMIN|10=227|
169	8=FIX.4.0|9=58|35=0|49=STAF|56=BRAS|34=169|52=20000726-13:24:48|57=ADMIN|10=230|
170	8=FIX.4.0|9=58|35=0|49=STAF|56=BRAS|34=170|52=20000726-13:25:08|57=ADMIN|10=219|
171	8=FIX.4.0|9=58|35=0|49=STAF|56=BRAS|34=171|52=20000726-13:25:28|57=ADMIN|10=222|
172	8=FIX.4.0|9=58|35=0|49=STAF|56=BRAS|34=172|52=20000726-13:25:48|57=ADMIN|10=225|
173	8=FIX.4.0|9=58|35=0|49=STAF|56=BRAS|34=173|52=20000726-13:26:08|57=ADMIN|10=223|
174	8=FIX.4.0|9=58|35=0|49=STAF|56=BRAS|34=174|52=20000726-13:26:28|57=ADMIN|10=226|
175	8=FIX.4.0|9=58|35=0|49=STAF|56=BRAS|34=175|52=20000726-13:26:48|57=ADMIN|10=229|
176	8=FIX.4.0|9=58|35=0|49=STAF|56=BRAS|34=176|52=20000726-13:27:08|57=ADMIN|10=227|
177	8=FIX.4.0|9=58|35=0|49=STAF|56=BRAS|34=177|52=20000726-13:27:28|57=ADMIN|10=230|
178	8=FIX.4.0|9=58|35=0|49=STAF|56=BRAS|34=178|52=20000726-13:27:48|57=ADMIN|10=233|
179	8=FIX.4.0|9=58|35=0|49=STAF|56=BRAS|34=179|52=20000726-13:28:08|57=ADMIN|10=231|
180	8=FIX.4.0|9=58|35=0|49=STAF|56=BRAS|34=180|52=20000726-13:28:28|57=ADMIN|10=225|
181	8=FIX.4.0|9=58|35=0|49=STAF|56=BRAS|34=181|52=20000726-13:28:48|57=ADMIN|10=228|
182	8=FIX.4.0|9=58|35=0|49=STAF|56=BRAS|34=182|52=20000726-13:29:08|57=ADMIN|10=226|
183	8=FIX.4.0|9=58|35=0|49=STAF|56=BRAS|34=183|52=20000726-13:29:28|57=ADMIN|10=229|
184	8=FIX.4.0|9=58|35=0|49=STAF|56=BRAS|34=184|52=20000726-13:29:48|57=ADMIN|10=232|
185	8=FIX.4.0|9=58|35=0|49=STAF|56=BRAS|34=185|52=20000726-13:30:08|57=ADMIN|10=221|
186	8=FIX.4.0|9=58|35=0|49=STAF|56=BRAS|34=186|52=20000726-13:30:28|57=ADMIN|10=224|
187	8=FIX.4.0|9=58|35=0|49=STAF|56=BRAS|34=187|52=20000726-13:30:48|57=ADMIN|10=227|
188	8=FIX.4.0|9=58|35=0|49=STAF|56=BRAS|34=188|52=20000726-13:31:08|57=ADMIN|10=225|
189	8=FIX.4.0|9=58|35=0|49=STAF|56=BRAS|34=189|52=20000726-13:31:28|57=ADMIN|10=228|
190	8=FIX.4.0|9=67|35=1|49=STAF|56=BRAS|34=190|52=20000726-13:31:34|57=ADMIN|112=TEST|10=236|
191	8=FIX.4.0|9=58|35=0|49=STAF|56=BRAS|34=191|52=20000726-13:31:54|57=ADMIN|10=220|
192	8=FIX.4.0|9=58|35=0|49=STAF|56=BRAS|34=192|52=20000726-13:32:14|57=ADMIN|10=218|
193	8=FIX.4.0|9=58|35=0|49=STAF|56=BRAS|34=193|52=20000726-13:32:34|57=ADMIN|10=221|
194	8=FIX.4.0|9=58|35=0|49=STAF|56=BRAS|34=194|52=20000726-13:32:55|57=ADMIN|10=225|
195	8=FIX.4.0|9=58|35=0|49=STAF|56=BRAS|34=195|52=20000726-13:33:15|57=ADMIN|10=223|
196	8=FIX.4.0|9=58|35=0|49=STAF|56=BRAS|34=196|52=20000726-13:33:35|57=ADMIN|10=226|
197	8=FIX.4.0|9=58|35=0|49=STAF|56=BRAS|34=197|52=20000726-13:33:55|57=ADMIN|10=229|
198	8=FIX.4.0|9=58|35=0|49=STAF|56=BRAS|34=198|52=20000726-13:34:15|57=ADMIN|10=227|
199	8=FIX.4.0|9=58|35=0|49=STAF|56=BRAS|34=199|52=20000726-13:34:35|57=ADMIN|10=230|
200	8=FIX.4.0|9=58|35=0|49=STAF|56=BRAS|34=200|52=20000726-13:34:55|57=ADMIN|10=215|
201	8=FIX.4.0|9=58|35=0|49=STAF|56=BRAS|34=201|52=20000726-13:35:15|57=ADMIN|10=213|
202	8=FIX.4.0|9=58|35=0|49=STAF|56=BRAS|34=202|52=20000726-13:35:35|57=ADMIN|10=216|
203	8=FIX.4.0|9=58|35=0|49=STAF|56=BRAS|34=203|52=20000726-13:35:55|57=ADMIN|10=219|
204	8=FIX.4.0|9=58|35=0|49=STAF|56=BRAS|34=204|52=20000726-13:36:15|57=ADMIN|10=217|
205	8=FIX.4.0|9=58|35=0|49=STAF|56=BRAS|34=205|52=20000726-13:36:35|57=ADMIN|10=220|
206	8=FIX.4.0|9=80|35=0|49=STAF|56=BRAS|34=206|52=20000726-13:36:45|57=ADMIN|112=20000726-13:36:41|10=015|
207	8=FIX.4.0|9=58|35=0|49=STAF|56=BRAS|34=207|52=20000726-13:37:05|57=ADMIN|10=220|
208	8=FIX.4.0|9=58|35=0|49=STAF|56=BRAS|34=208|52=20000726-13:37:25|57=ADMIN|10=223|
209	8=FIX.4.0|9=67|35=1|49=STAF|56=BRAS|34=209|52=20000726-13:37:37|57=ADMIN|112=TEST|10=246|
210	8=FIX.4.0|9=58|35=0|49=STAF|56=BRAS|34=210|52=20000726-13:37:57|57=ADMIN|10=221|
211	8=FIX.4.0|9=58|35=0|49=STAF|56=BRAS|34=211|52=20000726-13:38:17|57=ADMIN|10=219|
212	8=FIX.4.0|9=58|35=0|49=STAF|56=BRAS|34=212|52=20000726-13:38:37|57=ADMIN|10=222|
213	8=FIX.4.0|9=58|35=0|49=STAF|56=BRAS|34=213|52=20000726-13:38:57|57=ADMIN|10=225|
214	8=FIX.4.0|9=67|35=1|49=STAF|56=BRAS|34=214|52=20000726-13:39:03|57=ADMIN|112=TEST|10=237|
215	8=FIX.4.0|9=58|35=0|49=STAF|56=BRAS|34=215|52=20000726-13:39:23|57=ADMIN|10=221|
216	8=FIX.4.0|9=67|35=1|49=STAF|56=BRAS|34=216|52=20000726-13:39:33|57=ADMIN|112=TEST|10=242|
217	8=FIX.4.0|9=58|35=0|49=STAF|56=BRAS|34=217|52=20000726-13:39:53|57=ADMIN|10=226|
218	8=FIX.4.0|9=58|35=0|49=STAF|56=BRAS|34=218|52=20000726-13:40:13|57=ADMIN|10=215|
219	8=FIX.4.0|9=67|35=1|49=STAF|56=BRAS|34=219|52=20000726-13:40:23|57=ADMIN|112=TEST|10=236|
220	8=FIX.4.0|9=58|35=0|49=STAF|56=BRAS|34=220|52=20000726-13:40:43|57=ADMIN|10=211|
221	8=FIX.4.0|9=58|35=0|49=STAF|56=BRAS|34=221|52=20000726-13:41:03|57=ADMIN|10=209|
222	8=FIX.4.0|9=58|35=0|49=STAF|56=BRAS|34=222|52=20000726-13:41:23|57=ADMIN|10=212|
223	8=FIX.4.0|9=58|35=0|49=STAF|56=BRAS|34=223|52=20000726-13:41:43|57=ADMIN|10=215|
224	8=FIX.4.0|9=58|35=0|49=STAF|56=BRAS|34=224|52=20000726-13:42:03|57=ADMIN|10=213|
225	8=FIX.4.0|9=58|35=0|49=STAF|56=BRAS|34=225|52=20000726-13:42:23|57=ADMIN|10=216|
226	8=FIX.4.0|9=58|35=0|49=STAF|56=BRAS|34=226|52=20000726-13:42:43|57=ADMIN|10=219|
227	8=FIX.4.0|9=58|35=0|49=STAF|56=BRAS|34=227|52=20000726-13:43:03|57=ADMIN|10=217|
228	8=FIX.4.0|9=58|35=0|49=STAF|56=BRAS|34=228|52=20000726-13:43:23|57=ADMIN|10=220|
229	8=FIX.4.0|9=80|35=0|49=STAF|56=BRAS|34=229|52=20000726-13:43:37|57=ADMIN|112=20000726-13:43:33|10=018|
230	8=FIX.4.0|9=58|35=0|49=STAF|56=BRAS|34=230|52=20000726-13:43:57|57=ADMIN|10=220|
231	8=FIX.4.0|9=58|35=0|49=STAF|56=BRAS|34=231|52=20000726-13:44:18|57=ADMIN|10=219|
232	8=FIX.4.0|9=58|35=0|49=STAF|56=BRAS|34=232|52=20000726-13:44:38|57=ADMIN|10=222|
233	8=FIX.4.0|9=67|35=1|49=STAF|56=BRAS|34=233|52=20000726-13:44:48|57=ADMIN|112=TEST|10=243|
234	8=FIX.4.0|9=58|35=0|49=STAF|56=BRAS|34=234|52=20000726-13:45:08|57=ADMIN|10=222|
235	8=FIX.4.0|9=58|35=0|49=STAF|56=BRAS|34=235|52=20000726-13:45:28|57=ADMIN|10=225|
236	8=FIX.4.0|9=58|35=0|49=STAF|56=BRAS|34=236|52=20000726-13:45:48|57=ADMIN|10=228|
237	8=FIX.4.0|9=58|35=0|49=STAF|56=BRAS|34=237|52=20000726-13:46:08|57=ADMIN|10=226|
238	8=FIX.4.0|9=67|35=1|49=STAF|56=BRAS|34=238|52=20000726-13:46:20|57=ADMIN|112=TEST|10=240|
239	8=FIX.4.0|9=58|35=0|49=STAF|56=BRAS|34=239|52=20000726-13:46:40|57=ADMIN|10=224|
240	8=FIX.4.0|9=67|35=1|49=STAF|56=BRAS|34=240|52=20000726-13:46:56|57=ADMIN|112=TEST|10=242|
241	8=FIX.4.0|9=58|35=0|49=STAF|56=BRAS|34=241|52=20000726-13:47:16|57=ADMIN|10=221|
242	8=FIX.4.0|9=58|35=0|49=STAF|56=BRAS|34=242|52=20000726-13:47:36|57=ADMIN|10=224|
243	8=FIX.4.0|9=58|35=0|49=STAF|56=BRAS|34=243|52=20000726-13:47:56|57=ADMIN|10=227|
244	8=FIX.4.0|9=67|35=1|49=STAF|56=BRAS|34=244|52=20000726-13:48:10|57=ADMIN|112=TEST|10=238|
245	8=FIX.4.0|9=58|35=0|49=STAF|56=BRAS|34=245|52=20000726-13:48:30|57=ADMIN|10=222|
246	8=FIX.4.0|9=58|35=0|49=STAF|56=BRAS|34=246|52=20000726-13:48:50|57=ADMIN|10=225|
247	8=FIX.4.0|9=80|35=0|49=STAF|56=BRAS|34=247|52=20000726-13:49:01|57=ADMIN|112=20000726-13:48:57|10=026|
248	8=FIX.4.0|9=58|35=0|49=STAF|56=BRAS|34=248|52=20000726-13:49:22|57=ADMIN|10=227|
249	8=FIX.4.0|9=58|35=0|49=STAF|56=BRAS|34=249|52=20000726-13:49:42|57=ADMIN|10=230|
250	8=FIX.4.0|9=67|35=1|49=STAF|56=BRAS|34=250|52=20000726-13:49:48|57=ADMIN|112=TEST|10=247|
251	8=FIX.4.0|9=58|35=0|49=STAF|56=BRAS|34=251|52=20000726-13:50:08|57=ADMIN|10=217|
252	8=FIX.4.0|9=58|35=0|49=STAF|56=BRAS|34=252|52=20000726-13:50:28|57=ADMIN|10=220|
253	8=FIX.4.0|9=58|35=0|49=STAF|56=BRAS|34=253|52=20000726-13:50:48|57=ADMIN|10=223|
254	8=FIX.4.0|9=67|35=1|49=STAF|56=BRAS|34=254|52=20000726-13:50:54|57=ADMIN|112=TEST|10=240|
255	8=FIX.4.0|9=58|35=0|49=STAF|56=BRAS|34=255|52=20000726-13:51:14|57=ADMIN|10=219|
256	8=FIX.4.0|9=58|35=0|49=STAF|56=BRAS|34=256|52=20000726-13:51:34|57=ADMIN|10=222|
257	8=FIX.4.0|9=58|35=0|49=STAF|56=BRAS|34=257|52=20000726-13:51:54|57=ADMIN|10=225|
258	8=FIX.4.0|9=58|35=0|49=STAF|56=BRAS|34=258|52=20000726-13:52:14|57=ADMIN|10=223|
259	8=FIX.4.0|9=67|35=1|49=STAF|56=BRAS|34=259|52=20000726-13:52:22|57=ADMIN|112=TEST|10=242|
260	8=FIX.4.0|9=58|35=0|49=STAF|56=BRAS|34=260|52=20000726-13:52:42|57=ADMIN|10=217|
261	8=FIX.4.0|9=58|35=0|49=STAF|56=BRAS|34=261|52=20000726-13:53:02|57=ADMIN|10=215|
262	8=FIX.4.0|9=58|35=0|49=STAF|56=BRAS|34=262|52=20000726-13:53:22|57=ADMIN|10=218|
263	8=FIX.4.0|9=58|35=0|49=STAF|56=BRAS|34=263|52=20000726-13:53:42|57=ADMIN|10=221|
264	8=FIX.4.0|9=58|35=0|49=STAF|56=BRAS|34=264|52=20000726-13:54:02|57=ADMIN|10=219|
265	8=FIX.4.0|9=58|35=0|49=STAF|56=BRAS|34=265|52=20000726-13:54:22|57=ADMIN|10=222|
266	8=FIX.4.0|9=58|35=0|49=STAF|56=BRAS|34=266|52=20000726-13:54:42|57=ADMIN|10=225|
267	8=FIX.4.0|9=58|35=0|49=STAF|56=BRAS|34=267|52=20000726-13:55:02|57=ADMIN|10=223|
268	8=FIX.4.0|9=67|35=1|49=STAF|56=BRAS|34=268|52=20000726-13:55:06|57=ADMIN|112=TEST|10=247|
269	8=FIX.4.0|9=58|35=0|49=STAF|56=BRAS|34=269|52=20000726-13:55:26|57=ADMIN|10=231|
270	8=FIX.4.0|9=67|35=1|49=STAF|56=BRAS|34=270|52=20000726-13:55:30|57=ADMIN|112=TEST|10=237|
271	8=FIX.4.0|9=58|35=0|49=STAF|56=BRAS|34=271|52=20000726-13:55:51|57=ADMIN|10=222|
272	8=FIX.4.0|9=58|35=0|49=STAF|56=BRAS|34=272|52=20000726-13:56:11|57=ADMIN|10=220|
273	8=FIX.4.0|9=58|35=0|49=STAF|56=BRAS|34=273|52=20000726-13:56:31|57=ADMIN|10=223|
274	8=FIX.4.0|9=58|35=0|49=STAF|56=BRAS|34=274|52=20000726-13:56:51|57=ADMIN|10=226|
275	8=FIX.4.0|9=58|35=0|49=STAF|56=BRAS|34=275|52=20000726-13:57:11|57=ADMIN|10=224|
276	8=FIX.4.0|9=58|35=0|49=STAF|56=BRAS|34=276|52=20000726-13:57:31|57=ADMIN|10=227|
277	8=FIX.4.0|9=67|35=1|49=STAF|56=BRAS|34=277|52=20000726-13:57:45|57=ADMIN|112=TEST|10=252|
278	8=FIX.4.0|9=58|35=0|49=STAF|56=BRAS|34=278|52=20000726-13:58:05|57=ADMIN|10=231|
279	8=FIX.4.0|9=67|35=1|49=STAF|56=BRAS|34=279|52=20000726-13:58:19|57=ADMIN|112=TEST|10=000|
280	8=FIX.4.0|9=58|35=0|49=STAF|56=BRAS|34=280|52=20000726-13:58:39|57=ADMIN|10=231|
281	8=FIX.4.0|9=58|35=0|49=STAF|56=BRAS|34=281|52=20000726-13:58:59|57=ADMIN|10=234|
282	8=FIX.4.0|9=58|35=0|49=STAF|56=BRAS|34=282|52=20000726-13:59:19|57=ADMIN|10=232|
283	8=FIX.4.0|9=58|35=0|49=STAF|56=BRAS|34=283|52=20000726-13:59:39|57=ADMIN|10=235|
284	8=FIX.4.0|9=58|35=0|49=STAF|56=BRAS|34=284|52=20000726-13:59:59|57=ADMIN|10=238|
285	8=FIX.4.0|9=80|35=0|49=STAF|56=BRAS|34=285|52=20000726-14:00:07|57=ADMIN|112=20000726-14:00:03|10=002|
286	8=FIX.4.0|9=58|35=0|49=STAF|56=BRAS|34=286|52=20000726-14:00:27|57=ADMIN|10=222|
287	8=FIX.4.0|9=58|35=0|49=STAF|56=BRAS|34=287|52=20000726-14:00:47|57=ADMIN|10=225|
288	8=FIX.4.0|9=67|35=1|49=STAF|56=BRAS|34=288|52=20000726-14:00:55|57=ADMIN|112=TEST|10=244|
289	8=FIX.4.0|9=58|35=0|49=STAF|56=BRAS|34=289|52=20000726-14:01:15|57=ADMIN|10=223|
290	8=FIX.4.0|9=80|35=0|49=STAF|56=BRAS|34=290|52=20000726-14:01:28|57=ADMIN|112=20000726-14:01:24|10=006|
291	8=FIX.4.0|9=58|35=0|49=STAF|56=BRAS|34=291|52=20000726-14:01:49|57=ADMIN|10=223|
292	8=FIX.4.0|9=67|35=1|49=STAF|56=BRAS|34=292|52=20000726-14:01:57|57=ADMIN|112=TEST|10=242|
293	8=FIX.4.0|9=58|35=0|49=STAF|56=BRAS|34=293|52=20000726-14:02:17|57=ADMIN|10=221|
294	8=FIX.4.0|9=80|35=0|49=STAF|56=BRAS|34=294|52=20000726-14:02:22|57=ADMIN|112=20000726-14:02:17|10=008|
295	8=FIX.4.0|9=58|35=0|49=STAF|56=BRAS|34=295|52=20000726-14:02:43|57=ADMIN|10=222|
296	8=FIX.4.0|9=58|35=0|49=STAF|56=BRAS|34=296|52=20000726-14:03:03|57=ADMIN|10=220|
297	8=FIX.4.0|9=67|35=1|49=STAF|56=BRAS|34=297|52=20000726-14:03:09|57=ADMIN|112=TEST|10=246|
298	8=FIX.4.0|9=58|35=0|49=STAF|56=BRAS|34=298|52=20000726-14:03:29|57=ADMIN|10=230|
299	8=FIX.4.0|9=67|35=1|49=STAF|56=BRAS|34=299|52=20000726-14:03:35|57=ADMIN|112=TEST|10=247|
300	8=FIX.4.0|9=67|35=1|49=STAF|56=BRAS|34=300|52=20000726-14:03:37|57=ADMIN|112=TEST|10=232|
301	8=FIX.4.0|9=58|35=0|49=STAF|56=BRAS|34=301|52=20000726-14:03:57|57=ADMIN|10=216|
302	8=FIX.4.0|9=58|35=0|49=STAF|56=BRAS|34=302|52=20000726-14:04:17|57=ADMIN|10=214|
303	8=FIX.4.0|9=58|35=0|49=STAF|56=BRAS|34=303|52=20000726-14:04:37|57=ADMIN|10=217|
304	8=FIX.4.0|9=58|35=0|49=STAF|56=BRAS|34=304|52=20000726-14:04:57|57=ADMIN|10=220|
305	8=FIX.4.0|9=58|35=0|49=STAF|56=BRAS|34=305|52=20000726-14:05:17|57=ADMIN|10=218|
306	8=FIX.4.0|9=58|35=0|49=STAF|56=BRAS|34=306|52=20000726-14:05:37|57=ADMIN|10=221|
307	8=FIX.4.0|9=67|35=1|49=STAF|56=BRAS|34=307|52=20000726-14:05:37|57=ADMIN|112=TEST|10=241|
308	8=FIX.4.0|9=58|35=0|49=STAF|56=BRAS|34=308|52=20000726-14:05:57|57=ADMIN|10=225|
309	8=FIX.4.0|9=80|35=0|49=STAF|56=BRAS|34=309|52=20000726-14:06:09|57=ADMIN|112=20000726-14:06:05|10=015|
310	8=FIX.4.0|9=58|35=0|49=STAF|56=BRAS|34=310|52=20000726-14:06:29|57=ADMIN|10=218|
311	8=FIX.4.0|9=67|35=1|49=STAF|56=BRAS|34=311|52=20000726-14:06:45|57=ADMIN|112=TEST|10=236|
312	8=FIX.4.0|9=58|35=0|49=STAF|56=BRAS|34=312|52=20000726-14:07:05|57=ADMIN|10=215|
313	8=FIX.4.0|9=58|35=0|49=STAF|56=BRAS|34=313|52=20000726-14:07:26|57=ADMIN|10=219|
314	8=FIX.4.0|9=80|35=0|49=STAF|56=BRAS|34=314|52=20000726-14:07:34|57=ADMIN|112=20000726-14:07:30|10=009|
315	8=FIX.4.0|9=58|35=0|49=STAF|56=BRAS|34=315|52=20000726-14:07:54|57=ADMIN|10=222|
316	8=FIX.4.0|9=67|35=1|49=STAF|56=BRAS|34=316|52=20000726-14:08:00|57=ADMIN|112=TEST|10=234|
317	8=FIX.4.0|9=58|35=0|49=STAF|56=BRAS|34=317|52=20000726-14:08:20|57=ADMIN|10=218|
318	8=FIX.4.0|9=67|35=1|49=STAF|56=BRAS|34=318|52=20000726-14:08:38|57=ADMIN|112=TEST|10=247|
319	8=FIX.4.0|9=58|35=0|49=STAF|56=BRAS|34=319|52=20000726-14:08:58|57=ADMIN|10=231|
320	8=FIX.4.0|9=58|35=0|49=STAF|56=BRAS|34=320|52=20000726-14:09:18|57=ADMIN|10=220|
321	8=FIX.4.0|9=67|35=1|49=STAF|56=BRAS|34=321|52=20000726-14:09:28|57=ADMIN|112=TEST|10=241|
322	8=FIX.4.0|9=58|35=0|49=STAF|56=BRAS|34=322|52=20000726-14:09:48|57=ADMIN|10=225|
323	8=FIX.4.0|9=58|35=0|49=STAF|56=BRAS|34=323|52=20000726-14:10:08|57=ADMIN|10=214|
324	8=FIX.4.0|9=58|35=0|49=STAF|56=BRAS|34=324|52=20000726-14:10:28|57=ADMIN|10=217|
325	8=FIX.4.0|9=58|35=0|49=STAF|56=BRAS|34=325|52=20000726-14:10:48|57=ADMIN|10=220|
326	8=FIX.4.0|9=67|35=1|49=STAF|56=BRAS|34=326|52=20000726-14:11:06|57=ADMIN|112=TEST|10=235|
327	8=FIX.4.0|9=80|35=0|49=STAF|56=BRAS|34=327|52=20000726-14:11:11|57=ADMIN|112=20000726-14:11:07|10=002|
328	8=FIX.4.0|9=58|35=0|49=STAF|56=BRAS|34=328|52=20000726-14:11:32|57=ADMIN|10=217|
329	8=FIX.4.0|9=67|35=1|49=STAF|56=BRAS|34=329|52=20000726-14:11:48|57=ADMIN|112=TEST|10=244|
330	8=FIX.4.0|9=58|35=0|49=STAF|56=BRAS|34=330|52=20000726-14:12:08|57=ADMIN|10=214|
331	8=FIX.4.0|9=58|35=0|49=STAF|56=BRAS|34=331|52=20000726-14:12:28|57=ADMIN|10=217|
332	8=FIX.4.0|9=58|35=0|49=STAF|56=BRAS|34=332|52=20000726-14:12:48|57=ADMIN|10=220|
333	8=FIX.4.0|9=58|35=0|49=STAF|56=BRAS|34=333|52=20000726-14:13:08|57=ADMIN|10=218|
334	8=FIX.4.0|9=67|35=1|49=STAF|56=BRAS|34=334|52=20000726-14:13:14|57=ADMIN|112=TEST|10=235|
335	8=FIX.4.0|9=58|35=0|49=STAF|56=BRAS|34=335|52=20000726-14:13:34|57=ADMIN|10=219|
336	8=FIX.4.0|9=58|35=0|49=STAF|56=BRAS|34=336|52=20000726-14:13:54|57=ADMIN|10=222|
337	8=FIX.4.0|9=67|35=1|49=STAF|56=BRAS|34=337|52=20000726-14:13:54|57=ADMIN|112=TEST|10=242|
338	8=FIX.4.0|9=58|35=0|49=STAF|56=BRAS|34=338|52=20000726-14:14:14|57=ADMIN|10=221|
339	8=FIX.4.0|9=67|35=1|49=STAF|56=BRAS|34=339|52=20000726-14:14:20|57=ADMIN|112=TEST|10=238|
340	8=FIX.4.0|9=67|35=1|49=STAF|56=BRAS|34=340|52=20000726-14:14:22|57=ADMIN|112=TEST|10=232|
341	8=FIX.4.0|9=58|35=0|49=STAF|56=BRAS|34=341|52=20000726-14:14:42|57=ADMIN|10=216|
342	8=FIX.4.0|9=67|35=1|49=STAF|56=BRAS|34=342|52=20000726-14:14:48|57=ADMIN|112=TEST|10=242|
343	8=FIX.4.0|9=58|35=0|49=STAF|56=BRAS|34=343|52=20000726-14:15:08|57=ADMIN|10=221|
344	8=FIX.4.0|9=58|35=0|49=STAF|56=BRAS|34=344|52=20000726-14:15:28|57=ADMIN|10=224|
345	8=FIX.4.0|9=80|35=0|49=STAF|56=BRAS|34=345|52=20000726-14:15:41|57=ADMIN|112=20000726-14:15:37|10=016|
346	8=FIX.4.0|9=58|35=0|49=STAF|56=BRAS|34=346|52=20000726-14:16:02|57=ADMIN|10=219|
347	8=FIX.4.0|9=58|35=0|49=STAF|56=BRAS|34=347|52=20000726-14:16:22|57=ADMIN|10=222|
348	8=FIX.4.0|9=58|35=0|49=STAF|56=BRAS|34=348|52=20000726-14:16:42|57=ADMIN|10=225|
349	8=FIX.4.0|9=67|35=1|49=STAF|56=BRAS|34=349|52=20000726-14:16:56|57=ADMIN|112=TEST|10=250|
350	8=FIX.4.0|9=58|35=0|49=STAF|56=BRAS|34=350|52=20000726-14:17:16|57=ADMIN|10=220|
351	8=FIX.4.0|9=80|35=0|49=STAF|56=BRAS|34=351|52=20000726-14:17:23|57=ADMIN|112=20000726-14:17:19|10=017|
352	8=FIX.4.0|9=80|35=0|49=STAF|56=BRAS|34=352|52=20000726-14:17:40|57=ADMIN|112=20000726-14:17:36|10=016|
353	8=FIX.4.0|9=58|35=0|49=STAF|56=BRAS|34=353|52=20000726-14:18:00|57=ADMIN|10=217|
354	8=FIX.4.0|9=58|35=0|49=STAF|56=BRAS|34=354|52=20000726-14:18:20|57=ADMIN|10=220|
355	8=FIX.4.0|9=58|35=0|49=STAF|56=BRAS|34=355|52=20000726-14:18:40|57=ADMIN|10=223|
356	8=FIX.4.0|9=80|35=0|49=STAF|56=BRAS|34=356|52=20000726-14:18:46|57=ADMIN|112=20000726-14:18:43|10=026|
357	8=FIX.4.0|9=58|35=0|49=STAF|56=BRAS|34=357|52=20000726-14:19:07|57=ADMIN|10=229|
358	8=FIX.4.0|9=67|35=1|49=STAF|56=BRAS|34=358|52=20000726-14:19:11|57=ADMIN|112=TEST|10=244|
359	8=FIX.4.0|9=58|35=0|49=STAF|56=BRAS|34=359|52=20000726-14:19:31|57=ADMIN|10=228|
360	8=FIX.4.0|9=67|35=1|49=STAF|56=BRAS|34=360|52=20000726-14:19:41|57=ADMIN|112=TEST|10=240|
361	8=FIX.4.0|9=58|35=0|49=STAF|56=BRAS|34=361|52=20000726-14:20:01|57=ADMIN|10=210|
362	8=FIX.4.0|9=58|35=0|49=STAF|56=BRAS|34=362|52=20000726-14:20:21|57=ADMIN|10=213|
363	8=FIX.4.0|9=67|35=1|49=STAF|56=BRAS|34=363|52=20000726-14:20:31|57=ADMIN|112=TEST|10=234|
364	8=FIX.4.0|9=58|35=0|49=STAF|56=BRAS|34=364|52=20000726-14:20:51|57=ADMIN|10=218|
365	8=FIX.4.0|9=58|35=0|49=STAF|56=BRAS|34=365|52=20000726-14:21:11|57=ADMIN|10=216|
366	8=FIX.4.0|9=58|35=0|49=STAF|56=BRAS|34=366|52=20000726-14:21:31|57=ADMIN|10=219|
367	8=FIX.4.0|9=58|35=0|49=STAF|56=BRAS|34=367|52=20000726-14:21:51|57=ADMIN|10=222|
368	8=FIX.4.0|9=67|35=1|49=STAF|56=BRAS|34=368|52=20000726-14:21:59|57=ADMIN|112=TEST|10=250|
369	8=FIX.4.0|9=58|35=0|49=STAF|56=BRAS|34=369|52=20000726-14:22:19|57=ADMIN|10=229|
370	8=FIX.4.0|9=58|35=0|49=STAF|56=BRAS|34=370|52=20000726-14:22:39|57=ADMIN|10=223|
371	8=FIX.4.0|9=58|35=0|49=STAF|56=BRAS|34=371|52=20000726-14:22:59|57=ADMIN|10=226|
372	8=FIX.4.0|9=80|35=0|49=STAF|56=BRAS|34=372|52=20000726-14:23:02|57=ADMIN|112=20000726-14:22:59|10=014|
373	8=FIX.4.0|9=58|35=0|49=STAF|56=BRAS|34=373|52=20000726-14:23:23|57=ADMIN|10=220|
374	8=FIX.4.0|9=58|35=0|49=STAF|56=BRAS|34=374|52=20000726-14:23:43|57=ADMIN|10=223|
375	8=FIX.4.0|9=58|35=0|49=STAF|56=BRAS|34=375|52=20000726-14:24:03|57=ADMIN|10=221|
376	8=FIX.4.0|9=58|35=0|49=STAF|56=BRAS|34=376|52=20000726-14:24:23|57=ADMIN|10=224|
377	8=FIX.4.0|9=80|35=0|49=STAF|56=BRAS|34=377|52=20000726-14:24:29|57=ADMIN|112=20000726-14:24:25|10=024|
378	8=FIX.4.0|9=58|35=0|49=STAF|56=BRAS|34=378|52=20000726-14:24:49|57=ADMIN|10=234|
379	8=FIX.4.0|9=58|35=0|49=STAF|56=BRAS|34=379|52=20000726-14:25:09|57=ADMIN|10=232|
380	8=FIX.4.0|9=58|35=0|49=STAF|56=BRAS|34=380|52=20000726-14:25:29|57=ADMIN|10=226|
381	8=FIX.4.0|9=58|35=0|49=STAF|56=BRAS|34=381|52=20000726-14:25:49|57=ADMIN|10=229|
382	8=FIX.4.0|9=80|35=0|49=STAF|56=BRAS|34=382|52=20000726-14:25:52|57=ADMIN|112=20000726-14:25:48|10=023|
383	8=FIX.4.0|9=58|35=0|49=STAF|56=BRAS|34=383|52=20000726-14:26:13|57=ADMIN|10=223|
384	8=FIX.4.0|9=58|35=0|49=STAF|56=BRAS|34=384|52=20000726-14:26:33|57=ADMIN|10=226|
385	8=FIX.4.0|9=67|35=1|49=STAF|56=BRAS|34=385|52=20000726-14:26:47|57=ADMIN|112=TEST|10=251|
386	8=FIX.4.0|9=80|35=0|49=STAF|56=BRAS|34=386|52=20000726-14:27:03|57=ADMIN|112=20000726-14:27:00|10=015|
387	8=FIX.4.0|9=58|35=0|49=STAF|56=BRAS|34=387|52=20000726-14:27:23|57=ADMIN|10=229|
388	8=FIX.4.0|9=67|35=1|49=STAF|56=BRAS|34=388|52=20000726-14:27:25|57=ADMIN|112=TEST|10=251|
389	8=FIX.4.0|9=58|35=0|49=STAF|56=BRAS|34=389|52=20000726-14:27:45|57=ADMIN|10=235|
390	8=FIX.4.0|9=58|35=0|49=STAF|56=BRAS|34=390|52=20000726-14:28:05|57=ADMIN|10=224|
391	8=FIX.4.0|9=58|35=0|49=STAF|56=BRAS|34=391|52=20000726-14:28:25|57=ADMIN|10=227|
392	8=FIX.4.0|9=58|35=0|49=STAF|56=BRAS|34=392|52=20000726-14:28:45|57=ADMIN|10=230|
393	8=FIX.4.0|9=58|35=0|49=STAF|56=BRAS|34=393|52=20000726-14:29:05|57=ADMIN|10=228|
394	8=FIX.4.0|9=67|35=1|49=STAF|56=BRAS|34=394|52=20000726-14:29:17|57=ADMIN|112=TEST|10=251|
395	8=FIX.4.0|9=58|35=0|49=STAF|56=BRAS|34=395|52=20000726-14:29:37|57=ADMIN|10=235|
396	8=FIX.4.0|9=58|35=0|49=STAF|56=BRAS|34=396|52=20000726-14:29:57|57=ADMIN|10=238|
397	8=FIX.4.0|9=80|35=0|49=STAF|56=BRAS|34=397|52=20000726-14:30:12|57=ADMIN|112=20000726-14:30:08|10=013|
398	8=FIX.4.0|9=58|35=0|49=STAF|56=BRAS|34=398|52=20000726-14:30:34|57=ADMIN|10=227|
399	8=FIX.4.0|9=67|35=1|49=STAF|56=BRAS|34=399|52=20000726-14:30:34|57=ADMIN|112=TEST|10=247|
400	8=FIX.4.0|9=80|35=0|49=STAF|56=BRAS|34=400|52=20000726-14:30:52|57=ADMIN|112=20000726-14:30:48|10=006|
401	8=FIX.4.0|9=58|35=0|49=STAF|56=BRAS|34=401|52=20000726-14:31:12|57=ADMIN|10=209|
402	8=FIX.4.0|9=67|35=1|49=STAF|56=BRAS|34=402|52=20000726-14:31:20|57=ADMIN|112=TEST|10=228|
403	8=FIX.4.0|9=80|35=0|49=STAF|56=BRAS|34=403|52=20000726-14:31:23|57=ADMIN|112=20000726-14:31:19|10=007|
404	8=FIX.4.0|9=58|35=0|49=STAF|56=BRAS|34=404|52=20000726-14:31:44|57=ADMIN|10=217|
405	8=FIX.4.0|9=58|35=0|49=STAF|56=BRAS|34=405|52=20000726-14:32:04|57=ADMIN|10=215|
406	8=FIX.4.0|9=58|35=0|49=STAF|56=BRAS|34=406|52=20000726-14:32:24|57=ADMIN|10=218|
407	8=FIX.4.0|9=67|35=1|49=STAF|56=BRAS|34=407|52=20000726-14:32:30|57=ADMIN|112=TEST|10=235|
408	8=FIX.4.0|9=58|35=0|49=STAF|56=BRAS|34=408|52=20000726-14:32:50|57=ADMIN|10=219|
409	8=FIX.4.0|9=58|35=0|49=STAF|56=BRAS|34=409|52=20000726-14:33:10|57=ADMIN|10=217|
410	8=FIX.4.0|9=58|35=0|49=STAF|56=BRAS|34=410|52=20000726-14:33:30|57=ADMIN|10=211|
411	8=FIX.4.0|9=58|35=0|49=STAF|56=BRAS|34=411|52=20000726-14:33:50|57=ADMIN|10=214|
412	8=FIX.4.0|9=80|35=0|49=STAF|56=BRAS|34=412|52=20000726-14:33:59|57=ADMIN|112=20000726-14:33:56|10=021|
413	8=FIX.4.0|9=80|35=0|49=STAF|56=BRAS|34=413|52=20000726-14:34:07|57=ADMIN|112=20000726-14:34:03|10=009|
414	8=FIX.4.0|9=58|35=0|49=STAF|56=BRAS|34=414|52=20000726-14:34:28|57=ADMIN|10=223|
415	8=FIX.4.0|9=58|35=0|49=STAF|56=BRAS|34=415|52=20000726-14:34:48|57=ADMIN|10=226|
416	8=FIX.4.0|9=80|35=0|49=STAF|56=BRAS|34=416|52=20000726-14:34:50|57=ADMIN|112=20000726-14:34:46|10=017|
417	8=FIX.4.0|9=58|35=0|49=STAF|56=BRAS|34=417|52=20000726-14:35:10|57=ADMIN|10=218|
418	8=FIX.4.0|9=67|35=1|49=STAF|56=BRAS|34=418|52=20000726-14:35:22|57=ADMIN|112=TEST|10=241|
419	8=FIX.4.0|9=58|35=0|49=STAF|56=BRAS|34=419|52=20000726-14:35:42|57=ADMIN|10=225|
420	8=FIX.4.0|9=80|35=0|49=STAF|56=BRAS|34=420|52=20000726-14:35:54|57=ADMIN|112=20000726-14:35:50|10=013|
421	8=FIX.4.0|9=80|35=0|49=STAF|56=BRAS|34=421|52=20000726-14:36:11|57=ADMIN|112=20000726-14:36:07|10=011|
422	8=FIX.4.0|9=80|35=0|49=STAF|56=BRAS|34=422|52=20000726-14:36:27|57=ADMIN|112=20000726-14:36:23|10=017|
423	8=FIX.4.0|9=58|35=0|49=STAF|56=BRAS|34=423|52=20000726-14:36:48|57=ADMIN|10=227|
424	8=FIX.4.0|9=67|35=1|49=STAF|56=BRAS|34=424|52=20000726-14:36:54|57=ADMIN|112=TEST|10=244|
425	8=FIX.4.0|9=80|35=0|49=STAF|56=BRAS|34=425|52=20000726-14:36:58|57=ADMIN|112=20000726-14:36:54|10=028|
426	8=FIX.4.0|9=58|35=0|49=STAF|56=BRAS|34=426|52=20000726-14:37:18|57=ADMIN|10=228|
427	8=FIX.4.0|9=58|35=0|49=STAF|56=BRAS|34=427|52=20000726-14:37:38|57=ADMIN|10=231|
428	8=FIX.4.0|9=58|35=0|49=STAF|56=BRAS|34=428|52=20000726-14:37:58|57=ADMIN|10=234|
429	8=FIX.4.0|9=67|35=1|49=STAF|56=BRAS|34=429|52=20000726-14:38:08|57=ADMIN|112=TEST|10=250|
430	8=FIX.4.0|9=58|35=0|49=STAF|56=BRAS|34=430|52=20000726-14:38:28|57=ADMIN|10=225|
431	8=FIX.4.0|9=58|35=0|49=STAF|56=BRAS|34=431|52=20000726-14:38:48|57=ADMIN|10=228|
432	8=FIX.4.0|9=58|35=0|49=STAF|56=BRAS|34=432|52=20000726-14:39:08|57=ADMIN|10=226|
433	8=FIX.4.0|9=58|35=0|49=STAF|56=BRAS|34=433|52=20000726-14:39:28|57=ADMIN|10=229|
434	8=FIX.4.0|9=67|35=1|49=STAF|56=BRAS|34=434|52=20000726-14:39:32|57=ADMIN|112=TEST|10=244|
435	8=FIX.4.0|9=58|35=0|49=STAF|56=BRAS|34=435|52=20000726-14:39:52|57=ADMIN|10=228|
436	8=FIX.4.0|9=80|35=0|49=STAF|56=BRAS|34=436|52=20000726-14:39:55|57=ADMIN|112=20000726-14:39:51|10=030|
437	8=FIX.4.0|9=58|35=0|49=STAF|56=BRAS|34=437|52=20000726-14:40:16|57=ADMIN|10=222|
438	8=FIX.4.0|9=58|35=0|49=STAF|56=BRAS|34=438|52=20000726-14:40:36|57=ADMIN|10=225|
439	8=FIX.4.0|9=58|35=0|49=STAF|56=BRAS|34=439|52=20000726-14:40:56|57=ADMIN|10=228|
440	8=FIX.4.0|9=67|35=1|49=STAF|56=BRAS|34=440|52=20000726-14:41:06|57=ADMIN|112=TEST|10=235|
441	8=FIX.4.0|9=58|35=0|49=STAF|56=BRAS|34=441|52=20000726-14:41:26|57=ADMIN|10=219|
442	8=FIX.4.0|9=58|35=0|49=STAF|56=BRAS|34=442|52=20000726-14:41:46|57=ADMIN|10=222|
443	8=FIX.4.0|9=58|35=0|49=STAF|56=BRAS|34=443|52=20000726-14:42:06|57=ADMIN|10=220|
444	8=FIX.4.0|9=58|35=0|49=STAF|56=BRAS|34=444|52=20000726-14:42:27|57=ADMIN|10=224|
445	8=FIX.4.0|9=58|35=0|49=STAF|56=BRAS|34=445|52=20000726-14:42:47|57=ADMIN|10=227|
446	8=FIX.4.0|9=67|35=1|49=STAF|56=BRAS|34=446|52=20000726-14:42:47|57=ADMIN|112=TEST|10=247|
447	8=FIX.4.0|9=58|35=0|49=STAF|56=BRAS|34=447|52=20000726-14:43:07|57=ADMIN|10=226|
448	8=FIX.4.0|9=58|35=0|49=STAF|56=BRAS|34=448|52=20000726-14:43:27|57=ADMIN|10=229|
449	8=FIX.4.0|9=58|35=0|49=STAF|56=BRAS|34=449|52=20000726-14:43:47|57=ADMIN|10=232|
450	8=FIX.4.0|9=58|35=0|49=STAF|56=BRAS|34=450|52=20000726-14:44:07|57=ADMIN|10=221|
451	8=FIX.4.0|9=58|35=0|49=STAF|56=BRAS|34=451|52=20000726-14:44:27|57=ADMIN|10=224|
452	8=FIX.4.0|9=67|35=1|49=STAF|56=BRAS|34=452|52=20000726-14:44:45|57=ADMIN|112=TEST|10=244|
453	8=FIX.4.0|9=58|35=0|49=STAF|56=BRAS|34=453|52=20000726-14:45:05|57=ADMIN|10=223|
454	8=FIX.4.0|9=58|35=0|49=STAF|56=BRAS|34=454|52=20000726-14:45:25|57=ADMIN|10=226|
455	8=FIX.4.0|9=67|35=1|49=STAF|56=BRAS|34=455|52=20000726-14:45:31|57=ADMIN|112=TEST|10=243|
456	8=FIX.4.0|9=58|35=0|49=STAF|56=BRAS|34=456|52=20000726-14:45:51|57=ADMIN|10=227|
457	8=FIX.4.0|9=67|35=1|49=STAF|56=BRAS|34=457|52=20000726-14:45:57|57=ADMIN|112=TEST|10=253|
458	8=FIX.4.0|9=58|35=0|49=STAF|56=BRAS|34=458|52=20000726-14:46:17|57=ADMIN|10=232|
459	8=FIX.4.0|9=58|35=0|49=STAF|56=BRAS|34=459|52=20000726-14:46:37|57=ADMIN|10=235|
460	8=FIX.4.0|9=58|35=0|49=STAF|56=BRAS|34=460|52=20000726-14:46:57|57=ADMIN|10=229|
461	8=FIX.4.0|9=58|35=0|49=STAF|56=BRAS|34=461|52=20000726-14:47:17|57=ADMIN|10=227|
462	8=FIX.4.0|9=58|35=0|49=STAF|56=BRAS|34=462|52=20000726-14:47:37|57=ADMIN|10=230|
463	8=FIX.4.0|9=58|35=0|49=STAF|56=BRAS|34=463|52=20000726-14:47:57|57=ADMIN|10=233|
464	8=FIX.4.0|9=58|35=0|49=STAF|56=BRAS|34=464|52=20000726-14:48:17|57=ADMIN|10=231|
465	8=FIX.4.0|9=67|35=1|49=STAF|56=BRAS|34=465|52=20000726-14:48:33|57=ADMIN|112=TEST|10=249|
466	8=FIX.4.0|9=58|35=0|49=STAF|56=BRAS|34=466|52=20000726-14:48:53|57=ADMIN|10=233|
467	8=FIX.4.0|9=58|35=0|49=STAF|56=BRAS|34=467|52=20000726-14:49:13|57=ADMIN|10=231|
468	8=FIX.4.0|9=80|35=0|49=STAF|56=BRAS|34=468|52=20000726-14:49:29|57=ADMIN|112=20000726-14:49:25|10=039|
469	8=FIX.4.0|9=58|35=0|49=STAF|56=BRAS|34=469|52=20000726-14:49:49|57=ADMIN|10=242|
470	8=FIX.4.0|9=58|35=0|49=STAF|56=BRAS|34=470|52=20000726-14:50:09|57=ADMIN|10=222|
471	8=FIX.4.0|9=58|35=0|49=STAF|56=BRAS|34=471|52=20000726-14:50:29|57=ADMIN|10=225|
472	8=FIX.4.0|9=58|35=0|49=STAF|56=BRAS|34=472|52=20000726-14:50:49|57=ADMIN|10=228|
473	8=FIX.4.0|9=67|35=1|49=STAF|56=BRAS|34=473|52=20000726-14:51:03|57=ADMIN|112=TEST|10=239|
474	8=FIX.4.0|9=58|35=0|49=STAF|56=BRAS|34=474|52=20000726-14:51:23|57=ADMIN|10=223|
475	8=FIX.4.0|9=67|35=1|49=STAF|56=BRAS|34=475|52=20000726-14:51:36|57=ADMIN|112=TEST|10=247|
476	8=FIX.4.0|9=58|35=0|49=STAF|56=BRAS|34=476|52=20000726-14:51:56|57=ADMIN|10=231|
477	8=FIX.4.0|9=67|35=1|49=STAF|56=BRAS|34=477|52=20000726-14:52:00|57=ADMIN|112=TEST|10=241|
478	8=FIX.4.0|9=80|35=0|49=STAF|56=BRAS|34=478|52=20000726-14:52:07|57=ADMIN|112=20000726-14:52:03|10=020|
479	8=FIX.4.0|9=58|35=0|49=STAF|56=BRAS|34=479|52=20000726-14:52:28|57=ADMIN|10=234|
480	8=FIX.4.0|9=58|35=0|49=STAF|56=BRAS|34=480|52=20000726-14:52:48|57=ADMIN|10=228|
481	8=FIX.4.0|9=58|35=0|49=STAF|56=BRAS|34=481|52=20000726-14:53:08|57=ADMIN|10=226|
482	8=FIX.4.0|9=67|35=1|49=STAF|56=BRAS|34=482|52=20000726-14:53:20|57=ADMIN|112=TEST|10=240|
483	8=FIX.4.0|9=58|35=0|49=STAF|56=BRAS|34=483|52=20000726-14:53:40|57=ADMIN|10=224|
484	8=FIX.4.0|9=58|35=0|49=STAF|56=BRAS|34=484|52=20000726-14:54:00|57=ADMIN|10=222|
485	8=FIX.4.0|9=67|35=1|49=STAF|56=BRAS|34=485|52=20000726-14:54:14|57=ADMIN|112=TEST|10=247|
486	8=FIX.4.0|9=58|35=0|49=STAF|56=BRAS|34=486|52=20000726-14:54:34|57=ADMIN|10=231|
487	8=FIX.4.0|9=58|35=0|49=STAF|56=BRAS|34=487|52=20000726-14:54:54|57=ADMIN|10=234|
488	8=FIX.4.0|9=58|35=0|49=STAF|56=BRAS|34=488|52=20000726-14:55:14|57=ADMIN|10=232|
489	8=FIX.4.0|9=58|35=0|49=STAF|56=BRAS|34=489|52=20000726-14:55:34|57=ADMIN|10=235|
490	8=FIX.4.0|9=58|35=0|49=STAF|56=BRAS|34=490|52=20000726-14:55:54|57=ADMIN|10=229|
491	8=FIX.4.0|9=67|35=1|49=STAF|56=BRAS|34=491|52=20000726-14:56:00|57=ADMIN|112=TEST|10=241|
492	8=FIX.4.0|9=58|35=0|49=STAF|56=BRAS|34=492|52=20000726-14:56:20|57=ADMIN|10=225|
493	8=FIX.4.0|9=67|35=1|49=STAF|56=BRAS|34=493|52=20000726-14:56:22|57=ADMIN|112=TEST|10=247|
494	8=FIX.4.0|9=58|35=0|49=STAF|56=BRAS|34=494|52=20000726-14:56:42|57=ADMIN|10=231|
495	8=FIX.4.0|9=58|35=0|49=STAF|56=BRAS|34=495|52=20000726-14:57:02|57=ADMIN|10=229|
496	8=FIX.4.0|9=58|35=0|49=STAF|56=BRAS|34=496|52=20000726-14:57:22|57=ADMIN|10=232|
497	8=FIX.4.0|9=58|35=0|49=STAF|56=BRAS|34=497|52=20000726-14:57:42|57=ADMIN|10=235|
498	8=FIX.4.0|9=58|35=0|49=STAF|56=BRAS|34=498|52=20000726-14:58:02|57=ADMIN|10=233|
499	8=FIX.4.0|9=58|35=0|49=STAF|56=BRAS|34=499|52=20000726-14:58:22|57=ADMIN|10=236|
500	8=FIX.4.0|9=58|35=0|49=STAF|56=BRAS|34=500|52=20000726-14:58:42|57=ADMIN|10=221|
501	8=FIX.4.0|9=58|35=0|49=STAF|56=BRAS|34=501|52=20000726-14:59:02|57=ADMIN|10=219|
502	8=FIX.4.0|9=58|35=0|49=STAF|56=BRAS|34=502|52=20000726-14:59:22|57=ADMIN|10=222|
503	8=FIX.4.0|9=58|35=0|49=STAF|56=BRAS|34=503|52=20000726-14:59:42|57=ADMIN|10=225|
504	8=FIX.4.0|9=58|35=0|49=STAF|56=BRAS|34=504|52=20000726-15:00:03|57=ADMIN|10=210|
505	8=FIX.4.0|9=80|35=0|49=STAF|56=BRAS|34=505|52=20000726-15:00:07|57=ADMIN|112=20000726-15:00:02|10=254|
506	8=FIX.4.0|9=58|35=0|49=STAF|56=BRAS|34=506|52=20000726-15:00:27|57=ADMIN|10=218|
507	8=FIX.4.0|9=67|35=1|49=STAF|56=BRAS|34=507|52=20000726-15:00:33|57=ADMIN|112=TEST|10=235|
508	8=FIX.4.0|9=58|35=0|49=STAF|56=BRAS|34=508|52=20000726-15:00:53|57=ADMIN|10=219|
509	8=FIX.4.0|9=58|35=0|49=STAF|56=BRAS|34=509|52=20000726-15:01:13|57=ADMIN|10=217|
510	8=FIX.4.0|9=58|35=0|49=STAF|56=BRAS|34=510|52=20000726-15:01:33|57=ADMIN|10=211|
511	8=FIX.4.0|9=58|35=0|49=STAF|56=BRAS|34=511|52=20000726-15:01:53|57=ADMIN|10=214|
512	8=FIX.4.0|9=58|35=0|49=STAF|56=BRAS|34=512|52=20000726-15:02:13|57=ADMIN|10=212|
513	8=FIX.4.0|9=58|35=0|49=STAF|56=BRAS|34=513|52=20000726-15:02:33|57=ADMIN|10=215|
514	8=FIX.4.0|9=67|35=1|49=STAF|56=BRAS|34=514|52=20000726-15:02:47|57=ADMIN|112=TEST|10=240|
515	8=FIX.4.0|9=58|35=0|49=STAF|56=BRAS|34=515|52=20000726-15:03:07|57=ADMIN|10=219|
516	8=FIX.4.0|9=58|35=0|49=STAF|56=BRAS|34=516|52=20000726-15:03:27|57=ADMIN|10=222|
517	8=FIX.4.0|9=80|35=0|49=STAF|56=BRAS|34=517|52=20000726-15:03:35|57=ADMIN|112=20000726-15:03:31|10=010|
518	8=FIX.4.0|9=58|35=0|49=STAF|56=BRAS|34=518|52=20000726-15:03:55|57=ADMIN|10=225|
519	8=FIX.4.0|9=58|35=0|49=STAF|56=BRAS|34=519|52=20000726-15:04:15|57=ADMIN|10=223|
520	8=FIX.4.0|9=80|35=0|49=STAF|56=BRAS|34=520|52=20000726-15:04:26|57=ADMIN|112=20000726-15:04:22|10=006|
521	8=FIX.4.0|9=58|35=0|49=STAF|56=BRAS|34=521|52=20000726-15:04:47|57=ADMIN|10=221|
522	8=FIX.4.0|9=67|35=1|49=STAF|56=BRAS|34=522|52=20000726-15:04:53|57=ADMIN|112=TEST|10=238|
523	8=FIX.4.0|9=58|35=0|49=STAF|56=BRAS|34=523|52=20000726-15:05:13|57=ADMIN|10=217|
524	8=FIX.4.0|9=58|35=0|49=STAF|56=BRAS|34=524|52=20000726-15:05:33|57=ADMIN|10=220|
525	8=FIX.4.0|9=58|35=0|49=STAF|56=BRAS|34=525|52=20000726-15:05:53|57=ADMIN|10=223|
526	8=FIX.4.0|9=58|35=0|49=STAF|56=BRAS|34=526|52=20000726-15:06:13|57=ADMIN|10=221|
527	8=FIX.4.0|9=67|35=1|49=STAF|56=BRAS|34=527|52=20000726-15:06:23|57=ADMIN|112=TEST|10=242|
528	8=FIX.4.0|9=80|35=0|49=STAF|56=BRAS|34=528|52=20000726-15:06:39|57=ADMIN|112=20000726-15:06:35|10=026|
529	8=FIX.4.0|9=58|35=0|49=STAF|56=BRAS|34=529|52=20000726-15:06:59|57=ADMIN|10=234|
530	8=FIX.4.0|9=58|35=0|49=STAF|56=BRAS|34=530|52=20000726-15:07:19|57=ADMIN|10=223|
531	8=FIX.4.0|9=58|35=0|49=STAF|56=BRAS|34=531|52=20000726-15:07:39|57=ADMIN|10=226|
532	8=FIX.4.0|9=58|35=0|49=STAF|56=BRAS|34=532|52=20000726-15:07:59|57=ADMIN|10=229|
533	8=FIX.4.0|9=58|35=0|49=STAF|56=BRAS|34=533|52=20000726-15:08:19|57=ADMIN|10=227|
534	8=FIX.4.0|9=58|35=0|49=STAF|56=BRAS|34=534|52=20000726-15:08:39|57=ADMIN|10=230|
535	8=FIX.4.0|9=67|35=1|49=STAF|56=BRAS|34=535|52=20000726-15:08:45|57=ADMIN|112=TEST|10=247|
536	8=FIX.4.0|9=58|35=0|49=STAF|56=BRAS|34=536|52=20000726-15:09:05|57=ADMIN|10=226|
537	8=FIX.4.0|9=58|35=0|49=STAF|56=BRAS|34=537|52=20000726-15:09:25|57=ADMIN|10=229|
538	8=FIX.4.0|9=80|35=0|49=STAF|56=BRAS|34=538|52=20000726-15:09:26|57=ADMIN|112=20000726-15:09:22|10=025|
539	8=FIX.4.0|9=58|35=0|49=STAF|56=BRAS|34=539|52=20000726-15:09:46|57=ADMIN|10=234|
540	8=FIX.4.0|9=67|35=1|49=STAF|56=BRAS|34=540|52=20000726-15:09:48|57=ADMIN|112=TEST|10=247|
541	8=FIX.4.0|9=58|35=0|49=STAF|56=BRAS|34=541|52=20000726-15:10:08|57=ADMIN|10=217|
542	8=FIX.4.0|9=58|35=0|49=STAF|56=BRAS|34=542|52=20000726-15:10:28|57=ADMIN|10=220|
543	8=FIX.4.0|9=58|35=0|49=STAF|56=BRAS|34=543|52=20000726-15:10:48|57=ADMIN|10=223|
544	8=FIX.4.0|9=58|35=0|49=STAF|56=BRAS|34=544|52=20000726-15:11:08|57=ADMIN|10=221|
545	8=FIX.4.0|9=58|35=0|49=STAF|56=BRAS|34=545|52=20000726-15:11:28|57=ADMIN|10=224|
546	8=FIX.4.0|9=58|35=0|49=STAF|56=BRAS|34=546|52=20000726-15:11:48|57=ADMIN|10=227|
547	8=FIX.4.0|9=58|35=0|49=STAF|56=BRAS|34=547|52=20000726-15:12:08|57=ADMIN|10=225|
548	8=FIX.4.0|9=67|35=1|49=STAF|56=BRAS|34=548|52=20000726-15:12:24|57=ADMIN|112=TEST|10=243|
549	8=FIX.4.0|9=58|35=0|49=STAF|56=BRAS|34=549|52=20000726-15:12:44|57=ADMIN|10=227|
550	8=FIX.4.0|9=58|35=0|49=STAF|56=BRAS|34=550|52=20000726-15:13:04|57=ADMIN|10=216|
551	8=FIX.4.0|9=58|35=0|49=STAF|56=BRAS|34=551|52=20000726-15:13:24|57=ADMIN|10=219|
552	8=FIX.4.0|9=58|35=0|49=STAF|56=BRAS|34=552|52=20000726-15:13:44|57=ADMIN|10=222|
553	8=FIX.4.0|9=58|35=0|49=STAF|56=BRAS|34=553|52=20000726-15:14:04|57=ADMIN|10=220|
554	8=FIX.4.0|9=58|35=0|49=STAF|56=BRAS|34=554|52=20000726-15:14:24|57=ADMIN|10=223|
555	8=FIX.4.0|9=58|35=0|49=STAF|56=BRAS|34=555|52=20000726-15:14:44|57=ADMIN|10=226|
556	8=FIX.4.0|9=58|35=0|49=STAF|56=BRAS|34=556|52=20000726-15:15:04|57=ADMIN|10=224|
557	8=FIX.4.0|9=58|35=0|49=STAF|56=BRAS|34=557|52=20000726-15:15:24|57=ADMIN|10=227|
558	8=FIX.4.0|9=80|35=0|49=STAF|56=BRAS|34=558|52=20000726-15:15:44|57=ADMIN|112=20000726-15:15:40|10=021|
559	8=FIX.4.0|9=58|35=0|49=STAF|56=BRAS|34=559|52=20000726-15:16:04|57=ADMIN|10=228|
560	8=FIX.4.0|9=58|35=0|49=STAF|56=BRAS|34=560|52=20000726-15:16:24|57=ADMIN|10=222|
561	8=FIX.4.0|9=58|35=0|49=STAF|56=BRAS|34=561|52=20000726-15:16:44|57=ADMIN|10=225|
562	8=FIX.4.0|9=58|35=0|49=STAF|56=BRAS|34=562|52=20000726-15:17:04|57=ADMIN|10=223|
563	8=FIX.4.0|9=80|35=0|49=STAF|56=BRAS|34=563|52=20000726-15:17:19|57=ADMIN|112=20000726-15:17:15|10=025|
564	8=FIX.4.0|9=58|35=0|49=STAF|56=BRAS|34=564|52=20000726-15:17:39|57=ADMIN|10=233|
565	8=FIX.4.0|9=67|35=1|49=STAF|56=BRAS|34=565|52=20000726-15:17:41|57=ADMIN|112=TEST|10=246|
566	8=FIX.4.0|9=58|35=0|49=STAF|56=BRAS|34=566|52=20000726-15:18:01|57=ADMIN|10=225|
567	8=FIX.4.0|9=58|35=0|49=STAF|56=BRAS|34=567|52=20000726-15:18:21|57=ADMIN|10=228|
568	8=FIX.4.0|9=58|35=0|49=STAF|56=BRAS|34=568|52=20000726-15:18:41|57=ADMIN|10=231|
569	8=FIX.4.0|9=67|35=1|49=STAF|56=BRAS|34=569|52=20000726-15:18:51|57=ADMIN|112=TEST|10=252|
570	8=FIX.4.0|9=58|35=0|49=STAF|56=BRAS|34=570|52=20000726-15:19:11|57=ADMIN|10=222|
571	8=FIX.4.0|9=67|35=1|49=STAF|56=BRAS|34=571|52=20000726-15:19:15|57=ADMIN|112=TEST|10=246|
572	8=FIX.4.0|9=58|35=0|49=STAF|56=BRAS|34=572|52=20000726-15:19:35|57=ADMIN|10=230|
573	8=FIX.4.0|9=58|35=0|49=STAF|56=BRAS|34=573|52=20000726-15:19:55|57=ADMIN|10=233|
574	8=FIX.4.0|9=80|35=0|49=STAF|56=BRAS|34=574|52=20000726-15:20:05|57=ADMIN|112=20000726-15:20:00|10=004|
575	8=FIX.4.0|9=58|35=0|49=STAF|56=BRAS|34=575|52=20000726-15:20:25|57=ADMIN|10=224|
576	8=FIX.4.0|9=58|35=0|49=STAF|56=BRAS|34=576|52=20000726-15:20:45|57=ADMIN|10=227|
577	8=FIX.4.0|9=58|35=0|49=STAF|56=BRAS|34=577|52=20000726-15:21:05|57=ADMIN|10=225|
578	8=FIX.4.0|9=67|35=1|49=STAF|56=BRAS|34=578|52=20000726-15:21:21|57=ADMIN|112=TEST|10=243|
579	8=FIX.4.0|9=58|35=0|49=STAF|56=BRAS|34=579|52=20000726-15:21:41|57=ADMIN|10=227|
580	8=FIX.4.0|9=67|35=1|49=STAF|56=BRAS|34=580|52=20000726-15:21:45|57=ADMIN|112=TEST|10=242|
581	8=FIX.4.0|9=58|35=0|49=STAF|56=BRAS|34=581|52=20000726-15:22:05|57=ADMIN|10=221|
582	8=FIX.4.0|9=67|35=1|49=STAF|56=BRAS|34=582|52=20000726-15:22:11|57=ADMIN|112=TEST|10=238|
583	8=FIX.4.0|9=58|35=0|49=STAF|56=BRAS|34=583|52=20000726-15:22:31|57=ADMIN|10=222|
584	8=FIX.4.0|9=58|35=0|49=STAF|56=BRAS|34=584|52=20000726-15:22:51|57=ADMIN|10=225|
585	8=FIX.4.0|9=58|35=0|49=STAF|56=BRAS|34=585|52=20000726-15:23:11|57=ADMIN|10=223|
586	8=FIX.4.0|9=58|35=0|49=STAF|56=BRAS|34=586|52=20000726-15:23:31|57=ADMIN|10=226|
587	8=FIX.4.0|9=67|35=1|49=STAF|56=BRAS|34=587|52=20000726-15:23:31|57=ADMIN|112=TEST|10=246|
588	8=FIX.4.0|9=58|35=0|49=STAF|56=BRAS|34=588|52=20000726-15:23:51|57=ADMIN|10=230|
589	8=FIX.4.0|9=58|35=0|49=STAF|56=BRAS|34=589|52=20000726-15:24:11|57=ADMIN|10=228|
590	8=FIX.4.0|9=58|35=0|49=STAF|56=BRAS|34=590|52=20000726-15:24:31|57=ADMIN|10=222|
591	8=FIX.4.0|9=58|35=0|49=STAF|56=BRAS|34=591|52=20000726-15:24:51|57=ADMIN|10=225|
592	8=FIX.4.0|9=58|35=0|49=STAF|56=BRAS|34=592|52=20000726-15:25:11|57=ADMIN|10=223|
593	8=FIX.4.0|9=58|35=0|49=STAF|56=BRAS|34=593|52=20000726-15:25:31|57=ADMIN|10=226|
594	8=FIX.4.0|9=58|35=0|49=STAF|56=BRAS|34=594|52=20000726-15:25:51|57=ADMIN|10=229|
595	8=FIX.4.0|9=58|35=0|49=STAF|56=BRAS|34=595|52=20000726-15:26:11|57=ADMIN|10=227|
596	8=FIX.4.0|9=58|35=0|49=STAF|56=BRAS|34=596|52=20000726-15:26:31|57=ADMIN|10=230|
597	8=FIX.4.0|9=58|35=0|49=STAF|56=BRAS|34=597|52=20000726-15:26:51|57=ADMIN|10=233|
598	8=FIX.4.0|9=67|35=1|49=STAF|56=BRAS|34=598|52=20000726-15:27:07|57=ADMIN|112=TEST|10=255|
599	8=FIX.4.0|9=58|35=0|49=STAF|56=BRAS|34=599|52=20000726-15:27:27|57=ADMIN|10=239|
600	8=FIX.4.0|9=58|35=0|49=STAF|56=BRAS|34=600|52=20000726-15:27:47|57=ADMIN|10=224|
601	8=FIX.4.0|9=58|35=0|49=STAF|56=BRAS|34=601|52=20000726-15:28:07|57=ADMIN|10=222|
602	8=FIX.4.0|9=58|35=0|49=STAF|56=BRAS|34=602|52=20000726-15:28:28|57=ADMIN|10=226|
603	8=FIX.4.0|9=58|35=0|49=STAF|56=BRAS|34=603|52=20000726-15:28:48|57=ADMIN|10=229|
604	8=FIX.4.0|9=58|35=0|49=STAF|56=BRAS|34=604|52=20000726-15:29:08|57=ADMIN|10=227|
605	8=FIX.4.0|9=67|35=1|49=STAF|56=BRAS|34=605|52=20000726-15:29:08|57=ADMIN|112=TEST|10=247|
606	8=FIX.4.0|9=58|35=0|49=STAF|56=BRAS|34=606|52=20000726-15:29:28|57=ADMIN|10=231|
607	8=FIX.4.0|9=58|35=0|49=STAF|56=BRAS|34=607|52=20000726-15:29:48|57=ADMIN|10=234|
608	8=FIX.4.0|9=58|35=0|49=STAF|56=BRAS|34=608|52=20000726-15:30:08|57=ADMIN|10=223|
609	8=FIX.4.0|9=58|35=0|49=STAF|56=BRAS|34=609|52=20000726-15:30:28|57=ADMIN|10=226|
610	8=FIX.4.0|9=58|35=0|49=STAF|56=BRAS|34=610|52=20000726-15:30:48|57=ADMIN|10=220|
611	8=FIX.4.0|9=58|35=0|49=STAF|56=BRAS|34=611|52=20000726-15:31:08|57=ADMIN|10=218|
612	8=FIX.4.0|9=58|35=0|49=STAF|56=BRAS|34=612|52=20000726-15:31:28|57=ADMIN|10=221|
613	8=FIX.4.0|9=58|35=0|49=STAF|56=BRAS|34=613|52=20000726-15:31:48|57=ADMIN|10=224|
614	8=FIX.4.0|9=58|35=0|49=STAF|56=BRAS|34=614|52=20000726-15:32:08|57=ADMIN|10=222|
615	8=FIX.4.0|9=58|35=0|49=STAF|56=BRAS|34=615|52=20000726-15:32:28|57=ADMIN|10=225|
616	8=FIX.4.0|9=58|35=0|49=STAF|56=BRAS|34=616|52=20000726-15:32:48|57=ADMIN|10=228|
617	8=FIX.4.0|9=58|35=0|49=STAF|56=BRAS|34=617|52=20000726-15:33:08|57=ADMIN|10=226|
618	8=FIX.4.0|9=58|35=0|49=STAF|56=BRAS|34=618|52=20000726-15:33:28|57=ADMIN|10=229|
619	8=FIX.4.0|9=80|35=0|49=STAF|56=BRAS|34=619|52=20000726-15:33:45|57=ADMIN|112=20000726-15:33:42|10=022|
620	8=FIX.4.0|9=58|35=0|49=STAF|56=BRAS|34=620|52=20000726-15:34:06|57=ADMIN|10=219|
621	8=FIX.4.0|9=58|35=0|49=STAF|56=BRAS|34=621|52=20000726-15:34:26|57=ADMIN|10=222|
622	8=FIX.4.0|9=58|35=0|49=STAF|56=BRAS|34=622|52=20000726-15:34:46|57=ADMIN|10=225|
623	8=FIX.4.0|9=58|35=0|49=STAF|56=BRAS|34=623|52=20000726-15:35:06|57=ADMIN|10=223|
624	8=FIX.4.0|9=58|35=0|49=STAF|56=BRAS|34=624|52=20000726-15:35:26|57=ADMIN|10=226|
625	8=FIX.4.0|9=58|35=0|49=STAF|56=BRAS|34=625|52=20000726-15:35:46|57=ADMIN|10=229|
626	8=FIX.4.0|9=58|35=0|49=STAF|56=BRAS|34=626|52=20000726-15:36:06|57=ADMIN|10=227|
627	8=FIX.4.0|9=67|35=1|49=STAF|56=BRAS|34=627|52=20000726-15:36:18|57=ADMIN|112=TEST|10=250|
628	8=FIX.4.0|9=58|35=0|49=STAF|56=BRAS|34=628|52=20000726-15:36:38|57=ADMIN|10=234|
629	8=FIX.4.0|9=58|35=0|49=STAF|56=BRAS|34=629|52=20000726-15:36:58|57=ADMIN|10=237|
630	8=FIX.4.0|9=58|35=0|49=STAF|56=BRAS|34=630|52=20000726-15:37:18|57=ADMIN|10=226|
631	8=FIX.4.0|9=58|35=0|49=STAF|56=BRAS|34=631|52=20000726-15:37:38|57=ADMIN|10=229|
632	8=FIX.4.0|9=58|35=0|49=STAF|56=BRAS|34=632|52=20000726-15:37:58|57=ADMIN|10=232|
633	8=FIX.4.0|9=58|35=0|49=STAF|56=BRAS|34=633|52=20000726-15:38:18|57=ADMIN|10=230|
634	8=FIX.4.0|9=67|35=1|49=STAF|56=BRAS|34=634|52=20000726-15:38:24|57=ADMIN|112=TEST|10=247|
635	8=FIX.4.0|9=58|35=0|49=STAF|56=BRAS|34=635|52=20000726-15:38:44|57=ADMIN|10=231|
636	8=FIX.4.0|9=67|35=1|49=STAF|56=BRAS|34=636|52=20000726-15:39:00|57=ADMIN|112=TEST|10=244|
637	8=FIX.4.0|9=58|35=0|49=STAF|56=BRAS|34=637|52=20000726-15:39:20|57=ADMIN|10=228|
638	8=FIX.4.0|9=58|35=0|49=STAF|56=BRAS|34=638|52=20000726-15:39:40|57=ADMIN|10=231|
639	8=FIX.4.0|9=67|35=1|49=STAF|56=BRAS|34=639|52=20000726-15:39:44|57=ADMIN|112=TEST|10=255|
640	8=FIX.4.0|9=58|35=0|49=STAF|56=BRAS|34=640|52=20000726-15:40:05|57=ADMIN|10=217|
641	8=FIX.4.0|9=58|35=0|49=STAF|56=BRAS|34=641|52=20000726-15:40:25|57=ADMIN|10=220|
642	8=FIX.4.0|9=67|35=1|49=STAF|56=BRAS|34=642|52=20000726-15:40:41|57=ADMIN|112=TEST|10=238|
643	8=FIX.4.0|9=58|35=0|49=STAF|56=BRAS|34=643|52=20000726-15:41:01|57=ADMIN|10=217|
644	8=FIX.4.0|9=58|35=0|49=STAF|56=BRAS|34=644|52=20000726-15:41:21|57=ADMIN|10=220|
645	8=FIX.4.0|9=58|35=0|49=STAF|56=BRAS|34=645|52=20000726-15:41:41|57=ADMIN|10=223|
646	8=FIX.4.0|9=67|35=1|49=STAF|56=BRAS|34=646|52=20000726-15:41:59|57=ADMIN|112=TEST|10=252|
647	8=FIX.4.0|9=58|35=0|49=STAF|56=BRAS|34=647|52=20000726-15:42:19|57=ADMIN|10=231|
648	8=FIX.4.0|9=58|35=0|49=STAF|56=BRAS|34=648|52=20000726-15:42:39|57=ADMIN|10=234|
649	8=FIX.4.0|9=58|35=0|49=STAF|56=BRAS|34=649|52=20000726-15:42:59|57=ADMIN|10=237|
650	8=FIX.4.0|9=58|35=0|49=STAF|56=BRAS|34=650|52=20000726-15:43:19|57=ADMIN|10=226|
651	8=FIX.4.0|9=58|35=0|49=STAF|56=BRAS|34=651|52=20000726-15:43:39|57=ADMIN|10=229|
652	8=FIX.4.0|9=58|35=0|49=STAF|56=BRAS|34=652|52=20000726-15:43:59|57=ADMIN|10=232|
653	8=FIX.4.0|9=58|35=0|49=STAF|56=BRAS|34=653|52=20000726-15:44:19|57=ADMIN|10=230|
654	8=FIX.4.0|9=80|35=0|49=STAF|56=BRAS|34=654|52=20000726-15:44:19|57=ADMIN|112=20000726-15:44:16|10=027|
655	8=FIX.4.0|9=58|35=0|49=STAF|56=BRAS|34=655|52=20000726-15:44:39|57=ADMIN|10=234|
656	8=FIX.4.0|9=58|35=0|49=STAF|56=BRAS|34=656|52=20000726-15:44:59|57=ADMIN|10=237|
657	8=FIX.4.0|9=67|35=1|49=STAF|56=BRAS|34=657|52=20000726-15:45:05|57=ADMIN|112=TEST|10=249|
658	8=FIX.4.0|9=58|35=0|49=STAF|56=BRAS|34=658|52=20000726-15:45:25|57=ADMIN|10=233|
659	8=FIX.4.0|9=58|35=0|49=STAF|56=BRAS|34=659|52=20000726-15:45:45|57=ADMIN|10=236|
660	8=FIX.4.0|9=67|35=1|49=STAF|56=BRAS|34=660|52=20000726-15:46:03|57=ADMIN|112=TEST|10=242|
661	8=FIX.4.0|9=58|35=0|49=STAF|56=BRAS|34=661|52=20000726-15:46:23|57=ADMIN|10=226|
662	8=FIX.4.0|9=67|35=1|49=STAF|56=BRAS|34=662|52=20000726-15:46:29|57=ADMIN|112=TEST|10=252|
663	8=FIX.4.0|9=58|35=0|49=STAF|56=BRAS|34=663|52=20000726-15:46:49|57=ADMIN|10=236|
664	8=FIX.4.0|9=58|35=0|49=STAF|56=BRAS|34=664|52=20000726-15:47:09|57=ADMIN|10=234|
665	8=FIX.4.0|9=58|35=0|49=STAF|56=BRAS|34=665|52=20000726-15:47:29|57=ADMIN|10=237|
666	8=FIX.4.0|9=67|35=1|49=STAF|56=BRAS|34=666|52=20000726-15:47:37|57=ADMIN|112=TEST|10=000|
667	8=FIX.4.0|9=58|35=0|49=STAF|56=BRAS|34=667|52=20000726-15:47:57|57=ADMIN|10=240|
668	8=FIX.4.0|9=58|35=0|49=STAF|56=BRAS|34=668|52=20000726-15:48:17|57=ADMIN|10=238|
669	8=FIX.4.0|9=58|35=0|49=STAF|56=BRAS|34=669|52=20000726-15:48:37|57=ADMIN|10=241|
670	8=FIX.4.0|9=58|35=0|49=STAF|56=BRAS|34=670|52=20000726-15:48:57|57=ADMIN|10=235|
671	8=FIX.4.0|9=58|35=0|49=STAF|56=BRAS|34=671|52=20000726-15:49:17|57=ADMIN|10=233|
672	8=FIX.4.0|9=58|35=0|49=STAF|56=BRAS|34=672|52=20000726-15:49:37|57=ADMIN|10=236|
673	8=FIX.4.0|9=58|35=0|49=STAF|56=BRAS|34=673|52=20000726-15:49:57|57=ADMIN|10=239|
674	8=FIX.4.0|9=58|35=0|49=STAF|56=BRAS|34=674|52=20000726-15:50:17|57=ADMIN|10=228|
675	8=FIX.4.0|9=67|35=1|49=STAF|56=BRAS|34=675|52=20000726-15:50:25|57=ADMIN|112=TEST|10=247|
676	8=FIX.4.0|9=58|35=0|49=STAF|56=BRAS|34=676|52=20000726-15:50:45|57=ADMIN|10=231|
677	8=FIX.4.0|9=58|35=0|49=STAF|56=BRAS|34=677|52=20000726-15:51:05|57=ADMIN|10=229|
678	8=FIX.4.0|9=58|35=0|49=STAF|56=BRAS|34=678|52=20000726-15:51:26|57=ADMIN|10=233|
679	8=FIX.4.0|9=58|35=0|49=STAF|56=BRAS|34=679|52=20000726-15:51:46|57=ADMIN|10=236|
680	8=FIX.4.0|9=58|35=0|49=STAF|56=BRAS|34=680|52=20000726-15:52:06|57=ADMIN|10=225|
681	8=FIX.4.0|9=58|35=0|49=STAF|56=BRAS|34=681|52=20000726-15:52:26|57=ADMIN|10=228|
682	8=FIX.4.0|9=58|35=0|49=STAF|56=BRAS|34=682|52=20000726-15:52:46|57=ADMIN|10=231|
683	8=FIX.4.0|9=58|35=0|49=STAF|56=BRAS|34=683|52=20000726-15:53:06|57=ADMIN|10=229|
684	8=FIX.4.0|9=58|35=0|49=STAF|56=BRAS|34=684|52=20000726-15:53:26|57=ADMIN|10=232|
685	8=FIX.4.0|9=58|35=0|49=STAF|56=BRAS|34=685|52=20000726-15:53:46|57=ADMIN|10=235|
686	8=FIX.4.0|9=67|35=1|49=STAF|56=BRAS|34=686|52=20000726-15:53:46|57=ADMIN|112=TEST|10=255|
687	8=FIX.4.0|9=58|35=0|49=STAF|56=BRAS|34=687|52=20000726-15:54:06|57=ADMIN|10=234|
688	8=FIX.4.0|9=58|35=0|49=STAF|56=BRAS|34=688|52=20000726-15:54:26|57=ADMIN|10=237|
689	8=FIX.4.0|9=58|35=0|49=STAF|56=BRAS|34=689|52=20000726-15:54:46|57=ADMIN|10=240|
690	8=FIX.4.0|9=58|35=0|49=STAF|56=BRAS|34=690|52=20000726-15:55:06|57=ADMIN|10=229|
691	8=FIX.4.0|9=58|35=0|49=STAF|56=BRAS|34=691|52=20000726-15:55:26|57=ADMIN|10=232|
692	8=FIX.4.0|9=58|35=0|49=STAF|56=BRAS|34=692|52=20000726-15:55:46|57=ADMIN|10=235|
693	8=FIX.4.0|9=58|35=0|49=STAF|56=BRAS|34=693|52=20000726-15:56:06|57=ADMIN|10=233|
694	8=FIX.4.0|9=58|35=0|49=STAF|56=BRAS|34=694|52=20000726-15:56:26|57=ADMIN|10=236|
695	8=FIX.4.0|9=58|35=0|49=STAF|56=BRAS|34=695|52=20000726-15:56:46|57=ADMIN|10=239|
696	8=FIX.4.0|9=58|35=0|49=STAF|56=BRAS|34=696|52=20000726-15:57:06|57=ADMIN|10=237|
697	8=FIX.4.0|9=58|35=0|49=STAF|56=BRAS|34=697|52=20000726-15:57:26|57=ADMIN|10=240|
698	8=FIX.4.0|9=58|35=0|49=STAF|56=BRAS|34=698|52=20000726-15:57:46|57=ADMIN|10=243|
699	8=FIX.4.0|9=58|35=0|49=STAF|56=BRAS|34=699|52=20000726-15:58:06|57=ADMIN|10=241|
700	8=FIX.4.0|9=58|35=0|49=STAF|56=BRAS|34=700|52=20000726-15:58:26|57=ADMIN|10=226|
701	8=FIX.4.0|9=58|35=0|49=STAF|56=BRAS|34=701|52=20000726-15:58:46|57=ADMIN|10=229|
702	8=FIX.4.0|9=58|35=0|49=STAF|56=BRAS|34=702|52=20000726-15:59:06|57=ADMIN|10=227|
703	8=FIX.4.0|9=58|35=0|49=STAF|56=BRAS|34=703|52=20000726-15:59:26|57=ADMIN|10=230|
704	8=FIX.4.0|9=67|35=1|49=STAF|56=BRAS|34=704|52=20000726-15:59:36|57=ADMIN|112=TEST|10=251|
705	8=FIX.4.0|9=58|35=0|49=STAF|56=BRAS|34=705|52=20000726-15:59:56|57=ADMIN|10=235|
706	8=FIX.4.0|9=67|35=1|49=STAF|56=BRAS|34=706|52=20000726-16:00:00|57=ADMIN|112=TEST|10=231|
707	8=FIX.4.0|9=58|35=0|49=STAF|56=BRAS|34=707|52=20000726-16:00:20|57=ADMIN|10=215|
708	8=FIX.4.0|9=67|35=1|49=STAF|56=BRAS|34=708|52=20000726-16:00:22|57=ADMIN|112=TEST|10=237|
709	8=FIX.4.0|9=58|35=0|49=STAF|56=BRAS|34=709|52=20000726-16:00:42|57=ADMIN|10=221|
710	8=FIX.4.0|9=58|35=0|49=STAF|56=BRAS|34=710|52=20000726-16:01:02|57=ADMIN|10=210|
711	8=FIX.4.0|9=58|35=0|49=STAF|56=BRAS|34=711|52=20000726-16:01:22|57=ADMIN|10=213|
712	8=FIX.4.0|9=58|35=0|49=STAF|56=BRAS|34=712|52=20000726-16:01:43|57=ADMIN|10=217|
713	8=FIX.4.0|9=58|35=0|49=STAF|56=BRAS|34=713|52=20000726-16:02:03|57=ADMIN|10=215|
714	8=FIX.4.0|9=58|35=0|49=STAF|56=BRAS|34=714|52=20000726-16:02:23|57=ADMIN|10=218|
715	8=FIX.4.0|9=58|35=0|49=STAF|56=BRAS|34=715|52=20000726-16:02:43|57=ADMIN|10=221|
716	8=FIX.4.0|9=80|35=0|49=STAF|56=BRAS|34=716|52=20000726-16:02:57|57=ADMIN|112=20000726-16:02:54|10=020|
717	8=FIX.4.0|9=58|35=0|49=STAF|56=BRAS|34=717|52=20000726-16:03:17|57=ADMIN|10=225|
718	8=FIX.4.0|9=58|35=0|49=STAF|56=BRAS|34=718|52=20000726-16:03:37|57=ADMIN|10=228|
719	8=FIX.4.0|9=58|35=0|49=STAF|56=BRAS|34=719|52=20000726-16:03:57|57=ADMIN|10=231|
720	8=FIX.4.0|9=58|35=0|49=STAF|56=BRAS|34=720|52=20000726-16:04:17|57=ADMIN|10=220|
721	8=FIX.4.0|9=58|35=0|49=STAF|56=BRAS|34=721|52=20000726-16:04:37|57=ADMIN|10=223|
722	8=FIX.4.0|9=58|35=0|49=STAF|56=BRAS|34=722|52=20000726-16:04:57|57=ADMIN|10=226|
723	8=FIX.4.0|9=58|35=0|49=STAF|56=BRAS|34=723|52=20000726-16:05:17|57=ADMIN|10=224|
724	8=FIX.4.0|9=58|35=0|49=STAF|56=BRAS|34=724|52=20000726-16:05:37|57=ADMIN|10=227|
725	8=FIX.4.0|9=58|35=0|49=STAF|56=BRAS|34=725|52=20000726-16:05:57|57=ADMIN|10=230|
726	8=FIX.4.0|9=58|35=0|49=STAF|56=BRAS|34=726|52=20000726-16:06:17|57=ADMIN|10=228|
727	8=FIX.4.0|9=58|35=0|49=STAF|56=BRAS|34=727|52=20000726-16:06:37|57=ADMIN|10=231|
728	8=FIX.4.0|9=67|35=1|49=STAF|56=BRAS|34=728|52=20000726-16:06:55|57=ADMIN|112=TEST|10=251|
729	8=FIX.4.0|9=58|35=0|49=STAF|56=BRAS|34=729|52=20000726-16:07:15|57=ADMIN|10=230|
730	8=FIX.4.0|9=58|35=0|49=STAF|56=BRAS|34=730|52=20000726-16:07:35|57=ADMIN|10=224|
731	8=FIX.4.0|9=58|35=0|49=STAF|56=BRAS|34=731|52=20000726-16:07:55|57=ADMIN|10=227|
732	8=FIX.4.0|9=58|35=0|49=STAF|56=BRAS|34=732|52=20000726-16:08:15|57=ADMIN|10=225|
733	8=FIX.4.0|9=58|35=0|49=STAF|56=BRAS|34=733|52=20000726-16:08:35|57=ADMIN|10=228|
734	8=FIX.4.0|9=67|35=1|49=STAF|56=BRAS|34=734|52=20000726-16:08:37|57=ADMIN|112=TEST|10=250|
735	8=FIX.4.0|9=58|35=0|49=STAF|56=BRAS|34=735|52=20000726-16:08:57|57=ADMIN|10=234|
736	8=FIX.4.0|9=67|35=1|49=STAF|56=BRAS|34=736|52=20000726-16:09:01|57=ADMIN|112=TEST|10=244|
737	8=FIX.4.0|9=58|35=0|49=STAF|56=BRAS|34=737|52=20000726-16:09:21|57=ADMIN|10=228|
738	8=FIX.4.0|9=58|35=0|49=STAF|56=BRAS|34=738|52=20000726-16:09:41|57=ADMIN|10=231|
739	8=FIX.4.0|9=67|35=1|49=STAF|56=BRAS|34=739|52=20000726-16:09:45|57=ADMIN|112=TEST|10=255|
740	8=FIX.4.0|9=58|35=0|49=STAF|56=BRAS|34=740|52=20000726-16:10:05|57=ADMIN|10=216|
741	8=FIX.4.0|9=67|35=1|49=STAF|56=BRAS|34=741|52=20000726-16:10:07|57=ADMIN|112=TEST|10=238|
742	8=FIX.4.0|9=58|35=0|49=STAF|56=BRAS|34=742|52=20000726-16:10:27|57=ADMIN|10=222|
743	8=FIX.4.0|9=58|35=0|49=STAF|56=BRAS|34=743|52=20000726-16:10:47|57=ADMIN|10=225|
744	8=FIX.4.0|9=58|35=0|49=STAF|56=BRAS|34=744|52=20000726-16:11:07|57=ADMIN|10=223|
745	8=FIX.4.0|9=67|35=1|49=STAF|56=BRAS|34=745|52=20000726-16:11:17|57=ADMIN|112=TEST|10=244|
746	8=FIX.4.0|9=58|35=0|49=STAF|56=BRAS|34=746|52=20000726-16:11:37|57=ADMIN|10=228|
747	8=FIX.4.0|9=58|35=0|49=STAF|56=BRAS|34=747|52=20000726-16:11:57|57=ADMIN|10=231|
748	8=FIX.4.0|9=58|35=0|49=STAF|56=BRAS|34=748|52=20000726-16:12:17|57=ADMIN|10=229|
749	8=FIX.4.0|9=58|35=0|49=STAF|56=BRAS|34=749|52=20000726-16:12:37|57=ADMIN|10=232|
750	8=FIX.4.0|9=58|35=0|49=STAF|56=BRAS|34=750|52=20000726-16:12:57|57=ADMIN|10=226|
751	8=FIX.4.0|9=58|35=0|49=STAF|56=BRAS|34=751|52=20000726-16:13:18|57=ADMIN|10=225|
752	8=FIX.4.0|9=58|35=0|49=STAF|56=BRAS|34=752|52=20000726-16:13:38|57=ADMIN|10=228|
753	8=FIX.4.0|9=58|35=0|49=STAF|56=BRAS|34=753|52=20000726-16:13:58|57=ADMIN|10=231|
754	8=FIX.4.0|9=58|35=0|49=STAF|56=BRAS|34=754|52=20000726-16:14:18|57=ADMIN|10=229|
755	8=FIX.4.0|9=58|35=0|49=STAF|56=BRAS|34=755|52=20000726-16:14:38|57=ADMIN|10=232|
756	8=FIX.4.0|9=58|35=0|49=STAF|56=BRAS|34=756|52=20000726-16:14:58|57=ADMIN|10=235|
757	8=FIX.4.0|9=67|35=1|49=STAF|56=BRAS|34=757|52=20000726-16:15:04|57=ADMIN|112=TEST|10=247|
758	8=FIX.4.0|9=58|35=0|49=STAF|56=BRAS|34=758|52=20000726-16:15:24|57=ADMIN|10=231|
759	8=FIX.4.0|9=58|35=0|49=STAF|56=BRAS|34=759|52=20000726-16:15:44|57=ADMIN|10=234|
760	8=FIX.4.0|9=58|35=0|49=STAF|56=BRAS|34=760|52=20000726-16:16:04|57=ADMIN|10=223|
761	8=FIX.4.0|9=58|35=0|49=STAF|56=BRAS|34=761|52=20000726-16:16:24|57=ADMIN|10=226|
762	8=FIX.4.0|9=58|35=0|49=STAF|56=BRAS|34=762|52=20000726-16:16:44|57=ADMIN|10=229|
763	8=FIX.4.0|9=58|35=0|49=STAF|56=BRAS|34=763|52=20000726-16:17:04|57=ADMIN|10=227|
764	8=FIX.4.0|9=58|35=0|49=STAF|56=BRAS|34=764|52=20000726-16:17:24|57=ADMIN|10=230|
765	8=FIX.4.0|9=58|35=0|49=STAF|56=BRAS|34=765|52=20000726-16:17:44|57=ADMIN|10=233|
766	8=FIX.4.0|9=58|35=0|49=STAF|56=BRAS|34=766|52=20000726-16:18:04|57=ADMIN|10=231|
767	8=FIX.4.0|9=58|35=0|49=STAF|56=BRAS|34=767|52=20000726-16:18:24|57=ADMIN|10=234|
768	8=FIX.4.0|9=58|35=0|49=STAF|56=BRAS|34=768|52=20000726-16:18:44|57=ADMIN|10=237|
769	8=FIX.4.0|9=58|35=0|49=STAF|56=BRAS|34=769|52=20000726-16:19:04|57=ADMIN|10=235|
770	8=FIX.4.0|9=58|35=0|49=STAF|56=BRAS|34=770|52=20000726-16:19:24|57=ADMIN|10=229|
771	8=FIX.4.0|9=58|35=0|49=STAF|56=BRAS|34=771|52=20000726-16:19:44|57=ADMIN|10=232|
772	8=FIX.4.0|9=58|35=0|49=STAF|56=BRAS|34=772|52=20000726-16:20:04|57=ADMIN|10=221|
773	8=FIX.4.0|9=58|35=0|49=STAF|56=BRAS|34=773|52=20000726-16:20:24|57=ADMIN|10=224|
774	8=FIX.4.0|9=58|35=0|49=STAF|56=BRAS|34=774|52=20000726-16:20:44|57=ADMIN|10=227|
775	8=FIX.4.0|9=58|35=0|49=STAF|56=BRAS|34=775|52=20000726-16:21:04|57=ADMIN|10=225|
776	8=FIX.4.0|9=58|35=0|49=STAF|56=BRAS|34=776|52=20000726-16:21:24|57=ADMIN|10=228|
777	8=FIX.4.0|9=58|35=0|49=STAF|56=BRAS|34=777|52=20000726-16:21:44|57=ADMIN|10=231|
778	8=FIX.4.0|9=58|35=0|49=STAF|56=BRAS|34=778|52=20000726-16:22:04|57=ADMIN|10=229|
779	8=FIX.4.0|9=58|35=0|49=STAF|56=BRAS|34=779|52=20000726-16:22:24|57=ADMIN|10=232|
780	8=FIX.4.0|9=58|35=0|49=STAF|56=BRAS|34=780|52=20000726-16:22:44|57=ADMIN|10=226|
781	8=FIX.4.0|9=58|35=0|49=STAF|56=BRAS|34=781|52=20000726-16:23:04|57=ADMIN|10=224|
782	8=FIX.4.0|9=58|35=0|49=STAF|56=BRAS|34=782|52=20000726-16:23:24|57=ADMIN|10=227|
783	8=FIX.4.0|9=58|35=0|49=STAF|56=BRAS|34=783|52=20000726-16:23:44|57=ADMIN|10=230|
784	8=FIX.4.0|9=58|35=0|49=STAF|56=BRAS|34=784|52=20000726-16:24:04|57=ADMIN|10=228|
785	8=FIX.4.0|9=58|35=0|49=STAF|56=BRAS|34=785|52=20000726-16:24:24|57=ADMIN|10=231|
786	8=FIX.4.0|9=80|35=0|49=STAF|56=BRAS|34=786|52=20000726-16:24:31|57=ADMIN|112=20000726-16:24:28|10=028|
787	8=FIX.4.0|9=58|35=0|49=STAF|56=BRAS|34=787|52=20000726-16:24:51|57=ADMIN|10=233|
788	8=FIX.4.0|9=58|35=0|49=STAF|56=BRAS|34=788|52=20000726-16:25:11|57=ADMIN|10=231|
789	8=FIX.4.0|9=58|35=0|49=STAF|56=BRAS|34=789|52=20000726-16:25:31|57=ADMIN|10=234|
790	8=FIX.4.0|9=67|35=1|49=STAF|56=BRAS|34=790|52=20000726-16:25:37|57=ADMIN|112=TEST|10=251|
791	8=FIX.4.0|9=80|35=0|49=STAF|56=BRAS|34=791|52=20000726-16:25:43|57=ADMIN|112=20000726-16:25:40|10=023|
792	8=FIX.4.0|9=58|35=0|49=STAF|56=BRAS|34=792|52=20000726-16:26:03|57=ADMIN|10=228|
793	8=FIX.4.0|9=67|35=1|49=STAF|56=BRAS|34=793|52=20000726-16:26:11|57=ADMIN|112=TEST|10=247|
794	8=FIX.4.0|9=58|35=0|49=STAF|56=BRAS|34=794|52=20000726-16:26:31|57=ADMIN|10=231|
795	8=FIX.4.0|9=58|35=0|49=STAF|56=BRAS|34=795|52=20000726-16:26:51|57=ADMIN|10=234|
796	8=FIX.4.0|9=80|35=0|49=STAF|56=BRAS|34=796|52=20000726-16:27:08|57=ADMIN|112=20000726-16:27:05|10=034|
797	8=FIX.4.0|9=58|35=0|49=STAF|56=BRAS|34=797|52=20000726-16:27:29|57=ADMIN|10=242|
798	8=FIX.4.0|9=58|35=0|49=STAF|56=BRAS|34=798|52=20000726-16:27:49|57=ADMIN|10=245|
799	8=FIX.4.0|9=58|35=0|49=STAF|56=BRAS|34=799|52=20000726-16:28:09|57=ADMIN|10=243|
800	8=FIX.4.0|9=58|35=0|49=STAF|56=BRAS|34=800|52=20000726-16:28:29|57=ADMIN|10=228|
801	8=FIX.4.0|9=80|35=0|49=STAF|56=BRAS|34=801|52=20000726-16:28:41|57=ADMIN|112=20000726-16:28:38|10=026|
802	8=FIX.4.0|9=58|35=0|49=STAF|56=BRAS|34=802|52=20000726-16:29:01|57=ADMIN|10=221|
803	8=FIX.4.0|9=58|35=0|49=STAF|56=BRAS|34=803|52=20000726-16:29:21|57=ADMIN|10=224|
804	8=FIX.4.0|9=58|35=0|49=STAF|56=BRAS|34=804|52=20000726-16:29:41|57=ADMIN|10=227|
805	8=FIX.4.0|9=67|35=1|49=STAF|56=BRAS|34=805|52=20000726-16:29:45|57=ADMIN|112=TEST|10=251|
806	8=FIX.4.0|9=58|35=0|49=STAF|56=BRAS|34=806|52=20000726-16:30:05|57=ADMIN|10=221|
807	8=FIX.4.0|9=58|35=0|49=STAF|56=BRAS|34=807|52=20000726-16:30:25|57=ADMIN|10=224|
808	8=FIX.4.0|9=58|35=0|49=STAF|56=BRAS|34=808|52=20000726-16:30:45|57=ADMIN|10=227|
809	8=FIX.4.0|9=58|35=0|49=STAF|56=BRAS|34=809|52=20000726-16:31:05|57=ADMIN|10=225|
810	8=FIX.4.0|9=58|35=0|49=STAF|56=BRAS|34=810|52=20000726-16:31:25|57=ADMIN|10=219|
811	8=FIX.4.0|9=58|35=0|49=STAF|56=BRAS|34=811|52=20000726-16:31:45|57=ADMIN|10=222|
812	8=FIX.4.0|9=58|35=0|49=STAF|56=BRAS|34=812|52=20000726-16:32:05|57=ADMIN|10=220|
813	8=FIX.4.0|9=58|35=0|49=STAF|56=BRAS|34=813|52=20000726-16:32:25|57=ADMIN|10=223|
814	8=FIX.4.0|9=67|35=1|49=STAF|56=BRAS|34=814|52=20000726-16:32:39|57=ADMIN|112=TEST|10=248|
815	8=FIX.4.0|9=58|35=0|49=STAF|56=BRAS|34=815|52=20000726-16:32:59|57=ADMIN|10=232|
816	8=FIX.4.0|9=58|35=0|49=STAF|56=BRAS|34=816|52=20000726-16:33:19|57=ADMIN|10=230|
817	8=FIX.4.0|9=58|35=0|49=STAF|56=BRAS|34=817|52=20000726-16:33:39|57=ADMIN|10=233|
818	8=FIX.4.0|9=58|35=0|49=STAF|56=BRAS|34=818|52=20000726-16:33:59|57=ADMIN|10=236|
819	8=FIX.4.0|9=58|35=0|49=STAF|56=BRAS|34=819|52=20000726-16:34:19|57=ADMIN|10=234|
820	8=FIX.4.0|9=58|35=0|49=STAF|56=BRAS|34=820|52=20000726-16:34:39|57=ADMIN|10=228|
821	8=FIX.4.0|9=80|35=0|49=STAF|56=BRAS|34=821|52=20000726-16:34:44|57=ADMIN|112=20000726-16:34:41|10=019|
822	8=FIX.4.0|9=58|35=0|49=STAF|56=BRAS|34=822|52=20000726-16:35:05|57=ADMIN|10=224|
823	8=FIX.4.0|9=58|35=0|49=STAF|56=BRAS|34=823|52=20000726-16:35:25|57=ADMIN|10=227|
824	8=FIX.4.0|9=58|35=0|49=STAF|56=BRAS|34=824|52=20000726-16:35:45|57=ADMIN|10=230|
825	8=FIX.4.0|9=58|35=0|49=STAF|56=BRAS|34=825|52=20000726-16:36:05|57=ADMIN|10=228|
826	8=FIX.4.0|9=58|35=0|49=STAF|56=BRAS|34=826|52=20000726-16:36:26|57=ADMIN|10=232|
827	8=FIX.4.0|9=58|35=0|49=STAF|56=BRAS|34=827|52=20000726-16:36:46|57=ADMIN|10=235|
828	8=FIX.4.0|9=58|35=0|49=STAF|56=BRAS|34=828|52=20000726-16:37:06|57=ADMIN|10=233|
829	8=FIX.4.0|9=58|35=0|49=STAF|56=BRAS|34=829|52=20000726-16:37:26|57=ADMIN|10=236|
830	8=FIX.4.0|9=58|35=0|49=STAF|56=BRAS|34=830|52=20000726-16:37:46|57=ADMIN|10=230|
831	8=FIX.4.0|9=67|35=1|49=STAF|56=BRAS|34=831|52=20000726-16:38:04|57=ADMIN|112=TEST|10=245|
832	8=FIX.4.0|9=58|35=0|49=STAF|56=BRAS|34=832|52=20000726-16:38:24|57=ADMIN|10=229|
833	8=FIX.4.0|9=58|35=0|49=STAF|56=BRAS|34=833|52=20000726-16:38:44|57=ADMIN|10=232|
834	8=FIX.4.0|9=58|35=0|49=STAF|56=BRAS|34=834|52=20000726-16:39:04|57=ADMIN|10=230|
835	8=FIX.4.0|9=58|35=0|49=STAF|56=BRAS|34=835|52=20000726-16:39:24|57=ADMIN|10=233|
836	8=FIX.4.0|9=58|35=0|49=STAF|56=BRAS|34=836|52=20000726-16:39:44|57=ADMIN|10=236|
837	8=FIX.4.0|9=58|35=0|49=STAF|56=BRAS|34=837|52=20000726-16:40:04|57=ADMIN|10=225|
838	8=FIX.4.0|9=58|35=0|49=STAF|56=BRAS|34=838|52=20000726-16:40:24|57=ADMIN|10=228|
839	8=FIX.4.0|9=58|35=0|49=STAF|56=BRAS|34=839|52=20000726-16:40:44|57=ADMIN|10=231|
840	8=FIX.4.0|9=58|35=0|49=STAF|56=BRAS|34=840|52=20000726-16:41:04|57=ADMIN|10=220|
841	8=FIX.4.0|9=58|35=0|49=STAF|56=BRAS|34=841|52=20000726-16:41:24|57=ADMIN|10=223|
842	8=FIX.4.0|9=58|35=0|49=STAF|56=BRAS|34=842|52=20000726-16:41:44|57=ADMIN|10=226|
843	8=FIX.4.0|9=58|35=0|49=STAF|56=BRAS|34=843|52=20000726-16:42:04|57=ADMIN|10=224|
844	8=FIX.4.0|9=67|35=1|49=STAF|56=BRAS|34=844|52=20000726-16:42:14|57=ADMIN|112=TEST|10=245|
845	8=FIX.4.0|9=58|35=0|49=STAF|56=BRAS|34=845|52=20000726-16:42:34|57=ADMIN|10=229|
846	8=FIX.4.0|9=58|35=0|49=STAF|56=BRAS|34=846|52=20000726-16:42:54|57=ADMIN|10=232|
847	8=FIX.4.0|9=58|35=0|49=STAF|56=BRAS|34=847|52=20000726-16:43:14|57=ADMIN|10=230|
848	8=FIX.4.0|9=58|35=0|49=STAF|56=BRAS|34=848|52=20000726-16:43:34|57=ADMIN|10=233|
849	8=FIX.4.0|9=58|35=0|49=STAF|56=BRAS|34=849|52=20000726-16:43:54|57=ADMIN|10=236|
850	8=FIX.4.0|9=58|35=0|49=STAF|56=BRAS|34=850|52=20000726-16:44:14|57=ADMIN|10=225|
851	8=FIX.4.0|9=67|35=1|49=STAF|56=BRAS|34=851|52=20000726-16:44:24|57=ADMIN|112=TEST|10=246|
852	8=FIX.4.0|9=58|35=0|49=STAF|56=BRAS|34=852|52=20000726-16:44:44|57=ADMIN|10=230|
853	8=FIX.4.0|9=58|35=0|49=STAF|56=BRAS|34=853|52=20000726-16:45:04|57=ADMIN|10=228|
854	8=FIX.4.0|9=58|35=0|49=STAF|56=BRAS|34=854|52=20000726-16:45:24|57=ADMIN|10=231|
855	8=FIX.4.0|9=67|35=1|49=STAF|56=BRAS|34=855|52=20000726-16:45:42|57=ADMIN|112=TEST|10=251|
856	8=FIX.4.0|9=58|35=0|49=STAF|56=BRAS|34=856|52=20000726-16:46:02|57=ADMIN|10=230|
857	8=FIX.4.0|9=58|35=0|49=STAF|56=BRAS|34=857|52=20000726-16:46:22|57=ADMIN|10=233|
858	8=FIX.4.0|9=58|35=0|49=STAF|56=BRAS|34=858|52=20000726-16:46:42|57=ADMIN|10=236|
859	8=FIX.4.0|9=58|35=0|49=STAF|56=BRAS|34=859|52=20000726-16:47:02|57=ADMIN|10=234|
860	8=FIX.4.0|9=58|35=0|49=STAF|56=BRAS|34=860|52=20000726-16:47:22|57=ADMIN|10=228|
861	8=FIX.4.0|9=58|35=0|49=STAF|56=BRAS|34=861|52=20000726-16:47:42|57=ADMIN|10=231|
862	8=FIX.4.0|9=58|35=0|49=STAF|56=BRAS|34=862|52=20000726-16:48:03|57=ADMIN|10=230|
863	8=FIX.4.0|9=58|35=0|49=STAF|56=BRAS|34=863|52=20000726-16:48:23|57=ADMIN|10=233|
864	8=FIX.4.0|9=58|35=0|49=STAF|56=BRAS|34=864|52=20000726-16:48:43|57=ADMIN|10=236|
865	8=FIX.4.0|9=58|35=0|49=STAF|56=BRAS|34=865|52=20000726-16:49:03|57=ADMIN|10=234|
866	8=FIX.4.0|9=58|35=0|49=STAF|56=BRAS|34=866|52=20000726-16:49:23|57=ADMIN|10=237|
867	8=FIX.4.0|9=58|35=0|49=STAF|56=BRAS|34=867|52=20000726-16:49:43|57=ADMIN|10=240|
868	8=FIX.4.0|9=58|35=0|49=STAF|56=BRAS|34=868|52=20000726-16:50:03|57=ADMIN|10=229|
869	8=FIX.4.0|9=58|35=0|49=STAF|56=BRAS|34=869|52=20000726-16:50:23|57=ADMIN|10=232|
870	8=FIX.4.0|9=67|35=1|49=STAF|56=BRAS|34=870|52=20000726-16:50:33|57=ADMIN|112=TEST|10=244|
871	8=FIX.4.0|9=58|35=0|49=STAF|56=BRAS|34=871|52=20000726-16:50:53|57=ADMIN|10=228|
872	8=FIX.4.0|9=58|35=0|49=STAF|56=BRAS|34=872|52=20000726-16:51:13|57=ADMIN|10=226|
873	8=FIX.4.0|9=58|35=0|49=STAF|56=BRAS|34=873|52=20000726-16:51:33|57=ADMIN|10=229|
874	8=FIX.4.0|9=58|35=0|49=STAF|56=BRAS|34=874|52=20000726-16:51:53|57=ADMIN|10=232|
875	8=FIX.4.0|9=58|35=0|49=STAF|56=BRAS|34=875|52=20000726-16:52:13|57=ADMIN|10=230|
876	8=FIX.4.0|9=58|35=0|49=STAF|56=BRAS|34=876|52=20000726-16:52:33|57=ADMIN|10=233|
877	8=FIX.4.0|9=58|35=0|49=STAF|56=BRAS|34=877|52=20000726-16:52:53|57=ADMIN|10=236|
878	8=FIX.4.0|9=58|35=0|49=STAF|56=BRAS|34=878|52=20000726-16:53:13|57=ADMIN|10=234|
879	8=FIX.4.0|9=58|35=0|49=STAF|56=BRAS|34=879|52=20000726-16:53:33|57=ADMIN|10=237|
880	8=FIX.4.0|9=58|35=0|49=STAF|56=BRAS|34=880|52=20000726-16:53:53|57=ADMIN|10=231|
881	8=FIX.4.0|9=58|35=0|49=STAF|56=BRAS|34=881|52=20000726-16:54:13|57=ADMIN|10=229|
882	8=FIX.4.0|9=58|35=0|49=STAF|56=BRAS|34=882|52=20000726-16:54:33|57=ADMIN|10=232|
883	8=FIX.4.0|9=67|35=1|49=STAF|56=BRAS|34=883|52=20000726-16:54:41|57=ADMIN|112=TEST|10=251|
884	8=FIX.4.0|9=58|35=0|49=STAF|56=BRAS|34=884|52=20000726-16:55:01|57=ADMIN|10=230|
885	8=FIX.4.0|9=58|35=0|49=STAF|56=BRAS|34=885|52=20000726-16:55:21|57=ADMIN|10=233|
886	8=FIX.4.0|9=58|35=0|49=STAF|56=BRAS|34=886|52=20000726-16:55:41|57=ADMIN|10=236|
887	8=FIX.4.0|9=67|35=1|49=STAF|56=BRAS|34=887|52=20000726-16:55:45|57=ADMIN|112=TEST|10=004|
888	8=FIX.4.0|9=58|35=0|49=STAF|56=BRAS|34=888|52=20000726-16:56:05|57=ADMIN|10=239|
889	8=FIX.4.0|9=67|35=1|49=STAF|56=BRAS|34=889|52=20000726-16:56:07|57=ADMIN|112=TEST|10=005|
890	8=FIX.4.0|9=58|35=0|49=STAF|56=BRAS|34=890|52=20000726-16:56:27|57=ADMIN|10=236|
891	8=FIX.4.0|9=58|35=0|49=STAF|56=BRAS|34=891|52=20000726-16:56:47|57=ADMIN|10=239|
892	8=FIX.4.0|9=58|35=0|49=STAF|56=BRAS|34=892|52=20000726-16:57:07|57=ADMIN|10=237|
893	8=FIX.4.0|9=58|35=0|49=STAF|56=BRAS|34=893|52=20000726-16:57:27|57=ADMIN|10=240|
894	8=FIX.4.0|9=58|35=0|49=STAF|56=BRAS|34=894|52=20000726-16:57:47|57=ADMIN|10=243|
895	8=FIX.4.0|9=67|35=1|49=STAF|56=BRAS|34=895|52=20000726-16:57:55|57=ADMIN|112=TEST|10=006|
896	8=FIX.4.0|9=58|35=0|49=STAF|56=BRAS|34=896|52=20000726-16:58:15|57=ADMIN|10=241|
897	8=FIX.4.0|9=58|35=0|49=STAF|56=BRAS|34=897|52=20000726-16:58:35|57=ADMIN|10=244|
898	8=FIX.4.0|9=58|35=0|49=STAF|56=BRAS|34=898|52=20000726-16:58:55|57=ADMIN|10=247|
899	8=FIX.4.0|9=58|35=0|49=STAF|56=BRAS|34=899|52=20000726-16:59:15|57=ADMIN|10=245|
900	8=FIX.4.0|9=58|35=0|49=STAF|56=BRAS|34=900|52=20000726-16:59:36|57=ADMIN|10=231|
901	8=FIX.4.0|9=80|35=0|49=STAF|56=BRAS|34=901|52=20000726-16:59:40|57=ADMIN|112=20000726-16:59:37|10=033|
902	8=FIX.4.0|9=58|35=0|49=STAF|56=BRAS|34=902|52=20000726-17:00:00|57=ADMIN|10=211|
903	8=FIX.4.0|9=67|35=1|49=STAF|56=BRAS|34=903|52=20000726-17:00:04|57=ADMIN|112=TEST|10=235|
904	8=FIX.4.0|9=58|35=0|49=STAF|56=BRAS|34=904|52=20000726-17:00:24|57=ADMIN|10=219|
905	8=FIX.4.0|9=58|35=0|49=STAF|56=BRAS|34=905|52=20000726-17:00:44|57=ADMIN|10=222|
906	8=FIX.4.0|9=80|35=0|49=STAF|56=BRAS|34=906|52=20000726-17:00:47|57=ADMIN|112=20000726-17:00:44|10=017|
907	8=FIX.4.0|9=58|35=0|49=STAF|56=BRAS|34=907|52=20000726-17:01:08|57=ADMIN|10=225|
908	8=FIX.4.0|9=58|35=0|49=STAF|56=BRAS|34=908|52=20000726-17:01:28|57=ADMIN|10=228|
909	8=FIX.4.0|9=67|35=1|49=STAF|56=BRAS|34=909|52=20000726-17:01:38|57=ADMIN|112=TEST|10=249|
910	8=FIX.4.0|9=80|35=0|49=STAF|56=BRAS|34=910|52=20000726-17:01:57|57=ADMIN|112=20000726-17:01:54|10=016|
911	8=FIX.4.0|9=58|35=0|49=STAF|56=BRAS|34=911|52=20000726-17:02:18|57=ADMIN|10=222|
912	8=FIX.4.0|9=58|35=0|49=STAF|56=BRAS|34=912|52=20000726-17:02:38|57=ADMIN|10=225|
913	8=FIX.4.0|9=58|35=0|49=STAF|56=BRAS|34=913|52=20000726-17:02:58|57=ADMIN|10=228|
914	8=FIX.4.0|9=58|35=0|49=STAF|56=BRAS|34=914|52=20000726-17:03:18|57=ADMIN|10=226|
915	8=FIX.4.0|9=80|35=0|49=STAF|56=BRAS|34=915|52=20000726-17:03:28|57=ADMIN|112=20000726-17:03:25|10=021|
916	8=FIX.4.0|9=58|35=0|49=STAF|56=BRAS|34=916|52=20000726-17:03:48|57=ADMIN|10=231|
917	8=FIX.4.0|9=58|35=0|49=STAF|56=BRAS|34=917|52=20000726-17:04:08|57=ADMIN|10=229|
918	8=FIX.4.0|9=58|35=0|49=STAF|56=BRAS|34=918|52=20000726-17:04:28|57=ADMIN|10=232|
919	8=FIX.4.0|9=58|35=0|49=STAF|56=BRAS|34=919|52=20000726-17:04:48|57=ADMIN|10=235|
920	8=FIX.4.0|9=67|35=1|49=STAF|56=BRAS|34=920|52=20000726-17:04:48|57=ADMIN|112=TEST|10=246|
921	8=FIX.4.0|9=58|35=0|49=STAF|56=BRAS|34=921|52=20000726-17:05:08|57=ADMIN|10=225|
922	8=FIX.4.0|9=58|35=0|49=STAF|56=BRAS|34=922|52=20000726-17:05:28|57=ADMIN|10=228|
923	8=FIX.4.0|9=58|35=0|49=STAF|56=BRAS|34=923|52=20000726-17:05:48|57=ADMIN|10=231|
924	8=FIX.4.0|9=58|35=0|49=STAF|56=BRAS|34=924|52=20000726-17:06:08|57=ADMIN|10=229|
925	8=FIX.4.0|9=58|35=0|49=STAF|56=BRAS|34=925|52=20000726-17:06:28|57=ADMIN|10=232|
926	8=FIX.4.0|9=58|35=0|49=STAF|56=BRAS|34=926|52=20000726-17:06:48|57=ADMIN|10=235|
927	8=FIX.4.0|9=80|35=0|49=STAF|56=BRAS|34=927|52=20000726-17:06:48|57=ADMIN|112=20000726-17:06:45|10=034|
928	8=FIX.4.0|9=58|35=0|49=STAF|56=BRAS|34=928|52=20000726-17:07:08|57=ADMIN|10=234|
929	8=FIX.4.0|9=67|35=1|49=STAF|56=BRAS|34=929|52=20000726-17:07:22|57=ADMIN|112=TEST|10=250|
930	8=FIX.4.0|9=58|35=0|49=STAF|56=BRAS|34=930|52=20000726-17:07:42|57=ADMIN|10=225|
931	8=FIX.4.0|9=58|35=0|49=STAF|56=BRAS|34=931|52=20000726-17:08:02|57=ADMIN|10=223|
932	8=FIX.4.0|9=58|35=0|49=STAF|56=BRAS|34=932|52=20000726-17:08:22|57=ADMIN|10=226|
933	8=FIX.4.0|9=58|35=0|49=STAF|56=BRAS|34=933|52=20000726-17:08:42|57=ADMIN|10=229|
934	8=FIX.4.0|9=67|35=1|49=STAF|56=BRAS|34=934|52=20000726-17:09:00|57=ADMIN|112=TEST|10=244|
935	8=FIX.4.0|9=58|35=0|49=STAF|56=BRAS|34=935|52=20000726-17:09:20|57=ADMIN|10=228|
936	8=FIX.4.0|9=67|35=1|49=STAF|56=BRAS|34=936|52=20000726-17:09:22|57=ADMIN|112=TEST|10=250|
937	8=FIX.4.0|9=58|35=0|49=STAF|56=BRAS|34=937|52=20000726-17:09:42|57=ADMIN|10=234|
938	8=FIX.4.0|9=58|35=0|49=STAF|56=BRAS|34=938|52=20000726-17:10:02|57=ADMIN|10=223|
939	8=FIX.4.0|9=58|35=0|49=STAF|56=BRAS|34=939|52=20000726-17:10:22|57=ADMIN|10=226|
940	8=FIX.4.0|9=58|35=0|49=STAF|56=BRAS|34=940|52=20000726-17:10:42|57=ADMIN|10=220|
941	8=FIX.4.0|9=80|35=0|49=STAF|56=BRAS|34=941|52=20000726-17:11:02|57=ADMIN|112=20000726-17:10:59|10=016|
942	8=FIX.4.0|9=58|35=0|49=STAF|56=BRAS|34=942|52=20000726-17:11:23|57=ADMIN|10=222|
943	8=FIX.4.0|9=58|35=0|49=STAF|56=BRAS|34=943|52=20000726-17:11:43|57=ADMIN|10=225|
944	8=FIX.4.0|9=58|35=0|49=STAF|56=BRAS|34=944|52=20000726-17:12:03|57=ADMIN|10=223|
945	8=FIX.4.0|9=58|35=0|49=STAF|56=BRAS|34=945|52=20000726-17:12:23|57=ADMIN|10=226|
946	8=FIX.4.0|9=67|35=1|49=STAF|56=BRAS|34=946|52=20000726-17:12:31|57=ADMIN|112=TEST|10=245|
947	8=FIX.4.0|9=58|35=0|49=STAF|56=BRAS|34=947|52=20000726-17:12:51|57=ADMIN|10=229|
948	8=FIX.4.0|9=67|35=1|49=STAF|56=BRAS|34=948|52=20000726-17:13:01|57=ADMIN|112=TEST|10=245|
949	8=FIX.4.0|9=58|35=0|49=STAF|56=BRAS|34=949|52=20000726-17:13:21|57=ADMIN|10=229|
950	8=FIX.4.0|9=58|35=0|49=STAF|56=BRAS|34=950|52=20000726-17:13:41|57=ADMIN|10=223|
951	8=FIX.4.0|9=67|35=1|49=STAF|56=BRAS|34=951|52=20000726-17:13:45|57=ADMIN|112=TEST|10=247|
952	8=FIX.4.0|9=58|35=0|49=STAF|56=BRAS|34=952|52=20000726-17:14:05|57=ADMIN|10=226|
953	8=FIX.4.0|9=58|35=0|49=STAF|56=BRAS|34=953|52=20000726-17:14:25|57=ADMIN|10=229|
954	8=FIX.4.0|9=58|35=0|49=STAF|56=BRAS|34=954|52=20000726-17:14:45|57=ADMIN|10=232|
955	8=FIX.4.0|9=58|35=0|49=STAF|56=BRAS|34=955|52=20000726-17:15:05|57=ADMIN|10=230|
956	8=FIX.4.0|9=58|35=0|49=STAF|56=BRAS|34=956|52=20000726-17:15:25|57=ADMIN|10=233|
957	8=FIX.4.0|9=58|35=0|49=STAF|56=BRAS|34=957|52=20000726-17:15:45|57=ADMIN|10=236|
958	8=FIX.4.0|9=58|35=0|49=STAF|56=BRAS|34=958|52=20000726-17:16:05|57=ADMIN|10=234|
959	8=FIX.4.0|9=58|35=0|49=STAF|56=BRAS|34=959|52=20000726-17:16:25|57=ADMIN|10=237|
960	8=FIX.4.0|9=58|35=0|49=STAF|56=BRAS|34=960|52=20000726-17:16:45|57=ADMIN|10=231|
961	8=FIX.4.0|9=58|35=0|49=STAF|56=BRAS|34=961|52=20000726-17:17:05|57=ADMIN|10=229|
962	8=FIX.4.0|9=58|35=0|49=STAF|56=BRAS|34=962|52=20000726-17:17:25|57=ADMIN|10=232|
963	8=FIX.4.0|9=58|35=0|49=STAF|56=BRAS|34=963|52=20000726-17:17:45|57=ADMIN|10=235|
964	8=FIX.4.0|9=58|35=0|49=STAF|56=BRAS|34=964|52=20000726-17:18:05|57=ADMIN|10=233|
965	8=FIX.4.0|9=67|35=1|49=STAF|56=BRAS|34=965|52=20000726-17:18:17|57=ADMIN|112=TEST|10=000|
966	8=FIX.4.0|9=58|35=0|49=STAF|56=BRAS|34=966|52=20000726-17:18:37|57=ADMIN|10=240|
967	8=FIX.4.0|9=58|35=0|49=STAF|56=BRAS|34=967|52=20000726-17:18:57|57=ADMIN|10=243|
968	8=FIX.4.0|9=58|35=0|49=STAF|56=BRAS|34=968|52=20000726-17:19:17|57=ADMIN|10=241|
969	8=FIX.4.0|9=58|35=0|49=STAF|56=BRAS|34=969|52=20000726-17:19:37|57=ADMIN|10=244|
970	8=FIX.4.0|9=58|35=0|49=STAF|56=BRAS|34=970|52=20000726-17:19:57|57=ADMIN|10=238|
971	8=FIX.4.0|9=58|35=0|49=STAF|56=BRAS|34=971|52=20000726-17:20:17|57=ADMIN|10=227|
972	8=FIX.4.0|9=58|35=0|49=STAF|56=BRAS|34=972|52=20000726-17:20:37|57=ADMIN|10=230|
973	8=FIX.4.0|9=58|35=0|49=STAF|56=BRAS|34=973|52=20000726-17:20:57|57=ADMIN|10=233|
974	8=FIX.4.0|9=58|35=0|49=STAF|56=BRAS|34=974|52=20000726-17:21:17|57=ADMIN|10=231|
975	8=FIX.4.0|9=58|35=0|49=STAF|56=BRAS|34=975|52=20000726-17:21:37|57=ADMIN|10=234|
976	8=FIX.4.0|9=58|35=0|49=STAF|56=BRAS|34=976|52=20000726-17:21:57|57=ADMIN|10=237|
977	8=FIX.4.0|9=58|35=0|49=STAF|56=BRAS|34=977|52=20000726-17:22:17|57=ADMIN|10=235|
978	8=FIX.4.0|9=58|35=0|49=STAF|56=BRAS|34=978|52=20000726-17:22:38|57=ADMIN|10=239|
979	8=FIX.4.0|9=58|35=0|49=STAF|56=BRAS|34=979|52=20000726-17:22:58|57=ADMIN|10=242|
980	8=FIX.4.0|9=58|35=0|49=STAF|56=BRAS|34=980|52=20000726-17:23:18|57=ADMIN|10=231|
981	8=FIX.4.0|9=58|35=0|49=STAF|56=BRAS|34=981|52=20000726-17:23:38|57=ADMIN|10=234|
982	8=FIX.4.0|9=58|35=0|49=STAF|56=BRAS|34=982|52=20000726-17:23:58|57=ADMIN|10=237|
983	8=FIX.4.0|9=58|35=0|49=STAF|56=BRAS|34=983|52=20000726-17:24:18|57=ADMIN|10=235|
984	8=FIX.4.0|9=58|35=0|49=STAF|56=BRAS|34=984|52=20000726-17:24:38|57=ADMIN|10=238|
985	8=FIX.4.0|9=58|35=0|49=STAF|56=BRAS|34=985|52=20000726-17:24:58|57=ADMIN|10=241|
986	8=FIX.4.0|9=58|35=0|49=STAF|56=BRAS|34=986|52=20000726-17:25:18|57=ADMIN|10=239|
987	8=FIX.4.0|9=58|35=0|49=STAF|56=BRAS|34=987|52=20000726-17:25:38|57=ADMIN|10=242|
988	8=FIX.4.0|9=58|35=0|49=STAF|56=BRAS|34=988|52=20000726-17:25:58|57=ADMIN|10=245|
989	8=FIX.4.0|9=58|35=0|49=STAF|56=BRAS|34=989|52=20000726-17:26:18|57=ADMIN|10=243|
990	8=FIX.4.0|9=58|35=0|49=STAF|56=BRAS|34=990|52=20000726-17:26:38|57=ADMIN|10=237|
991	8=FIX.4.0|9=58|35=0|49=STAF|56=BRAS|34=991|52=20000726-17:26:58|57=ADMIN|10=240|
992	8=FIX.4.0|9=58|35=0|49=STAF|56=BRAS|34=992|52=20000726-17:27:18|57=ADMIN|10=238|
993	8=FIX.4.0|9=58|35=0|49=STAF|56=BRAS|34=993|52=20000726-17:27:38|57=ADMIN|10=241|
994	8=FIX.4.0|9=58|35=0|49=STAF|56=BRAS|34=994|52=20000726-17:27:58|57=ADMIN|10=244|
995	8=FIX.4.0|9=58|35=0|49=STAF|56=BRAS|34=995|52=20000726-17:28:18|57=ADMIN|10=242|
996	8=FIX.4.0|9=58|35=0|49=STAF|56=BRAS|34=996|52=20000726-17:28:38|57=ADMIN|10=245|
997	8=FIX.4.0|9=58|35=0|49=STAF|56=BRAS|34=997|52=20000726-17:28:58|57=ADMIN|10=248|
998	8=FIX.4.0|9=58|35=0|49=STAF|56=BRAS|34=998|52=20000726-17:29:18|57=ADMIN|10=246|
999	8=FIX.4.0|9=58|35=0|49=STAF|56=BRAS|34=999|52=20000726-17:29:38|57=ADMIN|10=249|
1000	8=FIX.4.0|9=59|35=0|49=STAF|56=BRAS|34=1000|52=20000726-17:29:58|57=ADMIN|10=018|
1001	8=FIX.4.0|9=59|35=0|49=STAF|56=BRAS|34=1001|52=20000726-17:30:18|57=ADMIN|10=007|
1002	8=FIX.4.0|9=59|35=0|49=STAF|56=BRAS|34=1002|52=20000726-17:30:38|57=ADMIN|10=010|
1003	8=FIX.4.0|9=68|35=1|49=STAF|56=BRAS|34=1003|52=20000726-17:30:42|57=ADMIN|112=TEST|10=025|
1004	8=FIX.4.0|9=59|35=0|49=STAF|56=BRAS|34=1004|52=20000726-17:31:02|57=ADMIN|10=004|
1005	8=FIX.4.0|9=59|35=0|49=STAF|56=BRAS|34=1005|52=20000726-17:31:22|57=ADMIN|10=007|
1006	8=FIX.4.0|9=81|35=0|49=STAF|56=BRAS|34=1006|52=20000726-17:31:25|57=ADMIN|112=20000726-17:31:21|10=057|
1007	8=FIX.4.0|9=59|35=0|49=STAF|56=BRAS|34=1007|52=20000726-17:31:46|57=ADMIN|10=015|
1008	8=FIX.4.0|9=59|35=0|49=STAF|56=BRAS|34=1008|52=20000726-17:32:06|57=ADMIN|10=013|
1009	8=FIX.4.0|9=59|35=0|49=STAF|56=BRAS|34=1009|52=20000726-17:32:26|57=ADMIN|10=016|
1010	8=FIX.4.0|9=59|35=0|49=STAF|56=BRAS|34=1010|52=20000726-17:32:46|57=ADMIN|10=010|
1011	8=FIX.4.0|9=59|35=0|49=STAF|56=BRAS|34=1011|52=20000726-17:33:06|57=ADMIN|10=008|
1012	8=FIX.4.0|9=59|35=0|49=STAF|56=BRAS|34=1012|52=20000726-17:33:26|57=ADMIN|10=011|
1013	8=FIX.4.0|9=59|35=0|49=STAF|56=BRAS|34=1013|52=20000726-17:33:46|57=ADMIN|10=014|
1014	8=FIX.4.0|9=59|35=0|49=STAF|56=BRAS|34=1014|52=20000726-17:34:06|57=ADMIN|10=012|
1015	8=FIX.4.0|9=59|35=0|49=STAF|56=BRAS|34=1015|52=20000726-17:34:27|57=ADMIN|10=016|
1016	8=FIX.4.0|9=59|35=0|49=STAF|56=BRAS|34=1016|52=20000726-17:34:47|57=ADMIN|10=019|
1017	8=FIX.4.0|9=59|35=0|49=STAF|56=BRAS|34=1017|52=20000726-17:35:07|57=ADMIN|10=017|
1018	8=FIX.4.0|9=59|35=0|49=STAF|56=BRAS|34=1018|52=20000726-17:35:27|57=ADMIN|10=020|
1019	8=FIX.4.0|9=59|35=0|49=STAF|56=BRAS|34=1019|52=20000726-17:35:47|57=ADMIN|10=023|
1020	8=FIX.4.0|9=59|35=0|49=STAF|56=BRAS|34=1020|52=20000726-17:36:07|57=ADMIN|10=012|
1021	8=FIX.4.0|9=68|35=1|49=STAF|56=BRAS|34=1021|52=20000726-17:36:07|57=ADMIN|112=TEST|10=032|
1022	8=FIX.4.0|9=59|35=0|49=STAF|56=BRAS|34=1022|52=20000726-17:36:27|57=ADMIN|10=016|
1023	8=FIX.4.0|9=68|35=1|49=STAF|56=BRAS|34=1023|52=20000726-17:36:31|57=ADMIN|112=TEST|10=031|
1024	8=FIX.4.0|9=59|35=0|49=STAF|56=BRAS|34=1024|52=20000726-17:36:51|57=ADMIN|10=015|
1025	8=FIX.4.0|9=59|35=0|49=STAF|56=BRAS|34=1025|52=20000726-17:37:11|57=ADMIN|10=013|
1026	8=FIX.4.0|9=68|35=1|49=STAF|56=BRAS|34=1026|52=20000726-17:37:15|57=ADMIN|112=TEST|10=037|
1027	8=FIX.4.0|9=59|35=0|49=STAF|56=BRAS|34=1027|52=20000726-17:37:35|57=ADMIN|10=021|
1028	8=FIX.4.0|9=59|35=0|49=STAF|56=BRAS|34=1028|52=20000726-17:37:55|57=ADMIN|10=024|
1029	8=FIX.4.0|9=59|35=0|49=STAF|56=BRAS|34=1029|52=20000726-17:38:15|57=ADMIN|10=022|
1030	8=FIX.4.0|9=59|35=0|49=STAF|56=BRAS|34=1030|52=20000726-17:38:35|57=ADMIN|10=016|
1031	8=FIX.4.0|9=59|35=0|49=STAF|56=BRAS|34=1031|52=20000726-17:38:55|57=ADMIN|10=019|
1032	8=FIX.4.0|9=59|35=0|49=STAF|56=BRAS|34=1032|52=20000726-17:39:15|57=ADMIN|10=017|
1033	8=FIX.4.0|9=59|35=0|49=STAF|56=BRAS|34=1033|52=20000726-17:39:35|57=ADMIN|10=020|
1034	8=FIX.4.0|9=59|35=0|49=STAF|56=BRAS|34=1034|52=20000726-17:39:55|57=ADMIN|10=023|
1035	8=FIX.4.0|9=59|35=0|49=STAF|56=BRAS|34=1035|52=20000726-17:40:15|57=ADMIN|10=012|
1036	8=FIX.4.0|9=59|35=0|49=STAF|56=BRAS|34=1036|52=20000726-17:40:35|57=ADMIN|10=015|
1037	8=FIX.4.0|9=59|35=0|49=STAF|56=BRAS|34=1037|52=20000726-17:40:55|57=ADMIN|10=018|
1038	8=FIX.4.0|9=59|35=0|49=STAF|56=BRAS|34=1038|52=20000726-17:41:15|57=ADMIN|10=016|
1039	8=FIX.4.0|9=59|35=0|49=STAF|56=BRAS|34=1039|52=20000726-17:41:35|57=ADMIN|10=019|
1040	8=FIX.4.0|9=59|35=0|49=STAF|56=BRAS|34=1040|52=20000726-17:41:55|57=ADMIN|10=013|
1041	8=FIX.4.0|9=81|35=0|49=STAF|56=BRAS|34=1041|52=20000726-17:42:03|57=ADMIN|112=20000726-17:41:59|10=066|
1042	8=FIX.4.0|9=59|35=0|49=STAF|56=BRAS|34=1042|52=20000726-17:42:23|57=ADMIN|10=011|
1043	8=FIX.4.0|9=59|35=0|49=STAF|56=BRAS|34=1043|52=20000726-17:42:43|57=ADMIN|10=014|
1044	8=FIX.4.0|9=59|35=0|49=STAF|56=BRAS|34=1044|52=20000726-17:43:03|57=ADMIN|10=012|
1045	8=FIX.4.0|9=59|35=0|49=STAF|56=BRAS|34=1045|52=20000726-17:43:23|57=ADMIN|10=015|
1046	8=FIX.4.0|9=81|35=0|49=STAF|56=BRAS|34=1046|52=20000726-17:43:34|57=ADMIN|112=20000726-17:43:30|10=067|
1047	8=FIX.4.0|9=59|35=0|49=STAF|56=BRAS|34=1047|52=20000726-17:43:55|57=ADMIN|10=022|
1048	8=FIX.4.0|9=59|35=0|49=STAF|56=BRAS|34=1048|52=20000726-17:44:15|57=ADMIN|10=020|
1049	8=FIX.4.0|9=59|35=0|49=STAF|56=BRAS|34=1049|52=20000726-17:44:35|57=ADMIN|10=023|
1050	8=FIX.4.0|9=68|35=1|49=STAF|56=BRAS|34=1050|52=20000726-17:44:37|57=ADMIN|112=TEST|10=036|
1051	8=FIX.4.0|9=59|35=0|49=STAF|56=BRAS|34=1051|52=20000726-17:44:57|57=ADMIN|10=020|
1052	8=FIX.4.0|9=59|35=0|49=STAF|56=BRAS|34=1052|52=20000726-17:45:17|57=ADMIN|10=018|
1053	8=FIX.4.0|9=68|35=1|49=STAF|56=BRAS|34=1053|52=20000726-17:45:21|57=ADMIN|112=TEST|10=033|
1054	8=FIX.4.0|9=59|35=0|49=STAF|56=BRAS|34=1054|52=20000726-17:45:41|57=ADMIN|10=017|
1055	8=FIX.4.0|9=59|35=0|49=STAF|56=BRAS|34=1055|52=20000726-17:46:02|57=ADMIN|10=016|
1056	8=FIX.4.0|9=59|35=0|49=STAF|56=BRAS|34=1056|52=20000726-17:46:22|57=ADMIN|10=019|
1057	8=FIX.4.0|9=59|35=0|49=STAF|56=BRAS|34=1057|52=20000726-17:46:42|57=ADMIN|10=022|
1058	8=FIX.4.0|9=68|35=1|49=STAF|56=BRAS|34=1058|52=20000726-17:47:00|57=ADMIN|112=TEST|10=037|
1059	8=FIX.4.0|9=59|35=0|49=STAF|56=BRAS|34=1059|52=20000726-17:47:20|57=ADMIN|10=021|
1060	8=FIX.4.0|9=59|35=0|49=STAF|56=BRAS|34=1060|52=20000726-17:47:40|57=ADMIN|10=015|
1061	8=FIX.4.0|9=59|35=0|49=STAF|56=BRAS|34=1061|52=20000726-17:48:00|57=ADMIN|10=013|
1062	8=FIX.4.0|9=59|35=0|49=STAF|56=BRAS|34=1062|52=20000726-17:48:20|57=ADMIN|10=016|
1063	8=FIX.4.0|9=68|35=1|49=STAF|56=BRAS|34=1063|52=20000726-17:48:24|57=ADMIN|112=TEST|10=040|
1064	8=FIX.4.0|9=81|35=0|49=STAF|56=BRAS|34=1064|52=20000726-17:48:28|57=ADMIN|112=20000726-17:48:24|10=083|
1065	8=FIX.4.0|9=59|35=0|49=STAF|56=BRAS|34=1065|52=20000726-17:48:48|57=ADMIN|10=029|
1066	8=FIX.4.0|9=59|35=0|49=STAF|56=BRAS|34=1066|52=20000726-17:49:08|57=ADMIN|10=027|
1067	8=FIX.4.0|9=59|35=0|49=STAF|56=BRAS|34=1067|52=20000726-17:49:28|57=ADMIN|10=030|
1068	8=FIX.4.0|9=59|35=0|49=STAF|56=BRAS|34=1068|52=20000726-17:49:48|57=ADMIN|10=033|
1069	8=FIX.4.0|9=81|35=0|49=STAF|56=BRAS|34=1069|52=20000726-17:49:53|57=ADMIN|112=20000726-17:49:50|10=087|
1070	8=FIX.4.0|9=59|35=0|49=STAF|56=BRAS|34=1070|52=20000726-17:50:14|57=ADMIN|10=011|
1071	8=FIX.4.0|9=59|35=0|49=STAF|56=BRAS|34=1071|52=20000726-17:50:34|57=ADMIN|10=014|
1072	8=FIX.4.0|9=59|35=0|49=STAF|56=BRAS|34=1072|52=20000726-17:50:54|57=ADMIN|10=017|
1073	8=FIX.4.0|9=59|35=0|49=STAF|56=BRAS|34=1073|52=20000726-17:51:14|57=ADMIN|10=015|
1074	8=FIX.4.0|9=59|35=0|49=STAF|56=BRAS|34=1074|52=20000726-17:51:34|57=ADMIN|10=018|
1075	8=FIX.4.0|9=59|35=0|49=STAF|56=BRAS|34=1075|52=20000726-17:51:54|57=ADMIN|10=021|
1076	8=FIX.4.0|9=59|35=0|49=STAF|56=BRAS|34=1076|52=20000726-17:52:14|57=ADMIN|10=019|
1077	8=FIX.4.0|9=59|35=0|49=STAF|56=BRAS|34=1077|52=20000726-17:52:34|57=ADMIN|10=022|
1078	8=FIX.4.0|9=59|35=0|49=STAF|56=BRAS|34=1078|52=20000726-17:52:54|57=ADMIN|10=025|
1079	8=FIX.4.0|9=68|35=1|49=STAF|56=BRAS|34=1079|52=20000726-17:52:58|57=ADMIN|112=TEST|10=049|
1080	8=FIX.4.0|9=59|35=0|49=STAF|56=BRAS|34=1080|52=20000726-17:53:18|57=ADMIN|10=019|
1081	8=FIX.4.0|9=59|35=0|49=STAF|56=BRAS|34=1081|52=20000726-17:53:38|57=ADMIN|10=022|
1082	8=FIX.4.0|9=59|35=0|49=STAF|56=BRAS|34=1082|52=20000726-17:53:58|57=ADMIN|10=025|
1083	8=FIX.4.0|9=59|35=0|49=STAF|56=BRAS|34=1083|52=20000726-17:54:18|57=ADMIN|10=023|
1084	8=FIX.4.0|9=59|35=0|49=STAF|56=BRAS|34=1084|52=20000726-17:54:38|57=ADMIN|10=026|
1085	8=FIX.4.0|9=59|35=0|49=STAF|56=BRAS|34=1085|52=20000726-17:54:58|57=ADMIN|10=029|
1086	8=FIX.4.0|9=59|35=0|49=STAF|56=BRAS|34=1086|52=20000726-17:55:18|57=ADMIN|10=027|
1087	8=FIX.4.0|9=59|35=0|49=STAF|56=BRAS|34=1087|52=20000726-17:55:38|57=ADMIN|10=030|
1088	8=FIX.4.0|9=59|35=0|49=STAF|56=BRAS|34=1088|52=20000726-17:55:58|57=ADMIN|10=033|
1089	8=FIX.4.0|9=59|35=0|49=STAF|56=BRAS|34=1089|52=20000726-17:56:18|57=ADMIN|10=031|
1090	8=FIX.4.0|9=59|35=0|49=STAF|56=BRAS|34=1090|52=20000726-17:56:38|57=ADMIN|10=025|
1091	8=FIX.4.0|9=59|35=0|49=STAF|56=BRAS|34=1091|52=20000726-17:56:58|57=ADMIN|10=028|
1092	8=FIX.4.0|9=68|35=1|49=STAF|56=BRAS|34=1092|52=20000726-17:57:04|57=ADMIN|112=TEST|10=040|
1093	8=FIX.4.0|9=59|35=0|49=STAF|56=BRAS|34=1093|52=20000726-17:57:25|57=ADMIN|10=025|
1094	8=FIX.4.0|9=59|35=0|49=STAF|56=BRAS|34=1094|52=20000726-17:57:45|57=ADMIN|10=028|
1095	8=FIX.4.0|9=59|35=0|49=STAF|56=BRAS|34=1095|52=20000726-17:58:05|57=ADMIN|10=026|
1096	8=FIX.4.0|9=68|35=1|49=STAF|56=BRAS|34=1096|52=20000726-17:58:09|57=ADMIN|112=TEST|10=050|
1097	8=FIX.4.0|9=81|35=0|49=STAF|56=BRAS|34=1097|52=20000726-17:58:22|57=ADMIN|112=20000726-17:58:18|10=088|
1098	8=FIX.4.0|9=59|35=0|49=STAF|56=BRAS|34=1098|52=20000726-17:58:43|57=ADMIN|10=031|
1099	8=FIX.4.0|9=59|35=0|49=STAF|56=BRAS|34=1099|52=20000726-17:59:03|57=ADMIN|10=029|
1100	8=FIX.4.0|9=59|35=0|49=STAF|56=BRAS|34=1100|52=20000726-17:59:23|57=ADMIN|10=014|
1101	8=FIX.4.0|9=59|35=0|49=STAF|56=BRAS|34=1101|52=20000726-17:59:43|57=ADMIN|10=017|
1102	8=FIX.4.0|9=68|35=1|49=STAF|56=BRAS|34=1102|52=20000726-17:59:57|57=ADMIN|112=TEST|10=042|
1103	8=FIX.4.0|9=59|35=0|49=STAF|56=BRAS|34=1103|52=20000726-18:00:17|57=ADMIN|10=007|
1104	8=FIX.4.0|9=59|35=0|49=STAF|56=BRAS|34=1104|52=20000726-18:00:37|57=ADMIN|10=010|
1105	8=FIX.4.0|9=59|35=0|49=STAF|56=BRAS|34=1105|52=20000726-18:00:57|57=ADMIN|10=013|
1106	8=FIX.4.0|9=68|35=1|49=STAF|56=BRAS|34=1106|52=20000726-18:01:01|57=ADMIN|112=TEST|10=023|
1107	8=FIX.4.0|9=81|35=0|49=STAF|56=BRAS|34=1107|52=20000726-18:01:19|57=ADMIN|112=20000726-18:01:16|10=062|
1108	8=FIX.4.0|9=59|35=0|49=STAF|56=BRAS|34=1108|52=20000726-18:01:39|57=ADMIN|10=017|
1109	8=FIX.4.0|9=59|35=0|49=STAF|56=BRAS|34=1109|52=20000726-18:01:59|57=ADMIN|10=020|
1110	8=FIX.4.0|9=59|35=0|49=STAF|56=BRAS|34=1110|52=20000726-18:02:19|57=ADMIN|10=009|
1111	8=FIX.4.0|9=68|35=1|49=STAF|56=BRAS|34=1111|52=20000726-18:02:37|57=ADMIN|112=TEST|10=029|
1112	8=FIX.4.0|9=59|35=0|49=STAF|56=BRAS|34=1112|52=20000726-18:02:57|57=ADMIN|10=013|
1113	8=FIX.4.0|9=68|35=1|49=STAF|56=BRAS|34=1113|52=20000726-18:03:01|57=ADMIN|112=TEST|10=023|
1114	8=FIX.4.0|9=59|35=0|49=STAF|56=BRAS|34=1114|52=20000726-18:03:21|57=ADMIN|10=007|
1115	8=FIX.4.0|9=59|35=0|49=STAF|56=BRAS|34=1115|52=20000726-18:03:41|57=ADMIN|10=010|
1116	8=FIX.4.0|9=68|35=1|49=STAF|56=BRAS|34=1116|52=20000726-18:03:45|57=ADMIN|112=TEST|10=034|
1117	8=FIX.4.0|9=59|35=0|49=STAF|56=BRAS|34=1117|52=20000726-18:04:05|57=ADMIN|10=013|
1118	8=FIX.4.0|9=59|35=0|49=STAF|56=BRAS|34=1118|52=20000726-18:04:25|57=ADMIN|10=016|
1119	8=FIX.4.0|9=59|35=0|49=STAF|56=BRAS|34=1119|52=20000726-18:04:45|57=ADMIN|10=019|
1120	8=FIX.4.0|9=68|35=1|49=STAF|56=BRAS|34=1120|52=20000726-18:04:59|57=ADMIN|112=TEST|10=035|
1121	8=FIX.4.0|9=59|35=0|49=STAF|56=BRAS|34=1121|52=20000726-18:05:19|57=ADMIN|10=014|
1122	8=FIX.4.0|9=59|35=0|49=STAF|56=BRAS|34=1122|52=20000726-18:05:39|57=ADMIN|10=017|
1123	8=FIX.4.0|9=68|35=1|49=STAF|56=BRAS|34=1123|52=20000726-18:05:41|57=ADMIN|112=TEST|10=030|
1124	8=FIX.4.0|9=59|35=0|49=STAF|56=BRAS|34=1124|52=20000726-18:06:01|57=ADMIN|10=009|
1125	8=FIX.4.0|9=59|35=0|49=STAF|56=BRAS|34=1125|52=20000726-18:06:21|57=ADMIN|10=012|
1126	8=FIX.4.0|9=59|35=0|49=STAF|56=BRAS|34=1126|52=20000726-18:06:41|57=ADMIN|10=015|
1127	8=FIX.4.0|9=59|35=0|49=STAF|56=BRAS|34=1127|52=20000726-18:07:01|57=ADMIN|10=013|
1128	8=FIX.4.0|9=59|35=0|49=STAF|56=BRAS|34=1128|52=20000726-18:07:21|57=ADMIN|10=016|
1129	8=FIX.4.0|9=68|35=1|49=STAF|56=BRAS|34=1129|52=20000726-18:07:25|57=ADMIN|112=TEST|10=040|
1130	8=FIX.4.0|9=59|35=0|49=STAF|56=BRAS|34=1130|52=20000726-18:07:45|57=ADMIN|10=015|
1131	8=FIX.4.0|9=59|35=0|49=STAF|56=BRAS|34=1131|52=20000726-18:08:05|57=ADMIN|10=013|
